:020000020000FC
:040000000C94FDCD92
:040020000C94279F76
:040034000C94CCADAF
:0C0050000C9468C10C943FC10C947EC15C
:080070000C949ECA0C9477CA9F
:1000BB00FFFFFFFFFFFFFFFFFFFFFFFFFFFFFFFF45
:1000CB00FFFFFFFFFFFFFFFFFFEE7A73EE0072747F
:1000DB0013107A746FA0727494B07A75164072759F
:0200EB003B5088
:10210D00FFFFFFFFFFFFFFFFFFFFFFFFFFFFFFFFD2
:10211D00CE0D4B2F5C6824932DFFED7E7006D338CA
:10212D00637C777BF26B6FC53001672BFED7AB7687
:10213D00CA82C97DFA5947F0ADD4A2AF9CA472C032
:10214D00B7FD9326363FF7CC34A5E5F171D831159F
:10215D0004C723C31896059A071280E2EB27B275C0
:10216D0009832C1A1B6E5AA0523BD6B329E32F8438
:10217D0053D100ED20FCB15B6ACBBE394A4C58CF30
:10218D00D0EFAAFB434D338545F9027F503C9FA804
:10219D0051A3408F929D38F5BCB6DA2110FFF3D2D2
:1021AD00CD0C13EC5F974417C4A77E3D645D197386
:1021BD0060814FDC222A908846EEB814DE5E0BDB80
:1021CD00E0323A0A4906245CC2D3AC629195E479B7
:1021DD00E7C8376D8DD54EA96C56F4EA657AAE0811
:1021ED00BA78252E1CA6B4C6E8DD741F4BBD8B8AAC
:1021FD00703EB5664803F60E613557B986C11D9E12
:10220D00E1F8981169D98E949B1E87E9CE5528DF88
:10221D008CA1890DBFE6426841992D0FB054BB16B4
:10222D0001020408102040801B3620020F38485B45
:10223D004884482880040000E42C002D2A8C041AC0
:10224D002D592D752D2C800800000D2E162E2E814A
:10225D000B00004D2B6E2B388608C133C333EC3386
:10226D0046890800007950F1504889080000446AF9
:10227D00BC6A4A030800001D67B8678608086F51DD
:10228D009F517151FF000000000000000000D52695
:10229D00C92703E12798280A6A684C690CA14F6188
:1022AD00500E64692C6A1E5368566820D1489C48AC
:1022BD00237A526C5325F133053428012D062D2A2E
:1022CD00762DA22D2C1B2E202E2E9C2B9F2B31E1FB
:1022DD0028E628328033AB33341D342034361F6169
:1022ED0024613CC928E22A3D36346334460C51340E
:1022FD005148D76AFF6A4A0E682D685046334B33F2
:10230D00522F4A324A540C3311335629332E33642B
:10231D00B028B3288475525D52864A510C528842BA
:10232D005245528A305F185F8B705F6E5F907B33C2
:10233D006333925E4A484A94B42DB92D96CD2DF94A
:10234D002D98B52BB82BFF00000000000000D348DE
:10235D00F7480001003649AA490002003649AA494A
:10236D000003003649AA490A00000000000063314D
:10237D006E310A1403000000F632023303680400C4
:10238D000000273D363D653E713E01ED0400000025
:10239D00FF40A240FB400341A340AE40B940C540C1
:1023AD00D140DD40EC40B441C041010105000000C9
:1023BD00000103070F0F0F0F0F1F3F7FFFFFFFFFE1
:1023CD002C4B334B03160500000074545854A35383
:1023DD00AF53BB538E544654D353C753E454D353C6
:1023ED00E253F153A353AF53FA540655013305008D
:1023FD0000002A5A365A013D05000000FC600861B4
:10240D000147050000007400790083009700A100CA
:10241D00D3003701FF01A100A600B000C400640085
:10242D006400640064007400790083009700A100CB
:10243D00D3003701FF01A100A600B000C400640065
:10244D006400640064001602C7022B03F303160236
:10245D00C7022B03F3031602C7022B03F303160265
:10246D00C7022B03F3031602C7022B03F303160255
:10247D00C7022B03F3031602C7022B03F303160245
:10248D00C7022B03F3034905690AA9142929490534
:10249D00690AA91429294905690AA914292949058F
:1024AD00690AA91429290609C611462346460609B3
:1024BD00C611462346460609C61146234646060959
:1024CD00C61146234646B80B88132823204EB80B59
:1024DD0088132823204EB80B88132823204EB80BC1
:1024ED0088132823204E040BC41344254448040BA1
:1024FD00C41344254448040BC41344254448040B19
:10250D00C4134425444828002D0037004B005500C6
:10251D008700EB00B30155005A006400780082007B
:10252D00B4001801E0014A004F0059006D0077001A
:10253D00A9000D01C80177007C0086009A00A40057
:10254D00D6003A01020205000A00140028003200EC
:10255D006400C8009001046C0E6C03880500000037
:10256D00276D3B6D466C9E6DAA6D02A005000000A7
:10257D00F7712A724D729272D5713270D16EE36E0F
:10258D00B56ED16EE36EF36E196F9D6FC16F056FF2
:10259D002670196F0000D16EE36EB56EEC6F03708F
:1025AD004F731A701B733573F7719272196F0000A8
:1025BD00C573D17301D0050000002C7265712C73A9
:1025CD007776657273696F6E2C002C636D643D7246
:1025DD00657365742C002C636D643D7365742C619B
:1025ED0075746F736C6176656D6F64653D002C63FA
:1025FD006D643D72656365697665636F6E66696767
:10260D006D6F64653D002C7265712C736C61766520
:10261D006D6F64652C002C636D643D007365742CC7
:10262D00006B65793D0072616E646F6D2C006164A5
:10263D00643D00616374646174613D00627573791A
:10264D006C6576656C3D006368616E3D0076697200
:10265D0067696E2C006772703D002C6164643D00EB
:10266D002C6163743D0072656D2C6772703D006462
:10267D006973635F0073656E732C00706169722CF2
:10268D006163747561746F722C0073797374656D09
:10269D002C6163747561746F722C006F6E6C792C84
:1026AD006163747561746F722C006166756E632C55
:1026BD006163743D006166756E632C6772703D00D9
:1026CD002C74706F733D002C6670313D002C66705C
:1026DD00323D002C6670333D006173746174652C5E
:1026ED006163743D002C6670007265715F76657272
:1026FD0073696F6E2C6163743D0076697267696EE4
:10270D005F7366792C6163743D002C696F6D6F6426
:10271D00653D002C636F6E6669676D6F64653D0086
:10272D0076697267696E2C6163743D0076657269B6
:10273D0066792C6163743D0077696E6B2C616374EF
:10274D003D002C6C656E3D007265762C6163743DA9
:10275D000064656C6574652C6163743D00736C6118
:10276D0076652C006D61737465722C0064656C6503
:10277D0074655F616C6C2C00746573742C002C7225
:10278D0065712C006B65792C006164642C00736994
:10279D00642C006163747561746F722C00727373B5
:1027AD00692C006D61785F646973636F766572651E
:1027BD00645F6E6F6465732C006D61785F70616925
:1027CD007265645F6E6F6465732C00616C6C5F6124
:1027DD0064642C002C7265733D006E61636B5F61E8
:1027ED00757468006E6F616E737765720077696ED0
:1027FD006B5F61636B0061636B006E61636B006E99
:10280D0061636B5F61646472006E61636B5F6772BD
:10281D0070006E61636B5F435243006E61636B5F6B
:10282D006170706C695F62757379006E61636B5F67
:10283D0066756C6C006E6F5F6D6F72650053454E03
:10284D00534F525F4556454E54206E6F742068614C
:10285D006E646C656400656F6600656F665F6675B6
:10286D006C6C002C6166756E635F61636B3D002C53
:10287D00726576657273655F61636B3D002C617384
:10288D00746174655F61636B3D002C76657273696D
:10289D006F6E5F61636B3D002C70726F743D002C29
:1028AD0076697267696E5F61636B3D002C76657248
:1028BD006966795F61636B002C525353493D002C5F
:1028CD006368616E3D002C52465F627573792C0012
:1028DD002C31573D002C707265616D626C652C005A
:1028ED002C6B65793D002C616464726573733D00DA
:1028FD002C7379735F69643D002C736C6176656D23
:10290D006F64653D002C6D61785F646973636F76EC
:10291D00657265645F6E6F6465733D002C6D6178E3
:10292D005F7061697265645F6E6F6465733D002CE5
:10293D006163747561746F723D002C73656E733DC8
:10294D00002C737776657273696F6E3D002C72651E
:10295D007365743D737461727475702C002C73748F
:10296D0061636B5F646561642C002C52465F50722D
:10297D006F746F636F6C466174616C4572726F72C8
:10298D000000003F00003B00003F00003B0002EF55
:10299D00000000000002F2000002DF000001000A4A
:1029AD000B0C0D0E0F10111213141516171819729A
:1029BD007373695F6F666600727373695F6F6E0024
:1029CD002C32573D004D6179203133203230313575
:1029DD000031313A30393A343000938198819D81FC
:1029ED00A281A781AC81C081C381C681C881B1811B
:1029FD00D381B681BB81F481F581028222827B81F4
:102A0D007A8190818F8192811E823882AC81000003
:102A1D003F229B2B9B0E9C009CA89A929A779AA979
:102A2D009A9D9A129C459C479C149C169C189CF44C
:102A3D009BB79B1D9C2E9C399C769C829C69200982
:102A4D0000000005018D9C0001979C0501C19C00B3
:102A5D00019A9C05019D9C0001A09C0102A39C0074
:102A6D0001A69C0403B49C0403B59C0001B89C040E
:102A7D0001BB9C0102BE9C462A00502A0000008921
:102A8D001112239B322446AD573665BF74488CC155
:102A9D009D5AAFD3BE6CCAE5DB7EE9F7F88110080D
:102AAD000193331A22A5562C47B7753E64C99C4035
:102ABD008DDBBF52AEEDDA64CBFFF976E802218BE8
:102ACD0030100299132667AF763444BD554AADC315
:102ADD00BC588ED19F6EEBE7FA7CC8F5D983310ACD
:102AED002091121803A7772E66B5543C45CBBD42F5
:102AFD00ACD99E508FEFFB66EAFDD874C904428DA8
:102B0D005316619F702004A9153227BB364CCEC5D4
:102B1D00DF5EEDD7FC6888E1997AABF3BA85520C8C
:102B2D004397711E60A1142805B3373A26CDDE44B4
:102B3D00CFDFFD56ECE9986089FBBB72AA06638F67
:102B4D007214409D512225AB343006B9174EEFC794
:102B5D00FE5CCCD5DD6AA9E3B8788AF19B87730E4C
:102B6D006295501C41A3352A24B1163807CFFF4674
:102B7D00EEDDDC54CDEBB962A8F99A708B08848137
:102B8D00951AA793B62CC2A5D33EE1B7F04008C95C
:102B9D0019522BDB3A644EED5F766DFF7C89940004
:102BAD00859BB712A6ADD224C3BFF136E0C118483C
:102BBD0009D33B5A2AE55E6C4FF77D7E6C0AA583DF
:102BCD00B4188691972EE3A7F23CC0B5D14229CB1C
:102BDD0038500AD91B666FEF7E744CFD5D8BB502C4
:102BED00A499961087AFF326E2BDD034C1C3394AFC
:102BFD0028D11A580BE77F6E6EF55C7C4D0CC6859F
:102C0D00D71EE597F42880A1913AA3B3B2444ACDDB
:102C1D005B5669DF78600CE91D722FFB3E8DD60483
:102C2D00C79FF516E4A9902081BBB332A2C55A4CBB
:102C3D004BD7795E68E11C680DF33F7A2E0EE7875E
:102C4D00F61CC495D52AA1A3B03882B193466BCF9B
:102C5D007A5448DD59622DEB3C700EF91F8FF70643
:102C6D00E69DD414C5ABB122A0B9923083C77B4E7B
:102C7D006AD5585C49E33D6A2CF11E780F436F709D
:102C8D00797269676874A920534F4D465920534195
:102C9D00532028323031302920416C6C2072696705
:102CAD006874732072657365727665640096A4A26C
:102CBD00A402D92700000001A60BA637EB27362E5C
:102CCD00009FA6ABA614A3290000001E2A001E2AF1
:102CDD00001E2A001E2A001E2A000000004E2E0093
:102CED004E2E004E2E000000000000000001000FCF
:102CFD000000F92C000000000000000091020010FF
:102D0D00000A00000B2D0000000000000000B102C1
:102D1D00FFFFFFFFFFFFFFFFFFFFFFFFFFFF35304F
:102D2D003638373432413035FF00000000000000E6
:102D3D0000DF87B88AB8EF91B895B8F28CB88FB824
:102D4D00FF00000000C2BACEBA04322A000000040F
:102D5D0000000000EE047A746FA0EEFF28047A7470
:102D6D006FA0FF01030F9011FF1404C00EFE22038C
:102D7D006F09530400000454040DD949860206F866
:102D8D000400102F7B02021DFF03EE04C00E8632DD
:102D9D0004C00E903204C00EA03204C00EBC32042A
:102DAD00C00ED03204C00EFE32EE04C00E863204C8
:102DBD00C00E903204C00EA03204C00EBC3204C04E
:102DCD000ED03204C00EFE32EE04C00ED03204C05E
:102DDD000EBC3204C00EA03204C00E903204C00EE0
:102DED00863204C00EFE22EE04C00ED03204C00E98
:102DFD00BC3204C00EA03204C00E903204C00E8648
:102E0D003204C00EFE22EE0400002F7BEE040010F3
:102E1D002F7BEEFF01047A746FA004C00EFE220416
:102E2D0000102F7BFF03EE360102342E00B9C4C310
:102E3D00C401AD300000005CC566C501BD300000A9
:102E4D0000EBC660C64EC652C69FC589C57AC5A0E1
:102E5D00C594C5DFC6E1C6E3C6E5C6E7C6E9C64506
:102E6D00C7CFC6B2C76FC5AEC59FC9ABC932C530D6
:102E7D000000000501B6C90001C0C90001C3C905A4
:102E8D000109CA00010FCA0001C6C90001C9C90064
:102E9D0001CCC90403CFC90001D0C90001D3C900B9
:102EAD0001D6C90102D9C90102DCC90001DFC9007F
:102EBD0001E2C90001F0C90401F3C90001F6C9041A
:102ECD0002F9C90410FCC90001FDC9010200CA00C4
:102EDD000103CA000106CA00010CCA040312CA7616
:102EED002E00802E000000000001400000000000B8
:102EFD000000000000400000000000000000000085
:102F0D000000000000000000000155000140050018
:102F1D0000000000000000000000000000000000A4
:102F2D000000000000000000000000F22E00000074
:102F3D0000122F000000000A00000000000A00002F
:102F4D000000000000000000010001000300030A62
:102F5D000000000000442F004A2F00502F000000F9
:102F6D0002020101000000FF036B2F00C4FF0302EA
:042F7D00CC01020081
:10360000DF37F002000000F0010001243600020064
:10361000A236080075367C367F368A367C3695367B
:103620007C369736C72500D72500E32500FB25000B
:103630001326002326002926002E26003326003BD1
:1036400026004026004926005426005A26006226FD
:10365000006726006D26007326006D26007C26007C
:10366000822600882600972600A82600B72600C2DA
:103670002600CD2600D42600DA2600E02600E62625
:1036800000F22600F6260007270017270020270053
:103690002D27003927004527004F27005527005EBA
:1036A00027006A27007127007927008527008B27CC
:1036B000009127009627009B2700A0270082260064
:1036C000AA2700B02700C62700D82700E12700E777
:1036D0002700F12700FA27000328000728000C28FC
:1036E000001628001F28002828003828004228003B
:1036F0004A28006328006728007028007C28008A78
:103700002800972800A52800AC2800B92800C52863
:1037100000CC2800D32800DD2800E22800ED280096
:10372000F32800FD28000629001229002929003C61
:1037300029004729004E29005A29006A29007729C3
:103740000000000000000010101003030303030337
:103750000303030303030303030304040404040433
:103760000404040404040404040430000000000001
:10377000000000000000000000000002013900000D
:1037800001670000E00000000000000001010000EF
:103790000000000000000000020203070200010018
:1037A0000000000000000000000000000000000019
:1037B0000000000000010121007860A360030307FE
:1037C000008C6BB46B070218004C6D776D00000025
:1037D000000000000004322D00D0C7B7C805010F5B
:1037E00000E6C354C406010700D4C410C50000009D
:1037F0000000000000FD2C000F2D0045A30000007C
:1038000000000000000000000000000000000000B8
:04381000000000FFB5
:10460000E091F002F0E0E35DFE4D30E03BBF06914B
:104610000093F002E091F402F0E0E35DFE4D0691BC
:104620000093F402E091F802F0E0E35DFE4D0691A4
:104630000093F802E091FC02F0E0E35DFE4D06918C
:104640000093FC02E091F102F0E0E35DFE4D269163
:1046500020931103E091F502F0E0E35DFE4D069139
:104660000093F102E091F902F0E0E35DFE4D069166
:104670000093F502E091FD02F0E0E35DFE4D06914E
:104680000093F9022093FD02E091F202F0E0E35D75
:10469000FE4D269120931103E091F602F0E0E35DD8
:1046A000FE4D469140931203E091FA02F0E0E35D83
:1046B000FE4D06910093F202E091FE02F0E0E35D10
:1046C000FE4D06910093F6022093FA024093FE02FB
:1046D000E091FF02F0E0E35DFE4D2691209311038F
:1046E000E091FB02F0E0E35DFE4D06910093FF02D6
:1046F000E091F702F0E0E35DFE4D06910093FB02CE
:10470000E091F302F0E0E35DFE4D06910093F702C5
:104710002093F3020895AD01A1E0B3E0E0910E0310
:10472000F0E0E35DFE4D30E03BBF2691E0911303E6
:10473000F0E0E35DFD4D30E03BBF069120270C919A
:1047400002270C9352960C9103950C935197E0918C
:104750000F03F0E0E35DFE4D30E03BBF06911C919E
:1047600010271D93E0911003F0E0E35DFE4D0691EC
:104770001C9110271D93E0910D03F0E0E35DFE4DC9
:1047800006911C9110271D93009101031C91102785
:104790001D93009102031C9110271D9300910303A8
:1047A0001C9110271D93009104031C9110271D9349
:1047B000009105031C9110271D93009106031C9185
:1047C00010271D93009107031C9110271D93009142
:1047D00008031C9110271D93009109031C911027B9
:1047E0001D9300910A031C9110271D9300910B0348
:1047F0001C9110271D9300910C031C9110271C93F2
:10480000DA010895582FE0EFF2E02181308132275C
:1048100003801281032F01270025422F6081622728
:10482000660F307811F08BE16827262E2026308124
:1048300032253083612F4127440F2127207819F03A
:104840002BE1242701C0242F2027318132273183F7
:104850006025660F1025107819F02BE1262701C07E
:10486000262F2027128112271283108113272281DD
:1048700012271027138325816481362F3227078062
:104880001681032F01270025422F6227660F3078FB
:1048900011F08BE16827262E2026348132253483BF
:1048A000612F4127440F2127207819F02BE124277D
:1048B00001C0242F20273581322735836025660FDC
:1048C0001025107819F02BE1262701C0262F20276C
:1048D0001681122716831481132726811227102789
:1048E000178321856085362F322703841285032F95
:1048F00001270025422F6227660F307811F08BE1E7
:104900006827262E2026308532253087612F4127C3
:10491000440F2127207819F02BE1242701C0242FF0
:1049200020273185322731876025660F10251078C2
:1049300019F02BE1262701C0262F202712851227E8
:1049400012871085132722851227102713872585A4
:104950006485362F322707841685032F012700250B
:10496000422F6227660F307811F08BE16827262EE0
:104970002026348532253487612F4127440F212793
:10498000207819F02BE1242701C0242F202735851A
:10499000322735876025660F1025107819F02BE136
:1049A000262701C0262F2027168512271687148553
:1049B00013272685122710271787852F0895E0EFE4
:1049C000F2E00189108110271083028911811027DC
:1049D0001183038912811027128304891381102700
:1049E00013830589148110271483068915811027E4
:1049F00015830789168110271683008D17811027CC
:104A00001783018D108510271087028D11851027BF
:104A10001187038D128510271287048D13851027A7
:104A20001387058D148510271487068D158510278B
:104A30001587078D16851027168700A11785102763
:104A4000178708958A9300E000931303B8DF89E085
:104A5000D7DDD8DE60DEB3DF8A95D1F7D1DD5BDE4E
:104A6000AEDF89910895E0EFF2E00085000F008746
:104A7000018507FF03C00085016000870185000FE5
:104A8000018708951091F90210271093F9020091FF
:104A9000F802003870F0E7DF05E51091F802102702
:104AA0001093F8020BE51091F90210271093F90208
:104AB0000895D9CFBA93AA939A938A932297088399
:104AC0001983C90100E110E0EDE1F1E230E0A1E07D
:104AD000B3E00E9490CF0AE61091070310271093CD
:104AE00007030EEC1091020310271093020301E458
:104AF000109104031027109304030EE810910E0385
:104B0000102710930E030AEF109101031027109342
:104B100001030DE11091080310271093080300E929
:104B200010910F03102710930F0305E510910A034E
:104B3000102710930A030BE4109110031027109311
:104B400010030BE31091090310271093090309E3E5
:104B500010910D03102710930D030AEA10910B0317
:104B6000102710930B030DE01091030310271093EF
:104B7000030307E410910C03102710930C0304E8BF
:104B80001091050310271093050307EE10910603FB
:104B900010271093060356DF40E150E09C0101E02E
:104BA00013E00E9482CF0BDF40E150E020EF32E0C3
:104BB000088119810E9482CF229689919991A991A9
:104BC000B99108959D01D801E0EFF2E005E01D9153
:104BD00011931D9111931C91129711930A95B9F796
:104BE0000C910083D90108959A938A93CA010CD03D
:104BF000E0EFF2E09287838705E504870587068763
:104C00000787899199910895BA93AA939A938A9361
:104C10002297D801922FE0EFF2E000E000870187B1
:104C2000E883F98380E0222381F00C912BDF883028
:104C300030F42C91E881F9812193E883F9838395FD
:104C40001196891790F3983050F408E0091B15E588
:104C5000A881B9811D93A883B9830A95C1F7ACCF08
:104C6000BA93AA938A932497088319834A835B8310
:104C7000822FA0EFB2E000E00093F8020093F90267
:104C800000930003E881F98100810093F002FADECD
:104C9000FD0100890395008B8A95C9F42BC0202F54
:104CA00030E0E881F981E00FF31F0081F901E05164
:104CB000FD4F0083E0910003F0E0E051FD4F0081E3
:104CC000E1DEFD0100890395008B8A9599F0009142
:104CD0000003083020F32091000330E0E881F981DF
:104CE000E20FF31F0081CEDEFD0100890395008BEA
:104CF0008A9589F700910003083068F405E5E09192
:104D00000003F0E0E051FD4F0083FD0100890395B1
:104D1000008B083098F346E050E02A813B811A96D8
:104D20008D010E9482CF24968991A991B99108950D
:104D3000BA93AA939A93229708831983DA01962F3C
:104D400040E150E02881398100EF12E00E9482CFDB
:104D500000E110E0FD01392FA1E0B3E00E9490CF07
:104D600071DE40E150E020EF32E0088119810E94BD
:104D700082CF229623CFBA93AA938A93D801842F05
:104D800040E150E001E013E00E9482CF5BDE813120
:104D900008F080E1482F50E020EF32E08D010E94C2
:104DA00082CF8991A991B99108950E945CCF6A97A9
:104DB0000883D9010C91002321F00A9509F442C01F
:104DC000E4C000E0098311E02F5F3F4F08810E949B
:104DD000DB2E11E09D012E5F3F4F08810E94022FC4
:104DE000FD012381348108810E94542F11E09E012E
:104DF0002F5F3F4F08810E94022F11E09E012F5F1D
:104E00003F4F08810E94022FFD0102810695069501
:104E1000069503700A9569F00A9559F00A9571F4A0
:104E2000158108810E94232FFD01168108810E94AF
:104E3000232FFD01178108810E94232F00E0FD012F
:104E40000187A3C008810E949F2F0A83043108F0C4
:104E500099C008810E94762F98014A8150E08E0106
:104E60000B5F1F4F0E9482CF29850A810E5F0C8342
:104E7000FD0101810830D8F5402F00E810E00E94C4
:104E800050CE0983122F102381F548E00181401B89
:104E90000FEF10E00E9444CE02230E94D2C3000F05
:104EA0000B5FCE01059610E0800F911F4A8150E004
:104EB000401B50409C018C010E5F1F4F0E949ECFF3
:104EC000FD010381FC010083FD010281FC010183DE
:104ED00009811985102B19871C819E012B5F3F4F7B
:104EE00008810E94DB2E00E04EC001E04DC0003181
:104EF00008F046C0022F0E94D2C3000F0B5F098347
:104F0000FE01359610E0E00FF11F2081FD01418187
:104F1000485000E80E9450CE0B83122F102329F72F
:104F200040E10181401B0FEF10E00E9444CE0223BC
:104F30000E94D2C3000F1981010F0395CE0105967F
:104F400010E0800F911F4A8150E0401B50409C01AF
:104F50008C010E5F1F4F0E949ECFFD010381FC015B
:104F60000083FD010281FC0101833B81FE01359636
:104F7000098110E0E00FF11F0081032B0083ACCF0B
:104F800002E002C003E0FD0104836A96E4E00C94B1
:104F900061CF9A938A93912F012F0E94C02E802F68
:104FA000092F0E949F2F843021F4053030F001E05A
:104FB00005C08E3F11F40023D1F700E0899199914B
:104FC00008950E945CCF6A970983C901F9010081A5
:104FD000002319F00A95A1F0A7C000E0088311E0B2
:104FE00001969C0109810E94DB2E11E09E0109813E
:104FF0000E94022F11E09E0109810E94022F94C09D
:1050000009810E949F2F0A83053108F08AC0098117
:105010000E94762F98014A8150E08E010B5F1F4F4E
:105020000E9482CF2E810A8103950C83FC010181AD
:105030000830A0F5402F00E810E00E9450CE088311
:10504000122F102349F548E00181401B0FEF10E0BB
:105050000E9444CE02230E94D2C30E5FDE01159649
:1050600010E0A00FB11F4A8150E0401B50409D014D
:105070008D010F5F1F4F0E949ECFFC0102810C9398
:1050800008811E81102B1E831C819E012B5F3F4FC8
:1050900009810E94DB2E48C001E045C00031F8F5CF
:1050A000022F0E94D2C30E5F0883FE01359610E0E6
:1050B000E00FF11F2081FC014181485000E80E946F
:1050C00050CE0B83122F102339F740E10181401B92
:1050D0000FEF10E00E9444CE02230E94D2C3188139
:1050E000010F0395DE01159610E0A00FB11F4A8154
:1050F00050E0401B50409D018D010F5F1F4F0E94EB
:105100009ECFFC0102810C932B81DE011596088154
:1051100010E0A00FB11F0C91022B0C93B5CF02E051
:1051200002C003E0FC0103836A96E4E00C9461CFC3
:105130009A938A93912F012F0E94C02E802F092FBE
:105140000E949F2F843021F4053030F001E005C02B
:105150008E3F11F40023D1F700E0899199910895D1
:1051600012E00C94DB2E9A938A93912F012F0E94C8
:10517000C02E802F092F0E949F2F853611F401E049
:1051800005C08E3F11F40023D1F700E08991999179
:1051900008959A938A932697902F80E00E947EC26A
:1051A000FE0130E0E80FF31F008383958630B0F3F3
:1051B00016E09E01092F0E94DB2E26968991999177
:1051C000089510E020E030E00C94DB2E9A938A934F
:1051D000912F012F0E94C02E802F092F0E949F2FF8
:1051E0008C3321F4063030F001E005C08E3F11F41D
:1051F0000023D1F700E08991999108950E945CCF36
:1052000029970C831D8329833B834E835F836887A3
:10521000EE81FF81388531963BBF0791179126912A
:1052200032E0739F000D111DF8012BBF06910A8318
:10523000402F50E006E010E00E943CCEF801EE5C0A
:10524000F04D30E03BBFA791B79196910A2F0B2B01
:10525000092B09F450C009810E94C02E0883AD01BA
:10526000692F06D10023E9F147E352E260E00881AB
:1052700049D1C8010F3F0FEF900789F139812D8582
:10528000082F67D1202F0023B9F549E050E08C01A9
:105290000E943CCEF801E65CFD4D30E03BBF27901C
:1052A000369010E02116310639F10881003279F488
:1052B0007D854A8106E00E943CCEE2E3FFE230E0D9
:1052C000E00FF11F33963BBF4791579166913B81A9
:1052D00029810C811D81F1010995202F0DC02BE042
:1052E0000BC010E04E815F8168850881D7D0013006
:1052F00011F420E101C021E0022F2996E5E056C01B
:105300000E945CCF229739834883D801922F82E193
:10531000022F0E94C02E47E352E260E0F3D0A801C2
:105320000F3F0FEF5007C1F009E010E00E943CCEA4
:10533000E7E3F2E230E0E00FF11F35963BBF679103
:10534000769100E06030700739F048813981292F6B
:105350008D01FB010995802F082F26C00E945CCF8C
:10536000C801D901022F0E94C02E47E352E260E03B
:10537000C9D0A8010F3F0FEF5007A9F009E010E0D6
:105380000E943CCEE7E3F2E230E0E00FF11F3796F7
:105390003BBF4791569100E04030500721F09D01FE
:1053A0008C01FA01099501C02296E4E00C9461CFCA
:1053B0000E945DCFA12FC901003221F4012F0E946C
:1053C000C14807C0102F0A2F0E94B42E9C010A2F3B
:1053D00003D0E3E00C9462CF0E945DCFA02FC901FF
:1053E0000E94C02E4AE952E260E0A0D0A8010F3F1F
:1053F0000FEF5007A9F005E010E00E943CCEEAE96B
:10540000F2E230E0E00FF11F31963BBF4791569139
:1054100000E04030500721F09C010A2FFA01099565
:10542000D8CF9A938A93C8010E94C02E4AE952E2CB
:1054300060E07CD0A8010F3F0FEF5007A9F005E016
:1054400010E00E943CCEEAE9F2E230E0E00FF11F0A
:1054500033963BBF4791569100E04030500721F012
:105460008C01FA01099501C000E089919991089594
:10547000142F152B162B09F4A5C0202F2695269541
:10548000269530E0420F531FFA016BBF169107704B
:10549000402F01E00E9429CE012308950E945CCF95
:1054A000229708831983DA01962FFA016BBF869140
:1054B000882331F18A95FD0131969BBF07911791A1
:1054C000269132E0839F000D111DF8012BBF4691FC
:1054D00050E006E010E00E943CCEE2E3FFE230E064
:1054E000E00FF11F2981222309F033963BBF47913A
:1054F000579166910881BCDF0130D1F601E001C00F
:1055000000E052CF9C0180E090E003C00196475F2D
:105510005F4FFA016BBF1691011720F01017B1F71A
:105520008C0102C00FEF1FEFC90108959C0180E0BC
:1055300090E003C001964B5F5F4FFA016BBF16917D
:10554000011720F01017B1F78C0102C00FEF1FEF09
:10555000EBCF0E945CCFA80109E010E00E943CCE96
:10556000A7E3B2E290E0A00FB11FFD0132969BBF0E
:105570000691222339F02A9549F02A9551F02A956F
:1055800051F002C000FB4EF00BE019C001FB2EF001
:10559000FBCF02FBFCCF03FBBEF7032F0E949F2F24
:1055A000FD019BBF1691103309F4085F31962691D7
:1055B000122F1F7327FB01171EF431F700E0F5CE01
:1055C000E8F7E2CF00E00895BA93AA93D801722FCA
:1055D0008A012A2F2B2BB1F0FD0141815281638179
:1055E000FA016BBF0790169020E00216120661F0D8
:1055F0009801172F0C91FA016BBF4791F691E42F98
:10560000099503C00E940A9700E023C0BA93AA93A9
:10561000D801722F8A012A2F2B2BC1F0FD01418165
:1056200052816381FA0132966BBF0790169020E099
:105630000216120669F09801172F0C91FA013296A2
:105640006BBF4791F691E42F099502C00E940A971B
:1056500000C0A991B9910895BA93AA93D801012BDA
:10566000B9F01196ED91FD913C91139738963BBF9F
:1056700047915691399700E010E04030504061F07A
:105680000C9138963BBF4791F691E42F099504C0E1
:105690000E940A9700E010E0DCCF0E945CCF2197C7
:1056A000C801B22FA32F4230A1F01FE2032F0E94A6
:1056B000B42E10E00B2F0E94792F0883AE0125E253
:1056C0008C010E94E42A18810A2F0E94232F00E0F7
:1056D00001C003E02196E4E00C9461CF0E945CCF0E
:1056E000D801922F022F0E944431802F10E0092F01
:1056F0000E94792F002329F00A9559F00A9589F024
:105700001AC0813040E050E011F42AE011C02DE0D1
:105710000FC0813040E050E011F42CE009C02FE0D0
:1057200007C0813040E050E011F42BE001C02EE0D2
:105730008D010E94062BCFCF11E00C94DB2E9A93A3
:105740008A93912F012F0E94C02E802F092F0E9433
:105750009F2F8F3221F4002321F001E003C08E3F00
:10576000D1F300E089919991089511E00C94DB2E1A
:105770009A938A93912F012F0E94C02E802F092F78
:105780000E949F2F893921F4002321F001E003C0FA
:105790008E3FD1F300E08991999108950E945CCFEA
:1057A00029970F83188729834B835C836D837E83BE
:1057B0003A838D859E85AF85B88903E008832B8168
:1057C0003C810981C5D008010FEF0016100601F1D8
:1057D000BA93AA939A938A932E8169857A852F80AA
:1057E0003884AD818B859C8547E050E0002D0E9478
:1057F0003CCEF801E55AFC4D30E03BBF0791F691F5
:10580000E02F322FA1012A2F8C010995088303C0B4
:1058100000E00D930C9308812996E8E002C02696DB
:10582000E4E00C9461CF0E945CCF28970E831F8325
:1058300028834A835B836C837D8339838E859F8530
:10584000A889B9892A813B81088182D008010FEF9C
:105850000016100629F1082F092B11F1BA93AA930B
:105860009A938A93088919891A930A932F816A85D2
:105870007B8528843984AE818C859D8547E050E006
:1058800080010E943CCEF801E35AFC4D30E03BBF62
:105890000791F691E02F322FA1012A2F8C01099553
:1058A0002896EAE0BECF0E945CCF26970C831D832A
:1058B000288339836A837B83CA0142E150E00881EF
:1058C00019810E9456CED80142E150E00881198129
:1058D0000E9456CE412909F01196A81BB90B8D01E3
:1058E0002C813D8142E150E00E943CCE020F131F0B
:1058F0004A815B810E9456CE92CF0E945CCF269750
:105900000C831D83288339836A837B83CA0142E128
:1059100050E0088119810E9456CED80142E150E042
:10592000088119810E9456CE412909F01196A81BC1
:10593000B90B8D012C813D8142E150E00E943CCEAB
:10594000020F131F4A815B810E9456CE8A0167CFE6
:10595000202E732F40E050E006C03BBF06910A3076
:10596000D1F04F5F5F4F07E010E00E943CCEE8E5CA
:10597000F3E230E0E00FF11F3BBF0691021569F73B
:1059800031960791169132970217170731F73BBFEF
:1059900006910A3011F44FEF5FEF8A010895F80184
:1059A000122F0F2B79F0242F0081012E152F41810A
:1059B00052813381FA013BBF4791F691E42F312F99
:1059C000102D099400E008950E945DCF2997C80129
:1059D000A32F423081F019E2032F0E94B42EAE01B2
:1059E00021E18C010E94E42A19E09E010A2F0E9405
:1059F000022F00E001C003E02996E3E00C9462CF9F
:105A0000089510E020E030E00C94DB2E9A938A9306
:105A1000912F012F0E94C02E802F092F0E949F2FAF
:105A2000893221F4093010F001E001C000E08991D1
:105A3000999108959A938A936D97C8010AE2088311
:105A4000022F0E94762F4CE050E098018E010F5FEC
:105A50001F4F0E9482CFAE014F5F5F4F21E08E014A
:105A60000E9430268C010E942C2B980140E150E0CE
:105A70008E01035F1F4F0E9482CF46E09E01235F8D
:105A80003F4F8E010F5F1F4F0E94BB2646E050E044
:105A90009E01295F3F4F8E010F5F1F4F0E946ACF0B
:105AA000012B11F400E001C000E16D9689919991FC
:105AB00008950E945DCF2997C801A32F423081F03D
:105AC0001BE2032F0E94B42EAE0121E18C010E9443
:105AD000E42A19E09E010A2F0E94022F00E001C073
:105AE00003E02996E3E00C9462CF08950E945CCF16
:105AF0002D97902FD9010AE2088380E00E947EC290
:105B0000FE01319630E0E80FF31F00838395863065
:105B1000A8F3AE014F5F5F4F21E08E010E94302657
:105B200046E09D018E01095F1F4F0E94BB261CE0CD
:105B30009E012F5F3F4F092F0E94DB2E2D96E4E040
:105B40000C9461CF9A938A93912F012F0E94C02EBB
:105B5000802F092F0E949F2F8B3221F4093010F0E3
:105B600001E001C000E0A2CF10E020E030E00C94A2
:105B7000DB2E9A938A93912F012F0E94C02E802FA3
:105B8000092F0E949F2F853921F4013110F001E087
:105B900001C000E08991999108950E945CCF2D97F2
:105BA000902FD90106E9088380E00E947EC2FE01A1
:105BB000319630E0E80FF31F008383958630A8F319
:105BC000AE014F5F5F4F21E08E010E94302646E01C
:105BD0009D018E01095F1F4F0E94BB261CE09E01A4
:105BE0002F5F3F4F092F0E94DB2E2D96E4E00C948F
:105BF00061CF9A938A93912F012F0E94C02E802FFC
:105C0000092F0E949F2F873921F4013110F001E004
:105C100001C000E0899199910895423029F01DE278
:105C2000032F0E94B42E13C003E0089540E050E01B
:105C300020E10C94062B10E020E030E00C94DB2EE9
:105C4000012F0E94C02E0D3211F401E0089500E0F2
:105C500008950A3030F4302F0BE713E220E00E9461
:105C6000E1C108958A93802F1DD0202F0C3FB8F4F6
:105C7000402F50E002E210E00E943CCE64E173E06D
:105C8000600F711F482F02E210E00E943CCEE4E159
:105C9000F3E0E00FF11F8B0142E20E9445CF022F9B
:105CA000899108950BE713E220E00E94C7C1402FBD
:105CB0000C3F90F450E002E210E00E943CCEE4E1A0
:105CC000F3E0E00FF11F0181007E08600183028193
:105CD0000C7F028301E00083042F0895402F50E0E1
:105CE00002E210E00E943CCEE4E1F3E0E00FF11F9D
:105CF0000181007E08601EC2AA938A93A02F0E9491
:105D00007831802F0C3F88F40E946F32B80150E048
:105D100025E133E04A2F02E210E00E943CCE200F42
:105D2000311F4EE18B010E9482CF082F8991A991EA
:105D300008959A938A93902FB5DF802F0C3F70F4CB
:105D400025E133E0402F50E002E210E00E943CCE1B
:105D5000200F311F092F0E94F13102C00E940A97C3
:105D6000082F899199910895212F402F50E002E248
:105D700010E00E943CCEF801EC5EFC4F21870895B4
:105D8000402F50E002E210E00E943CCEF801EC5EB1
:105D9000FC4F0185089550E0EAE1F3E0402F02E274
:105DA00010E00E943CCE0E0F1F1F43E00C9482CFE8
:105DB0002AE133E04CC20E945CCF812F402F50E09B
:105DC00002E210E00E943CCEA4E1B3E0A00FB11FBC
:105DD000022F032B11F0882329F4FD010181007E9D
:105DE00008600CC0482F8D01065F1F4F0E9482CFB4
:105DF000FD010181007E885F8F71082B0183E4E043
:105E00000C9461CF0E945CCF812F402F50E002E2C2
:105E100010E00E943CCEA4E1B3E0A00FB11F482FD8
:105E2000FD0101810F71602F8D01060F151F0E5F9F
:105E30001F4F0E9482CFFD011181012F007E180F9C
:105E40001F71012BDBCF3B2F6A2F212F402F50E0FA
:105E500002E210E00E943CCEE4E1F3E0E00FF11F2B
:105E600001810F710850DF01A00FB51F1A962C9306
:105E70001181012F007E13951F71012B0183A62F25
:105E8000B32F0895212F402F50E002E210E00E942E
:105E90003CCEE4E1F3E0E00FF11F22870181007EB8
:105EA000096048C120830895BD01402F50E002E2FF
:105EB00010E00E943CCEE4E1F3E0E00FF11F4181ED
:105EC0004F714850DF01A40FB51F1A963C934395BC
:105ED000DF01A40FB51F1A962C930181102F107E9D
:105EE0000E5F0F71102B1183DB0108952EE133E05B
:105EF000AEC1EEE1F3E030E0E10FF31F402F50E0E0
:105F000002E210E00E943CCEE00FF11F00810895F4
:105F10003B2F6A2F212F402F50E002E210E00E9419
:105F20003CCEE4E1F3E0E00FF11FDF01A20FB51F6B
:105F30001A961C912395E20FF51F0285A0CF402FE2
:105F400050E002E210E00E943CCEE4E1F3E0E00F1A
:105F5000F11F01810F710850118115FD085008953E
:105F6000402F50E002E210E00E943CCEF801EC5ECF
:105F7000FC4F01810F71089520E0E7E1F3E0402F2D
:105F800050E002E210E00E943CCEE00FF11F0081E1
:105F90000023C1F501810023E9F40281102F107C58
:105FA000C9F4002381F10B3310F421E02CC011F46B
:105FB00022E029C00C3311F423E025C00D3311F485
:105FC00024E021C00E3311F425E01DC00F33D9F4B5
:105FD00026E019C002810F730B3311F427E013C0C0
:105FE0000C3311F428E00FC00D3311F429E00BC07D
:105FF0000E3311F42AE007C00F3311F42BE003C075
:106000002CE001C02DE0022F0895212F2170402F98
:1060100050E002E210E00E943CCEF801EC5EFC4F42
:1060200020FB028105F966C0402F50E002E210E03B
:106030000E943CCEF801EC5EFC4F028169C0212F2A
:106040002170402F50E002E210E00E943CCEF801A7
:10605000EC5EFC4F20FB028107F94CC0402F50E062
:1060600002E210E00E943CCEF801EC5EFC4F02819F
:10607000000F00E0001F0895212F2170402F50E0F5
:1060800002E210E00E943CCEF801EC5EFC4F20FBE7
:10609000028106F92FC0402F50E002E210E00E947A
:1060A0003CCEF801EC5EFC4F028106FB32C0402F73
:1060B00050E002E210E00E943CCEE4E1F3E0E00FA9
:1060C000F11F028114E0019F012D0270128116FB65
:1060D00010E010F9012B0895212F2170402F50E07E
:1060E00002E210E00E943CCEF801EC5EFC4F20FB87
:1060F000028102F902830895402F50E002E210E08D
:106100000E943CCEF801EC5EFC4F028102FB01C014
:1061100005FB00E000F90895212F2170402F50E089
:1061200002E210E00E943CCEF801EC5EFC4F20FB46
:10613000018106F901830895402F50E002E210E04A
:106140000E943CCEF801EC5EFC4F0181AECF212FC6
:106150002170402F50E002E210E00E943CCEF80196
:10616000EC5EFC4F20FB018107F9E4CF402F50E0AB
:1061700002E210E00E943CCEF801EC5EFC4F01818F
:1061800077CF212F2170402F50E002E210E00E94D3
:106190003CCEF801EC5EFC4F20FB028104F9AACF53
:1061A000402F50E002E210E00E943CCEF801EC5E8D
:1061B000FC4F028104FBADCF212F2170402F50E016
:1061C00002E210E00E943CCEF801EC5EFC4F20FBA6
:1061D000028103F98FCF402F50E002E210E00E94CD
:1061E0003CCEF801EC5EFC4F028103FB92CF402FC6
:1061F00050E002E210E00E943CCEE4E1F3E0E00F68
:10620000F11F028104FB00E000F9128113FB10E092
:1062100011F960CF212F402F50E002E210E00E94E0
:106220003CCEF801EC5EFC4F278F0895402F50E0E4
:1062300002E210E00E943CCEF801EC5EFC4F078DBC
:10624000089550E0E7E1F3E0A9CD27E133E0402FE6
:1062500050E002E210E00E943CCE020F131F0895AE
:10626000113011F411E001C010E0212F2170402FF6
:1062700050E002E210E00E943CCEF801EC5EFC4FE0
:1062800020FB018105F956CF402F50E002E210E0DB
:106290000E943CCEF801EC5EFC4F018139CF25E134
:1062A00033E0D5CF402F50E002E210E00E943CCE18
:1062B000F801EC5EFC4F0281037008950BE713E2D6
:1062C00020E00C94ACC1212F402F50E002E210E0FE
:1062D0000E943CCEF801EC5EFC4FE4CD402F50E034
:1062E00002E210E00E943CCEF801EC5EFC4F0ECEC4
:1062F0008A9305E813E220E00E94C7C1802F0C3F7B
:1063000018F00E940A970BC021E0402F50E001E2F4
:1063100010E00E943CCEF801E859FB4F2083082F83
:1063200089910895BA93AA93402F20E00330C0F4D6
:1063300050E001E210E00E943CCEA8E6B4E0A00FDD
:10634000B11FFD01E20FF51F50832395213280F329
:10635000042F3DD1FD010181007E0860018302C050
:106360000E940A97A991B99108950E945CCF312F9C
:1063700081E0033018F00E940A9719C0402F50E0C6
:1063800001E210E00E943CCEA8E6B4E0A00FB11FED
:10639000FD0101810F710E3148F4E20FF51F3183C9
:1063A000FD0101810F710E5F201708F080E0082FBA
:1063B000C3C0612F20E030E0402F50E001E210E048
:1063C0000E943CCEE8E6F4E0E00FF11F01810F717E
:1063D000061728F09F01260F351F2F5F3F4F8901B9
:1063E0000895B901033008F0FAC0402F50E001E2EF
:1063F00010E00E943CCE28E634E0200F311FF90166
:1064000041814F7143952F5F3F4F8B010C9482CF99
:10641000402F50E001E210E00E943CCEE8E6F4E0BC
:10642000E00FF11F018106FF08C0028105FF03C0D4
:1064300008EA17E0089506E301C00AE010E00895B5
:10644000402F50E001E210E00E943CCEF801E859F4
:10645000FB4F018508950081089502830895402F20
:1064600050E001E210E00E943CCEF801E859FB4FF9
:1064700001810CC0402F50E001E210E00E943CCEB0
:10648000F801E859FB4F028106FB01C005FB00E063
:1064900000F90895402F50E001E210E00E943CCE48
:1064A000F801E859FB4F0281000F00E0001F08953A
:1064B000402F50E001E210E00E943CCEF801E85984
:1064C000FB4F028104FBE3CF402F50E001E210E0DC
:1064D0000E943CCEF801E859FB4F0281D7CF29E654
:1064E00034E0402F50E001E210E00E943CCE020F69
:1064F000131F08950E945CCF802FFADE202F0C3FDF
:10650000D0F4402F50E001E210E00E943CCEA8E61B
:10651000B4E0A00FB11F482F01E210E00E943CCE72
:1065200068E674E0600F711F8D01FB0141E20E947B
:1065300045CF01E00C93022FE4E00C9461CF0E9460
:106540005CCF212F402F50E001E210E00E943CCEB2
:10655000A8E6B4E0A00FB11FFD01018105FF18C03E
:10656000422F01E210E00E943CCEE8E6F4E0E00FAA
:10657000F11F81818F7190E00196AC0131969F01EE
:1065800011968D010E946ACF012B11F401E001C028
:1065900000E0D2CF2BE634E0A4CF402F50E001E260
:1065A00010E00E943CCEF801E859FB4F01817CCFFE
:1065B000212F2170402F50E001E210E00E943CCEDC
:1065C000F801E859FB4F20FB028105F946CF033063
:1065D00030F4302F05E813E220E00C94E1C10C9474
:1065E0000A9705E813E220E00C94ACC1212F402F5C
:1065F00050E001E210E00E943CCEF801E859FB4F68
:1066000020830895402F50E001E210E00E943CCE2C
:10661000F801E859FB4F1FCF10E020E030E00C9468
:10662000DB2E9A938A93912F012F0E94C02E802FE8
:10663000092F0E949F2F853521F40E3030F001E0A4
:1066400005C08E3F11F40023D1F700E089919991A4
:10665000089510E020E030E00C94DB2E9A938A93AA
:10666000912F012F0E94C02E802F092F0E949F2F53
:10667000873521F4003130F001E005C08E3F11F480
:106680000023D1F700E089919991089510E020E06E
:1066900030E00C94DB2E9A938A93912F012F0E9465
:1066A000C02E802F092F0E949F2F813521F40031A9
:1066B00030F001E005C08E3F11F40023D1F700E077
:1066C0008991999108959A938A93912F012F0E940D
:1066D000C02E802F092F0E949F2F813921F4003175
:1066E00030F001E005C08E3F11F40023D1F700E047
:1066F00089919991089510E020E030E00C94DB2E10
:106700000E945CCF62970983D901F90101810E943F
:10671000762FC8010C910E949F2F08830C910E9434
:10672000762FAC0128812395015010400E9430261D
:10673000FD01228133818E010E5F1F4F0E945A2579
:1067400010E19E012E5F3F4F09810E94DB2E629671
:10675000E4E00C9461CF9A938A93912F012F0E94C9
:10676000C02E802F092F0E949F2F833311F401E048
:1067700005C08E3F11F40023D1F700E08991999173
:10678000089500E008950E945CCF6097C801B22F81
:10679000A32F4230E1F012E3032F0E94B42E8C01AC
:1067A0000E942C2BC8010B2F0E94762FA80127E0F6
:1067B000015010400E9430269C018E010E945A25F3
:1067C00010E19E010A2F0E94DB2E00E001C003E0D1
:1067D0006096E4E00C9461CF40E050E020E20C943D
:1067E000062B0E945DCFA02FF9019181828110813B
:1067F0000E94422F192F0A2F0E94232F182F0A2F91
:106800000E94232FE3E00C9462CF9A938A93912FF6
:10681000012F0E94C02E802F092F0E949F2F8632A9
:1068200021F4053030F001E005C08E3F11F4002363
:10683000D1F700E089919991089512E00C94DB2E34
:106840009A938A93912F012F0E94C02E802F092F97
:106850000E949F2F853321F4002321F001E003C023
:106860008E3FD1F300E08991999108950E945CCF09
:1068700028970983D9010C910E94762FC801FD0148
:1068800003810E949F2F0883FD0103810E94762FC0
:10689000AC0128812395015010400E94302646E02B
:1068A000FD01218132818E010E5F1F4F0E94BB26A8
:1068B00016E09E012E5F3F4F09810E94DB2E289635
:1068C000E4E00C9461CF0E945CCFB02F012FA0E0D8
:1068D0000E94762FC8010B2F0E94762F46E050E0D1
:1068E0009C010E946ACF012B09F4A1E00A2FE8CF96
:1068F000202F04E0EBECF4E011811F3F31F4218301
:1069000042835383648300E00895121741F40280A8
:106910001380248004161506260609F400E0089565
:10692000102F04E0EBECF4E02181211769F40280E0
:106930001380248004161506260631F40FEF018318
:1069400000E00283038304830895EBECF4E00FEF8F
:10695000018300E002830383048301E00083089540
:106960001091CB04113021F412E01093CB040ED01F
:1069700008950091CB04023039F40CEC14E00E942D
:106980001C3501E00093CB0404E008950E945DCF24
:10699000289728833983A02F11E00E948C3011E0C2
:1069A0000A2F0E94A73011E00A2F0E94303128815F
:1069B00039810A2F0E94542F0A2F0E94C02E0033C3
:1069C0000A2F81F40E94D82E0E94E2250CEC14E0DC
:1069D0000E943935C8010A2F0E94762F9C010E941F
:1069E0005A2520C00E949F2F802F0A2F0E94762FA9
:1069F00048815981895F282F015010400E94F42559
:106A00000CEC14E00E943935980146E08E010E5FCF
:106A10001F4F0E94BB2616E09E012E5F3F4F0A2F9C
:106A20000E94022F0A2F0E94E6610A2F0E94292E3F
:106A30002896E3E00C9462CFBA93AA93D801012B75
:106A400099F01196ED91FD913C9113973BBF4791C1
:106A5000569131974030504049F00C913BBF4791DF
:106A6000F691E42F099502C00E940A97A991B99165
:106A70000895BA93AA93D801012BB9F01196ED911C
:106A8000FD913C91139734963BBF479156913597B2
:106A900000E010E04030504061F00C9134963BBF74
:106AA0004791F691E42F099504C00E940A9700E0EF
:106AB00010E0DCCFB2D101E00093D00476C20093A5
:106AC000D004089510E00EE1D3C29A938A93902FD8
:106AD00084E00091D004013009F04CC0092F81D22C
:106AE000033081F4092FA4D1802F002339F400E072
:106AF0000093D10402E00093D0043CC000E0009376
:106B0000D10434C0083051F4092F92D1802F0023D2
:106B1000A9F700E00093D10406E0EDCF013051F475
:106B2000092F86D1802F002349F700E00093D1047C
:106B300003E0E1CF023051F4092F7AD1802F0023F6
:106B4000E9F600E00093D10407E0D5CF043051F41A
:106B5000092F14D2802F002389F600E00093D1047E
:106B600008E0C9CF00E00093D10485E001E0009384
:106B7000D0041BD2082F09C00091D4040E94292EF2
:106B80000FEF0093D404082F2496899199910895CA
:106B90000091D0040250085030F40E948A6101E054
:106BA0000093D00402D208958A9384E01091D00417
:106BB000125089F01A95B9F01A9589F11A9509F4CD
:106BC00040C01A9509F44AC0125009F44DC01A95F4
:106BD00009F456C06BC04FD2013011F405E137D231
:106BE00081E002E061C047D2023039F41091D40450
:106BF00007E13ED280E003E057C0013071F40E940B
:106C0000913A0E947C30002399F405E120D280E083
:106C100001E00093D004C9D149C081E0ECCF2BD270
:106C2000013061F40E94913A0E947C30002369F3A4
:106C300010E009E11DD280E005E036C081E004E00B
:106C400033C019D2033009F30130F9F2043021F4D2
:106C500080E006E1FCD1DCCF81E0EECF0CD2073042
:106C6000A1F283E006E020C006D2023039F4109190
:106C7000D40407E1FDD180E008E016C081E0FCCF3C
:106C8000FAD1023031F41091D40407E1F1D180E05F
:106C90000AC0013039F40E94913A0E947C300023EE
:106CA00039F6B3CF81E009E00093D004082F899131
:106CB000089504E01091D0041250145028F029F0E7
:106CC000125011F01A9511F402C003E0089501E08A
:106CD0000895BA93AA93A0EDB4E00091D004EEE039
:106CE000F0E0FBBFF6E30C9400CF04E1B0D101E08B
:106CF0000093D0045AD126C003E18DD2F8CF009181
:106D0000D1040023C9F362D2FD0101810A950183F8
:106D100004E017C00091D104002371F370D2FD018B
:106D200001810A95018305E00CC004E1E6CF0091E2
:106D3000D104002309F356D2FD0101810A95018394
:106D400009E00083A991B99108951091D0041A9592
:106D500029F0115028F0185010F00895B8CF00E035
:106D600008950091D004035029F0055029F00A95A8
:106D700041F0089563D006C00E94913AECD109E039
:106D800002C05DD204E09BCE08950091D00405308E
:106D900009F485D008950895089508950895BA9343
:106DA000AA93A0EDB4E00091D004025061F00A95DE
:106DB00051F00A9579F00A95C1F0015068F103503D
:106DC00010F0F1F029C003E126D201E00093D004D5
:106DD000ECD022C00091D1040023A9F3F7D1119681
:106DE0000C910A950C9304E015C00091D104002386
:106DF00051F305D211960C910A950C9305E00AC047
:106E00000091D1040023F9F2EDD111960C910A956D
:106E10000C9309E00093D00495CFE0EDF4E000E09E
:106E20000183028303830FEF0483058306830895A0
:106E30001091D2042091D304121BDFC19A938A933C
:106E400024970E94522E802F0C3F38F50E94913AD1
:106E5000902F0091D40408830E947A3A09831A8300
:106E60009B839E01182F0DE30E94D8298C0117D215
:106E70008093D504092F0E942E30002311F403E0E3
:106E800001C000E00093D10414E00091D104101B74
:106E9000082F0E940E62802F01C08FEF6DCE9A9353
:106EA0008A93699782D00E94522E08830E94522EA4
:106EB0000B8308810C3F08F05EC00B810C3F08F08B
:106EC0005AC00E94913A09830E94733A0A8320E0D3
:106ED00030E018810CE30E94D82919810881DFD1A4
:106EE00008810093D40408810D830A8108870A81F0
:106EF0000E94C02E0233F9F409810E94762FC80146
:106F000009810E949F2F0C8309810E94762FAC017A
:106F10002C812395015010400E9430260A810E9446
:106F2000762F98018E01075F1F4F0E945A258E0110
:106F3000075F1F4F02C00E947A3A0E831F839E0193
:106F40002B5F3F4F1B810DE30E94D8290B810093DB
:106F5000D50409810E942E30002311F403E001C002
:106F600000E00093D10414E00091D104101B0881CB
:106F70000E940E6201C00FEF699607CE8A93802FA0
:106F800020E030E0102F01E30E94D8290E946F3AE0
:106F90009801082F0E94CB2E1091D2040091D304A7
:106FA000101B082F0E940E6282CE0091D4040F3F66
:106FB00029F00E94292E0FEF0093D4040091D504EC
:106FC0000F3F29F00E94292E0FEF0093D504009166
:106FD000D6040F3F29F00E94292E0FEF0093D6040C
:106FE00008959A938A93902F80E0112329F0E0ED81
:106FF000F4E012831A9513830C3F20F50E94BC2FF6
:107000000250045058F061F0015000F1045030F08B
:1070100039F00A9529F00A9529F018C083E016C0C6
:1070200082E014C0092F0E94C02E013311F484E0C5
:107030000DC0092F0E94C02E043611F488E006C04E
:1070400081E004C0E0EDF4E08283838393CD20E00F
:1070500030E010E00E9419A60C3F48F40E948EA672
:10706000A80120E030E010E000E00E9493A1089524
:1070700020E030E0EFCF0E945CCF2297088300E051
:10708000098308810E943A32A02F08810E944A3267
:10709000B02F08810E94CA32C8010E946F3A43E0B3
:1070A00050E09C010E946ACF012B09F04FC0AB2732
:1070B00009F04CC008810E942032902F0C3369F4F3
:1070C00008810E94992E0093D4040C3F10F402E032
:1070D0003CC00FEF0093D40439C00D33C9F40091C4
:1070E000D5040C3F98F508810E94992E802F0C3F03
:1070F00068F5102F0091D5040E94112A002311F485
:1071000004E001C003E00983082F0E94292E1EC05D
:107110000E94733A802F0C3FC8F40E944F319801AF
:1071200008810E94F1311091D6041C3F10F4012F08
:1071300002C00E94913A182F0E94112A013031F4A6
:10714000953611F407E001C001E009830981229618
:10715000E4E00C9461CF9A938A932497902F0E9435
:10716000913A802F98830091D40409830E947A3A3F
:107170000A831B830E94522E0093D6040C3F08F50D
:107180009E010E94803312E30091D6040E94B42E27
:10719000182F0091D60483D01091D2040091D3040B
:1071A000101B0091D6040E940E62802F092F0E94AE
:1071B0002E30002321F403E00093D10406C000E048
:1071C000FBCF802F0FEF0093D604D6CC11E00091B7
:1071D000D5040E948C3014E00091D104101B009162
:1071E000D5040BC011E00091D6040E948C3014E04D
:1071F0000091D104101B0091D6040C940E6211E092
:107200000091D4040E948C3014E00091D104101B32
:107210000091D404F2CF8A93802F0E948A6100915A
:10722000D304002349F00A950093D3040E94913AB5
:10723000102F0FE11DDF02C0082F09DF38CD9A9310
:107240008A9324970E94522E802F0C3F30F5909104
:10725000D6040091D40408830E947A3A09831A83E1
:107260009B839E01182F0DE30E94D8298C0117D013
:10727000092F0E942E30002311F403E001C000E02A
:107280000093D1048093D50414E00091D104101B25
:10729000082F0E940E62802F01C08FEF6DCC0E94DC
:1072A0005CCF25970C83188308810E942E300B83B6
:1072B00008810E94D0300A8308810E94EB30B02FF1
:1072C00008810E947C30A02F08810E94163109831A
:1072D0000E946F3AC80108810E94253198010B81F4
:1072E0000A9300E00A930A930D810A93BA93AA9332
:1072F00000E00A9370E0688510E0AC010B850E9405
:107300008339259625CF0E945CCF25974B835C83DC
:107310001A8369837883802FB985AA859F850E9407
:1073200021312B813C81082F0E94CB2E1981082FFF
:107330000E940A311A81082F0E9430311881082FCB
:107340000E948C301B2F082F0E94A7301A2F082F65
:107350000E946C301B85082F0E94DC301C85082F92
:107360000E94C1301D85082F0E9405301E85082F00
:107370000E943C308C010E941F302596EBE00C945B
:1073800061CFE7EDF4E00FEF018300E002830383B8
:1073900004830FEF0787008B01E00083A8C10093EF
:1073A000D7040895E7EDF4E01181101769F4028124
:1073B0001381248104171507260731F40FEF018389
:1073C00000E002830383048308958A932091D70405
:1073D000213081F431D1023029F481E002E00093C0
:1073E000D7040CC0013019F481E003E0F8CF82E04B
:1073F0007ED104C004E00093E40482E0082F899168
:1074000008950091D7040250035030F40E94C8350B
:1074100001E00093D7046BD108950091D704025086
:1074200029F00A95A9F00A95C1F008950091DE04AB
:107430000E941631102F01E07DD0023041F008ED9E
:1074400014E00E94D43B01E00093D70450D108958A
:1074500041D10230A1F702E0A2CF0091DE040E94E8
:107460001631102F01E066D0023049F7F4CF0091B9
:10747000D704035011F00A9541F408ED14E00E947E
:10748000EF3B01E00093D70432D108950091D70477
:10749000035011F00A9541F408ED14E00E94293CD4
:1074A00001E00093D70423D108950091D70402503E
:1074B00029F00A9539F00A9529F0089501E0EAD0FB
:1074C00004E06DCF08ED14E00E940C3C0091E5044F
:1074D0000D3021F401E00093D70409D1089508ED9F
:1074E00014E00C94673C08ED14E00C94493C0091C6
:1074F000E404089508ED14E00C94883C00E008953D
:1075000001E008952091D7042A9529F0215038F000
:10751000235020F004C0FED0102F01C014E0012F32
:107520000895E7EDF4E00081023011F40785089535
:10753000078108950E945CCF24971983802FD7D0AC
:10754000A7EDB4E0882309F055C008ED14E00E94CF
:10755000A93C53E040E0102F28EE34E001E00E9407
:1075600038AB0093EC0400E00093EB040091EC04D2
:10757000002309F450C00E94522E08830C3F08F0EB
:1075800055C00091EB0410E0FD01E00FF11F1189DF
:1075900001E00E9480A7C80100E00A8309810B83F3
:1075A0009E012E5F3F4F188104E60E94D829119654
:1075B0008D010E94673CA80100E00A930A930A9398
:1075C0000A930A930A9301E00A9371E0688510E038
:1075D0009C010F810E9483391091E10408810E946F
:1075E00065350093E40400230881D1F40093E60498
:1075F00002E012C08091EB0490E001960091EC044F
:1076000010E0801790402CF4FD0104890395048B51
:10761000ADCF1093EC040FEF2496E4E00C9461CF0F
:107620000E94292E0FEF0093E604F6CF0FEF009390
:10763000E6040093E404F0CF9A938A932197188389
:10764000902F80E00093DE040E94A5360130C9F43B
:10765000092F0E94BC2F0093E50408810093DF04EA
:1076600070D00091E004002321F000E013D0802FBF
:107670000CC00091E104002341F013E000E05ADF68
:10768000F6CF04E00093E4048FEF082F2196899150
:1076900099910895013089F411E00091DE040E946F
:1076A0001F3010E00091DE040E948C3010E0009149
:1076B000DE040E94A73011E002C01091E0040091A6
:1076C000DE040E9465350093E404002309F418CF1A
:1076D0000FEF089500E01091E104112339F00091BB
:1076E000DE040E941631102F00E024DF089500917F
:1076F000E6040F3F29F00E94292E0FEF0093E604C5
:107700000091E7040F3F29F00E94292E0FEF00930C
:10771000E7040895202F04E0E7EDF4E011811F3F16
:1077200029F42183428353836483E8CE121741F402
:1077300002801380248004161506260609F400E052
:1077400008950091DF04002339F00A9521F10A958C
:1077500029F00A95B1F011C001E01EC008ED14E057
:107760000E94A93C102F01E00E9487AA002329F063
:1077700000E00093E00402E012C000E00093E004A7
:107780000EC008ED14E00E94A93C102F01E00E94F9
:1077900087AA002339F409E00093E00400E0009395
:1077A000E104089505E0E5CFBA93AA93D801012B2F
:1077B00099F01196ED91FD913C9113973BBF479144
:1077C000569131974030504049F00C913BBF479162
:1077D000F691E42F099502C00E940A9757C0BA9308
:1077E000AA93D801012BA9F01196ED91FD913C913E
:1077F000139732963BBF4791569133974030504094
:1078000051F00C9132963BBF4791F691E42F0995C8
:1078100002C00E940A973AC0BA93AA93D801012BDA
:10782000A9F01196ED91FD913C91139734963BBFD1
:107830004791569135974030504051F00C91349615
:107840003BBF4791F691E42F099502C00E940A9729
:107850001DC0BA93AA93D801012BA9F01196ED91FE
:10786000FD913C91139736963BBF479156913797C0
:107870004030504051F00C9136963BBF4791F69105
:10788000E42F099502C00E940A9700C0A991B991FE
:107890000895BA93AA93D801012BA9F01196ED91FE
:1078A000FD913C9113973A963BBF479156913B9778
:1078B0004030504051F00C913A963BBF4791F691C1
:1078C000E42F099503C00E940A970FEFDFCFBA9308
:1078D000AA93D801012BB9F01196ED91FD913C913D
:1078E00013973C963BBF479156913D9700E010E0BF
:1078F0004030504061F00C913C963BBF4791F6916F
:10790000E42F099504C00E940A9700E010E0BECF62
:10791000BA93AA93D801012BB9F01196ED91FD917C
:107920003C9113973E963BBF479156913F9700E09D
:1079300010E04030504061F00C913E963BBF4791C3
:10794000F691E42F099504C00E940A9700E010E028
:107950009DCFBA93AA93D801012BA9F01196ED916E
:10796000FD913C91139770963BBF4791569171974B
:107970004030504051F00C9170963BBF4791F691CA
:10798000E42F099503C00E940A970FEF7FCF0E9452
:107990005CCF21970883DA01962F03E913E220E0F8
:1079A0000E94C7C1802F0C3FB0F4402F50E004E18B
:1079B00010E00E943CCEEDEEF4E0E00FF11F2881D4
:1079C0002183A283B38394830FEF0583028B01E0AD
:1079D0000083082FBED2082F6FC10E945CCF229770
:1079E00048835983C901F90113811F77E881F9811F
:1079F0001083402F50E004E110E00E943CCEADEE39
:107A0000B4E0A00FB11F43E09D012A5F3F4F8C01FE
:107A10000E946ACF012B99F4FC0104811581202F6B
:107A2000212B69F023812F77FD0133853F772317C1
:107A300031F4A881B98111960D931C9306C000E022
:107A4000A881B98111960D930C93229636C1212EEF
:107A50006EEE74E0402F50E004E110E00E943CCE56
:107A6000060F171FA901222D0C943D40212E6EEE0A
:107A700074E0402F50E004E110E00E943CCE060F7D
:107A8000171FA901222D0C946140212F402F50E097
:107A900004E110E00E943CCEF801E351FB4F228B41
:107AA00008950E945CCF802FFA01402F50E004E13E
:107AB00010E00E943CCEADEEB4E0A00FB11F0C91DF
:107AC0000A9529F00A9579F00A9569F015C010E039
:107AD000AF01082F11D1013019F402E00C930CC052
:107AE000082F37D209C0D9011A962D913C9106E092
:107AF0000183508322833383E0C00E945CCF802FB8
:107B0000FA01402F50E004E110E00E943CCEADEEBF
:107B1000B4E0A00FB11F0C910A9529F00A9579F0F5
:107B20000A9569F015C011E0AF01082FE5D00130CA
:107B300019F403E00C930CC0082F0BD209C0D90133
:107B40001A962D913C9106E0018350832283338362
:107B5000B4C00E945CCF802FF9019A011B016C8197
:107B60007D81402F50E004E110E00E943CCEADEE5C
:107B7000B4E0A00FB11F0C910A9529F00A9549F0C5
:107B80000A9591F01AC00381F90100835183528351
:107B900014C07A936A9310E0B101A9019F01082FE4
:107BA00055D1023051F405C00381F901008351839E
:107BB000528301E00C93082FCCD1E6E07FC00E94F5
:107BC0005CCF802FF9019A011B016C817D81402FD0
:107BD00050E004E110E00E943CCEADEEB4E0A00F16
:107BE000B11F0C910A9529F00A9549F00A9569F0A0
:107BF0001AC00381F90100835183528314C00381A9
:107C0000F9010083518352830AC07A936A9311E089
:107C1000B101A9019F01082F19D1023021F401E01F
:107C20000C93082F96D1C9CF402F50E004E110E00B
:107C30000E943CCEF801E351FB4F00810A9529F0E8
:107C40000A9529F00A9529F005C022E003C020E03A
:107C500001C021E0022F0895402F50E004E110E020
:107C60000E943CCEEDEEF4E0E00FF11F00810250E7
:107C700011F00A9521F401E00083042F6AD10895E0
:107C80000E945CCF802F402F50E004E110E00E9462
:107C90003CCEADEEB4E0A00FB11F0C91025011F03C
:107CA0000A9549F48D010F5F1F4F0E94204001E0AB
:107CB0000C93082F4ED101C02196E4E00C9461CFC3
:107CC00003E913E220E00C94ACC1212F402F50E0D7
:107CD00004E110E00E943CCEF801E351FB4F208309
:107CE0000895402F50E004E110E00E943CCEF801DE
:107CF000E351FB4F008108950E945CCF27970A83D0
:107D000048835983C901A12FB0E00A810B830FE892
:107D100013E220E00C831D832E834A2FE82FF32FDC
:107D20002681378114810A812DD1FC0162857385FA
:107D3000002359F0E881F9810183E881F981B0835A
:107D4000E881F981628373837EC0088119810E5FA7
:107D50001F4F1A930A937A936A933A2F608571851D
:107D60004681578124818E01095F1F4F0E94CE2BCF
:107D7000E881F9810183002319F0013009F060C026
:107D8000E881F98102811381012B09F459C04A81EC
:107D900050E004E110E00E943CCEADEEB4E0A00F54
:107DA000B11F43E09C018D010A5F1F4F0E9482CFEB
:107DB000FC010381FD010187FC010481FD010287B3
:107DC000FC0106811781FD0104871587FC010085F0
:107DD0001185FD0106871787E881F98102811381EA
:107DE000FD01008B118BE881F98100810F77008301
:107DF000FD012385022F0078122F1F771F3711F402
:107E0000016004C0122F13951F77012B0387E881AF
:107E1000F98120812078FD0103850F77202BE881EF
:107E2000F98120831A8120E43EE300E00E9452A5FC
:107E3000FD01058326E030E00E9496A5B1E003C075
:107E4000E881F981B0830B2F279637CF0E945CCF52
:107E50002A9708834A835B83688779871983C901D6
:107E6000F90103810F77EA81FB810083488150E0AB
:107E700004E110E00E943CCEADEEB4E0A00FB11FD3
:107E800043E09D012A5F3F4F8C010E946ACF012B86
:107E900009F052C0FC0124813581022F032B09F423
:107EA0004BC003810F77FD0113851F77011709F080
:107EB00043C0EA81FB8121833283FC010481158167
:107EC0000230104028F022E1EE85FF8520830DC0AE
:107ED000FD010089118942E150E00E9456CE042F35
:107EE000012989F3EE85FF85008208810C830FE864
:107EF00013E220E00D831E832F83088519851A93D2
:107F00000A93FC01048115811A930A93FD010089EB
:107F100011891A930A933F81668577854485558533
:107F200022858E01065F1F4F0E94132CFD010581E3
:107F30000E94AEA581E00AC082E020E0EA81FB81D8
:107F400021832283FD0105810E94A3A5082F2A9683
:107F500034CEBA93AA93402F50E004E110E00E947F
:107F60003CCEADEEB4E0A00FB11F15960C91159765
:107F70000C3F28F40E9478A50FEF15960C93A99159
:107F8000B99108950E945CCF219718831901842F1D
:107F900070E060E023E0402F50E004E110E00E9438
:107FA0003CCEEDEEF4E0E00FF11F428903E010E07B
:107FB0000E943CCEF801EE59F04D30E03BBFA79156
:107FC000B7913691FD010AC06395462F50E006E057
:107FD00010E00E943CCEFD01E00FF11F3BBF469137
:107FE0004A3061F1713051F15881451769F7319686
:107FF0000791169132972016310630F333963BBF26
:1080000007911691349702151305F0F220E0082F1E
:10801000882319F00A9541F00EC035963BBF0691B2
:10802000017051F425E008C035963BBF06910270FF
:1080300019F424E001C023E071E0C7CF022F3CCE49
:10804000BA93AA93D801012B99F01196ED91FD9165
:108050003C9113973BBF4791569131974030504028
:1080600049F00C913BBF4791F691E42F099502C06E
:108070000E940A97A991B9910895BA93AA93D80139
:10808000722F8A012A2F2B2BC1F0FD0141815281D1
:108090006381FA0132966BBF0790169020E00216BA
:1080A000120669F09801172F0C91FA0132966BBFF6
:1080B0004791F691E42F099503C00E940A9700E0CA
:1080C000D9CFBA93AA93D801722F8A012A2F2B2BCA
:1080D000C1F0FD01418152816381FA0134966BBF89
:1080E0000790169020E00216120669F09801172FEB
:1080F0000C91FA0134966BBF4791F691E42F0995E4
:1081000002C00E940A97B6CF0E945CCF802FDA018E
:10811000962F03EB13E220E00E94C7C1402F0C3FD3
:1081200078F450E005E110E00E943CCEE1E0F5E09B
:10813000E00FF11F8183A283B383948301E0008366
:10814000042FEFC20895402F50E005E110E00E9497
:108150003CCEF801EF5FFA4F05810895402F50E0C3
:1081600005E110E00E943CCEF801EF5FFA4F068176
:10817000089522E035E0402F50E005E110E00E9434
:108180003CCE020F131F0C94904622E035E0402FA6
:1081900050E005E110E00E943CCE020F131F0C944A
:1081A000AF4622E035E0402F50E005E110E00E94AC
:1081B0003CCE020F131F0C94D046212E62E075E0D6
:1081C000402F50E005E110E00E943CCE060F171F43
:1081D000A901222D0C94F147212E62E075E0402F79
:1081E00050E005E110E00E943CCE060F171FA901E8
:1081F000222D0C94154820E030E010E180C520E0ED
:1082000030E011E1FBCF20E030E012E1F7CF0E9437
:108210005CCF802F402F50E005E110E00E943CCE63
:10822000A1E0B5E0A00FB11F0C91025039F00A9502
:10823000A1F00A95E1F00A9529F10AC0082F07D2AA
:10824000013039F4082F70D20130C9F404E00C93E6
:1082500068C2082F66D401E0FACF082F08D3013096
:10826000C1F7082F17D3013051F405E0F0CF082FE4
:10827000E7D3013071F7082FE4D3013039F3082F29
:108280000CD5E9CF082F61D4013019F7082F5ED43F
:108290000130A9F7EACFBA93AA93402F50E005E145
:1082A00010E00E943CCEA1E0B5E0A00FB11F0C9100
:1082B000013049F4042F6FD0602F023011F401E037
:1082C00001C002E00C9332C0BA93AA93402F50E051
:1082D00005E110E00E943CCEA1E0B5E0A00FB11F87
:1082E0000C91013069F4F9010389FD01048B042F1D
:1082F00001D1602F023011F401E001C003E00C93C2
:1083000015C0BA93AA93402F50E005E110E00E94F7
:108310003CCEA1E0B5E0A00FB11F0C91025004507B
:1083200020F4042FDCD401E00C9301C0062FA991A6
:10833000B9910895BA93AA93402F50E005E110E057
:108340000E943CCEA1E0B5E0A00FB11F0C910250FD
:10835000045020F4042FB3D401E00C93E8CF03EBD6
:1083600013E220E00C94ACC1212F402F50E005E136
:1083700010E00E943CCEF801EF5FFA4F2083089591
:10838000402F50E005E110E00E943CCEF801EF5F85
:10839000FA4F008108950E945CCF61970983C9015B
:1083A00002E008834DE953E260E009810E94823ACD
:1083B000002309F09CC0498150E005E110E00E94D3
:1083C0003CCEA1E0B5E0A00FB11FFC010081FD0192
:1083D0000583FC010181FD010683FC010585FD018A
:1083E0000783FC01068517852089FD01008B118B11
:1083F000228BFC010189FD01038BFC010381FD013E
:108400000087FC0105811681FD0102871387178112
:1084100003890E9480A70E831F838D010F5F1F4F6A
:108420000E9490460C831D83FD01478100891189BC
:108430003289F80136963BBF0791F691E02F042F61
:1084400009950B83FD01178103890E94F4AA0A8311
:10845000FD01178103890E94B4A710E01A931A93B3
:108460001C811A930A93FC01038501FB00E000F9CB
:108470000A93038501700A9300E00A9371E06A850C
:1084800010E04B855C852D853E85FD0105810E94B0
:108490008339FC01028108870381098704810A87E7
:1084A000058116810B871C87078110850D871E8724
:1084B000018512850F87188B9E01285F3F4FFD01B4
:1084C000158106E40E94D829FC011485FD0105816F
:1084D0000E94E5390883023051F44DE953E260E02F
:1084E00009810E94D2390FEFFD01058306830881BF
:1084F000619617C10E945CCF61970983C90102E0B0
:1085000008834DE953E260E009810E94823A00232A
:1085100009F09CC0498150E005E110E00E943CCE8A
:10852000A1E0B5E0A00FB11FFC010081FD010583B2
:10853000FC010181FD010683FC010585FD01078326
:10854000FC01068517852089FD01008B118B228B8C
:10855000FC010189FD01038BFC010381FD01008702
:10856000FC0105811681FD010287138717810389AC
:108570000E9480A70E831F838D010F5F1F4F0E94F3
:1085800090460C831D83FD01478100891189328942
:10859000F80136963BBF0791F691E02F042F09951D
:1085A0000B83FD01178103890E94F4AA0A83FD0150
:1085B000178103890E94B4A710E01A931A931C81B3
:1085C0001A930A93FC01038501FB00E000F90A936A
:1085D000038501700A9300E00A9371E06A8510E058
:1085E0004B855C852D853E85FD0105810E94833983
:1085F000FC01028108870381098704810A870581BC
:1086000016810B871C87078110850D871E870185C2
:1086100012850F87188B9E01285F3F4FFD01158142
:1086200008E40E94D829FC011485FD0105810E94FF
:10863000E5390883023051F44DE953E260E00981E5
:108640000E94D2390FEFFD010583068350CF0E94AF
:108650005CCF80E0402F50E005E110E00E943CCE6E
:10866000A1E0B5E0A00FB11FFD0106810E94C02E60
:108670000734B9F4FD0106810E94762FF8012181AB
:10868000322F222319F03A9551F00CC03281238108
:10869000232B29F411968D010E947B4707C081E0AE
:1086A00005C028E011968D010E943A47082F39C075
:1086B0000E945CCF219710E01883A80105E10E9479
:1086C0003CCEA1E0B5E0A00FB11FFD0106810E94E4
:1086D000C02E0B34F9F4FD0106810E94762FF801BB
:1086E00091818281FD0105810E94762FF801892BFD
:1086F00071F431812281232B29F411968D010E947E
:108700007B470DC011968D010E94984708C001E07B
:10871000088305C028E011968D010E943A47088120
:108720002196E4E00C9461CF0E945CCF2A9710E080
:108730001883A80105E10E943CCEA1E0B5E0A00F9E
:10874000B11FFD0106810E94762FC801F801218129
:10875000022F222319F00A9539F00EC08D010F5F08
:108760001F4F0E94EE4605C08D010F5F1F4F0E94F4
:10877000164709831A832B83FD0101850078FC01CC
:1087800010811F77012BFD010187FC010081000F83
:1087900000E0001FFD0100FB018507F90187FC01D6
:1087A0003281038110E0FD0106873787098101309E
:1087B00019F01D831E8313C042E150E00685132F7C
:1087C0000E9456CEC80142E150E0EA2F0685132FE1
:1087D0000E9456CE412909F001968D839E83EA2F8F
:1087E00006810E946E2EFD0101850C8300E00F833F
:1087F00005810E946E2E11E0FD0105810E948C30E2
:1088000010E0FD0105810E94A73010E0FD01058107
:108810000E941F301A81FD0105810E946C30FD010C
:10882000178103890E94F4AA102FFD0105810E947F
:108830000530FD01178103890E94B4A7102FFD01A7
:1088400005810E94C1309E012C5F3F4FFD011581C3
:108850000AE40E94D8291B81FD0105810E94E539A7
:10886000023011F001E0088308812A965ACF0E9455
:108870005CCF80E0402F50E005E110E00E943CCE4C
:10888000A1E0B5E0A00FB11FFD0106810E94C02E3E
:108890000934EFCE0E945CCFA09710E018830A87BE
:1088A0004FEA53E260E04B875C876D87A80105E1E2
:1088B0000E943CCEA1E0B5E0A00FB11FFD010681F2
:1088C0000E94762FC801F8012181022F222319F07E
:1088D0000A9539F00EC08D010F5F1F4F0E94EE46C2
:1088E00005C08D010F5F1F4F0E9416470F83188729
:1088F0002987FD0101850078FC0110811F77012B7C
:10890000FD010187FC010081000F00E0001FFD0157
:1089100000FB018507F90187FC0132810381FD011C
:108920000687378706810E946E2EFD0105810E9411
:108930006E2E0F81013029F000E00A830B830C8337
:108940003CC042E150E0FD01068517850E9456CEED
:10895000C80142E150E0EA2F068517850E9456CEF5
:10896000412909F001968A839B838E01025F1F4F84
:108970001A930A930C811D811A930A93EA2F068594
:1089800017851A930A9330E064857585428553856F
:1089900020858E01005F1F4F0E94132C8A819B81CE
:1089A0008230904010F002E1CACFFD0106851785A4
:1089B00042E150E00E9456CE0C828E01025F1F4FB2
:1089C0000D831E83FD010185098311E005810E944D
:1089D0008C3010E0FD0105810E94A73010E0FD0100
:1089E00005810E941F301885FD0105810E946C30B1
:1089F000FD01178103890E94F4AA102FFD01058152
:108A00000E940530FD01178103890E94B4A7102F31
:108A1000FD0105810E94C1309E012F5F3F4FFD0186
:108A200015810AE40E94D8291985FD0105810E945B
:108A3000E539023011F001E008830881A09671CE7B
:108A400037CE0E945CCF299780E0402F50E005E1AF
:108A500010E00E943CCEA1E0B5E0A00FB11F8D0157
:108A60000F5F1F4F0E945847088319832A83FD0117
:108A700001850B838E8305810E94762FF801118179
:108A8000028128812A9519F02A9519F005C0015014
:108A900010400C831D8302C08C838D83FD010681F1
:108AA0000E946E2EFD0105810E946E2E11E0FD01D7
:108AB00005810E948C3010E0FD0105810E94A730E5
:108AC00010E0FD0105810E941F301981FD01058123
:108AD0000E946C30FD01178103890E94F4AA102FB7
:108AE000FD0105810E940530FD01178103890E9467
:108AF000B4A7102FFD0105810E94C1309E012D5F9A
:108B00003F4FFD0115810AE40E94D8291A81FD0119
:108B100005810E94E539023009F081E0082F29968D
:108B200000CE202F402F50E005E110E00E943CCE07
:108B3000E1E0F5E0E00FF11F0FEF058306834DE95B
:108B400053E260E0022F0C94D239B2CD0E945CCF88
:108B50006F9780E009874FEA53E260E04A875B87BE
:108B60006C87402F50E005E110E00E943CCEA1E070
:108B7000B5E0A00FB11F8D010F5F1F4F0E94584736
:108B80000E831F832887FD010185088305810E94CC
:108B9000762FF801118102812E812A9519F02A95EC
:108BA00019F005C00150104009831A8302C089835F
:108BB0008A83FD0106810E946E2EFD0105810E94BF
:108BC0006E2E8E01035F1F4F1A930A930B811C8137
:108BD0001A930A93FD01068517851A930A9330E0CC
:108BE000648575854285538520858E01015F1F4F01
:108BF0000E94132C09811A810230180718F002E133
:108C00000B830DC00130104049F4FD010685178526
:108C100042E150E00E9456CE0B8201C08B838E0150
:108C2000035F1F4F0C831D8311E0FD0105810E942E
:108C30008C3010E0FD0105810E94A73010E0FD019D
:108C400005810E941F301F81FD0105810E946C304B
:108C5000FD01178103890E94F4AA102FFD010581EF
:108C60000E940530FD01178103890E94B4A7102FCF
:108C7000FD0105810E94C1309E01FD0115810AE4BC
:108C80000E94D8291885FD0105810E94E53902302E
:108C900009F081E0082F6F9644CD8A93802F41DF41
:108CA00022E035E0482F50E005E110E00E943CCE84
:108CB000020F131F29E00E943A47899108958A9371
:108CC000802F2FDF22E035E0482F50E005E110E053
:108CD0000E943CCE020F131F0E94D447EECF8A930E
:108CE000802F1FDF22E035E0482F50E005E110E043
:108CF0000E943CCE020F131F0E94B747DECF412FC8
:108D0000102F042F0E9419A60C3F48F40E948EA633
:108D1000A80120E030E010E000E00E9493A1089557
:108D2000BA93AA93D801012BA9F01196ED91FD9168
:108D30003C9113973BBF47915691319700E010E06B
:108D40004030504059F00C913BBF4791F691E42FD1
:108D5000099504C00E940A9700E010E005C1BA938B
:108D6000AA93D801012BB9F01196ED91FD913C9198
:108D7000139732963BBF47915691339700E010E02E
:108D80004030504061F00C9132963BBF4791F691D4
:108D9000E42F099504C00E940A9700E010E0E4C0A7
:108DA000BA93AA93D801012BA9F01196ED91FD91E8
:108DB0003C91139734963BBF47915691359740307D
:108DC000504051F00C9134963BBF4791F691E42FFF
:108DD000099503C00E940A970FEFC6C00E945CCF9E
:108DE0000801122FA0E0B0E093E00129C1F0F001EA
:108DF000418152816381FA0136966BBF279036908C
:108E00002A163A0671F0F0010081FA0136966BBF1E
:108E10004791F691E42F0995D801922F02C00E9444
:108E20000A978D01292FE4E00C9461CF0E945CCF5A
:108E30000801122FA0E0B0E093E00129C1F0F00199
:108E4000418152816381FA0138966BBF2790369039
:108E50002A163A0671F0F0010081FA0138966BBFCC
:108E60004791F691E42F0995D801922F02C00E94F4
:108E70000A97D7CFBA93AA93D801122F0B2BA9F038
:108E8000FD01418152813381FA013A963BBF6791DE
:108E900076913B976030704051F00C913A963BBF11
:108EA0004791F691E42F099502C00E940A975CC091
:108EB0000E945CCFA0E0B0E093E0202F212BC1F016
:108EC000F801418152816381FA013C966BBF0790A2
:108ED00016900A161A0671F0F8010081FA013C9604
:108EE0006BBF4791F691E42F0995D801922F02C0EC
:108EF0000E940A9796CFBA93AA93D801012BA9F0A2
:108F00001196ED91FD913C9113973E963BBF479191
:108F100056913F974030504051F00C913E963BBFE8
:108F20004791F691E42F099502C00E940A971CC050
:108F3000BA93AA93D801012BA9F01196ED91FD9156
:108F40003C91139770963BBF479156917197403073
:108F5000504051F00C9170963BBF4791F691E42F31
:108F6000099502C00E940A97A991B9910895BA93F0
:108F7000AA93D801012BA9F01196ED91FD913C9196
:108F8000139772963BBF479156917397403050406C
:108F900051F00C9172963BBF4791F691E42F0995E1
:108FA00002C00E940A97E0CFBA93AA93D801012B7E
:108FB000A9F01196ED91FD913C91139774963BBFEA
:108FC0004791569175974030504051F00C917496EE
:108FD0003BBF4791F691E42F099502C00E940A9782
:108FE000C3CFBA93AA93D801722F8A012A2F2B2BB1
