:020000040044B6
:10200000F87F02209D42450075424500754245001B
:1020100075424500754245007542450000000000CC
:1020200000000000000000000000000075424500B4
:1020300075424500000000007542450075424500AC
:102040000000000000000000000000000000000090
:102050000000000000000000000000000000000080
:102060000000000000000000000000000000000070
:102070000000000000000000000000000000000060
:102080000000000000000000000000000000000050
:102090000000000000000000000000000000000040
:1020A0000000000000000000000000000000000030
:1020B0000000000000000000000000000000000020
:0C20C00000000000000000000000000014
:1021000010B5054C237833B9044B13B10448AFF331
:1021100000800123237010BD7829002000000000FA
:10212000CC2044000C4B43B10C480D4910B5AFF323
:1021300000800C48036823B910BD0A48036833B90E
:102140007047094B002BF7D0BDE810401847064BED
:10215000002BF5D0184700BF00000000CC20440041
:102160007C290020DC1046000000000010B584B07F
:102170001B4C4FF000624FF4C0612046194B98474A
:102180004FF480332361C4F8A03063634FF40043FD
:102190002361C4F8A0306363134B01934FF41653CB
:1021A0000293002303930820104B9847A4F5006482
:1021B00001A920460E4B9847012120460D4B984718
:1021C00020460D4B984720460C4B98470C4BA022BD
:1021D00083F808234FF480721A6004B010BD00BF6A
:1021E000000E0E40A976450000809706AD7A4500A6
:1021F00079894500218A4500D1894500F18945004A
:1022000000E100E010B50A4C00212046094B984738
:10221000102200212046084B98474FF08062074B60
:10222000C3F880211A20064B9847002010BD00BF3C
:1022300000400140098545007785450000E100E048
:10224000257B4500F0B585B005461A4C0021204697
:10225000194B9847194EB6FBF5F61A20184B9847BC
:10226000184D009502AB03AA29463046164FB847D1
:10227000029A42F4804200212046144B9847039A68
:10228000B5FBF2F2B2FBF6F200212046104B984764
:102290004FF080620F4BC3F88021102200212046AE
:1022A0000D4B9847002120460C4B9847002005B065
:1022B000F0BD00BF004001400985450040420F00CD
:1022C000AD7A450000809706AF854500C184450082
:1022D0003D85450000E100E059854500F184450059
:1022E000014B1878704700BF9429002008B5064BB1
:1022F000186838B10021054B9847012814BF002009
:10230000012008BD002008BDD46101202B4D4500EF
:1023100008B5064B186830B1054B9847012814BF23
:102320000020012008BD002008BD00BFD4610120AD
:10233000DB4C450010B582B0002848D10022254969
:102340001A20254B9847254B502283F81A234FF02B
:102350008062C3F880211A60214B009300231A4643
:102360000A212048204CA047204B1860204B0093A6
:1023700000231A460A211F48A0471F4B18601F4B15
:10238000009300231A460A211D48A0471D4B1860E0
:102390001D4B00930023012241F270711B48A0479E
:1023A00004461B4B18601B4B984764230093002383
:1023B000024601212046184CA047184B03F1190191
:1023C000002203F8012F8B42FBD102B010BD144B49
:1023D0009847B3E7552B4400E543450000E100E092
:1023E0002129440030094600D16245005061012096
:1023F000ED284400400946004C610120C1284400FA
:102400005009460048610120312B44006009460014
:102410007C61012061584500356345009F610120C2
:102420006D2144000323034A9375034A9375034ABD
:10243000D3737047BC61012080610120D861012005
:1024400006480023837506498B75064AD37301231A
:10245000037025230B70022313707047BC610120A9
:1024600080610120D861012000EB4103B3F8A43062
:1024700013F4807F12D150F82110642303FB01F381
:102480004FF6E8514FF64C60834288BF0B4608492F
:1024900001EB4202190A517093707047044B03EB31
:1024A0004202FF215170917003229A75704700BF5C
:1024B000BC610120054B1A88806800EB820080B265
:1024C000034AA2FB0020800818807047962900204C
:1024D000CDCCCCCC08B5B0F8A83013F4807F0BD0AD
:1024E0000D4B1B78782B12D90C4BFF225A7400220B
:1024F0009A7403229A7508BD094B9847074B094AFD
:10250000A2FB0020C008587400229A7408BD034B37
:1025100000225A749A7408BD99290020BC610120D8
:10252000B5244400CDCCCCCCB0F8DA3023F4007222
:10253000A0F8DA2013F4807F05D0084B7F221A75AB
:1025400003229A757047C36E054A82FB0312DB179C
:10255000C3EBA203014A1375704700BFBC610120A1
:1025600067666666B0F8D63013F4807F09D1436E93
:102570001BB10122064B5A7570470022044B5A7555
:102580007047034BFF225A7503229A75704700BFAC
:10259000BC610120B0F8CE3013F4807F06D0064B2A
:1025A000FF225A749A7403229A757047426D024B47
:1025B000111259749A74704780610120B0F8AC30E0
:1025C00013F4807F06D0074BFF221A755A75032239
:1025D0009A757047034A03691B1213750369537593
:1025E000704700BF80610120B0F8D03013F4807FC5
:1025F00005D0054BFF22DA7403229A757047826D6D
:10260000014BDA74704700BF8061012030B4046868
:10261000836840F26D1202FB04324568012D0AD036
:102620000F4B05F18040013803EB800053F8041B89
:102630000A448342FAD1022D94BF04F1FF332346AA
:102640000849A1FB0301C80900EB93000244A2EB77
:102650005110A0F53220A0F2755030BC704700BF79
:102660006C0946001F85EB5108B5B0F8E03013F453
:10267000807F04D1B0F8E23013F4807F04D0204B87
:1026800002229A73DA7308BD816FC06F1D4B9847A1
:102690001D4B98471A4B82695A7042699A700169BA
:1026A000D970C1EB011102EB810292B2110A997249
:1026B000DA72C2681A7182685A7142689A71026845
:1026C000120ADA7102681A7200225A720368B3F5AC
:1026D000FA6F0BD383684BB143683BB10B4B984700
:1026E0000130074B020A1A73587303E0044B0022AF
:1026F0001A735A73024B00229A73DA7308BD00BF33
:10270000D8610120DD304400F53044000D2644003E
:1027100008B50220044B98470120044B9847044811
:10272000044B9847FEE700BF352C44007534440045
:1027300000140E40397F4500F8B506461B4B1B7848
:10274000782B02D80133194A1370194B9847194B4B
:1027500098470D250024184FE2B229463046B84765
:1027600001340235042CF7D13046144B984700222F
:10277000134BDA743046134B98473046124B984748
:102780003046124B98473046114B98473046114B14
:1027900098473046104B9847104B9847104B1B7882
:1027A000FF2B00D0F8BD0F4B984700BF99290020A0
:1027B000ED2244004124440069244400D52444000F
:1027C000BC61012065254400292544006926440098
:1027D00095254400E9254400BD254400112344000B
:1027E000982900201127440000295AD02DE9F843E8
:1027F0000D468146821C2B4B1A702B4B98471FFAB3
:1028000089F4002C3CD06B1E264A013C15FA84F456
:1028100013F8011F02F8011FA342F9D1234B984777
:10282000204C21780139C9B22046214B98474C44AD
:1028300060704FF480321F4B1A6309F102090024C3
:10284000A046184F1C4E1D4D395D3046A847002844
:10285000FAD108F101081FFA88F84446C845F3DBAD
:10286000154A536913F0020FFBD0134A536913F44E
:10287000007FFBD04FF480320E4B5A63BDE8F883E3
:102880000A4B9847074C21780139C9B22046084BBA
:10289000984760704FF48032064B1A634FF002097C
:1028A000CDE77047A0610120ED22440011234400D0
:1028B000A52B4400000E0E4000060E40618A450024
:1028C00008B5074908230B7001234B700C238B704C
:1028D0000320044B98470420034B984708BD00BFD2
:1028E00040610120E92744004D34440010B50749F8
:1028F0001720074CA0470520064B98470649102093
:10290000A0470420054B984710BD00BF80610120FF
:10291000E92744003D564500D86101204D3444006C
:1029200010B507491720074CA0470520064B9847CC
:1029300006491020A0470420054B984710BD00BF52
:10294000BC610120E92744003D564500D8610120C3
:102950004D34440030B585B000230393584B1978AB
:102960004B1C272B19DD0022564B1A70544D0023A7
:102970002B70554C21465548554B98472B78E35CB6
:10298000544A1370272B94BF012200224D4B1A701A
:102990005148524B984705B030BD4A4B1B78012B2C
:1029A0001BD0002BE2D0022BF5D14D4B9847444C65
:1029B00021780131C9B22170434D29444348444B29
:1029C000984721782846474B98472378EB5C834209
:1029D00019D000223B4B1A70DDE70131C9B2384CE7
:1029E0002170394B19443948394B98472278394B73
:1029F0001B78023B9A4202DB0222324B1A703648A5
:102A0000364B9847C7E7384B1C68384B984700232C
:102A1000009303AB024607212046354CA0476B7854
:102A2000232B0FD00F2B11D0242B1CD0072B27D0FA
:102A30001C2B32D0262B35D0272BCAD101222D4B6F
:102A40001A70C6E7FF222C4B1A70C2E72B4B1C688A
:102A5000264B98470023009303AB024606212046ED
:102A6000234CA047B5E7264B1C68204B9847002312
:102A7000009303AB0246062120461D4CA047A8E761
:102A8000204B1C68194B98470023009303AB024668
:102A900006212046164CA0479BE71B4910201B4BE4
:102AA000984796E71A4B98471A4926230B70030C50
:102AB0004B70030A8B70C8700420144B984788E74A
:102AC000446101209C6101205461012000060E40F8
:102AD0008B8A45004361012020A107004522440064
:102AE00005224400A52B44007C6101207558450057
:102AF0003563450094290020982900205061012069
:102B00004C61012048610120D8610120E92744007F
:102B1000F97944009861012008B5034B98470022D9
:102B2000024B1A7008BD00BF6D2144009C6101205A
:102B300008B5054B9847012800D008BD034B9847BE
:102B40000520034B9847F8E7097A4400192B440005
:102B50004D34440008B500210548064B984710F055
:102B6000100F00D108BD044B9847044B9847F9E774
:102B70000040014095854500192B44000522440082
:102B800008B50548054B984710F0010F00D108BD66
:102B9000034B9847FBE700BF00060E40538A4500F1
:102BA00055294400D1B110B4421E4B1E50FA83F196
:102BB0000020082401E08A4212D012F8013F584058
:102BC000234610F0800F4FEA4000C0B218BF80F0DB
:102BD000A500013B13F0FF03F3D1ECE70846704773
:102BE00010BC70472DE9F04105460E461746984641
:102BF00000234FF4FA7219460A4800680A4CA047AD
:102C000008B9BDE8F08143463A4631462846074CAC
:102C1000A04700231A46194602480068044CA04702
:102C2000EFE700BFE8610120FD4F4500DD8F450063
:102C3000854D450070B582B00446574B1B68ADF812
:102C400004301B0C8DF806304FF4BA02534B07CA00
:102C500003C31A70012C03D0022C69D002B070BDDE
:102C60009DF80430012B5DD001248DF80440FF2332
:102C70008DF805308DF80630494B98470546C0F36E
:102C80000746464BDB78B3425CD044F00204434B2A
:102C90009B791C2B62D044F00404002CDED000236E
:102CA0004FF4FA7219463F4800683F4CA04700288D
:102CB0005DD13A4C9DF8043023709DF80530637067
:102CC0009DF80630A370E6702B0A237165711C23F2
:102CD000A3716223E371D22323720023032201A98B
:102CE0002D48324DA8470023092221464FF4BA004F
:102CF000A84700234FF4FA7219462A4800682A4C64
:102D0000A0470028AAD000231A4629494FF4BA0048
:102D1000284CA04700231A46194622480068264C32
:102D2000A0479BE79DF80530FF2B9DD10024A3E72A
:102D300002238DF80430FF238DF805308DF806301E
:102D4000012499E7154B1A79C0F307239A429CD1C5
:102D5000124B5A79C3B29A4297D198E70F4BDB795D
:102D6000622B98D10D4B1B7AD22B94D195E700237F
:102D70001A460F494FF4BA00104CA04702214FF4F5
:102D8000BA000F4B984700231A46194605480068B9
:102D9000094CA0478DE700BF00105D009C29002072
:102DA000F9794400E8610120FD4F4500E52B44001E
:102DB000FF1F5D0011914500854D4500A391450021
:102DC0007D8F450000B583B006210020074B984752
:102DD0000190019B2BB10648064B984703B05DF864
:102DE00004FB0120044B9847F8E700BF4D8F4500D6
:102DF00000140E40397F4500352C4400074B1B68FA
:102E0000B3F1FF3F00D0FEE74FF0500383F311888A
:102E1000BFF36F8FBFF34F8FFEE700BFB4010020F9
:102E200006480068006880F3088862B661B6BFF3A0
:102E30004F8FBFF36F8F00DF00BF000008ED00E091
:102E40004FF0807340F8043C40F8081C034B40F8F6
:102E50000C3C40F8202C4038704700BFFD2D44004A
:102E6000074B19680868B0E8F00F80F30988BFF3D2
:102E70006F8F4FF0000080F311884EF00D0E7047F9
:102E80003C5D00204FF0500383F31188BFF36F8F38
:102E9000BFF34F8F084A136801331360BFF34F8F9E
:102EA000BFF36F8F012B05D1044B1B6813F0FF0F8D
:102EB00000D0FEE7704700BFB401002004ED00E041
:102EC000054B1B6803B9FEE7013B034A13600BB9CE
:102ED00083F31188704700BFB4010020EFF309802D
:102EE000BFF36F8F0D4B1A6820E9F00F10602DE9CA
:102EF00008404FF0500080F3118812F07FFD4FF032
:102F0000000080F31188BDE8084019680868B0E83F
:102F1000F00F80F30988BFF36F8F70473C5D00208E
:102F200008B5EFF311834FF0500282F31188BFF31D
:102F30006F8FBFF34F8F054B984718B14FF08052FA
:102F4000034B1A60002383F3118808BD9558450090
:102F500004ED00E0064B1B68064AA2FB03235B0955
:102F6000013B054A13600722044B1A60704700BFFB
:102F7000C41F00201F85EB5114E000E010E000E0CA
:102F800000B583B0224B1A78D2B20192FF221A7098
:102F90001B78DBB28DF803309DF8033003F050034B
:102FA0001C4A137007221C4B1A609DF8033013F063
:102FB000800F10D0062200E00A469DF803305B0027
:102FC000DBB28DF803309DF80330511E13F0800FF3
:102FD000F2D1114B1A60104A13681B0203F4E0632C
:102FE0001360019BDBB20A4A13700C4B1A6842F45F
:102FF00070021A601A6842F070421A60084B9847D3
:103000000022084B1A60084B9847084B984700BFAE
:1030100000E400E0A5290020A829002020ED00E020
:10302000552F4400B4010020212E4400FD2D440002
:10303000EFF305830F2B07D9084A9B5CDBB2084AE4
:1030400012789A4200D9FEE7064B1B6803F4E0634E
:10305000054A1268934200D9FEE77047F0E300E0AA
:10306000A52900200CED00E0A82900200A4A82FBD7
:103070000032C317C3EB2233084A136142F21071C6
:1030800001FB1300064BA3FB00135B095361642192
:1030900001FB130393617047AD8BDB68AC29002003
:1030A0001F85EB510A4A82FB0032C317C3EB223360
:1030B000084A136042F2107101FB1300064BA3FB98
:1030C00000135B095360642101FB13039360704795
:1030D000AD8BDB68AC2900201F85EB5110B50C4689
:1030E000024B98472046024B984710BD6D30440074
:1030F000A530440000487047AC290020FEE70000DE
:1031000008B50248024B984708BD00BF00140E40A6
:10311000397F450010B52B4900202B4CA0472B4987
:103120000120A0472A490220A0472A490320A0479E
:1031300029490420A04729490520A04728490620FD
:10314000A04728490720A04727490B20A047274927
:103150000C20A04726490D20A04726490E20A04755
:1031600025490F20A04725491220A04724491320B4
:10317000A04724491420A04723491520A0472349EC
:103180001620A04722491720A04722491820A0470F
:1031900021491920A04721491C20A04720491D2072
:1031A000A04720491E20A0471F491F20A0471F49B4
:1031B0002020A0471E492120A0471E492220A047C9
:1031C00010BD00BFFD304400C1434500FD30440048
:1031D00031E94400FD30440001314400FD30440039
:1031E000FD304400FD30440035734400FD304400A0
:1031F000FD304400FD3044000DFC4400FD3044002F
:10320000FD304400FD304400FD304400FD304400FA
:10321000FD304400FD304400FD304400FD304400EA
:10322000D94B4400FD304400FD304400FD304400E3
:10323000FD304400FD30440008B50A4B98470A4B66
:1032400098470A4B98470A4B98470A4B98470A4BAE
:1032500098470A4B98470120094B9847094B9847D4
:10326000FEE700BF1531440049334400D57C4400DB
:103270008D32440075334400597E4400A532440029
:103280004D344400AD564500FEE7FEE708B5034A5D
:1032900000210846024B984708BD00BF2D97450006
:1032A0009D33440008B5044B9847012814BF002003
:1032B0000120024B984708BD097A4400913644002A
:1032C00070B504460D4616460B4B9847012807D0AB
:1032D0000A4B1B6873B1324629462046984770BD99
:1032E000074B1B6823B1324629462046984770BDDC
:1032F000002070BD002070BD097A4400D429002050
:10330000C829002070B504460D4616460B4B984759
:10331000012807D00A4B1B6873B132462946204664
:10332000984770BD074B1B6823B13246294620469B
:10333000984770BD002070BD002070BD097A440020
:10334000DC290020D029002010B503220021012013
:10335000054B9847054B186020B100231A461946C3
:10336000034CA047002010BD554C4500E8610120EA
:10337000854D450008B5054B984701280CBF044909
:1033800004490820044B984708BD00BF097A44004F
:10339000812B440025F54400C1434500034B1860D0
:1033A000034B1960034B1A60704700BFC829002007
:1033B000D0290020CC290020034B1860034B196052
:1033C000034B1A60704700BFD4290020DC2900207D
:1033D000D829002010B582B00023124A1370124A77
:1033E000009201220A211148114CA047114B18608C
:1033F000114B984780B90F4B1C68104B98476423BA
:10340000009300230246012120460D4CA0470122D3
:103410000C4B1A7002B010BD4FF040510D200A4BFA
:103420009847E8E7F9610120A53444009C0946006B
:10343000D1624500FC610120097A440061584500D1
:1034400035634500F861012011754500014B187086
:10345000704700BFF961012008B5044B984718B1C7
:103460004FF40052024B5A6308BD00BF097A440072
:10347000000E0E4008B5074B1B783BB1064B984732
:1034800018B14FF40052054B1A6308BD044B98471E
:1034900008BD00BFF8610120097A4400000E0E400B
:1034A0005934440008B54F4A13780133DBB259B29E
:1034B00011704D4A1278052A00F28D80DFE802F083
:1034C00003122642546F0020484B9847FF22454B79
:1034D0001A70474B1B78444A12789A427AD0424A73
:1034E000137008BD022B06D0092B08D01BB1002099
:1034F000404B984762E000203C4B98475EE000203C
:103500003C4B9847FF22374B1A70E2E7092B15D83E
:10351000DFE803F00505050505090909090D002087
:10352000324B98474AE00020324B984746E0002053
:10353000304B9847FF222B4B1A70CAE700202D4BC7
:1035400098473BE02BB1012B07D0FF22254B1A7087
:10355000BFE70020254B984730E00020254B9847D7
:10356000FF22204B1A70B4E7092B14D8DFE803F0D0
:103570000513051305050505050900201B4B984794
:103580001CE000201B4B9847FF22164B1A700122AB
:10359000174B1A709DE70020164B98470EE0312913
:1035A00009DD0020134B9847FF220E4B1A700122B1
:1035B0000F4B1A708DE700200C4B98470C4B1B7873
:1035C000094A12789A4205D0064A92F90020B2F1CF
:1035D000FF3F84D008BD0022034B1A70FF22014B2D
:1035E0001A7076E700620120E0290020753444005B
:1035F000F96101205934440008B50122064B1A70C4
:103600000648074B984710B1064B984708BD03483A
:10361000054B984708BD00BFE12900200462012046
:103620009D834400252444003927440008B50A4BF3
:10363000984700B108BD094B98470028FAD0084BBD
:103640001B78002BF6D00748074B98470022044B05
:103650001A70064B9847EDE7E12244009576440046
:10366000E129002050140E40A58D4500A1764400AC
:10367000064B03F1A60103F1A400002243F8042F36
:1036800021F8022F8342F9D1704700BF0062012068
:10369000F0B583B004461A4B98471A4B984720461A
:1036A000194B9847194B98470120194B9847194BCC
:1036B00000930023012264211748184DA8470446AF
:1036C000174B1860174FB8470A260096002302468A
:1036D00001212046144CA047144B009300230122E3
:1036E00064211348A8470546124B1860B847009656
:1036F0000023024601212846A04703B0F0BD00BFC9
:1037000071364400C52D440035234400D5334400B0
:103710004D344400F9354400B0094600D1624500FB
:10372000FC62012061584500356345002D36440098
:10373000BC09460000630120E8B10346D9B1D2B10B
:1037400070B44FF0FF3008601060D88A42F21076F3
:103750001D7D642404FB05F506FB0050DD7C284438
:103760000860997C587C04FB00F406FB01411B7C3B
:103770000B44136070BC7047F0B50B2A23D8092B9B
:1037800016D8304C54F823E0FF232E4D05EB82056C
:10379000002911DB9DF81440012C4BD000262C6829
:1037A0008C420DD9A5EB82070022DFF898C023E0F8
:1037B0004FF0010E0023E8E749422D26043DEEE7D5
:1037C000B4F1FF3FEED0551EEDB242B1431E441995
:1037D000212103F8011FA342FBD101352844002316
:1037E00003701046F0BD3BB91DE030330370013269
:1037F000D2B2013000231E46BD42F0D02C68A6454F
:1038000028BF00236545EAD055F8044D012C13D09C
:10381000B4F1FF3FE7D0A142E5D300230133DBB28F
:10382000091B8C42FAD9002EDFD006700132D2B2C9
:103830000130DAE72B26C1E7A14228BF0023EDD2F1
:103840000023F0E7DC104600F0B50A2A35D8092B32
:103850002CD8264C54F82370FF23244C54F82240D3
:103860008C4228D91646214D05EB8205A5EB86062C
:103870000022DFF878E0B5422BD02C68A74228BFA1
:103880000023754525D055F8044D012C28D0A142C0
:1038900023D300230133DBB2091B8C42FAD9303326
:1038A00003700132D2B201300023E4E70127002384
:1038B000D3E71646D7E70A2AFBD0561EF6B242B126
:1038C000431E8419212103F8011FA342FBD10136B5
:1038D0003044002303701046F0BD002BCBD1DEE74F
:1038E00000230029DBD00023D4E700BFDC10460012
:1038F000F0B50A2A06D81D4B53F822308B4211D856
:103900000A2A2ED0551EEDB242B1431E4419212180
:1039100003F8011F9C42FBD10135284400230370AA
:103920001046F0BD571EFFB2002AF7D00F4E06EB2F
:103930008206451EBC4607444FF0000E56F8044D63
:103940008C4210D873460133DBB2091BA142FAD274
:10395000303305F8013FAF42F0D10CF101031844B8
:10396000DCE70927E2E77346F2E700BFDC10460018
:10397000002800F0A3802DE9F047044616464A1EB1
:103980004F4B9A422CD92123037043702E22827010
:10399000C370037142718371C371037243720A254C
:1039A000484B9E4253D9212363556A1CD2B2A3547B
:1039B000AA1CD2B23A21A154EA1CD2B2A3542A1DA5
:1039C000D2B2A3546A1DD2B2A154AA1DD2B2A3543A
:1039D00005F10800C0B20735EDB26355BDE8F087C8
:1039E000394B83FB0123CF17C7EB2337BFB242F21A
:1039F000107303FB1711354B83FB01234FEAE17A68
:103A0000CAEB631A5FFA8AFA642303FB1A110222D3
:103A1000C9B2DFF8BC80C047451CEDB24FF02E099B
:103A200004F80090022251466019C0472844C0B2F1
:103A3000451CEDB204F80090042239466019C047D5
:103A40002844C0B2451CEDB220232354A8E71E4BE6
:103A500083FB0623F117C1EB2331C9B242F2107880
:103A600008FB1166194B83FB06234FEAE67ACAEB83
:103A7000631A5FFA8AFA4FF0640808FB1A68022298
:103A80006019134EB0472844C0B2471CFFB24FF034
:103A90003A0904F8009002225146E019B047384430
:103AA000C0B2451CEDB204F8009002225FFA88F122
:103AB0006019B0472844C0B2BDE8F08700207047C5
:103AC0000D744001C7C00300AD8BDB681F85EB514F
:103AD000F1384400531E184492B110B4441EDBB2B6
:103AE000C01A023801F00F03092B94BF303337336B
:103AF00063700909013C8442F4D1104610BC704740
:103B000010467047002313600A2901D9022070472C
:103B100009B330B40378A3F13004E4B2092C1CD803
:103B20000446013950FA81F00025303B2B44A04275
:103B30000DD003EB83035B001D46136014F8013FB7
:103B4000A3F13001C9B20929EFD9012001E01360C6
:103B5000002030BC7047084670470120F9E78A42D0
:103B600018D370B400EB02060ED9531E0344741C24
:103B7000C8431044C0B2C0431D1813F8011904F81B
:103B8000011DAB42F9D106442E2333700132D0B26D
:103B900070BC70471046704771B1494261F0FF0137
:103BA000014410F8013C00F801398842F9D12E2374
:103BB00003700132D0B27047104670470023136083
:103BC000082901D902207047002900F0B4802DE9AE
:103BD000F04F441E013950FA81F019464FF00F0A98
:103BE0004FF00E094FF00D084FF00C0C4FF00B0E7C
:103BF0000A274FF0080B22E001231CE002231AE001
:103C0000032318E0042316E0052314E0062312E042
:103C1000072310E05B460EE009230CE03B460AE078
:103C2000734608E0634606E0434604E04B4602E084
:103C3000534600E00B462B441360A04278D0136833
:103C40001D01156014F8013F303B362B75D801A6D5
:103C500056F823F0353C4400F93B4400FD3B44005A
:103C6000013C4400053C4400093C44000D3C440038
:103C7000113C4400153C4400193C44003B3D4400C9
:103C80003B3D44003B3D44003B3D44003B3D440044
:103C90003B3D44003B3D44001D3C4400213C44006E
:103CA000253C4400293C44002D3C4400313C440068
:103CB0003B3D44003B3D44003B3D44003B3D440014
:103CC0003B3D44003B3D44003B3D44003B3D440004
:103CD0003B3D44003B3D44003B3D44003B3D4400F4
:103CE0003B3D44003B3D44003B3D44003B3D4400E4
:103CF0003B3D44003B3D44003B3D44003B3D4400D4
:103D00003B3D44003B3D44003B3D44003B3D4400C3
:103D10003B3D44003B3D44001D3C4400213C4400ED
:103D2000253C4400293C44002D3C4400313C4400E7
:103D30000020BDE8F08F084670470120BDE8F08FF5
:103D40005A280ED9B42811D9B0F5877F13D9B0F508
:103D5000B47F17D80C4B181A90F83000404200B2CC
:103D600070470A4B184490F830007047084B181AF7
:103D700090F830007047054B184410F8840C40420E
:103D800000B270470020704744124600DC10460025
:103D9000901146005A280DD9B42810D9B0F5877F64
:103DA00014D9B0F5B47F9DBF0C4BC01810F8DE0CD1
:103DB000002070470A4B181A90F830007047074BE4
:103DC000184410F82A0C404200B27047054B181AEC
:103DD00090F83000404200B2704700BFDC1046004F
:103DE00036114600EA1146000246A8B1B0F1804FF4
:103DF0000FD24FF400404FF080439B0840089A4296
:103E0000FBD30423B2FBF0F108444008013BF9D195
:103E100070474FF40040F4E7704700000028BABF35
:103E200040424FF0FF3301230E4A904212DC0E4A0B
:103E300082FB0012C017C0EB621041F28832904240
:103E40000ED80A4A02EB4000B0F88C0010FB03F0D9
:103E500000B27047C3EB0313C3EB03139800704722
:103E60000020704720A107001F85EB51DC104600A1
:103E70002DE9F04D80460C4632B142F2107202FB41
:103E800001F2D317C0E90023B8F80820501EC71765
:103E9000D8F80060D8F8043000FB03F306FB0733C2
:103EA000A6FB00671F44A2464FEAE47B4FEA8B0360
:103EB000A00043EA9471001941EB0B01CB0043EAE7
:103EC0005073C400B4EB0A0063EB0B010B0143EA2F
:103ED0001073010111EB0A0043EB0B010B0143EAE4
:103EE0001073040120461946064C92B20023801933
:103EF0007941A047C8E9000142F210720023A047AF
:103F0000BDE8F08D9DD645002DE9F84F80460C4662
:103F1000994632B142F2107202FB01F2D317C0E9A6
:103F20000023B8F80820501E4FEAE07BD8F8006064
:103F3000D8F8043000FB03F306FB0B33A6FB006745
:103F40001F44A2464FEAE47B4FEA8B03A00043EAFA
:103F50009471001941EB0B01CB0043EA5073C4008C
:103F6000B4EB0A0063EB0B010B0143EA1073010190
:103F700011EB0A0043EB0B010B0143EA1073040140
:103F8000194692B20023A0197941074CA047B9F114
:103F9000000F01D1C8E9000142F210720023024C67
:103FA000A047BDE8F88F00BF9DD6450081B110B491
:103FB000541E4B1E12FA83F2064914F8013F434087
:103FC000DBB231F8133083EA10209442F5D110BCF3
:103FD000704700BF7C38460000B583B08DF80410F0
:103FE0000B0A8DF805300B0C8DF80630090E8DF894
:103FF000071001AA0421024B984703B05DF804FBA7
:10400000AD3F4400044B00F1080113F8012F00F804
:10401000012B8842F9D170470363012001B370B4CA
:10402000441E4B1E50FA83F50023082601E0AC42E3
:1040300010D014F8011F4B40314613F0800F4FEAA7
:10404000430318BF83F03103DBB2013911F0FF01E4
:10405000F3D1ECE79A4214BF0420002070BC7047F3
:104060008A4214BF04200020704700000022014B48
:104070001A707047E729002030B583B02F4B1B78AA
:10408000012B1FD004460D461BB1022B2DD000235F
:104090000DE078B1012811D00023012228494020E9
:1040A000284CA047254A1378013313700023184683
:1040B00003B030BDF522224B1A70EDE7F322204BFE
:1040C0001A70E9E70DF107001F4B984703460028D7
:1040D000EDD0032300221A4940201A4CA047174A6A
:1040E0001378013313700023E1E70DF10700164B3D
:1040F000984703460028DAD003211148134B98470C
:1041000064B1012C11D00E4882780221104B9847DF
:10411000034688B14FF6FF722A80C8E7084A117833
:10412000537803EB01232B80EDE7054A1178537890
:1041300043EA01232B80E6E70123B8E7E7290020C3
:10414000E4290020B1F3440011F444000DF44400CC
:104150001D40440010B44FF6FC73034040F2E240AF
:1041600000FB03F0000C3C3800B20A8822F0010387
:104170009BB20B80054C247824B122F003020A8004
:1041800010BC704743F002030B80F9E70C63012079
:1041900010B44FF6FC73034044F2A44000FB03F05C
:1041A000000CA0F592500D3800B20A8822F00103ED
:1041B0009BB20B80054C247824B122F003020A80C4
:1041C00010BC704743F002030B80F9E70C63012039
:1041D0002DE9F04F87B00C4693460593022900F372
:1041E00082804F4D0138A8478046894604F10C0073
:1041F000A847CDE902014B4F00224B4B40464946B0
:10420000B8474A4EB047464DA847CDE90001484C53
:1042100039A3D3E9002340464946A047DFF828A147
:1042200037A3D3E90023D047B04780460022414B53
:10423000DDE90201A04734A3D3E90023D047B0470A
:104240004044A847804689465846A84702460B4640
:1042500040464946A047CDE902010598A8470022FB
:10426000354BB847804689461098A8470022334B03
:10427000B84702460B4640464946A0478046894615
:104280001198A84722A3D3E90023B84702460B465A
:1042900040464946A04702460B46DDE90201A047D9
:1042A000804689460022264BDDE90001D047B04711
:1042B000A84706460F46234DDDE9002300204FF0B6
:1042C0008041A84702460B4630463946A047024681
:1042D0000B4640464946A0470FA3D3E90023A84711
:1042E00007B0BDE8F08F0E4DA847804689462046AE
:1042F000A847CDE902017EE700000000006CB24053
:104300000000000000D4764061545227A0993E403E
:10431000000000000018F5400000000000D29740A7
:104320004DC945006DCC45000000594079CF45008E
:10433000B5C645000000F03F0000384000809640C0
:104340000000D03FB1C6450019CA4500000000007A
:104350002DE9F04F85B00F9C01940E9C00945C4CAD
:10436000A0474BA3D3E900235A4CA0478046894677
:1043700049A3D3E90023584CA04749A3D3E900231C
:10438000564CA04706460F460022554B554CA047B9
:1043900088B1DFF840B10024514DDFF848A1224632
:1043A0002B4630463946D84706460F4622462B460E
:1043B000D0470028F3D13CA3D3E900234046494627
:1043C000454CA0473AA3D3E90023444CA0470446F8
:1043D0000D460022424BDFF80C81C04798B1DFF850
:1043E000F4B04FF00008DFF8F890DFF8F8A042468C
:1043F0004B4620462946D84704460D4642464B4682
:10440000D0470028F3D1DFF8D0802BA3D3E90023D5
:1044100020462946C047DFF8D4900022324BC847D7
:10442000DFF8CCB0D847CDE90201DFF8B0A02246D2
:104430002B4620462946D0471FA3D3E90023C04777
:104440000022294BC847D84704460D461CA3D3E990
:104450000023DDE90201C04732463B46D04706460D
:104460000F4619A3D3E9002320462946C047024638
:104470000B4630463946D0470FA3D3E90023C04747
:104480000022194BC84705B0BDE8F08FAFF300809C
:10449000000000802CB44241D4658C6A6C8AEF3FE6
:1044A0008FC2F5285C87714072B0EDA3098AEF3F97
:1044B0009CC420B072587640182D4454FB2109400A
:1044C000A4703D0AD7A3FE3F7B14AE47E17A943F28
:1044D000D1414400B1C6450019CA4500B5C64500E2
:1044E0000080764025CF4500008066406DCC4500B9
:1044F000A11445000000000030B583B0079C019472
:10450000069C0094164CA047164D0DA3D3E900233A
:10451000A847154C0CA3D3E90023A04702460B463D
:104520000BA1D1E90001A8470BA3D3E90023A047C1
:1045300000220E4B0E4CA04703B030BDAFF30080FD
:10454000000000802CB4424148AFBC9AF2D79A3E9A
:10455000AAF1D24D62703740182D4454FB21094016
:10456000D1414400B1C6450019CA450000806640EB
:104570006DCC45002DE9F04F83B0804689469246C8
:104580009B460C9C0D9D019500940F4EB04706462E
:104590000F46019500945B465246494640460B4CF7
:1045A000A0470B4CA0478046894630463946A04775
:1045B00002460B4640464946064CA047064B9847E4
:1045C00003B0BDE8F08F00BF51434400F9444400FC
:1045D000A114450019CA45008515450000000000DA
:1045E0002DE9F04F83B01C460023019300932E4D1C
:1045F000A84782468B462D4E0C98B0472C4D002282
:104600002C4BA847804689462046B0472A4C024694
:104610000B4640464946A047804689460D98B0471C
:1046200015A3D3E90023A84702460B464046494656
:10463000A047224E12A3D3E90023B0478046894603
:1046400011A3D3E90023504659461D4FB84710A384
:10465000D3E90023A84710A3D3E90023B04710A350
:10466000D3E90023A04702460B4640464946A047EF
:1046700003B0BDE8F08F00BF000000000020AC4098
:104680009C4D4700370BF03F000000802CB44241A6
:1046900000000000A0D5E140F4893C491AC0A240C6
:1046A000AA0F24EF1CCA1A40D14144004DC945004D
:1046B0006DCC450000004E40B5C6450019CA450006
:1046C000B1C64500000000002DE9784D82468B46BA
:1046D00014461D460022002320462946264EB04798
:1046E000B0B10022002350465946244CA04780BB5D
:1046F0000022002350465946214CA04720B118A162
:10470000D1E90001BDE8788D00200021BDE8788D59
:104710000022002320462946DFF86080C04748B9C0
:1047200022462B4650465946164CA047164B9847F2
:10473000BDE8788D22462B4650465946114CA0477D
:10474000114B984708A3D3E90023104CA047BDE8BC
:10475000788D07A1D1E90001BDE8788DAFF3008025
:10476000182D4454FB21F93F182D4454FB210940D6
:10477000182D4454FB21F9BFE9CE4500FDCE45007C
:1047800039CF45006DCC4500C1104500B5C6450088
:104790002DE9F04F83B08046894692469B460C9E99
:1047A0000D9F01970096144CA04704460D460197B3
:1047B00000965B46524649464046104EB047104E62
:1047C000B04782468B46204629460E4B9847804686
:1047D000894620462946B04704460D4642464B4688
:1047E00050465946084EB04722462B46074CA04734
:1047F00003B0BDE8F08F00BF51434400F9444400CA
:1048000005144500A114450019CA4500C9464400D5
:104810002DE9F04F83B08046894692469B460C9E18
:104820000D9F01970096224CA04704460D46019724
:1048300000965B465246494640461E4EB04780466B
:10484000894600221C4B204629461C4EB04788B1A1
:10485000DFF880B00026184FDFF860A032463B46F4
:1048600020462946D84704460D4632463B46D047A7
:104870000028F3D1124E0022124B20462946B047A1
:10488000DDE90E23104CA04707A3D3E90023B0476E
:1048900000220E4B0E4CA04742464B460D4CA04703
:1048A00003B0BDE8F08F00BF182D4454FB21094030
:1048B000E1454400914744000000384025CF4500C1
:1048C00019CA450000002E40B5C64500008066406C
:1048D0006DCC4500B1C645002DE9F04F8BB004907A
:1048E000894606920893149FDDF85480169E179C03
:1048F000CDF8048000973A4DA84782468B46394B45
:10490000C3E900AB384D85FB0613F017374EC0EBFB
:10491000A340B047CDE90201CDF804800097089B81
:10492000069A49460498324FB847CDE9040185FB01
:104930000430E417C4EBA040B0472E4C26A3D3E9C3
:104940000023A0472C4D00222C4BA84780468946C7
:10495000504659462A4EB047CDE90601DDE904012B
:10496000B047CDE9040140464946B047CDE90801CA
:1049700050465946234EB04782468B4640464946EC
:10498000B04780468946DDE90423DDE90601A047FA
:10499000DDE90823A04706460F4642464B465046EF
:1049A0005946A04702460B4630463946164EB04798
:1049B000164B98470022114BA04707A3D3E90023C9
:1049C000A8470022124BA047124B98470BB0BDE8F6
:1049D000F08F00BFAFF30080182D4454FB21094035
:1049E00075454400F829002083DE1B434DC945006E
:1049F0001148440019CA45006DCC4500008066404E
:104A000005144500A1144500B5C6450085154500AF
:104A10000000244079CF45002DE9F04F8BB080464F
:104A2000894604920693149E159F01970096584C50
:104A3000A04782468B46574BC3E900AB564D1698AC
:104A4000A847564C4CA3D3E90023A047CDE9020167
:104A500001970096069B049A49464046504EB0473F
:104A6000CDE904011798A84743A3D3E90023A04741
:104A70004C4E43A3D3E90023B04700224A4BA04742
:104A800080468946DDE90401484DA847CDE9060185
:104A9000DDE90401464CA047CDE904014046494602
:104AA000A847CDE9080150465946424B98478246EF
:104AB0008B4640464946A04780468946DDE90823A3
:104AC000DDE90401B04704460D4642464B465046D8
:104AD0005946B04702460B4620462946364CA04769
:104AE00002460B46DDE90601344CA04724A3D3E976
:104AF0000023334CA04704460D4600220023314ECC
:104B0000B04700282BD1304BC3E900452E4BD3E9E9
:104B100000451DA3D3E90023204629462B4EB0476C
:104B200048B119A3D3E9002320462946224CA047C7
:104B3000254BC3E900011B4C00221B4B2249D1E944
:104B40000001A0470EA3D3E90023144DA84700227B
:104B50001F4BA0471F4B98470BB0BDE8F08F0AA32F
:104B6000D3E9002320462946154CA047164BC3E93C
:104B70000001CBE7AFF300800000000080842E41ED
:104B8000182D4454FB210940182D4454FB21194091
:104B900075454400F02900204DC945006DCC450005
:104BA0001148440019CA450000806640A114450020
:104BB0000514450029154500B1C64500C946440005
:104BC000B5C64500FDCE4500E829002025CF4500AB
:104BD0000000244079CF4500F8B57748774B9847D7
:104BE00000F04070B0F1807F00D0F8BD7248744B87
:104BF0009847744B1F78744BDC5D002C62D0734A6D
:104C00000123DDB21E46D178A1420FD0013302321A
:104C1000152BF6D10D2F05D900230021694A1170FB
:104C2000002B54D164486A4B9847F8BD674B13F882
:104C300016300B3B072B2ED8664B1B78072B28D83A
:104C4000DFE803F0AB04AD1D1F2123250C25624ACC
:104C50001278042A40F0A88000215F4A11700133C5
:104C600003F0F7035B4A13705C4A4FF0E071516345
:104C70009B050B401363FF2D15D0012445E00E2545
:104C80008EE00F258CE010258AE0112588E01225A2
:104C900086E0FF25DBE7FF2D17D001244E4B1B7864
:104CA000002B32D0DCB1474C2378474AD15C4248D4
:104CB0004B4B984723780133DBB223700D2B06D979
:104CC0000123AAE701240025E8E70124EAE73D4B98
:104CD0001B783D4AD15C3848424B9847A2E7394B94
:104CE0001B780D2B9ED9002397E700213A4A1170BB
:104CF000013303F0F703374A1370384A4FF0E0717D
:104D000051639B050B401363012480B22F46364E3E
:104D10004FF4867303FB056393F80821862101FB9A
:104D2000052106EB4106B6F804E0D3F80411A1EB27
:104D30000E01B0800144C3F8041193F80911013247
:104D400022EA010283F80821284B1B78002BA9D006
:104D50004FF4867303FB05F5234B5B5B834201D95C
:104D6000214A50534FF486731F4A03FB07235B8885
:104D7000834205D24FF486721B4B02FB07377880C3
:104D80001B4B98471B4B1D68451B1B4B9847854287
:104D900088D90022154B1A7084E70B2500E00D25F9
:104DA0000D4A1278042AA0D001320B4B1A70FF2D45
:104DB00095D0002472E700BF008003408F7145004A
:104DC0005D714500012A0020F8094600CC09460023
:104DD000FD704500034000200240002000120E40FC
:104DE0003D7145001D714500042A0020002A002065
:104DF00009EA440004400020399E4400014B188019
:104E0000704700BF00400020014B1888704700BF6A
:104E100000400020002875D00346002972D0002AE7
:104E200070D0F0B538480688A6F6666080B2B0F556
:104E30004D7F50D9D2F8980040F48050C2F89800C5
:104E40004FF480569C1E8D1E03F1280040F2622E06
:104E50002E4F34F8023F06FB03F31B0B0EFB03F34C
:104E6000A7FB03C35B0925F8023F8442F1D14B8ABB
:104E70005B002648A0FB03035B09C2F89030B2F840
:104E8000EC0020F0010080B2A2F8EC00B3F5A07FA6
:104E900028D240F02000A2F8EC00C98C41F69B1308
:104EA00003FB01F31A49A1FB03139B0CC2F89430D6
:104EB000B2F8EE1021F0010189B2A2F8EE106D2BCC
:104EC0001BD9822B87BF41F04001A2F8EE100023CE
:104ED000A2F8EE30F0BDD2F8980020F48050C2F86D
:104EE0009800AFE7B3F5AF7F87BF40F04000A2F86E
:104EF000EC000023A2F8EC30CFE741F02001A2F84B
:104F0000EE10F0BD704700BF004000201F85EB5140
:104F100083DE1B4300285CD0F8B5064600295BD031
:104F2000002A5CD014460D464FF080712D482E4B60
:104F300098472E4B304629462246002427460AE051
:104F400007800F801780013403F586730230023129
:104F50000232152C36D093F80A61D3F8045135414A
:104F600005801D880D805D881580E5B2122DEAD878
:104F700001A656F825F000BF414F4400474F4400BA
:104F8000414F4400474F4400414F4400474F4400C5
:104F9000474F4400474F4400474F4400474F4400A9
:104FA000474F4400474F4400414F4400474F44009F
:104FB000414F4400474F4400414F4400474F440095
:104FC000414F44004FF080710648094B984700203C
:104FD000F8BD6FF0020070476FF00200F8BD6FF08F
:104FE0000200F8BD008003407D714500042A0020C6
:104FF0006B7145002DE9F0411D4800242246082729
:105000000326831E03F5AF5C0CF1190C4FF020084A
:1050100003F5AF5E0EF11A0E10E080F8078105234C
:1050200080F808311AE08CF8008005238EF80030F3
:1050300014E0013400F58670152C17D080F8062195
:10504000C0F80221E5B2A5F10B03DBB2072BE4D9CE
:10505000142DE8D080F8077180F8086100F58071A0
:10506000034623F8022F8B42FBD1E2E7BDE8F08133
:10507000062A0020014B1878704700BF002A002044
:1050800008B50C4B1B789BB90B4B03F5AF521C3288
:105090004FF6FF7000211880598003F58673934204
:1050A000F9D1064B9847064B18600122014B1A7044
:1050B00008BD00BF002A0020042A002009EA44009D
:1050C0000440002010B5494C4FF080712046484BF9
:1050D00098474FF00052474BC3F880202046464B7C
:1050E0009847002220212046444B984704F5292464
:1050F00004F500744FF0007363634FF0E073636373
:105100001D203F4B98473F4B4FF4F0121A66C3F8EF
:1051100090205A655A62C3F88020196F21F4F0116B
:105120001967596F21F4F01159675A61C3F8A0202B
:105130001A66C3F894205A655A62C3F880201A6F21
:1051400022F4F0121A675A6F22F4F0125A6703F52C
:1051500000730F221A66C3F890205A655A62C3F88A
:105160008020196F21F00F011967596F21F00F018D
:1051700059675A61C3F8A0201A66C3F894205A658B
:105180005A62C3F880201A6F22F00F021A675A6F12
:1051900022F00F025A671C4B2366C4F890306365F7
:1051A0006362C4F88030226F22F0C04222F43042A1
:1051B0002267626F22F0C04222F43042626763616C
:1051C000C4F8A0302366C4F8943063656362C4F801
:1051D0008030236F23F0C04323F430432367636F91
:1051E00023F0C04323F43043636710BD00800340C5
:1051F0007D71450000E100E00D71450073704500D0
:10520000257B4500000E0E4000B000602DE9F04106
:105210000026844B1E70844B98470D20834CA0477A
:10522000834B4FF480021A66C3F890205A655A6285
:10523000C3F88020196F21F480011967596F21F498
:10524000800159671A61C3F8A0204FF400021A6662
:10525000C3F890205A655A62C3F88020196F21F470
:1052600000011967596F21F4000159671A61C3F8E9
:10527000A0204FF080771F66C3F890705F655F6273
:10528000C3F880701A6F22F080721A675A6F22F08A
:1052900080725A671F61C3F8A0704FF000701866E3
:1052A000C3F8900058655862C3F880001A6F22F066
:1052B00000721A675A6F22F000725A671861C3F8B9
:1052C000A0005C4A4FF4F0111166C2F890105165CD
:1052D0005162C2F88010156F25F4F0151567556FEF
:1052E00025F4F01555671166C2F8901011655162EA
:1052F000C2F88010116F21F4F0111167516F21F481
:10530000F011516702F500720F251566C2F8905032
:1053100055655562C2F88050116F21F00F01116779
:10532000516F21F00F0151671566C2F89050156555
:105330005562C2F88050116F21F00F011167516F53
:1053400021F00F0151673C4A1A66C3F890205A6554
:105350005A62C3F88020196F21F0C04121F4304116
:105360001967596F21F0C04121F4304159671A661D
:10537000C3F890201A655A62C3F880201A6F22F091
:10538000C04222F430421A675A6F22F0C04222F41F
:1053900030425A675863294A16704FF0E0725A63D8
:1053A0001D20A047264C4FF470234FF47A722549F4
:1053B0002046DFF8C480C0472046234B9847402250
:1053C00031462046214B984701234FF4401229468D
:1053D00020461F4DA847314620461E4B9847394668
:1053E00020461D4B98473246314620461B4B984776
:1053F000314620461A4B98471A4B1E7031462046BC
:10540000194B98472046194B98472046184B984708
:10541000184B4FF000521A60102283F81D233046BB
:10542000BDE8F081002A0020F54F4400AD7A450028
:1054300000120E40000E0E4000B00060034000203D
:105440000080034000002F0DE77045007370450099
:10545000A97045001B7045006B7145004570450003
:105460009D714500012A00201D714500C571450050
:10547000FD70450000E100E0C16F4500014B187070
:10548000704700BF08400020014B1870704700BFF4
:10549000364000200122034B1A700022024B1A7082
:1054A000704700BF364000200840002030B4046838
:1054B000002C24DB48F6B805AC4223DD05600888E3
:1054C00040F002000880A2F5617292B2B2F5167F38
:1054D0000A888CBF42F0080222F008020A8003F515
:1054E0009C5308339BB242F2107293420B888CBFDC
:1054F00043F0100323F010030B8030BC70470024EE
:105500000460DCE7088820F002000880DBE7000088
:105510002DE9F0410D2815D00E283CD00F283ED0A3
:10552000102840D0112842D0122843D0132844D04C
:105530001428234C18BF002440F2C32518BF4FF491
:105540007A7502E000244FF47A75D1F88C60B1F8D6
:10555000888040461B4FB84700FB05F5B6B2304681
:10556000B84700FB05F54046174B984700FB04F48D
:105570003046B84700FB0450144B83FB0023C01790
:10558000C0EBA340124B984740F252339842A8BF59
:105590001846BDE8F08140F2C3242546D5E74FF414
:1055A0007A740025D1E740F2C324054DCDE70024ED
:1055B000084DCAE7024C2546C7E7064C0025C4E75C
:1055C0003DFDFFFF69F34400F1F2440083DE1B431D
:1055D0007DF3440018FCFFFF90B32DE9F0418446B1
:1055E00000F1BE050D240E23DFF8BC800027204605
:1055F0003FE064460D4681F829006146274B9847F5
:10560000064680B2264B9847EE62D4F8E830CBB914
:10561000A7EB08074FF0560808FB07F7214B83FB61
:105620000723FF17C7EB63174FF47A7303FB07F3E6
:1056300093FBF0F07828D4BF00200120BDE8F08172
:10564000002070470020BDE8F081A6462E8816F4A1
:10565000807F08D15CF82E60BE42C4BF374610463A
:10566000B045A8BFB046142BC3D80133DBB2023516
:105670000134E2B20D2A0BD00F2AE6D0112AE4D071
:10568000A6462E8816F4807FEDD1132AEBD1E1E7F0
:10569000A6462E8816F4807FDCD0E6E7115544003C
:1056A00069F344001F85EB5100E1F505002800F087
:1056B0000E8170B40446874B1B781BB94FF47A7087
:1056C00070BC704712B94FF47A70F9E7D0F8E8303F
:1056D00013B14FF47A70F3E7D0F888300D2913D066
:1056E0000E2930D00F2931D0102932D0112933D0D2
:1056F000122934D0132935D0142902D04FF47A70EE
:10570000DEE740F64E4000E000201B1A48BF03F5DC
:105710006163714880FB0320DB17C3EBA0006F4B74
:105720001B88984221DB6D4B03F5864650360122DB
:105730001546198E884219DB013230339E42F7D16B
:105740004FF47A70BCE74FF4E170DEE74FF461701C
:10575000DBE740F24650D8E74FF4E160D5E740F68A
:10576000CA00D2E740F68C20CFE70025D4F88C1091
:1057700011F1640F06DA05EB4505584B03EB0513F1
:1057800058689DE7002924DB63292DDC534B680012
:10579000421903EB02129468D568642300202C1B85
:1057A0004FF47A7202FB04F2181A92FBF0F203FB38
:1057B00002F34B4C84FB0306D817A0EBA610284439
:1057C00002FB01F384FB0324DB17C3EBA41318448F
:1057D00076E7424B6800421903EB02125468956861
:1057E00000236FF06300DAE7C72909DC3B4B680050
:1057F000421903EB0212D4681569C8236420CEE76E
:10580000B1F5967F09DA3023344A03FB05252C696C
:105810006D694FF49673C820C1E7B1F5C87F0ADA05
:1058200030232E4A03FB05256C69AD694FF4C8731C
:105830004FF49670B3E7B1F5FA7F0ADA3023274ABE
:1058400003FB0525AC69ED694FF4FA734FF4C8709A
:10585000A5E7B1F5167F0ADA3023204A03FB0525B8
:10586000EC692D6A4FF416734FF4FA7097E7B1F5AF
:105870002F7F0ADA3023194A03FB05252C6A6D6A4B
:105880004FF42F734FF4167089E7B1F5487F0ADAA9
:105890003023124A03FB05256C6AAD6A4FF4487346
:1058A0004FF42F707BE7B1F5617F0ADA30230B4AA2
:1058B00003FB0525AC6AED6A4FF461734FF4487041
:1058C0006DE73022054B02FB0535E86AF8E64FF438
:1058D0007A7070470840002067666666F83F4600A9
:1058E000D34D62102DE9F04F85B080460F460C2055
:1058F000DFF8F8A0D04704460C20DFF8F490C84742
:105900000246B8F8163000FB03F3354D85FB030162
:10591000DB17C3EBA113234404A941F8043D084657
:10592000234607F1BE0100902E4EB0472E4C039B3C
:10593000E3824FF0000BA4F818B00E20D04701907E
:105940000E20C8470246B8F81A3000FB03F385FB67
:1059500003E1DB17C3EBA113019803440393034650
:1059600007F1C2010098B047039B6383A4F81CB001
:105970001020D04701901020C8470246B8F81E30CA
:1059800000FB03F385FB03E1DB17C3EBA1130198D5
:1059900003440393034607F1C6010098B047039BF5
:1059A000E383A4F820B01220D04782461220C847D3
:1059B0000246B8F8223000FB03F385FB03E5DB1752
:1059C000C3EBA51353440393534607F1CA01009850
:1059D000B047039B6384A4F820B005B0BDE8F08F06
:1059E000D34D6210AD5444000C400020C9984400CF
:1059F000E198440000B5184B1A681849A1FB02E26F
:105A000052094263B0F8BE2042F04002A0F8BE2026
:105A10001A68A1FB02E25209C263B0F8C22042F048
:105A20004002A0F8C2201A68A1FB02E252094264B7
:105A3000B0F8C62042F04002A0F8C6201B68A1FBC7
:105A400003235B09C364B0F8CA3043F04003A0F8F5
:105A5000CA305DF804FB00BF381C00201F85EB51E5
:105A6000002800F0AA81002900F0A7812DE9F04F5D
:105A700087B005920C46B54B98472046B44B9847E3
:105A8000B44BB3F816A05A8B0292DA8B03925B8C5C
:105A90000493B14B93F80080B0490A1D01F5D45E20
:105AA0000EF10C0EAE4E00200346DFF8C8920546FC
:105AB00040F2E73C019622E013F0800F08D1256503
:105AC000B4F8CC7047F48077A4F8CC7043F080032E
:105AD000B8F1010F03BFA34EA6FB0067BF0807463E
:105AE000674528BF67466765B4F8CE7027F00107A1
:105AF000A4F8CE7008310832964500F09A8013F071
:105B0000010F18D18F88574515D352F8047CA9FB93
:105B100007677F096763B4F8BEB02BF0410BA4F8A8
:105B2000BEB0019EBE42A8BF3E46019652F8047C1C
:105B3000384443F0010313F0020F08D1A563B4F811
:105B4000C07047F48077A4F8C07043F0020313F0EC
:105B5000040F19D18F88029EB74215D352F8047CE6
:105B6000A9FB07677F09E763B4F8C2B02BF0410BCC
:105B7000A4F8C2B0019EBE42A8BF3E46019652F8AC
:105B8000047C384443F0040313F0080F08D1256463
:105B9000B4F8C47047F48077A4F8C47043F00803E5
:105BA00013F0100F19D18F88039EB74215D352F806
:105BB000047CA9FB07677F096764B4F8C6B02BF0C3
:105BC000410BA4F8C6B0019EBE42A8BF3E46019656
:105BD00052F8047C384443F0100313F0200F08D12E
:105BE000A564B4F8C87047F48077A4F8C87043F08F
:105BF000200313F0400F7FF45FAF8F88049EB742FD
:105C0000FFF45AAF52F8047CA9FB07677F09E764E9
:105C1000B4F8CAB02BF0410BA4F8CAB0019EBE4242
:105C2000A8BF3E46019652F8047C384443F0400336
:105C300042E7019E059D294620464B4B9847074663
:105C40002B4683F82800636B6B65A36BAB65E36B36
:105C5000EB65236C2B66636C6B66A36CAB66E36CC5
:105C6000EB66236D2B67EB6AB3F5AF6F0EDA3F4B34
:105C70009E420BD8636B9B1B6363E36B9B1BE363CD
:105C8000636C9B1B6364E36C9B1BE3643A460D21CE
:105C90002046DFF8E480C047059B5863636B03FB35
:105CA00000F3334D85FB0312DB17C3EBA2136363D1
:105CB0003A460F212046C047059AD063E36B03FBA9
:105CC00000F385FB0312DB17C3EBA213E3633A4631
:105CD00011212046C04705994864636C03FB00F31B
:105CE00085FB0302DB17C3EBA21363643A4613215F
:105CF0002046C0470599C864E36C03FB00F385FBAD
:105D00000325DB17C3EBA513E364CA6AB2F5AF6FD3
:105D100019DA164A964216D8D4F8E82072B36422EB
:105D200002FB06F6134A82FB0612F617C6EB621256
:105D3000616B11446163E16B1144E163616C114477
:105D400061641344E36407B0BDE8F08FE558440094
:105D5000F55944000C40002036400020B8010020D6
:105D6000FFC99A3BABAAAAAAD9554400FEC99A3BDF
:105D7000D34D62101F85EB51AD564400D4F88C20F2
:105D8000B2F5967F15DDC2EB02120C4981FB0201D0
:105D9000D217C2EB61122D3A642AC8BF002209DD76
:105DA00002FB06F6054A82FB0612F617C6EB6212E4
:105DB000BEE70022C2F16402F2E770471F85EB5193
:105DC000002800F083802DE9F04F87B004460029B9
:105DD00079D0D0F898B0B1F820A08B7F18464E7FCC
:105DE0000F7F91F81B8091F81A90D4F884300393B8
:105DF000D4F880300293CDF80490CDF800803B4673
:105E00003246059001465046314DA847C4F88800F7
:105E1000D4F884300393D4F880300293CDF8049002
:105E2000CDF800803B46324605995046294DA8479B
:105E3000C4F88C00B4F8E83023F00103A4F8E8308B
:105E4000B4F8EA3023F00103A4F8EA30224B984773
:105E500002280FD01BF00C0F29D1B4F8E83023F042
:105E60000203A4F8E830B4F8EA3023F00203A4F8FF
:105E7000EA3028E01BF0080F0CD1B4F8E83023F02A
:105E80000203A4F8E830B4F8EA3023F00203A4F8DF
:105E9000EA3018E0B4F8E83043F00203A4F8E83040
:105EA000B4F8EA3043F00203A4F8EA300BE0B4F8A7
:105EB000E83043F00203A4F8E830B4F8EA3043F0E5
:105EC0000203A4F8EA3007B0BDE8F08F704700BFC6
:105ED000194A4400D9484400097A440070B40024A7
:105EE0000C4B1C700D4681B10378934210D00146D3
:105EF0000120084E3070854208D0431CDBB211F8F7
:105F0000014F944202D01846F4E7084670BC70472F
:105F10000020FBE74540002030B4084B1B780344C9
:105F2000064C20780130C0B22070884203D213F8AA
:105F3000015F9542F5D130BC704700BF454000205D
:105F40000B4B1B7803440A4A10780138C0B210701A
:105F500060B110B413F8014D8C4205D010780138AF
:105F6000C0B210700028F5D110BC7047704700BF58
:105F70004540002001380B2817D8DFE800F018064C
:105F800006080A0C0E10121806140320704706208B
:105F90007047012070470420704706207047022098
:105FA00070470520704705207047FF20704700208C
:105FB00070470000F8B505460C462249A1FB0231A6
:105FC000531A01EB53018908C1EBC101511ACFB239
:105FD00020461D4B984705F13006F6B206EB9606B3
:105FE0001A4B83FB06239A19F317C3EBA203C3EBE7
:105FF000C303F31A15F0030F03D1013CE4B2012CE3
:106000000FD9074457FA83F30633104880FB032067
:10601000C218D817C0EBA200C0EBC0001B1AD8B240
:10602000F8BD384450FA83F30C33084880FB032052
:10603000C218D817C0EBA200C0EBC0001B1AD8B220
:10604000F8BD00BF25499224755F4400932449920E
:1060500001380B2810D8DFE800F0110811061106EE
:106060001111061106111E20704701F003010029CD
:106070000CBF1D201C207047002070471F20704758
:10608000F8B505460E46084B9847044648B1074FF9
:10609000224629463046B84718B1013C14F0FF04A7
:1060A000F6D12046F8BD00BF51604400B55F440002
:1060B0002DE9F84FCF1EFFB2072F2AD89946154673
:1060C0000C46064601460320DFF858B0D847144F67
:1060D00007FB06F74FF0640A07F5EA4808F13108B4
:1060E0000AFB008831460A20D8470AFB05953D4443
:1060F00042F2107101FB0455A8450DD807F5C337CE
:10610000A1370AFB0070A84294BF00200120BDE81F
:10611000F88F0020BDE8F88F0020BDE8F88F00BFA1
:1061200040420F0081604400002952D0F8B50B4670
:1061300081781944C9B2C82927D91831C9B2264B68
:10614000A3FB01231B0903EB4303A1EBC3018170F4
:106150004FF0FF3504460679C788394630461F4B55
:106160009847E3782B44DBB2E3700BBB013E16F09B
:10617000FF0618D02671002539462079174B98471D
:10618000E0707919E1800120F8BD134BA3FB0123D6
:106190001B095DB203EB4303A1EBC3018170002D2A
:1061A000D8D10120F8BD0C2323714FF0FF35E3E770
:1061B00098420CD20136F6B20C2E04D82671002576
:1061C0000123E370DDE7012121710D46F8E7002589
:1061D000D7E70020704700BFABAAAAAA51604400CD
:1061E00001290BD90346023989B20131014400204B
:1061F00013F8012F50408B42FAD1704700207047AE
:106200002DE9F04F83B00378242B04D008252846CD
:1062100003B0BDE8F08F17460E4604464378472B7F
:1062200003D0472B0DD00825F1E78378502B11D0F0
:106230004E2B0FD0A378502B00F02A824E2B00F06B
:106240002782A378502B00F01B834E2B00F018837D
:106250000825DCE7E378522BECD123794D2BE9D1EB
:106260006379432BE6D10422424B1A702A2231462D
:106270002046414B98470546031D9E4240F0E0836F
:1062800081B220463D4B984763195B7813F0C00FED
:106290000EBF23F0300303F00F030933384A1370A5
:1062A0002544AB7813F0C00F0EBF23F0300303F08A
:1062B0000F030933334A1370314B1A78314B1B7873
:1062C00043EA0213DBB2984218BF02259FD12C2269
:1062D00031462046284B984781462B4B18602C228C
:1062E00031462046294B98470546294B1860A0EBBC
:1062F00009030B2B18BF032589D1264904EB090399
:106300005A7822F0300202EB8202987820F03000B6
:1063100000EB42028A74DA7822F0300202EB820249
:10632000187920F0300000EB42024A745A7922F0CA
:10633000300202EB82029B7923F0300303EB42022E
:106340000A74114B1D602C22314620460F4B984792
:1063500081460F4B186025446B78562B40F07F83A5
:106360002C2231462046094B9847019004254FF0D6
:1063700000094BE0401C0020DD5E4400E161440068
:1063800037400020384000203C400020195F440086
:10639000404000201063012004EB090292F80190B4
:1063A00029F0300909EB8909937823F0300303EBD6
:1063B0004909D37823F0300303EB830392F804A058
:1063C0002AF0300A0AEB43035FFA83FA937923F049
:1063D0003003C3EB431103EB8101D37923F0300386
:1063E00003EB830303EB83034FEA830808EBC10845
:1063F000537A23F030039844137A23F0300303EBED
:10640000830308EB43081FFA88F80025964B019A8E
:106410001A602C2231462046944B98478346944B71
:106420001860019AA3185B78532B04BFC9F10009C7
:106430000FFA89F9002D40F0248348EA0A4343EA21
:1064400009638C4A5360884B18602C2231462046E1
:10645000864B98470190864B1860A0EB0B000B28E9
:1064600040F0F182A3449BF8019029F0300909EB38
:10647000890909EB89029BF8023023F0300303EB12
:1064800083034FEA430909EB82099BF8033023F0A9
:10649000300399440FFA89F99BF8043023F0300354
:1064A00003EB83039BF805A02AF0300A0AEB4303B1
:1064B0005FFA83FA9BF8073023F03003C3EB4312F3
:1064C00003EB82029BF8083023F0300303EB8303D5
:1064D00003EB83034FEA830808EBC2089BF80A30FA
:1064E00023F0300398449BF8093023F0300303EB8A
:1064F000830308EB43081FFA88F85B4B019A1A6084
:106500002C2231462046594B9847594B1860019A26
:10651000A3185B78572B04BFC9F100090FFA89F95A
:106520006DB94FEA8A3303F47C23C8F30D0843EABC
:10653000080309F2FF7943EA09534E4A93602C227B
:1065400031462046DFF82491C8472C2231462046A8
:10655000C8478046444B18602C2231462046C84725
:10656000434B1860A0EB0800072840F06F824444BA
:10657000637823F0300303EB8303A27822F0300228
:1065800002EB4303DAB23B4EF274E37823F03003BC
:1065900003EB8303217921F0300101EB4303D9B2EE
:1065A0003175607920F0300000EB8003A07920F095
:1065B000300000F5FA6000EB430080B2F082337ED9
:1065C000FF2B04D0B47C2C4B1B789C4204D0294C6C
:1065D000A37C2A4EB0472076264A917C264B197020
:1065E00002F11A0402F1100303CBC2F81A00C2F838
:1065F0001E101B8853843C20214B984730280AD119
:10660000A4F11A031B7E002B14BF022101211D4897
:106610001D4B98470BE03C20194B984738B13C2064
:10662000174B9847A0F1180149B20029EFD1174B39
:106630001D70104C07F1100304F1100207CA03C3C8
:106640001A80234653F81A0F5968C7F81A00C7F87A
:106650001E101B897B8463687B60A368BB60002D70
:106660003FF4D5AD0425D2E53C400020195F44003D
:10667000404000201063012044400020B1604400ED
:106680000DD244002063012029614400401C0020F9
:10669000E378472B7FF4D5AD2379472B7FF4D1AD39
:1066A0006379412B7FF4CDAD2A2231462046794BC8
:1066B00098470546031D9E4240F0CB8181B220469B
:1066C000754B984763195B7813F0C00F0EBF23F02A
:1066D000300303F00F030933704A13702544AB787D
:1066E00013F0C00F0EBF23F0300303F00F03093384
:1066F0006B4A1370694B1A78694B1B7843EA021393
:10670000DBB2984218BF02257FF481AD2C223146BE
:106710002046604B98478046624B18602C223146D9
:106720002046614B98470546604B1860A0EB08086F
:10673000B8F10B0F18BF03257FF469AD594B1D60ED
:106740002C2231462046584B9847584B1860401B26
:106750000A2818BF05257FF45AAD2C223146204661
:10676000DFF84481C04705464E4B18602C22314665
:106770002046C0474D4B1860401B0B2818BF06250C
:106780007FF445AD2C2231462046C0472C223146AD
:106790002046C0470546434B18602C223146204610
:1067A000C047424B1860431B002B0FDD231813F822
:1067B00001EC2EF0300E831E5B1BDBB25A19013246
:1067C00022440A21002B41D187F824E02C223146B3
:1067D0002046DFF8D480C0470546324B18602C2293
:1067E00031462046C047314B1860431B032B0EDD5A
:1067F000231813F801EC2EF0300EC31E5B1BDBB226
:106800005A19013222440A216BBBC7F80CE02C2232
:1068100031462046244DA8472C2231462046A84721
:106820002C2231462046A8472C2231462046A84734
:106830001C4B18602C2231462046A8471B4B186081
:106840001B4B1D78002D7FF40DAFE0E412F8010D15
:1068500020F0300001FB00EE01EB8101490089B21C
:10686000013BDBB2AEE712F8010D20F0300001FB76
:1068700000EE01EB8101490089B2013BDBB2C3E7C5
:10688000E378472B01D00825C1E42379532B11D09D
:106890000825BCE4DD5E4400E1614400374000208F
:1068A000384000203C400020195F44004040002058
:1068B000401C00206379412B18BF08257FF4A7AC4A
:1068C0002A2231462046724B98470546031D9E42B8
:1068D00040F0C28081B220466E4B984763195B78C6
:1068E00023F030016C4A117013F0C00F03D003F095
:1068F0000F030933137063199B7823F03001674A43
:10690000117013F0C00F03D003F00F03093313709D
:10691000614B1A78614B1B7843EA0213DBB2984251
:1069200018BF02257FF473AC5D4B1D602C212046FF
:106930005C4B984706465C4B18602B1A032B15DD01
:10694000621912F8013C23F0300312F8021C21F006
:1069500030010A2202FB01312B1F1B1ADBB218186F
:10696000013020446422002B43D179854C4B1E60BA
:106970002C2120464B4B984705464B4B1860331A49
:10698000032B14DDA21912F8013C23F0300312F896
:10699000021C21F030010A2202FB0131331F1B1AB5
:1069A000DBB218180130204464227BBB39853C4B94
:1069B0001D602C2120463B4B98473B4B18602B1AFF
:1069C000032B7FF73DAF621912F8013C23F030032F
:1069D00012F8021C21F030010A2202FB01312B1FA8
:1069E0001B1ADBB21A18013214446422DBB9F98491
:1069F00026E710F8015D25F0300502FB051102EBDA
:106A00008202520092B2013BDBB2ACE710F8016D9A
:106A100026F0300602FB061102EB8202520092B20F
:106A2000013BDBB2C1E714F8010D20F0300002FB9E
:106A3000001102EB8202520092B2013BDBB2D5E7B9
:106A40000125FFF7E4BB0625FFF7E1BB0725FFF7AC
:106A5000DEBB0125FFF7DBBB0125FFF7D8BB124BDF
:106A600018602C2231462046104B984701900C4B61
:106A70001860A0EB09000A283FF48EAC0525FFF74B
:106A8000C6BB2C2231462046084B9847019034E57E
:106A9000DD5E4400E16144003740002038400020C2
:106AA00040400020415F44003C400020195F44000A
:106AB0002DE9F0410E4651B307469046451C037838
:106AC0000A2B27D000240134E4B2A6421FD015F8C7
:106AD000013B0A2BF7D14246214638460F4B9847D7
:106AE000082818BF88F80000631CDBB29E4213D947
:106AF0006B1E781EB21E121B55FA82F513F8012F79
:106B000000F8012FAB42F9D1013E341BE6B230460A
:106B1000BDE8F0810024DEE70026F8E701624400CA
:106B200010F5967F33DB00F59672C2F34E02053204
:106B30001A4981FB0231D317C3EBA103DAB2322A1F
:106B400028D830B5DBB2164A32F813105C1E32F882
:106B500014208A1A02EB82025200104C84FB02E5D8
:106B6000D217C2EBE50201EB810103EB83039B002B
:106B7000A3F5967302FB03F3C3EB410302FB00335F
:106B800084FB0324D817C0EBA40080B230BD044BB3
:106B900018887047024BB3F86400704767666666F2
:106BA0007883460038B504460D4608460A4B984798
:106BB00004FB00F0094CA4FB0030400940F67704C8
:106BC00004FB00F005EB850546F6B32303EB450512
:106BD000B0FBF5F080B238BD216B44001F85EB514E
:106BE00010B50446074B984745F2A64303FB00F057
:106BF00004EB840446F6B32303EB4404B0FBF4F047
:106C000080B210BD216B4400F8B50D46B0F57A7F17
:106C100035D8411D244C84FB0134CA17C2EBA402B1
:106C200012F0FF0225D1214BB3F9684005F66C162E
:106C30002AB2D3171E4FA2FB070107FB03113246EE
:106C4000F3171C4FB84745F6386303FB04001A4B93
:106C500003FB05F595FBF6F56FF0090202FB04F264
:106C600002F52A3303F2C3335B1B90FBF3F000B24F
:106C7000F8BD642A04D90D4BB3F93041D6E764223C
:106C80000A4B03EB4201B1F96840B1F96630E31AEF
:106C900003FB124203FB00F0034B83FB0013C417FA
:106CA000C4EBA3041444C1E76766666678834600B4
:106CB00044512A199DD64500C3AB02002DE9F0418D
:106CC000064690461D46069C0846224FB84700EBF4
:106CD0008000400006FB00F64046B8471E4B83FB91
:106CE0000623F617C6EBA3164FF47A7303FB06F3DD
:106CF00000EB8000400093FBF0F3C3EBC3031B01E8
:106D0000164A82FB0312D917C1EB621121EAE17125
:106D1000B1F57A7FA8BF4FF47A71C4F88010EB68A0
:106D2000132B07DCB5F8AA3023B90D4B1A880D4B8D
:106D30001A8103E04FF416720A4B1A81D4F84C31D1
:106D4000132B94BF012200220648074B984780B2BC
:106D5000BDE8F081E16B4400D34D62101F85EB511B
:106D60005840002048400020713E4400C0EB001015
:106D70008000014B18807047584000204FF461623A
:106D8000014B1A80704700BF58400020002840F097
:106D9000AD80AD4B40225A61C3F8A0201A66C3F8FB
:106DA00090205A655A62C3F88020196F21F0400183
:106DB0001967596F21F0400159671A66C3F894208A
:106DC0005A655A62C3F880201A6F22F040021A678F
:106DD0005A6F22F040025A6780225A61C3F8A020FD
:106DE0001A66C3F890205A655A62C3F88020196F5A
:106DF00021F080011967596F21F0800159671A66E7
:106E0000C3F894205A655A62C3F880201A6F22F0A2
:106E100080021A675A6F22F080025A6710225A6164
:106E2000C3F8A0201A66C3F890205A655A62C3F8C6
:106E30008020196F21F010011967596F21F010019E
:106E400059671A66C3F894205A655A62C3F88020BD
:106E50001A6F22F010021A675A6F22F010025A6756
:106E600020225A61C3F8A0201A66C3F890205A6500
:106E70005A62C3F88020196F21F020011967596FF9
:106E800021F0200159671A66C3F894205A655A62A6
:106E9000C3F880201A6F22F020021A675A6F22F07E
:106EA00020025A674FF480525A61C3F8A0201A6634
:106EB000C3F890205A655A62C3F88020196F21F4F4
:106EC00080511967596F21F4805159671A66C3F8C8
:106ED00094205A655A62C3F880201A6F22F48052B7
:106EE0001A675A6F22F480525A677047564B4022F5
:106EF0005A61C3F8A0201A66C3F890205A655A62F6
:106F0000C3F88020196F21F040011967596F21F0F3
:106F1000400159675A66C3F890205A655A62C3F80F
:106F200080201A6F22F040021A675A6F22F0400246
:106F30005A6780225A61C3F8A0201A66C3F89020CD
:106F40005A655A62C3F88020196F21F080011967D1
:106F5000596F21F0800159675A66C3F890205A652D
:106F60005A62C3F880201A6F22F080021A675A6FA3
:106F700022F080025A6710225A61C3F8A0201A66D4
:106F8000C3F890205A655A62C3F88020196F21F027
:106F900010011967596F21F0100159671A66C3F87B
:106FA00094205A655A62C3F880201A6F22F01002AA
:106FB0001A675A6F22F010025A6720225A61C3F8EA
:106FC000A0201A66C3F890205A655A62C3F8802040
:106FD000196F21F020011967596F21F020015967BD
:106FE0001A66C3F894205A655A62C3F880201A6F53
:106FF00022F020021A675A6F22F020025A674FF4DB
:1070000080525A61C3F8A0201A66C3F890205A65CE
:107010005A62C3F88020196F21F480511967596FA3
:1070200021F4805159671A66C3F894205A655A6250
:10703000C3F880201A6F22F480521A675A6F22F424
:1070400080525A67704700BF00100E4010B4714B59
:1070500008221A66C3F890205A655A62C3F8802045
:10706000196F21F008011967596F21F0080159675C
:107070001A6010221A66C3F890205A655A62C3F843
:107080008020196F21F010011967596F21F010014C
:1070900059671A604FF400721A66C3F890205A6557
:1070A0005A62C3F88020196F21F400711967596F73
:1070B00021F4007159671A604FF480611966C3F8B2
:1070C000901059655962C3F880101A6F22F48062DB
:1070D0001A675A6F22F480625A6719604FF400529F
:1070E0001A66C3F890205A655A62C3F88020186F58
:1070F00020F400501867586F20F4005058671A6049
:107100004FF400121A66C3F890205A655A62C3F809
:107110008020186F20F400101867586F20F40010BA
:1071200058671A604FF480021A66C3F890205A65B7
:107130005A62C3F88020186F20F480001867586FD7
:1071400020F4800058671A60334A1166C2F8901024
:1071500051655162C2F88010106F20F48060106792
:10716000506F20F48060506711604FF40061116629
:10717000C2F8901051655162C2F88010106F20F46F
:1071800000601067506F20F4006050671160234961
:107190001966C3F8901059655962C3F88010186FCA
:1071A00020F0FC4020F040001867586F20F0FC40B1
:1071B00020F0400058671961C3F8A01059634FF4DC
:1071C00030531366C2F8903053655362C2F8803072
:1071D000116F21F430511167516F21F43051516713
:1071E0001361C2F8A03053630D4B0E4A1A66C3F800
:1071F00090205A655A62C3F88020186F0A4C2040CC
:107200001867596F214059671A61C3F8A0205A6363
:1072100010BC7047000E0E4000100E404000007E73
:1072200000120E40FF473F9C00B8C0632DE9F041BB
:1072300005468846204B9847022802D00020BDE82A
:10724000F081632D2FD8B8F1630F30D81B4E022187
:1072500030461B4B98471B494FF47A7404FB05F5E5
:107260000D60194B4B60194B8B603046184B98479B
:10727000184902270F6000250D8101238B720B2313
:107280004B600C6104FB08F4134BA3FB043464094A
:10729000CC603046114B984739463046104B9847E2
:1072A0002846BDE8F0814FF0FF30BDE8F0816FF077
:1072B0000100BDE8F08100BF097A440000000240EF
:1072C0001F7F45005C400020A086010000809706DB
:1072D000957C4500684000201F85EB510F7D4500DF
:1072E000057F450008B502210E480F4B98471F2027
:1072F0000E4B98470E4B4FF400521A66C3F890207D
:107300005A655A62C3F88020196F21F40051196739
:10731000596F21F4005159671A61C3F8A0205A63CC
:1073200008BD00BF000002401F7F4500D17B450023
:10733000000E0E40434BDB6C13F4804F00D17047BE
:1073400070B5414C4FF4804525634FF400623F4BCC
:10735000C3F8802072B6BFF35F8F00263C4B1E70CF
:107360003C4B98473C4B98473C4B98473C4B984785
:107370003C4B98473C4B98473C4B98473C4B984775
:1073800030463C4B98473C483C4B98472566C4F8F0
:10739000905065656562C4F88050236F23F4804384
:1073A0002367636F23F4804363672566C4F89050B6
:1073B00025656562C4F88050236F23F480432367FA
:1073C000636F23F4804363672D4B984704F5826411
:1073D00020462C4B984720462B4B984720462B4B5A
:1073E000984720462A4B984731462046294B9847D4
:1073F0004FF080712848294CA0474FF080712848F1
:10740000A0473046274B98473046274CA0470120DD
:10741000A0470220A047254B98473046244B984769
:10742000244B9847074BDB6B13F4804F05D1224B5D
:1074300098472248224B984770BD2248224B9847D4
:10744000F5E700BF000E0E4000100E4000E100E026
:10745000C81F00204D70440075F744004DF94400EA
:1074600059F0440019F44400E5724400C55044004A
:10747000958544008D6D440050140E40918D45005B
:107480009D7B45004F844500298445009584450037
:10749000AB84450071844500000A0E4081724500AE
:1074A000000C0E40E1774500D17B45009179450005
:1074B0001D7A45006D7A4500ED7B450010140E40A5
:1074C0000584450000140E40397F4500014B1868C3
:1074D000704700BF904000202DE9F041204B9847B5
:1074E000022801D0BDE8F08164211E481E4DA84746
:1074F0001E4F3B689B68012201461D481D4EB04748
:107500001D4C64212046A8473B689B680122014628
:107510002046B047194D2846762300F8013B022249
:107520000621DFF85C80C04780B2841CA4B2013021
:1075300080B22E232B54022200212819C047211883
:1075400089B20D236B544B1C9BB20A22EA543B6850
:1075500002319B68012289B22846B047C2E700BFCA
:10756000097A4400CC8446005D874400CC1F00208B
:10757000CC8E4600C57E4400D8844600A864012015
:10758000F13844002DE9F04184B005460E46174617
:1075900098461D481D4B9847000A1D4B18601D4B0F
:1075A00098471D4B98471D4B98471D4B98471D4BBF
:1075B00098471D4B98471D4B98471D4B98470228ED
:1075C00014D01C4B984704461B4B98470C9B0293C6
:1075D0000B9B01930A9B009343463A46314628464B
:1075E000164DA847204604B0BDE8F0811F20144B7B
:1075F00098474FF080510D20124B984732210A20B6
:10760000114B9847DDE700BF00140E404D7F450049
:1076100090400020D5DC44009554440065FF4400B0
:1076200055F144000D52440081F444006DF84400CB
:10763000097A44003D8544007D6D4400CDDB440063
:10764000AD7A4500117545002D72440058B910B54A
:1076500082B014460846002200921346A1B2034CA1
:10766000A04702B010BD4FF0FF30704751FE4400FC
:107670000138022808D810B5144608460022A1B2E5
:10768000034B9847204610BD4FF0FF30704700BFB6
:1076900085FB4400014B1878704700BFC8480020A4
:1076A0000022014B1A707047C8480020014B18682F
:1076B000704700BF0C56002008B51523013B13F09E
:1076C000FF03FBD1F82202490248034B984708BD4B
:1076D0001C4A00205C4C002099DC4500F0B5036991
:1076E000B3F5967F1CDB426BB2F5C87F20DB826B63
:1076F000C72A11DCC26B632A0EDC026C632A0BDC26
:10770000426C632A08DC826C632A05DCC26C632A43
:1077100002DC026DC72A30DD092B07DD002208E0FC
:10772000092B2CDC436BB3F5C87F2ADB002200E079
:1077300000222F4B1B78934225D000212D4B19702E
:107740002B4B1A702B4B1B78063BDBB2032B0AD852
:1077500029490B6813435B000B600022254B1A700C
:10776000FF22234B1A70244B1E68244B93F800C051
:107770004FF01E0E1F27012516E00122D9E7002237
:10778000D7E70022D5E71B4B1B78FF2BD5D0013361
:1077900018490B70D4E7BEF1000F26D0013FFFB2AD
:1077A0000EF1FF3E5FFA8EFE05FA07F33342F2D088
:1077B000002FF3D0BCF1010FEDD11048714600232A
:1077C0008B42E8D0CA1A05FA02F2324214BF0124F1
:1077D000002410F8012F9442DDD101330D2BEFD19D
:1077E0000022054B1A600120F0BD0020F0BD00BF53
:1077F000411C0020145600200C560020AC8446008A
:10780000014B1878704700BF554D0020164B1B7870
:1078100043B370B5154D05F1A202154B2946F43559
:1078200003E004330431AA420FD032F8020F0028DB
:10783000F7D108681E68B042B8BF1860D3F8A460DA
:10784000B042C8BFC3F8A400EBE70A4B98470A4B05
:107850001C68041B094B9847844202D90022024B42
:107860001A7070BD704700BF554D00201C4A0020A3
:10787000144B002009EA44001C560020399E4400A5
:107880000122014B1A707047564D002098B14FF4F9
:1078900096720B4B1A61002914BF4FF4C872012273
:1078A000074B5A6300229A63DA631A645A649A6433
:1078B000DA641A6570470322014B1A61EBE700BFD7
:1078C0001C4A002010B50B4B1C887D2C03D90020CE
:1078D000084B188010BD084BA3FB04235B08074A24
:1078E000D118097CD05C064B98470134014B1C80B1
:1078F000012010BD20560020398EE338AC844600AC
:107900008D78440010B5054C4FF0AA3323602168F0
:107910004FF6FF70024B9847606010BD90140E4008
:10792000D93F440010B5064C21684FF6FF70054B57
:1079300098476368984214BF0020012010BD00BF23
:1079400090140E40D93F4400054B00221A605A6043
:107950009A60DA601A615A619A61DA61704700BF11
:1079600090140E4038B5084A084B1A60084B9847E7
:10797000084D2B6800219868074CA0472B680749E1
:107980005868A04738BD00BF00060E40F4610120D2
:107990008DFA4400CC1F00207DDE4500B44D002050
:1079A00010B408490B1FA0310A464FF000446FF095
:1079B000004042F8044F43F8040F8B42F9D110BC49
:1079C000704700BF144B002008B5074B1B7803B16C
:1079D00008BD064B9847064B9847064B1860012296
:1079E000014B1A70F4E700BF554D0020A179440007
:1079F00009EA44001C56002008B52020014B984796
:107A000008BD00BF0DD2440008B50E4B984720B109
:107A10000D4B1B780BB9022008BD0C4B984720B9C1
:107A2000094B1B780BB9022008BD094B1B780BB121
:107A3000022008BD074BDB6B002BB4BF01200220E6
:107A400008BD00BF55DB4400574D002061DB4400FA
:107A5000544D0020000E0E40F0B585B004460D4692
:107A60008D4B9847022800F08F808C4E3088C0F5EF
:107A70007F710331002300930A23012289B2884FCA
:107A80003844884FB8473188014489B23180002991
:107A900040F0A68004F17C0204F178012846824B74
:107AA0009847AB681A0DA2F2FF710029C0F29F80BF
:107AB000C3F38532C3F30D0303EB83035B007B4801
:107AC00000FB02337A4AA2FB03327A4B03FB01F339
:107AD00003EB9203C4F880306B68181600F19A80AB
:107AE000C3F307419BB203EB83035B006F4A02FBC6
:107AF00001336F49A1FB03316E4B03FB00F303EB32
:107B00009103C4F88430B4F8E03023F00103A4F802
