:020000020000FC
:100000008000FFFFB66EB86EBA6EBC6EBE6E6FCB70
:1000100065CB5BCBC06EC26E5939C46E7699C66E25
:10002000D9C7C86ECA6ED7A5CC6E8DCB83CB79CB22
:10003000CE6ED06EFFFFFFFFFFFFFFFFFFFFD26E10
:10004000300359037D038F01A2018C04D2006A01A1
:100050001201A403280459044B01F903C9039502B2
:10006000610208025402FFFFFFFFFFFFFFFFFFFFD7
:10007000FFFFFFFFFFFFFFFFFFFFFFFFFFFFFFFF90
:100080007B1E1000006168AD06160000617197EEDE
:100090001C04FE9ACB006168AD2B1602FB122D02E8
:1000A000626161AD0343617197868AFC8BFA168D9C
:1000B000D1120200626161AD01431400FB87958695
:1000C000848AFA8BF89A72689ACF00100100AF0008
:1000D000FAFDB330417251308A044D00B2AF610174
:1000E000FAF6B330417251308A044D00B2AF212587
:1000F000FAF6B39A0A01604D00333033B2AFB39AC7
:100100000A01624D00333033B2AF307332A1003197
:1001100082AFB3428A05EA0000B2AF213027302710
:10012000FAF2B3428A05EA0000B2AF212530253049
:10013000FAF2B3A300317F02A380428A05EA0000ED
:10014000B2AF2125302530616BFAF0B7B3B6D2706B
:100150006631886073C267318863610873C2663133
:1001600088610BEA0000B7B2B6AFB39AD001EA00DB
:1001700000B2AFB3B59AAD019AD001C23427349D15
:1001800008A10070611A30613BB4EA0000B2AFB15F
:10019000B3E27D80E27D8030611A30613B6168B2FC
:1001A000B0AFB130611A30613B6168B0AF75617B4F
:1001B0003574317F0BB3D2A10070611A30613BB24C
:1001C000B163317F09A10070611A30613BD2B0AFD9
:1001D000B1636163B0BD053182A300AFB5B3B43084
:1001E00073A100A2083327333027302730611C3039
:1001F000613D9D0630610C30612D8AE93327333231
:100200003032337DFF30B4AFB5B7D4100000B1B198
:10021000891CD6C2A220DE0D25DE0DDE0C25DE0CEB
:10022000DE0B25DE0BDE0A25DE0A9D1707610C07B3
:10023000DE01612DDE01DE026128DE02DE0329031C
:10024000DE0321342734352735302730278AC7B2DB
:10025000B49B0D05B5E2E4B79AB2029AC2029B0DB7
:1002600005B5E2E4B7891CD63209063233290733D3
:1002700034290834352909759B0D05B5E2E4B789A1
:100280001CD632690632336907333469083435695C
:1002900009759B0D05B5E2E4B7891CD66219067095
:1002A0006339076160643908616065390961609B81
:1002B0003505891CD6AE0830AE09B1AE0A70AE0B5A
:1002C000B6AFB1B7B5B3891CD6AE04690569066986
:1002D00007BD0A120000140000B6B6FA50A22010A2
:1002E0000000D407610107DE0127DE01DE0227DE00
:1002F00002DE0327DE033427343527353027302745
:100300004907BD04304906308D1FBD0C3549053500
:10031000BD04344904348D1134190434353905359C
:100320003039063039070741078AB8B2B4B6B6AFDC
:10033000B7B5B36072891CD6AE0670AE07D480BE66
:100340000760BE068522E6CA080023E673AB70612B
:100350006160323032B2B4B6AFB7B5B3D2891CD611
:10036000AE0670AE07D480BE0760BE068522E6CA20
:10037000080023E633BB323032B2B4B6AFB7B5B300
:10038000891CD6AE0670AE07D480BE0760BE068557
:1003900022E6CA0800E673AB704323ABB16168B0D4
:1003A000B2B4B6AFB7B5B3D2891CD6AE0670AE073D
:1003B000D480BE0760BE068522E6CA0800E6E230A9
:1003C000BB432330BBB2B4B6AFB7B5891CD6AE04BD
:1003D00070AE05D480BE0560BE048522E6CA060064
:1003E000E673AB7043ABD443AB704323ABD2C46171
:1003F00068616B616AC4B4B6AFB7B522B3B1891C8A
:10040000D6AE0970AE0AD480BE0A60BE0985E6CABF
:100410000B00E673B030BB4330BB43D4B030BB43BA
:1004200030BBD2C423B4B6AFB1B3B5B7891CD6B70D
:10043000AE0870AE09D68774AE01758686C6B6BEA4
:100440000960BE08C630611C30613D991CD4120A97
:10045000009ACA04B6B4B2B0AFB1B3B5B7891CD66E
:10046000B7AE0870AE09D68774AE01758686C6B67B
:10047000BE0960BE0822C630610C30612DD4231243
:100480000A009ACA04991CB6B4B2B0AFB1B3B5B7FA
:10049000891CD6AE0870AE09D68770AE01D4B0E61E
:1004A000891CE6BE0760BE0665A00A317F05A00E66
:1004B00061FB75A100D222C430610E30612FD423BC
:1004C0009ACA04991CB4B2B0B6AFB1B322C63061B7
:1004D0001C30613D9D2036610A3637612B3734610F
:1004E0000A3435612B352396948795926171616A40
:1004F000616BBDF3FA1223B5B7879586849261715B
:10050000616A616BBDF3B6B4B2B0AFB7AF891CD648
:10051000AE04BE08AE05BE09AE02BE06AE03BE07FF
:1005200087BE04AE01BE0565616C616A616BE4E281
:10053000B6B6B6B4AF891CD6AE04BE08AE05BE09C9
:10054000AE02BE06AE03BE0787BE04AE01BE05E422
:10055000E2B6B6B6B4AF1F49029D0F30A1008021AC
:1005600030273027306106306127AE0470AE053188
:10057000981600F4A1009786C6EA00F88DF6AFB58C
:10058000D49A9C06AD078E0DFBD69A0B05C49E0926
:10059000FB609E08FBA1039E06FB8E02FB708E0390
:1005A000FB305DFD6D01309E03FB609E02FBB4AF2E
:1005B000B5B1B3B7C1030D049E05FB1602FB31872D
:1005C000078E07FB4D00AD08A40064B2B2B2B4AF11
:1005D0008E05FB4D209DF1655D0F72C1025D1061BE
:1005E0006A6DA09E37FB8E05FB9E38FBC1025D0144
:1005F0000806FB5D0F6D809E39FBA100C301C1039E
:10060000AD1E163AFBC504D2B3B48597891C80D4BD
:100610008541958286C10374C101706461408DE893
:10062000C1010D03731037FB9A1C4E72C10170A1FA
:1006300000CA3AFBD662979A6D08AD409AA6069A10
:100640000B0551BD371012FB9A5DC8C1025D010850
:1006500006FB5D0F9E06FBA401C102314E039BCA3F
:10066000051046001602FB71839E11FB609E10FB75
:100670001062081210FB9A8EC89BCA051012FB9AD2
:1006800070C8EA33009D039BC8059A9C06BD039B76
:10069000C8058E0DFBD69A0B059BC8058E0CFB700A
:1006A0008E0DFB6168AF8E05FB731037FBD48E0A8D
:1006B000FB708E0BFBD6C4AFB3B5748E07FB4D0039
:1006C000BD2F645DE04DA0AD039BD2071602FB3148
:1006D00097039BD207649E18FBA1019E07FB100A9B
:1006E000009E0FFB609E0EFB9AF2079A8EC89BD26B
:1006F0000751BD13645D1F9E04FB4D209D67649EE2
:1007000019FBA1029BCF078E07FB4D02BD0E645D56
:1007100030BD52649E1AFBA1039BCF0776A7009AB7
:10072000E807C79D079ADE07419BCF079AE807C9EC
:10073000AD039BCF079ADE07731018FB9A1C4E611E
:100740004CBD721618FB31C7269AD507AD599E06C7
:10075000FB1602FB71929AF9078D0A9A1108879588
:10076000868450BDF99AF2079AF3C8A100FA609AFC
:10077000D507AD078E1CFB4D72BDEA100300306833
:1007800002FB306803FB9E03FB609E02FB106208C5
:100790001210FB9AF3C89AF9078DCA9A1108879527
:1007A000868450ADC0FAF71602FB71929A0808A130
:1007B00071BE01FAB08E14FB708E15FB6168ADA599
:1007C0008E15FBD69A0B059AF2079AF3C8FA969EF5
:1007D00007FBB4B2AF8E1AFB5D0F4806FBAFCA1819
:1007E000FBD664978E07FBAF8E04FB70A10090D2FE
:1007F000C6AF103A08120EFBAF8E1BFB729A0808A8
:1008000062978E07FB4D05AF8E08FB708E09FBD6F5
:10081000AF8E08FB708E09FB80D4A1FC161CFB0870
:1008200007FB70AF511602FBBD037192AF7193AF1E
:10083000A1001602FB71942D00AFA1009E07FB8E54
:1008400016FB708E17FB6168AD078E17FBD69A0BEF
:1008500005AF9E15FB609E14FBAF9E17FB609E16B6
:10086000FBAFA1001602FB71829E07FBAF8E0AFB55
:10087000708E0BFB6168AFB3B59A6D08AD069AA692
:10088000069A0B05B4B2AF9E0BFB609E0AFBAF9EAF
:100890000DFB609E0CFBAFB3B59A82174D05AD0EF4
:1008A0009A45C44D0F9D149A45C44D00AD0D105688
:1008B000FB9ACC63A1029A74C4FA389A82174D0647
:1008C000AD079A82174D02BD161056FB9A9C1DA1CA
:1008D000019A74C410061E9A34099A565CFA1410D0
:1008E00056FB9A023FA1009A74C4104C099A34092D
:1008F0009A565C9A9C3BA1019A373EA2001456FB83
:10090000A100B5B6BE19629A0B44629ACF0D629AE5
:10091000DD3D629A1F3D4262844D048DE38E65FB8E
:10092000708E66FB305DFC6D04309E66FB609E65DC
:10093000FBB4B2AF9E6AFB609E69FBA101AF8E69FA
:10094000FB708E6AFBD69A0B059BCB3B9A2C3FA182
:10095000019A7BCE51BD05A1039A1825AFB3734D03
:10096000049D06166FFBABFA02A100B2AF4D049DC9
:100970000B166FFB610E9AF50DA10097AFB3B5C1D1
:10098000061D09AD4151AD5251AD7D51BD039B4591
:100990000A51BD039B670A51BD039B290B51BD033F
:1009A0009B990B51BD039B780A51BD039BFD0B51D5
:1009B000BD039B150C1D40BD039B2D0C1D06BD03E7
:1009C0009B550A9B360CC1099A019B73C1099A98E1
:1009D000BEC1099A700C979B530CC1099ACD9A4DD0
:1009E00000BD11C1099AE39A51BD09C1099A620C6F
:1009F000A11BFA05C1099A700C97C1099A019B7352
:100A0000C1099A98BE9B530CC1099ACD9A4D00BD5D
:100A100020C1099AADC172C1099A519B61429D11D1
:100A2000C1099AF29A51BD09C1099A620CA11AFA38
:100A300005C1099A700C97C1099A019B73C1099A63
:100A400098BE9B530CA364C1099A98BEC1099A62CF
:100A50000CA106FA81A364C1099A98BEC1099A62E1
:100A60000CA109979B530CA300C1099A98BEC10918
:100A70009A620CA1059BD609C10B4DFEBD3FC10971
:100A80009A019B74C1099A87BE7264A30070A10089
:100A900080C78D14C1099A87BE74C1099A019B72DF
:100AA0006470A10080C79D079A82174D06AD07C1EB
:100AB000099A6A0CFA2FC1099A760CFA28C1099A88
:100AC000019B72C10B614ABD0FC1099A519B72C152
:100AD0000C614ABD039B530CC10B73C1099A98BEAC
:100AE000C1099A760C97C10C4DFEBD16C1099A58E2
:100AF000C351AD0EC1099A519B73C1099AC4BE9BE3
:100B0000530CC10C4DFEBD16C1099A58C351BD0E00
:100B1000C1099AB3BE73C1099AC4BE9B530CC10CE0
:100B200073C1099AC4BE9B530CC10BBD07C1099A7E
:100B30006A0CFA35C1099A019B72C10B9A580C12C2
:100B40006500C78D0EA364C1099A98BEC1099A7643
:100B50000CFA16C1099A019B72C10B61026273C142
:100B6000099A98BEC1099A760C97C1099A519B724D
:100B7000C10C9A580C12C900C78D0AA3C8C1099AA2
:100B8000C4BE9B530CC1099A519B72C10C61026295
:100B900073C1099AC4BE9B530CC10BBD07C1099A0E
:100BA0006A0CFA30C1099A019B72C10B61429D0E19
:100BB000A300C1099A98BEC1099A760CFA16C10918
:100BC0009A019B72C10B61126273C1099A98BEC1EE
:100BD000099A760C97C1099A519B72C10C61429D8A
:100BE00009A300C1099AC4BEFA69C1099A519B724E
:100BF000C10C61126273C1099AC4BEFA56C109736D
:100C0000A1019A5DBC73C1099A98BEC1099A620C90
:100C1000A1079BD609C10973A1029A5DBC73C109E2
:100C20009A98BEC1099A620CA1089B630AA303C5E6
:100C30000B9A5CB9FA1D8E89FB708E8AFB6168ADD8
:100C400012891CCA0600D48E89FB708E8AFBD6C41A
:100C50009A0B05B4B2CB0A007662A000610E302D6B
:100C600000AF70A100CA6FFBD6AF9A620CA11DAF96
:100C70009A620CA104AF9A620CA10BAFB5D68E8B11
:100C8000FB708E8CFB6168AD0EC6D48E8BFB708EB4
:100C90008CFBD6C49A0B05B4AFB38E91FB708E92C9
:100CA000FB6168BD09101F2E1291FB9A74CA8E67F2
:100CB000FB708E68FB9E92FB609E91FBB2AF101F93
:100CC0002EB31291FB9AD6CAA1009E92FB9BB90C3F
:100CD000A1039B0325A1049B0325A1089B0325B326
:100CE0009A98C2721064FB9AFCA661429D3A1665FE
:100CF000FB3186348E88FB4D00BD13A200629A43FF
:100D00000D42624D048DF61665FB7182FA15106472
:100D1000FB9AFCA6729A98C2611252624D049DE73A
:100D20009A430DA1019A373EB2AF1064FB9AF6A622
:100D300010FCFF305865FB305866FB9E66FB609EDA
:100D400065FBAFB3B5729AC1C24D00AD09629AB4EA
:100D5000BAEADCFEBD079AEF0DA105FA59629AC105
:100D6000C24D64BD079AEF0DA106FA4A629AC1C24C
:100D7000746273A1019A5DBC614CBD079AEF0DA12D
:100D800007FA33629AC1C2746273A1029A5DBC61B0
:100D90004CBD079AEF0DA108FA1C629AC1C24D64BE
:100DA0009D15629AC1C273629A98BE62A3009AC4EA
:100DB000BE9AEF0DA10B971665FB7192B4B2AFB35B
:100DC000734D049D06166BFBABFA02A100B2AFB3E4
:100DD0004D049D191665FB319704A001FA02A0008D
:100DE000726032166BFB610E9AF50D6297B2AF1608
:100DF0006BFB66610A76672D0077AF1056FBAFB3C9
:100E0000728E8DFB708E8EFB6168AD088E8EFBD668
:100E1000629A0B05B2AFB3B5D6637467D26470A1A2
:100E2000019A20CCB4B2AFB5D68E8FFB708E90FBFA
:100E30006168AD0EC6D48E8FFB708E90FBD6C49ABF
:100E40000B05B4AF7063304D12309D0E4D089D0AF6
:100E50001665FB31A704609AE15DAF51BD04A001A6
:100E6000FA02A000601665FB618C71A1AFA1009A27
:100E7000BC0E711B25712B25713B25714B251A0565
:100E80002A053A054A059E02F410F4FF305800F492
:100E9000305801F49E01F4609E00F4F006A0049A1C
:100EA000E2005D074D07BD047A05FA027B05F007F5
:100EB0005D074D03BD05A10C9A0325AF13267F13D3
:100EC00036707B06710A25710A35717B25710A27F8
:100ED000710A37711A27711A37712A27712A37AFA9
:100EE000B3B58E02F4169BD59B56051600F431B7A8
:100EF0000AA1069A13C651BD02FAFEA1069A13C6AC
:100F000051BD1D1021F49A5DC8A10D9A1825A100AC
:100F10009A6C3EA1011600F471C39E02F4B4B2AF04
:100F20001600F431C6F7A1019A6C3E1600F471C2A6
:100F3000FAEBA1069A13C64D00BD04A102FADB101C
:100F400021F49A70C8EAD0078DD39A7F149ABF9C77
:100F500051ADCAA1019A1CB8A101A3039AE15D1089
:100F600021F49A5DC8A1031600F47182FAAC9A22AA
:100F7000B951BD09A104A3039AE15DFA07A108A331
:100F8000039AE15DA400649AB4BAEADCFEBD1A6477
:100F90009ACABBEA2D01AD15649ACABBEAF501AD48
:100FA0000C649A47C14D04AD04A204FA08A2084497
:100FB000644D048DD19A84144D00BD05A1009B1A87
:100FC0000FA400FA17A3029AE15D62A3009AE15D03
:100FD00062A3019AE15D44644D049DE0649A47C1B7
:100FE0004D048D0862A3029AE15DFAEA649A47C152
:100FF0004D02BD0862A3009AE15DFADA649A47C126
:101000005162BDC1A3019AE15DFACBA1069A13C654
:101010004D00BD109A2CB951BD05A1009A5B0EA1DF
:10102000049B1A0F1021F49A70C8EA88138D159A40
:1010300022B951BD0F9A5EB8A106A3039AE15DA142
:101040000B9B1A0F1021F49A70C8EA10279D039B7E
:101050001D0FA10C9B1A0FA1069A13C651BD1B9A16
:101060002CB951BD0AA1019A36B9A1059B1A0F10DE
:1010700021F49A5DC8A1069B1A0F1021F49A70C83A
:10108000EA60EA9D061600F43186179A2CB951BD24
:1010900005A1019A5B0EA100A3039AE15DA1009B4B
:1010A0001A0F9A2CB951BD039B1D0FA101A3039ADE
:1010B000E15D9B1D0FA1069A13C64D00AD039B1D5C
:1010C0000FA1009A36B91021F49A5DC8A1049B1AA9
:1010D0000FA1069A13C651BD6B1021F49A70C8EA8D
:1010E000D0079D039B1D0FA1009A1CB851AD039B17
:1010F0001D0F9A841451AD039B1D0FA100A3039AE9
:10110000E15DA1009A47C14D048D11A101A3029A8E
:10111000E15DA1049E20F4A1079B1A0FA1009A474C
:10112000C14D02A101BD0FA3009AE15DA1029E2065
:10113000F4A1079B1A0F739AE15DA1019E20F4A10F
:10114000079B1A0FA1009A1CB851AD039B1D0F9B62
:101150009610A1069A13C64D00BD05A1089B1A0F53
:101160001021F49A70C8EA88138D099A22B951BDEA
:10117000039B35101021F49A70C8EA10279D039B39
:101180001D0F9B5210A1069A13C6511021F4BD08E1
:101190009A5DC8A1099B1A0F9A70C8EA60EA9D037C
:1011A0009B1D0F9A7F149AE15DA100739AE15DA1E6
:1011B00000A3019AE15DA1009B1A0FA1069A13C634
:1011C0004D00BD428E20F44D048D119A7F149AE19A
:1011D0005DA101A3009AE15DA102FA224D02A100E6
:1011E000BD0E739AE15DA101739AE15DA101FA0E52
:1011F000A3019AE15DA101A3029AE15DA1049E20F1
:10120000F4A1079B1A0F1021F49A70C8EAD0079D29
:10121000039B1D0F9A7F149AE15DA100739AE15D13
:10122000A100A3019AE15DA10A9B1A0FA1069A13DE
:10123000C64D00AD039B1D0F9AEDC24D00AD039B43
:10124000BC0FA1009A47C14820F4BD039BBC0F8E80
:1012500020F44D04BD209A7F149AE15DA40064A09F
:10126000011200009ADCBB641200009A31BC446495
:101270004D049D13FAE84D02A100BD06739AE15D8D
:10128000FA05A3019AE15DA4008E20F473649A7AB2
:10129000C144644D048DF29AB3599AA2AB9A87B8AF
:1012A0009BBC0FA1069A13C651AD039BBC0F102126
:1012B000F49A70C89B7A119A14C34D00BD13A1080B
:1012C000A3019AE15DA108A3039AE15DA10D9B1A18
:1012D0000FA100A3039AE15D9A7F149AE15DA1003A
:1012E000739AE15DA100A3019AE15DA1009B1A0F31
:1012F000A1069A13C64D00AD039B1D0F8E25F470F9
:101300008E26F46168AD078E26F4D69A0B059A5E98
:10131000B89A9E1B1021F49A5DC8A10E9B1A0FA1CA
:10132000019ABC634D00AD039B1D0FA1039ABC63E2
:101330004D00AD039B1D0FA1069A13C64D00AD03D2
:101340009B1D0F1021F49A70C8EAE9039D039B1DB1
:101350000FFAFE1021F49A70C8EAC9009D039B1D84
:101360000F9A9B16A1009B1A0F1021F49A70C8EADD
:10137000C9009D039B1D0F9A4F18A1009B1A0F10C7
:1013800021F49A70C8EAC9009D039B1D0F9A621947
:10139000A1009B1A0F1021F49A70C8EAC9009D039E
:1013A0009B1D0F9A0B18A1D09E07F41008F4A20001
:1013B000A3089A521B1010F4A2F0A3089A521B1013
:1013C00018F4A2F8A3089A521B9A01189AB00510B3
:1013D00021F49A5DC8A1139B1A0F1021F49A70C8CA
:1013E000EAC9009D039B1D0FA1019AB9171021F4B2
:1013F0009A5DC8A1149B1A0F1021F49A70C8EAC90B
:10140000009D039B1D0FA1029AB9171021F49A5D4C
:10141000C8A1159B1A0F1021F49A70C8EAC9009D43
:10142000039B1D0FA1039AB9171021F49A5DC8A15F
:10143000169B1A0F1021F49A70C8EAC9009D039BED
:101440001D0FA1049AB917A1179B1A0F1021F49A26
:1014500070C8EAC9009D039B1D0FA1059AB917A189
:10146000009B1A0F1021F49A70C8EAC9009D039BD3
:101470001D0F9A5A19A3049AB005A1009B1A0FA137
:1014800000A302AFB3B5B7A400649A47C1C3016417
:1014900012040070A100809A7301609A47C172C162
:1014A00001614ABD16649A54C14D00AD0E649A5450
:1014B000C14D059D069A14C351BD04A100FA08440C
:1014C000644D048DC4A101B2B4B2AF9E26F4609EF7
:1014D00025F4AFB3B5D4B5B6AE014D51BD178E02EC
:1014E000F44D00BD0B1021F49A5DC8A10F9E02F4CB
:1014F000A1019B98164D53BD4DB5B6AE0273A10028
:101500009A33C2B5B6AE0373A1019A33C2B5B6AE73
:101510000473A1029A33C2A100B5B6BE05C4A2F5F8
:10152000A301CA030080809AD11AC4A2F6A301CAFB
:10153000030080809AD11AA2F7A301848484848452
:10154000C49AD11AFAAA4D54BD059A9E1BFAFE4DB3
:1015500055BD101021F49A5DC8A1129E02F4A1019C
:101560009B98164D57BD38A1009A23C270B5B6AEF0
:10157000026148BD2AA1019A23C270B5B6AE0361CB
:1015800048BD1CA1029A23C270B5B6AE046148BD25
:101590000E1021F49A5DC8A1109E02F49BF014B5C0
:1015A000B6AE014D5CBD35A1009A23C270B5B6AE92
:1015B000026148BD27A1019A23C270B5B6AE03618E
:1015C00048BD19A1029A23C270B5B6AE046148BDE8
:1015D0000B1021F49A5DC8A1119B5B15B5B6AE0145
:1015E0004D91BD14A10BA3079AE15D9A086BA1016F
:1015F0001600F471B29B98164D92BD241600F4317A
:10160000B6039B91168484854D00BD0AA10BA307E8
:101610009AE15D9BF014A10CA3079AE15D9BF01485
:101620004D93BD2AA1009E05F4A1939E06F49AD283
:101630005C9E07F4F005A0059AE2005D039E08F4A5
:101640001021F49A5DC8A1189E02F49BF0144D94E9
:10165000BD22A1009E05F4A1949E06F49A5119AEF4
:10166000079E07F4AE089E08F41021F49A5DC8A105
:10167000189B5B154D95BD191600F431B713848482
:10168000854D00BD061104009BF0141104FF9BF072
:1016900014A1059A0325A100B4B2AFA100B3B59E71
:1016A00005F4A1529E06F49A14259E0AF4A1009A0C
:1016B00023C29E07F4A1019A23C29E08F4A1029AB4
:1016C00023C29E09F4A1009E0BF4F006A0049AE246
:1016D000005D079E0CF4A1039E0DF4A1249E0EF460
:1016E000A200629AB4BAEADCFEBD12629ACABBEAF0
:1016F0002D01AD10629ACABBEAF501AD07160BF4D5
:1017000071C2FA0642624D048DD89A22B951BD05C4
:10171000160BF47182A1009A47C14D04BD07160B48
:10172000F47192FA4DA1009A47C151BD07160BF40E
:1017300071A2FA3EA1009A47C14D02BD07160BF4F3
:1017400071B2FA2EA1009A47C14D03BD07160BF4E2
:1017500071D2FA1EA1009A47C14D05BD07160BF4C0
:1017600071E2FA0EA1009A47C14D06BD05160BF4B1
:1017700071F29A5A19A30A9AB005B4B2AFF0075D94
:1017800007AFF006A0049AE2005D07AFB3725116EE
:1017900000F4BD047182FA0271839A2CB951BD170D
:1017A0006251BD09A1009A5B0EA104FA07A1019A3A
:1017B0005B0EA1009E02F4B2AFB3B5B7709A0B18DE
:1017C000606DD09E07F460A400A003318860A00380
:1017D000CD0DF0C301C1017264A308A003CD417017
:1017E000A100CA07F49A521B44891CD6AE010D0809
:1017F000BE01644D038DDE9A01189AB005B0B4B2F3
:10180000AF1005F4A500A200A31BAFA1009E05F434
:10181000A1569E06F4AF8E02F44D00BD03A100AFA9
:10182000A101AF9E04F4609E03F4AF1023F49A5D0F
:10183000C81600F47192AF1023F49A5DC81600F434
:1018400071A2F005A0059AE2005D039E1FF4AFA10E
:1018500000B3B5B79E05F49A23C29E07F4A1019A7E
:1018600023C29E08F4A1029A23C29E09F41600F432
:101870003197641023F49A70C8EAD1078D59102368
:10188000F49A70C812E803CF60160AF497A1589E24
:1018900006F4F005A0059AE2005D039E0BF4160025
:1018A000F47193A300B0100CF4B18E03F4708E04A5
:1018B000F4D43197039B44199A5119AE0461439DA6
:1018C00010B6B785974384B0B180B6B1634D0D8D26
:1018D000E7630D0773FA671600F431A74E1023F47F
:1018E0009A70C8EAD1078D31F005A0059AE2005D33
:1018F00003481FF48E1FF4BD026D809E0BF410236D
:10190000F49A70C812E803CF60160AF497A15A9EA1
:1019100006F41600F471A3FA231600F431A70CA103
:10192000FF9E0AF4A1009A4819FA11A1FF9E0AF439
:10193000F005A0059AE2005D039A4819A3079A5A98
:10194000199AB005B0B4B2AF9E0BF4A1599E06F43B
:10195000AF8E03F4708E04F4D6AF1005F4A500A288
:1019600000AFA100B3B59E05F4A15C9E06F4A100F2
:101970009A23C29E07F4A1019A23C29E08F4A102F1
:101980009A23C29E09F4A1009A019B9E0AF4A10029
:101990009A519B9E0BF4A1019A019B9E0CF4A1010C
:1019A0009A519B9E0DF4A1029A019B9E0EF4A102F6
:1019B0009A519B9E0FF4A1039A019B9E10F4A103E0
:1019C0009A519B9E11F49A5A19A30D9AB005B4B27C
:1019D000AFA96C60AFB3B7711B231A039A6F39A11B
:1019E000009E30F49E2FF49AC51A9A521BA10AC386
:1019F000019A7A1DBD0E8E28F44D03BD078E29F481
:101A00004D0DAD469AC51A9A521B891CD6AE01518E
:101A1000BE01BDDD9A7A1DBD0E8E28F44D03BD07B3
:101A20008E29F44D0DAD239A9E1BA1089E27F4A18B
:101A3000039E28F4A10D9E29F4102AF49AC8CF9A87
:101A4000BA1A9AC51A9AD11AFA4B8E2DF44D03BDC3
:101A5000078E2EF44D24AD15102AF49AC8CF9ABAE9
:101A60001A102AF4A203A3059AD11AFA281027F40F
:101A70009AC8CF8E2AF44827F4BD108E2BF448283C
:101A8000F4BD088E2CF44829F4AD2C1027F4A203E1
:101A9000A3039AD11A1027F4A200A3039A521B9A07
:101AA0007A1DBD0E8E28F44D03BD078E29F44D0D11
:101AB000AD05A1019A0325B0B2AFA1039E2DF4A1FB
:101AC000249E2EF4AF1027F4A200A308AF711B23AD
:101AD000AFB5B1A100B3B7C301C10376C102A00085
:101AE000610E302D00D2C102A0005DF830CA08009E
:101AF000C78D551B039A54D0FA08891CD6AE0141F4
:101B0000BE01A0006073C10372706330D4C504E4E9
:101B1000C10273A1A09AC2394D00BD0C9A54D09A4B
:101B20006F39C1014D158DD28E2FF4708E30F46156
:101B30006810F4019E30F4609E2FF4BD10109B1BC2
:101B4000122FF49A74CAFA05A1019A0325B0B0B015
:101B5000B4AFB5B1A100B3B7C301C1034D099D3303
:101B60009A54D0A0016073C10372706330D4C5046D
:101B7000E4C10273A1A09AC2394D00BD1B9A54D092
:101B80009A6F39C1014D159D0F891CD6AE0141BE1A
:101B900001FAD0A1019A03259B4D1B1A03AFB3B7DD
:101BA0001627F4A008A100978650BDF9B0100800D0
:101BB000B1FA05EAF000AD11B0B160721027F4A3DC
:101BC000089AD11A9A54D0FA5B1027F4A202A30102
:101BD0009A521B1028F4A2F3A3029A521B9A7A1D60
:101BE0009D1C1027F4A2F4A3039A521B1027F4A201
:101BF000F5A3039AD11A9A8C1D9AD11AFA234D0E85
:101C00009D0C8E28F441AD068E29F441BD139A80B7
:101C10001D1027F4A2F5A3039AD11A9A8C1D9AD10C
:101C20001A9A801DB0CA0800B1EAFF008D859A712A
:101C30001DA272A3019AD11A9A711DA270A3019AD2
:101C4000D11AA1009A731DA271A3019AD11A9A60A8
:101C50001DA140978650BDF91027F4A258A3049AFD
:101C6000D11AA10F9A731DA273A3019AD11A9A6077
:101C70001D9A661DBDFB1027F4A208A3089AD11A6D
:101C80009A601D9A661DBDFB1027F4A278A3089ADE
:101C9000D11A9A601DA10A978650BDF91027F4A2A7
:101CA00040A3049AD11A9A601DA103978650BDF9EA
:101CB0001027F4A264A3049AD11A1088139E28F462
:101CC000609A731DA26CA3029AD11A9A7D174D03D4
:101CD0009A601DBD69A102978650BDF91027F4A234
:101CE0005CA3049AD11A9A601DA100978650BDF991
:101CF0001027F4A244A3049AD11A9A601DA1509708
:101D00008650BDF91027F4A250A3049AD11A9A6004
:101D10001DA150978650BDF91027F4A254A3049A30
:101D2000D11A9A601DA101BE01A1F597868650BD0A
:101D3000F41027F4A210A3089AD11AB0B2AFA101EF
:101D4000978650BDF91027F4A25CA3049AD11A9A81
:101D5000601DA101BE01A12D97868650ADD3FAF278
:101D60001627F4A004AFA1FEBE01A1DC9786865021
:101D7000AFA1FF9E27F41027F4AF8E27F44D08AFD4
:101D8000A1009E27F49E28F49E29F4AFA1009E286E
:101D9000F49E27F41027F4A2F3A302AFB39E94FBA2
:101DA000609E93FBA1019A97CBA1019A7ECF9A11D5
:101DB00021BE12A132BE11A101123D2D9A04CEA165
:101DC0000112D00C9A18CE12160E9A48239AD52CCE
:101DD00010D50C9A3E2E10DA0C9A462E10990C9AB9
:101DE0004E2E10BE0C9A172E9A1121BE2B9AB62396
:101DF0009A5DC89A2A0DA20062A3019A69C2426242
:101E00004D048DF4B2AFB3B5D50900891C9A1721E2
:101E10009ADF0C9AA9231D00AD2751BD039B1B1F00
:101E200051BD039B2B2051BD039B412051BD039B02
:101E30007A2051BD039BB02051BD039BE6209BF44B
:101E4000209A04219A70C8EAD0079D039BF4209A37
:101E50004D23A1FFBE1D9A5F23BE1E9A4D23A18074
:101E6000BE1F9AD25C9A6B239A1121BE219A019BC4
:101E70009AA1239A519B9A99239A019B9A91239A0A
:101E8000519B9A89239A019B9A81239A519B9A7913
:101E9000239A019B9A71239A519B9A65239A4D2309
:101EA000A10D97A100C303C1039A019B4D00BD0B77
:101EB000C103212772100200D1FA26C1039A019BA7
:101EC0004D64BD0BC103212772100300D1FA12C16A
:101ED000039ACD9A4D00AD0CC10321277210010069
:101EE000D19ACC23891C9AFA208DBC9AC0239AE5FA
:101EF0002C51AD039BF4209AB6239A5DC89A4D23CA
:101F0000A123BE38A1DEBE379A4D23A124BE3AA13B
:101F10002FBE399A6A24BE2B9BF4209AD55C51BD02
:101F20002DA101C3009A275DC305891C9A4323B7DD
:101F3000B7B7B7B7891CD49ACA049AAF239A57384F
:101F40009ABD239AE52C9AB6239A5DC8FAC59A4D94
:101F500023AE2C4D00AD60A100BE1DC303C10372B2
:101F6000100100D19A2524D6AE2C7062306158AD94
:101F70001DA104C300891C9A4323B7B7B7B7B7891B
:101F80001CD49ACA049AAF239A57389A5A23891CA8
:101F90009AFA208DC89AC0239AE52C51AD039BF480
:101FA000209A4D23AE1D7DFF728E94FBCA2C00D665
:101FB00087615A979BF420A1019A7BCE4D00BD0802
:101FC0009A4D23A1029B161FA100C305C303C103A1
:101FD0009AC5B851BD1BC103212772100100D16001
:101FE00072891CCA030080809AD72397C1039AEF95
:101FF000B8891C9AFA208DD6C105BD039BF420A197
:1020000040C300891C9A4323B7B7B7B7B7891CD41C
:102010009ACA049AAF239A57389ABD239AE52C9A04
:10202000B6239A5DC89A6A249B161FA1019A7BCE9B
:1020300051AD039BF420A1019A7ECF9A0B219B16F0
:102040001FA107C300891C9A4323B7B7B7B7B78945
:102050001CD49ACA049AAF239A57389ABD239AE59A
:102060002C51BD089A0B21BE2B9BF4209AB6239AC3
:102070005DC89A4D23A1049B161F9A04219A70C82B
:10208000EA0F008D6FA107C300891C9A4323B7B7DD
:10209000B7B7B7891CD49ACA049AAF239A57389A0B
:1020A000BD239AE52C51ADBC9AB6239A5DC8FA447B
:1020B0009A04219A70C8EA65008D399A2724CA2E9D
:1020C00000D68741979A4D23AE2E4D039D0E9AC39D
:1020D000239AE52C9AB6239A5DC8FA18A100BE2E61
:1020E0009A0B219B161F9A04219A70C8EA65008DED
:1020F000039B6420D70900B4B2AFCA0300D687415E
:10210000974D04AF8E94FBCA2F00AF9A4D23A101C7
:10211000AF9A4D23A100AFB3B5B1D50A009A0D2EE9
:1021200051AD039B3623A100C3009A4823D4C100BC
:1021300073891C809AC036891C80D4C50AD68584D0
:10214000978584BE018584BE028584BE038584BED6
:10215000048584BE058584BE068584BE0785BE08C9
:10216000C50AAE044D00BD039B2623C50A87724DE8
:1021700007BD0E9AA9234D05BD07A101BE2B9B19D2
:1021800023C50AD6AE015D0751AD0AC50AAE015D91
:10219000074D03BD1FC50A120A00B7B7B7B7B78905
:1021A0001CD49ACA049A7D09A1059A440EA1039AE7
:1021B0005423FAC89AA92351AD039B3023624D02E0
:1021C000BD46C50AD6A10397C1009A019BD6C50A90
:1021D000E6BE05C1009A519BD6C50AE6BE06C50AF1
:1021E000120A00B7B7B7B7B7891CD49ACA049AAF16
:1021F000239A57389ABD239AE52C9AB6239A5DC83C
:102200009A5F23BE2B9B30234D15BD2FC50AD6AE3A
:102210000597C50A9A7C0CC50A9A4323B7B7B7B786
:10222000B7891CD49ACA049AAF239A57389ABD2307
:102230009AE52C9AB6239A5DC8FAC54D05AD039B65
:102240001923A1FFBE1DA1069A5423BE1E9A522334
:10225000BE1F9A4D23AE2DBE1F9AD25C9A6B239A55
:102260005223BE219A019B9AA1239A519B9A9923AA
:102270009A019B9A91239A519B9A89239A019B9A3E
:1022800081239A519B9A79239A019B9A71239A519F
:102290009B9A6523A10D9A5A23A10077C50AE6BE31
:1022A00003C50AD6AE039A019B4D00BD0BC50A9A21
:1022B0003C23100200D1FA2CC50AD6AE039A019B2A
:1022C0004D64BD0BC50A9A3C23100300D1FA15C515
:1022D0000AD6AE039ACD9A4D00AD0CC50A9A3C239E
:1022E000100100D19ACC23C50ACA0300D6874197B2
:1022F000C50A874D048DAA9AC0239AE52C51BD05C5
:102300009A5223BE2D9AB6239A5DC8A1069A5423E9
:10231000BE2BA107A3009A440EC50AD6AE015DC02C
:10232000AD04A104C300891C9AFD209D039B2A21B2
:102330009A2A0D9A072ED70C00B4B2AFD6AE03215D
:102340002772AFD6120A00AF9A272480AF9A2724AB
:10235000D6AFA1009A2624D662AF9A542397AF9A9B
:102360004D23A106AF9A5423BE29AF9A5423BE2011
:10237000AF9A5423BE28A103AF9A5423BE27A103CA
:10238000AF9A5423BE26A102AF9A5423BE25A102C0
:10239000AF9A5423BE24A101AF9A5423BE23A101B6
:1023A000AF9A5423BE22A100AF9A4D23AE2BAF9A11
:1023B0002724CA1D00AF9A2724CA2F00AF9A5A2398
:1023C0009A4D2387738E94FBCA1D00AF9A2524CAA9
:1023D00021009AD72397AFD66270876168AFB3B5F3
:1023E000726374629A019B73629A98BE100100D165
:1023F00060739A2724CA2C00D6637087616897643B
:1024000051100100BD0CD19A2524CA2D009AD72362
:10241000FA0FD1607DFF729A2724CA2D00D68761FA
:102420005A97B4B2AF60728E93FB708E94FBAFB3C9
:10243000B5D50900D6A152C300A103C30467D305D3
:10244000891C9A4323B7B7B7B7B7891CD49ACA0473
:102450009AAF239A57389ABD239AE52C9AB6239AB5
:102460005DC89A6A24BE2B9BF4209A4D23A105AF28
:10247000A100B3122C259A18CEA1011231259A1869
:10248000CEB2AFB38E32F44831F4AD75A200629A89
:10249000BC634D09BD076273A1009AE15D42624DC4
:1024A000048DEB8E31F416D3D59B5605A1019ABC51
:1024B000634D00BD46A109A3019AE15DFA3DA1006B
:1024C0009ABC634D00BD34A109A3009AE15DFA2BCB
:1024D000A1029ABC634D00BD22A109A3029AE15D4D
:1024E000FA19A1039ABC634D00BD10A109A3039A78
:1024F000E15DFA07A10FA3079AE15D8E31F49E32E8
:10250000F4B2AF708E31F451AD09609E31F4A10088
:102510009E32F4AF8E31F4AF4831F4AD044D0DBDB1
:102520000AA1009E31F4A10D9E32F4AFA1069B03D7
:1025300025A1039B03258E31F44D06AD084D07AD53
:10254000044D09BD03A101AFA100AFA101B39E9746
:10255000FB9A932810FCFF305895FB305896FB9A55
:10256000A728A1009EA1FB9EA0FB9A23C29E9AFBD6
:10257000A1019A23C29ACA2AA1029A23C29ACA2AFC
:10258000A1FFA3009A9CC2B2AFB3B59ABC259ADF53
:102590000C9AD55C51BD229A275D9E9FFB8E95FBC0
:1025A000708E96FB305DFC6D0230D666212525705D
:1025B000A10080A202D19A9928B4B2AFB3B5D50ACE
:1025C000008E97FB16F3D59B5605D70A00B4B2AF21
:1025D0008E95FB5D03AD389A8A2890605D0370A1EB
:1025E00000D4C6305DFC9AA428A101C3018E9FFBD4
:1025F000C306891C9ACF2CB7B7B7B7B7891C9A28DE
:10260000299ACA049A57389A2D299E97FBFABB8EAD
:10261000A1FB4D00AD279A45C474109DFB9A70C86C
:10262000D264B3B670A10012F401D9CAD007B7B210
:10263000C99D0A109BFB9A5DC8A102FACD8EA0FB32
:102640004D00AD869A45C474109DFB9A70C8D26443
:10265000B3B670A10012F401D9CAD007B7B2C98DC0
:10266000039BCA25A103FAA2109BFB9A70C8EA1F1C
:10267000009D039BCA25A100C304A304FA61A10322
:10268000C301C1009A019BC306C1009A519BC307B5
:10269000A1009EA6FB891C9ACF2CB7B7B7B7B78904
:1026A0001C9A28299ACA049A57389AD42A9A8A28AE
:1026B000662125212570A10080A202D19A9928A126
:1026C00006FA35639AF028D16058A1FBBD3F891CFA
:1026D000CA0400D6874197434D088D039BCA25C184
:1026E00004C3009AF028D16058A1FBADD6C1009A6E
:1026F000816B4D00AD88A1019E97FBC1009AF02827
:10270000D1607DFF58A1FB9EA1FB9BCA25C1009A09
:10271000816B4D00BD31A103C301C1009A019BC370
:1027200006C1009A519BC307A1009EA6FB891C9A73
:10273000CF2CB7B7B7B7B7891C9A28299ACA049A79
:1027400057389A2D29FA02A1019E97FBC1009AEEF3
:1027500028D1FAADA1FF9EA6FBA1069EA7FB8EA0E5
:10276000FB9EA8FBA1009EA0FB9E98FBA1069B0AD6
:1027700026A1079EA7FBA10F9EA6FB9A2D299E9737
:10278000FB9BCA25109BFB9A70C8D68E9AFB72677A
:10279000A300C99D039BCA2510A4FB9ADA2A9A4577
:1027A000C44D00BD05A10A9B0A269A9328A1079E45
:1027B00097FB9A36254D00AD039B5928A1109EA288
:1027C000FBA1729EA3FBA5008E98FB7210A2FBA337
:1027D000099AB00551AD039BCA25109BFB9A5DC8B1
:1027E0009AD119708E9AFB61786D149E9AFB169897
:1027F000FB31C705A1089B0A26A109FA81109BFBA2
:102800009A70C8D28E9AFB70A100C98D039BCA250D
:102810009A362551BD05A1079B0A268E99FB4D0AC4
:102820009D09419E99FBA1079B7E279A9328A101B0
:102830009B0A26109BFB9A70C8D28E9AFB70A1004F
:10284000C99D289A362551BD188E99FB4D0A9D11B8
:10285000419E99FBA1079E97FBA10D9A18259BCA43
:10286000259A93289EA6FBA101FAEB8EA1FB4D00B1
:10287000BD039BCA25A1019B0A2610A4FBA3079AAE
:10288000E52C51AD039BCA25FAEB8E95FB708E9615
:10289000FBD6AFA1009E99FBAF605D1C70A100D478
:1028A000C6305DE3616C309E96FB609E95FBAFB3D6
:1028B000B5744D049D359AEE28D16075649AF02860
:1028C000D16530616868A1FB9EA1FB109DFB9A5DFC
:1028D000C86351649AF028BD08D18EA0FB6168FAE4
:1028E00007D1607DFF58A0FB9EA0FBB4B2AF0D04E2
:1028F00072100100AFB3B5D50900D6A152C300A133
:1029000003C30467D305891CD6120A00B7B7B7B74B
:10291000B7891C9A28299ACA049A57389A2D299E51
:1029200097FBD70900B4B2AFD410A6FBAFA1009EAD
:1029300098FBA106AFB5D4B5B6AE03A0053188CAE1
:1029400090D1D687A0039AE2005D074D06C4BD056D
:102950009A6929FA039A362B8E97FB4D08BD05A17B
:10296000079E97FB9A2A0DB4AFB3B5D4B5B6AE03A4
:102970001D38AD1551BD039B272A51BD039B612A0C
:1029800051BD039BA02A9BC22AA1009A23C270B505
:10299000B68561584FBD71A1019A23C270B5B68644
:1029A000B7B2B5B6AE016158B3B64FBD5BA1029ADE
:1029B00023C270B5B6868684848561584FBD499A16
:1029C00045C44D058D42A1059A4BC49A97089AC5F6
:1029D0002A9A440EA13C9EA7FBA1009A23C29EA85E
:1029E000FBA1019A23C29EA9FBA1029A23C29EAA1F
:1029F000FB9AD42A109BFB9A5DC89AD1199ACA2ACD
:102A0000A1049E97FB9BC22A8E97FB4D04AD0E8EB0
:102A100097FB4D07AD074D08AD039BC22A9AC52A07
:102A20009A440EA101FADB9A45C44D059D039BC251
:102A30002AA1059A4BC49A97089AC52A9A440EA1CE
:102A40003C9EA7FBA1009A23C29EA8FBA1019A234A
:102A5000C29EA9FBA1029A23C29EAAFB9A2D29FA23
:102A6000A1A1009A23C270856148BDA3A1019A2348
:102A7000C270B5B6AE016148BD95A1029A23C2707D
:102A8000B5B6AE026148BD8784848484859A4BC400
:102A90009A97089AC52A9A440EA1059E97FBFA2296
:102AA0009A7D177084848484856148BD10A10F9A33
:102AB0004BC49A97089AC52A9A440EFA05A1009A1F
:102AC0004BC4B4B2AFA105A302AF708E9AFB61787C
:102AD0009E9AFBAFA1009E98FBAFB3B5D4A1009521
:102AE000B5B6BE01B5B6AE024D00BD04A20FFA07E1
:102AF00072A100B5B6BE029A45C44D059D239A4504
:102B0000C4310E0A62A004CD729A45C4FA07625D10
:102B10000F729A45C42125A000610C30612DD66248
:102B2000978E95FB212521255D076D08708484858E
:102B3000616895B4B2AFB3B5B1D50A009A45C42166
:102B40002573D6C50AE6ABD6C50AE6BE029A45C4C9
:102B50004D058D039BC92CC50AD6AE034D14BD1A75
:102B60009A98C241AD0AA107A3029A440E9BC92CB0
:102B7000A1FFA3029A9CC29BC92C9A45C4310E1294
:102B8000C50AD6AE02A0049AE200D6C50AE6BE0285
:102B9000FA09C50A8080D6875D0F97C50ACA030067
:102BA000D6874D02AD0EC50A874D15AD07C50A87FC
:102BB0004D54BD05A1009EA6FBA100C300C50A801F
:102BC00080D4C10073891C809AC036C105BD039BA7
:102BD000BC2CC1014D07BD0F8E97FB4D08BD08A150
:102BE000019E97FB9BAB2CC502605D0751AD09C5EB
:102BF00002605D074D03BD16891C9ACF2CB7B7B78D
:102C0000B7B7891CD49ACA049A7D099BAB2CC10121
:102C10004D02BD30A103C301C1009A019BC306C18F
:102C2000009A519BC307891C9ACF2CB7B7B7B7B787
:102C3000891C9A28299ACA049A5738A104C3009A71
:102C4000D42AFA524D54BD27A101C3019AD25CC3C4
:102C500006891C9ACF2CB7B7B7B7B7891C9A282911
:102C60009ACA049A5738A104C3009AD42AFA274D65
:102C700015BD38C106C301891C809A7C0C891C9A39
:102C8000CF2CB7B7B7B7B7891C9A28299ACA049A24
:102C90005738A104C300A1069E97FB891C8080D6EB
:102CA0008770AE01305D3F9760BE01C502605DC0B8
:102CB000AD04A104C3009AC52A9A440E891CD68784
:102CC00041974D049D039BBD2BD70C00B4B2AF8040
:102CD000D6120A00AF9ECCFB609ECBFBC29ECFFB00
:102CE000609ECEFBAFB3B5D663720D029EBCFB4DAA
:102CF000108D04A100FA43624D00AD0B14BDFB70B2
:102D00008795868450BDF9A1FF08BCFB7310BCFBFE
:102D10009A1C4E736216BDFB610E76672D007763B9
:102D2000978EBCFB7310BCFBD48ECEFB708ECFFB9A
:102D3000D6C49A0B0551BDBBA101B4B2AFB3B574F3
:102D40008ED4FB708ED5FB6168AD078ED5FBD69A0D
:102D50000B058ECDFB4D00BD10644D108D039BEC1B
:102D60002D9EADFBA1019BE92D76A7009AF92DC7F9
:102D70009D069AEF2D41FA719AF92DC9BD6E9AEF11
:102D80002D7310ADFB9A1C4E614CBD49A1009ECD28
:102D9000FB8ECBFB708ECCFBD416AEFB8EADFB70E6
:102DA000A10090120100C78D1787958ECDFB419E23
:102DB000CDFB86849AFE2D8ECDFB70A100C78DE9D8
:102DC00016ABFB71828ED6FB708ED7FB6168AD1798
:102DD0008ED7FBFA0E8ED0FB708ED1FB6168AD07EB
:102DE0008ED1FBD69A0B05A1009ECDFBB4B2AFCA23
:102DF000ADFBD664978ECDFBAF9AFE2DC6AF8EADE0
:102E0000FB70A10090D2AF16ABFB7183AFA100168F
:102E1000ABFB71842D00AF9ED7FB609ED6FBAF8EBF
:102E2000CDFB4D00AD17A1009ECDFB8ED2FB708E69
:102E3000D3FB6168AD078ED3FBD69A0B05AF9ED14D
:102E4000FB609ED0FBAF9ED3FB609ED2FBAF9ED5B6
:102E5000FB609ED4FBAF9AFB0D9ED9FB609ED8FB16
:102E60008ED9FBD6A12EBE34A178BE339A2E33A1C3
:102E700033BE36A163BE35AFB3B5B1D6871D16BD1F
:102E8000039B582F51BD039B852F51BD039BB62F2C
:102E900051BD039B313051BD039B3E3051BD039B5F
:102EA000543051BD039B6A3051BD039B743051BDFA
:102EB000039B813051BD039B953051BD039BA930CD
:102EC00051BD039BBD3051BD039BC63051BD039B1B
:102ED000FC3051BD039B783151BD039BDB3151BDAB
:102EE000039BE43151BD039B0C3251BD039B153252
:102EF00051BD039B253251BD039B34321D02BD03DE
:102F00009B3D321D02BD039B463251BD039B4F3298
:102F100051BD039B603251BD039B743251BD039B75
:102F200085321D0CBD039B8F3251BD039B97321D13
:102F30000DBD039BA23251BD039BCD3251BD039BFE
:102F4000EB321D07BD039BF23251BD039BCD3051C7
:102F5000BD039BFA329B0033AE039AB4BAD4B6B722
:102F60009A2533D9D2C4C9AD039A5B33A0016074EA
:102F7000B6B79A2533D99A04339AC6BA1088139AE9
:102F800002C19B0033AE039ADFBEB6B7BE049A25DA
:102F900033D9D2AE039A45BBB0B1D6AE039ADFBEE9
:102FA00072B0B1D6AE04614AAD039A5B3310881398
:102FB0009A02C19B0033AE039A47C14D049D5F9AAC
:102FC0007D174D07AD58B0B1D6AE039A36C072A387
:102FD00000B3B4B6B79AAF36A214D9B5B2C9AE032E
:102FE0008D299A36C072A00160746270A100B1C5CB
:102FF00002D69AAF36A214D9B630611E303D00D247
:10300000B0B19A37339ADCBB9B00339A36C0A0012B
:10301000726074B0B19A37339ADCBB9B0033A00165
:103020006074B6B79A2533D99A04339ADCBB9B00F7
:10303000339A2533D9D2AE039A31BC9B0033AE0507
:103040009A1E339A84BCB0B1D6AE069A1E339AF952
:10305000BC9B0033AE059A17339A84BCB0B1D6AE90
:10306000069A17339AF9BC9B00339A4C33A111BED0
:10307000199B00339A2533D9D2AE039AA0C09B0086
:10308000339A0B33AD04A101FA02A10073AE039A87
:103090001BBF9B00339A0B33AD04A101FA02A100C0
:1030A00073AE039A9ABF9B00339A0B33AD04A10110
:1030B000FA02A10073AE039A56BF9B00339A1133F4
:1030C0009AEEBF9B00339A82174D06BD24B0B19A89
:1030D00010339AD2C0B0B1D69A0B33AD0AA302AE68
:1030E000039A6DC39B0033A300AE039A6DC39B008C
:1030F00033B0B19A10339A1AC09B0033AE05A014B6
:103100003188BE0660BE059A7D174D07BD0BB6B768
:103110009A11339A56C09B0033B0B1D6AE039ACA07
:10312000BBD4B0B1D6AE039A36C0A000610C3061FA
:103130002DB6B79A3B33C98D7CB6B79AAF36D4B0AB
:10314000B1CA0700D68770AE0130611C30613D30D6
:103150009760BE01A0016074B6B7AE0770AE089A62
:1031600004339ADCBBB6B79A11339A56C0B6B79AF5
:1031700011339A72C09B0033AE05A0143188BE068D
:1031800060BE059A7D174D07BD0BB6B79A11339AED
:1031900072C09B0033B0B1D6AE039ACABBD4B0B1F3
:1031A000D6AE039A46C0A000610C30612DB6B79A26
:1031B0003B33C99D84A0016012000074B0B19A37FE
:1031C000339ADCBBB6B7AE0773AE039A56C0B6B738
:1031D000AE0773AE039A72C09B00339AAF369A0261
:1031E000C19B00339A11339A26C19AB3599AA2AB64
:1031F000B0B1D6AE054D43BD09A101739AE15D9B07
:103200000033A100A3019AE15D9B00339A11339A28
:1032100069C29B0033AE059AF9C2B0B1D6AE059A29
:1032200044B89B00339A0B33BD02A1FFA3019A9CC3
:10323000C29B00339A11339AD1C29B00339A113347
:103240009A6DC39B00339A11339A34C59B00339A0D
:103250000B33AD04A101FA02A1009A373E9B003363
:103260009A0B33AD04A101FA02A1009A565C9AB3FD
:10327000599B00339A11339A7AC19AB3599AA2ABE7
:103280009A87B8FA7BAE059ADDC19AAA66FA719A56
:103290004C33A10F9B6F30AE05729A2E3362BE3253
:1032A000FA5EAE0551BD18A10DA3079AE15DA1021A
:1032B0009A1825A1049A1825A1089A1825FA41A15F
:1032C000019A12B9A10EA3079AE15DFA339A821707
:1032D0004D05AD2CB0B1D6AE0551BD089A5EB89A79
:1032E0009E1BFAFEA1019A27C3FA15AE059A1CB8D7
:1032F000FA0E9A11339ABDC1FA069A11339A45C350
:10330000B0B4B2AFD2AE03706430AFAE054D00AF13
:10331000D6AE0573AE03AF72AE0373A102AF72AE49
:103320000373A101AFAE0570AE06121400AF8ED8C4
:10333000FB708ED9FBD6AFD69B0533BE0860BE07A7
:10334000AE0570AE06D2AE0770AE08AFAE03729A8D
:103350002E3362610E76672D0077AF9A4C33A11938
:10336000BE19AFB3B5D4851D16BD039B3E3451BD08
:10337000039B5D3451BD039B733451BD039B8A3461
:1033800051BD039B983451BD039BB3341D02BD0353
:103390009BC93451BD039BD83451BD039BEC3451C0
:1033A000BD039B013551BD039B183551BD039B24C3
:1033B0003551BD039B303551BD039B443551BD0391
:1033C0009B5E3551BD039B693551BD039B753551DE
:1033D000BD039B833551BD039B8B3551BD039B932F
:1033E0003551BD039B9F3551BD039BA53551BD0391
:1033F0009BC23551BD039BD3351D03BD039BDF35F8
:1034000051BD039BEB351D0FAD4A51AD7451BD034A
:103410009B55351D0ABD039BF3351D02BD039BF96A
:10342000351D04BD039B06361D02BD039B8236512C
:10343000BD039BB13551BD039B8E369B9A36B5B605
:10344000AE039AB4BA9AA7363182B5B6BE0660BE4C
:10345000059B9D36B5B6AE039AB4BAFAEDB5B6AED5
:10346000039A29BB9AA7363182B5B6BE0660BE055F
:103470009B9D36B5B6AE039ACABB9AA7363182FA7F
:10348000C9B5B6AE039ACABBFADFB5B6AE039A1990
:10349000BC9AA7363182FAB2B5B69A1F339A5DBC90
:1034A000B5B6BE05B5B69A1F339AD2BCB5B6BE0640
:1034B0009B9D36B5B69A18339A5DBCB5B6BE05B5B8
:1034C000B69A18339AD2BCFAE3B5B6AE039A8EC058
:1034D0009AA73631829B4A34B5B6AE039A0BBF51D8
:1034E000BD04A101FA02A100B5B6FA82B5B6AE03D9
:1034F0009A8ABF51BD04A101FA02A100B5B69B4F43
:1035000034B5B6AE039A3EBF51BD04A101FA02A183
:1035100000B5B6BE059B9D36B5B6AE039ADEBFB507
:10352000B69B4F34B5B6AE039A0AC0B5B69B6E349F
:10353000B5B6AE039A36C0A21470A100318260B550
:10354000B69B4F34B5B6AE039A46C0A21470A10024
:10355000318260FABCA100B5B6BE069B4F349AFA20
:10356000C0B5B6BE06609B6E34B5B6AE039A16C142
:10357000B5B69B4F34B5B6AE039A52C2B5B6BE05CA
:103580009B9D369AEDC2B5B69B4F349A98C2B5B69C
:103590009B6E34B5B6AE039AC1C2B5B69B4F349A92
:1035A0007D179B1135B5B6AE039A58C3B5B69B4F80
:1035B00034B5B6AE039AC2C0A20A318260B5B69BDA
:1035C0006E349A8AC4B3B19AA036D6B0B29AB536E0
:1035D0009B9D36B5B6AE039A24C5B5B69B4F34B5A0
:1035E000B6AE039A54C1B5B69B6E349AD9C1B5B67E
:1035F0009B4F349A14C39B1135A206A3029AA0369E
:103600009A521B9B9D36A1029A23C212000070633E
:10361000E2E260A000B3B1C4CA03008080D6B0B2B9
:10362000BE016097BE03BE02A1019A23C270A10031
:10363000B3B1B5B6AE0772AE08739AAF369A7B02D5
:10364000E260E27260A000B3B1C4CA03008080D619
:10365000B0B29AB536A1009A23C270A10012000040
:10366000B3B19AA036D68770AE01D2AE0270AE0367
:10367000E29A7B02309760BE01C230BE0260BE0398
:10368000FA1BB5B6AE039AADC1B5B69B4F34B5B60D
:10369000AE039A3CC3B5B69B6E34A10895B4B2AFE5
:1036A0008484848484C4AF2125302530A20AAFAE3F
:1036B0000570AE06AFBE016097C2BE0360BE02AF2A
:1036C000B3B1B3D50B00B5B6AE01C302A0053188C6
:1036D000CA8FD1D6AE0170AE02D666A0039AE200C0
:1036E000A0083188605D3870A100B1C6605D0770C8
:1036F000A100B166A0069AE200A0403188D2C507B9
:10370000305D3F616A30616B305DC030B230616AFC
:1037100030B230616A30B2B1D303100000D2DB079F
:10372000854D00AD52B0B1605DC04D40BD0AA101F4
:10373000C306A1FFC305FA51C10C72100100D18567
:103740006158AD22A101C306C10CC30566A0039A4E
:10375000E200A0083188605D3870A100D6B0B130B9
:103760005DC7616EFA20A100C306C10CC305B0B1EC
:10377000305DC76D08FA0FA100C306A1FFC305B0F5
:10378000B1305DC76D0830D303C50360A0039AE272
:10379000005D07AD1551AD1451AD2251AD2651ADAF
:1037A0003151AD3E1D02AD7AFA7DFA7B8484854DA0
:1037B00000AD06A101C307FA6EA100FAF884848562
:1037C000C307FA63B5B6AE02C30784848485C30811
:1037D000FA55B5B6AE0376848485A00030610E300C
:1037E000FA43B5B6AE0570A10072B3B1B5B6AE047A
:1037F00070A100B3B1B5B6AE0370A100B3B18484BB
:10380000857063E2E260A0009A7B02E2E27260A04F
:10381000009A7B02E260E27260A0009A7B02DB0702
:10382000FA058484C4D307891C8080D4C50DD6854D
:1038300084978584BE018584BE028584BE03858409
:10384000BE048584BE058584BE068584BE0785BE0C
:103850000867D70F00B2AFB3B5B1B7C10AA0053141
:1038600088CA90D1D687705DC04D40BD0AA1FFC304
:103870000DD6C502E6FA0DC10D72100100D1D6C5F4
:1038800002E6606F97C10AD6C502E6BE01A0053107
:1038900088CA90D1D687A0039AE2005D07AD165181
:1038A000AD1851AD1551AD1F51AD3051AD3B1D029D
:1038B000AD619B4F39A4029B5139C10FD6C502E6B9
:1038C000BE02A4039B5139C10FD6C502E6BE02C198
:1038D00010D6C502E6BE03A404FA76C50F70D6C59D
:1038E00002E6BE02C50F60FAE8DD0F6370D6C502BE
:1038F000E6BE02DD0FC260D6C502E6BE03DD0F7074
:10390000D6C502E6BE04DD0F60D6C502E6BE05A43C
:1039100006FA3EA402C10E70A1008080120300C707
:103920008D2FC5028080B6B1B6B7B7B2C50FD687A6
:10393000B3B697C50F80D30F44B0B180B6B1C10EF6
:1039400070A1008080D26470A100C79D04FAD9A440
:103950000064B2B2B4B2CB0A00B1B7F4A95D12AD43
:103960000B8EDBFB708EDCFBD69A0B05B6B08FA0FE
:103970000013A800712B232B03713B233B03FA0791
:1039800071340301713103AC03094060310EF14D14
:10399000418DF4712B232B03713B233B03710AAA46
:1039A000712BAA713BAA13A8F8710AA8712AE571B4
:1039B0002BE1AF3126230431372306712B23713BD2
:1039C00023AFB1B7712AE5712BE1717AA8714AA8CA
:1039D000713AA8711AA83116A9043176A8F8891C81
:1039E000D6AE035DFEF21FB0100000B13126E11625
:1039F0009A54D0891CD68770AE0180309760BE0182
:103A0000B0B16168BDE6712BE13126A91B710AA82E
:103A10001400003126E1099A54D084C46168BDF3D2
:103A2000712BE1A1009B993B63F21FB0100000B124
:103A30003126E1169A54D0891CD68770AE018030A9
:103A40009760BE01B0B16168BDE6712BE13127A975
:103A500065A1009EDAFB891CCA0200D6874D00BD15
:103A60006B6248DAFB9D039B7B3BBD039B7B3B85E5
:103A7000F21F848EDAFB419EDAFBB0100000B131F8
:103A800026E1169A54D0891CD68770AE01803097F3
:103A900060BE01B0B16168BDE6712BE13126A9C1FC
:103AA000710AA81400003126E1099A54D084C46137
:103AB00068BDF39B203A710AA81400003126E10981
:103AC0009A54D084C46168BDF39B203A711AA8311E
:103AD00016A9043176A8F8AE016D01F21FB01000EE
:103AE00000B13126E1169A54D0891CD68770AE01F8
:103AF00080309760BE01B0B16168BDE6712BE131E5
:103B000026A916710AA81400003126E1099A54D09A
:103B100084C46168BDF39B203A62712AA8713BA8F6
:103B200048DAFB8D3AAD38715AA8B0100000B131B7
:103B300026E1169A54D0891CD68770AE0180309742
:103B400060BE01B0B16168BDE6712BE1F01F9584E4
:103B50008EDAFB419EDAFB6248DAFBAD029DC8714A
:103B60002BA8715AA8713AA81400003126E1099ACD
:103B700054D084C46168BDF3712BE1710AA81400AC
:103B8000003126E1099A54D084C46168BDF3A101D3
:103B9000712BE1712BE5712BE1B2B2AFA100B59EA3
:103BA000E6FB9EE5FB16DDFB14E1FBA00497958484
:103BB0008650BDF98EE7FB708EE8FB6168BD0A9AFE
:103BC000583E9EECFB609EEBFBB4AF8EE7FB708E25
:103BD000E8FBD69A0B05AFA101B39ABC6351AD5C6B
:103BE000A1059A13C651AD49A1039A13C651AD411F
:103BF000A1049A13C651AD39A1029A13C651AD3131
:103C0000A1009A13C651AD29A1019A13C651AD2145
:103C10009AD53D6168BD1AA200FA0642624D049D24
:103C20001B629A16C14D43AD08629A16C14D45BD3F
:103C3000EAA101739AE15D9A3718FA64A1019ABC6E
:103C40006351BD5CA1059A13C64D00BD53A1039AF3
:103C500013C64D00BD4AA1049A13C64D00BD41A133
:103C6000029A13C64D00BD38A1009A13C64D00BD7F
:103C70002FA1019A13C64D00BD269AD53D6168BD9E
:103C80001FA200629A16C14D43AD15629A16C14D2E
:103C900045AD0D42624D048DEAA100A3019AE15D9C
:103CA000B2AFB3728EE9FB708EEAFBD6629A0B0557
:103CB000B2AFB3724D049D63A1029A13C651BD19F0
:103CC000A1059A13C64D00BD1016DDFBAA4D04AD2B
:103CD00004A104FA48A101FA44A1009A13C651BDF7
:103CE00015A1039A13C64D00BD0C16DDFBAA4D06A7
:103CF000ADE3A106FA27A1019A13C651BD15A1048F
:103D00009A13C64D00BD0C16DDFBAA4D05ADC6A12C
:103D100005FA0AA10016DDFBBAFA02A100B2AFB3A0
:103D2000724D049D26A1029A13C651BD04A104FA46
:103D300016A1009A13C651BD04A106FA0AA1019A60
:103D400013C651BD06A10516DDFBBAB2AFB3728E24
:103D5000EBFB708EECFB9BAB3CB3734D049D6E9AFA
:103D6000D23D9A2201605D034D03BD1016E1FBAB0D
:103D70004D04AD04A104FA57A101FA539AD13D9A1A
:103D80002201605D034D02BD0C16E1FBAB4D06AD9B
:103D9000E7A106FA3A9AD13D9A2201605D0351BD2E
:103DA0000C16E1FBAB4D05ADCFA105FA22A1059A9A
:103DB00013C651ADB7A1039A13C651ADCCA1049A55
:103DC00013C651ADDCA10016E1FBBBFA02A100B2A3
:103DD000AF632127728EE5FB708EE6FBAFB3734DA8
:103DE000049D529AD23D9A2201605D034D03BD08A5
:103DF000A10416E1FBBBFA3D9AD13D9A2201605D18
:103E0000034D02BD04A106FAE99AD13D9A22016050
:103E10005D0351BD08A10516E1FBBBFA18A1059A87
:103E200013C651ADCBA1039A13C651ADD8A1049AC4
:103E300013C651ADE0B2AF51BD059A583EFA11100C
:103E40007F3E9A773EA13E9EEAFB609EE9FBA13E43
:103E50009EECFB609EEBFBAF10D73B9A773E10B217
:103E60003C9EEAFB609EE9FB10593DAF51BD051039
:103E7000D73BFA03107F3E9EE8FB609EE7FBAFA1B5
:103E800000AFB3B57463344D04349D541D04AD2E9E
:103E900051AD0551AD15FA379AE43E100100D19AA3
:103EA000E33E100200D19AE93EFA2E9AE43E100257
:103EB00000D19AE33E100100D19AE93EFA1B9AE440
:103EC0003E100300D13068E5FB3068E6FBFA0A9A41
:103ED000E43E100300D19AF33E9EE6FB609EE5FBB4
:103EE000B4B2AFD664212772AF9AF33E30616E3020
:103EF000616FAF307DFF307DFF3058E5FB3058E615
:103F0000FBAFB39EEEFB609EEDFBA1019A97CBA1A8
:103F1000029A7ECFA1011228449A04CE9A094A80BF
:103F20009A23189A4F46A180BE24B2AFB3B59A2304
:103F300046AD1A8EEEFBCA11009A70C8EA59028D7E
:103F40000C9A4246A148BE1EA1089A03259AD04366
:103F50003188CA5CD3D6875D0F4D02BD0F9AEDC282
:103F600051BD099A4F46A100BE1EFA559AD0433161
:103F700088CA5CD3D6875D0F4D03BD10A100A30294
:103F80009ABF9C51ADDD9AEDC251ADD79A574B16F1
:103F90000FD69B56059ADF0C9A604CFA24A105A314
:103FA000009AE15D9A2A0DA1029A1825A1049A1897
:103FB00025A1089A18259A6443A100BE1F8650BD0A
:103FC000F8B4B2AFA1059A114AFAD2A1069A114AE1
:103FD000FACBA1049A114AFAC4A1009A114AFABD77
:103FE00010ED4B9A8C43FAB59A4A43BE2C9A604C1A
:103FF0009B633F9A4F46A1419A58439ADBA2FA9D90
:104000009A4F46A1619A58439AA6D0FA909A5F486F
:104010004D0C8D06AE204D819D0CAE224D0C8D10A9
:10402000AE234D818D0AA1029A03259A5043FA913D
:104030009AF84A9AAE47121400D9BE2D60BE2C9A47
:104040004F46AE21A0143188BE3160BE309A094A75
:10405000CA2E00D69A594C9A014BAE2E70AE2FA2A2
:1040600014D9BE2F60BE2E100C479A8C43108813B3
:104070009A02C19A87B89AD8439B9D3F10BE479A2F
:104080008C439B9D3F9A4A43BE1FFA0B9A6649BDDB
:10409000039B663F51BD0A9A2946BE1F9A2946BE18
:1040A00020106C489A8C439B9D3FA1119AC9499B53
:1040B0009D3F9A6649ADDA108C489A8C439B9D3F90
:1040C000A1129AC9499B9D3F9A5F489ADDC19AAA5D
:1040D000669A87B89B9D3FA1109AC9499B9D3F1046
:1040E0003B4A9A8C434D00AD039B9D3F9B633F1021
:1040F000AE489A8C439B9D3F10B9489A8C439B9D38
:104100003F9AE64D9A6D439A8C439A87B89B7640C6
:104110009A43439A6D439A8C439A87B89B7640A101
:10412000019A1CB89B9D3FA1009A1CB89B9D3F9A89
:104130005F484D0D8D039B2640A0143188BE316031
:10414000BE3010884A9A8C439B764010E84A9A8C7D
:10415000439B9D3F10EE489A8C439B9D3F9AAA66D5
:104160009A87B89B9D3F106C499A8C439B9D3F104A
:10417000074B9A8C439B9D3FA1079AC9499B9D3F42
:10418000A1089AC9499B9D3F10314B9A8C439B9D36
:104190003F10654B9A8C439B9D3F10874B9A8C43F5
:1041A0009B9D3F9A5F4851A200BD1C100100D19A0F
:1041B0002E4AAD089A3843A3019A45C342624D0482
:1041C0008D039B9D3FFAE4100100D19A2E4AAD0861
:1041D0009A3843A3009A45C342624D048D039B9DC8
:1041E0003FFAE410194E9A8C439B9D3F1081499AE7
:1041F0008C439AB3599AA2AB9AB19D9B9D3F9A5F0B
:10420000489AF1C19A4F46AE209A0DC29B9D3FA39A
:10421000019A5F489A9CC2A20062A3009AD1C2424E
:10422000624D048D039B9D3FFAEF9A2A0D9A5043ED
:104230009A98C241BD039BC13FA107A3009AE15DCB
:104240009BC13F9A6649AD04A101FA02A1009AF907
:10425000C29A5F489A44B89B9D3F9A5F484D658DCE
:10426000039B26409A5F48A0143188BE3160BE305F
:10427000101B499A8C439AD8439B9D3F108E499AB4
:104280008C439B9D3FA1059AC9499B9D3FA1069ADE
:10429000C9499B9D3F9A7D174D03BD039BD740A104
:1042A000049AC9499B9D3FA1199AC9499B9D3FA169
:1042B0000DA3079AE15DA1029A1825A1049A182579
:1042C000A1089A18259A4F469B663FA10EA3079A0C
:1042D000E15D9B9D3F1003499A8C439B9D3F108459
:1042E0004B9A8C439B9D3F9A4343D69A524C9A7764
:1042F0004310884A9A8C439B7640101B499A8C4302
:104300009B9D3F9A6649AD04A101FA02A1009AC99A
:10431000BF9AB19D9AB3599B9D3F9A9E1B9A60D0BC
:104320009B9D3FA1029A03259A6443A100BE1F866C
:1043300050BD039BC13FFAF3A104739A504B63BE77
:104340002862AF9A094ACA3000AF9A4F46A101AF1E
:104350009A6548A100BE1EAFBE1F9A4F46AE1DBE55
:10436000209B524C9A50439A4F46A005AF9A514C0D
:104370009A774310CB48AFD485A000BE01609784E4
:104380008574AE0130616C9760BE01AFB3B5B1A367
:10439000019AD0433188CA5CD3D6875DF04D10BDF9
:1043A00004A300FA26A200100100D160749A4F46BF
:1043B000AE1D7064306158AD0A62B6B79A0B054DF8
:1043C00000BD02A30042624D048DDC63B2B4B2AF03
:1043D0009A4F46AE1EA003AF9A2946BE2DBE2C9A18
:1043E0002946BE2FBE2E9A2946BE31BE30AFB372CB
:1043F0004D049D139A2244AD0E9A534636610A36F7
:104400002D0077AE28FA02A100B2AFB3724D049D21
:104410000F9A2244AD0A9A53469A504BA100BE28E7
:10442000B2AF9A094A6168AFB3B5749A2346BD35F5
:104430006441AD14A1009A23C2614CAD0BA1009A56
:1044400023C29A0946C9BD179A094ACA11009A5D42
:10445000C89A3746BE259A4F468741979BDD459AB5
:1044600042469BD94551BD246441BD05AE2541ADB1
:1044700014A1019A23C2614CAD0BA1019A23C29AE7
:104480000946C9BDDA9A3746BE26FACA874D02BD2B
:104490005EA100BE1D9A3746BE279A3C4641BD0A22
:1044A000AE2641BD05AE2741AD27A1009A23C272B9
:1044B0009A3C46614ABD24A1019A23C2729A1346CE
:1044C000614ABD17A1029A23C2729A0647614ABD8A
:1044D0000A9A4A46A10FBE1D9BDD459A5846519A3D
:1044E0004F46BD039B5944A1009AB4479BD9454D03
:1044F00003BD24AE24614CBD039B5F4464BE049A9B
:104500003C46BE019A1346BE029A0647BE039A2B4A
:10451000189A4F469B59444D04BD12644D0E8D03AD
:104520009B5F44BE059A194641979BDD459AFD4520
:10453000C79D099AF1459A4F469B59449AFD45C932
:10454000AD039BD9459AF1459A1946738EEEFB80CF
:104550009A1C4E614CBD709A2946979A2F46D1609D
:1045600072AE1D7062306158AD1B879A954B4D003D
:10457000BD139A2F46D1607DFF729A094ACA1D0069
:10458000D687615A979A4A46874D048DCEAE1D4D07
:1045900000AD3CAE06BE1E9A4F46AE04BE249A4FF6
:1045A00046A1079AB4479AE0459D289A19469AE988
:1045B00045AE01729A1D469AE94562BE189A4A466E
:1045C0009AE0459D0EFAE4A1049A03259A4F46A16C
:1045D00048BE1E9A29469B2945A148BE1EB4B2AFCB
:1045E000AE05728770626140AF610E76672D00770D
:1045F000AF87610E76672D007764BE01AFAE0570A0
:10460000A10090D28770A100AF70A10080D2647029
:10461000A100AF9A4F46AE26AF8EEDFB708EEEFB3B
:10462000D687AF9A19464D00AF9A4F46A100AF9A70
:10463000194672100100AF9A4F4664AF9A4F46AECA
:1046400025AF9A4F46A1009B4E469A194641978E38
:10465000EDFB708EEEFBD6AFB3B5D508009A0647DA
:1046600074A500160000B7B59A5346AE267416001E
:1046700000B7B59A5346AE259AFB469A7B02E2E212
:104680007260A0009A7B02DB04A1009A23C272A18F
:10469000019A23C273A1029A23C27463160000B761
:1046A000B57462B7B59AFB469A7B02E2E27260A0EB
:1046B000009A7B02B6B6B3B1DD04B3B1DD04DF9D71
:1046C00032DD04B3B1100000B1A004B1DD08E1DFB8
:1046D0008D21DD006074DD046430611851721001B9
:1046E00000D19A074ACA1D00D6627087616897A1F7
:1046F00001FA02A100D70800B4B2AF120000706343
:10470000E2E260A000AF9A4F46AE27AFB3B574A007
:104710000160759AB847D26570649AC6BA9A7D17D7
:104720004D06AD0F9A7D174D05AD08649A47C14DF2
:10473000049D30649A36C072A3009ADF4AC9648D22
:10474000169A36C0729ADF4A30611A303D00D2653F
:1047500070649ADCBBFA129A36C0A00172649ADCCB
:10476000BBFA069A58489ADCBB9AB8476168AD2EE6
:10477000AE2E70AE2F6168AD12AE2FA20A31829AB2
:10478000AD47CF6073649AEFBEFA199AAE47A20A9A
:1047900031829AAD47CF6073649AEFBEFA0664A384
:1047A0000A9AEFBE9A4F4666610C9B8048D2AE2CA7
:1047B00070AE2DAF979B4F469A4F469BAE47B3B511
:1047C00074A3009A6DC39A574B1D11AD1651AD2DB0
:1047D00051AD381D0FAD491D2AAD6951AD6E51ADBA
:1047E00053FA7164A3019A7AC164A3009ABDC19A75
:1047F000B3599AA2AB9A87B8A101B4B2AF64A3022D
:104800009A7AC164A3009ABDC1FAE464A3049A7AB7
:10481000C19A58489ADCBB641200009A31BCFACFA6
:1048200064A3019A6DC364A3079A7AC164A3009A32
:10483000BDC1FABB64A3039A7AC19A5F4873649AB4
:10484000BDC1FAAB64A3059A7AC1FAA364A3069A20
:104850007AC1FA9BA100FAA264A001120000AF9AEB
:104860006548AE1FAF8EEDFB709B5346B3B5749A8F
:10487000F64D9A84BC9AA548A1019AF9BC9B874839
:104880009AEB45A119BE28A101B4B2AFB3B5749A91
:104890005F48726473A1029A84BC9AA548A1029AE7
:1048A000F9BC9B87489A4F46AE20726473AFB39AA7
:1048B000C4489AEEBFA101B2AFB39AC4489A1AC0D5
:1048C000A101B2AF729A5F487362AFB39A564B4D73
:1048D0001DAD084D1EAD04A100FA11629A816B4D09
:1048E00000BD079A2B4BA119BE28A101B2AF9A5760
:1048F0004B4D26AD0B4D27AD074D28AD03A100AFA5
:10490000A101AFB39A564B4D29AD084D56BD086273
:104910009A509DA101B2AFA100FAFAB3B5749A57AB
:104920004B4D24BD0D9AE24AD2649AA0C0A101B4B5
:10493000B2AF9A574B4D4ABD0A9AE24AD2649A31B5
:10494000BCFAEA4D5CBD1BAE1F73649AD2C09A6676
:104950004964AD07A3029A6DC3FAD2A3009A6DC34E
:10496000FACBA100FAC99A5F484D00AF9A574B4D58
:104970002DAD0B4D2EAD074D2FAD03A100AFA10105
:10498000AFB39A564B73629A26C1A101B2AFB39AE4
:10499000564B4D44BD08629A2CA3A101B2AF9A5761
:1049A0004B4D4BBD13AE1F4D00AD04A101FA02A14A
:1049B0000073629A69C2FAE24D4FBD09AE1F73627D
:1049C0009AFAC4FAD5A100FAD3B3B7B773A100C35A
:1049D000019A094AD302C10172100100D19A074A13
:1049E000D6AE1D7062306158AD06C502D663BE28D2
:1049F000891CD6AE0141BE01C50280D302C1014D62
:104A0000048DD3B0B0B2AF60728EEDFB708EEEFB52
:104A1000AFB3B574A200100100D19A2E4AAD06645E
:104A200073629A823E42624D048DEBB4B2AF607302
:104A30009A4F46AE1D7063306158AFB3729A816B66
:104A40004D00AD04A100FA389A824A318707A301CC
:104A50009A1BBFFA05A3009A1BBF9A824A31970797
:104A6000A3019A9ABFFA05A3009A9ABF9A824A3183
:104A7000A707A3019A56BFFA05A3009A56BFA10142
:104A8000B2AF9A524CD662AFB3B5B7749ACABBD222
:104A9000649A36C0A000610A30612BB6B19ADF4A31
:104AA000D2B0B1C98D19A00160759AE24AD6B0B1F1
:104AB00030611E30613FD26570649ADCBBFA069AA1
:104AC00058489ADCBB9AD74A9A56C09AD74A9A72E3
:104AD000C0A101B2B4B2AF9A4F46AE307364AF9A80
:104AE0004F46AE3070AE31AFB3B5728EEDFB709AFB
:104AF000F84A66610A9B80488EEEFBCA2C009A51E8
:104B00004C9A77439B4F46B39AC4489ADEBD9AC5E8
:104B1000489A36BE9A5D4B9A0ABE9A5D4B9A62BE1F
:104B20009A2B4BA10CBE28A101B2AF9A4F469B50C5
:104B30004BB39AC4489ADEBD9A5D4B9A0ABE9A5707
:104B40004B4D33BD079A504BA10CBE28A101B2AF0B
:104B500066610A9BEB45729A4F46AE1EAF9A4F466E
:104B6000AE207362AFB39AC4489A36BE9A5D4B9A30
:104B700062BE9A574B4D34BD079A504BA10DBE28CB
:104B8000A101B2AFA101AFB3729A4F46629AE94553
:104B9000A1099B254BB3729A4F46AE074D208D3C21
:104BA0006273A1019A68C59AE44BAD306273A102A9
:104BB0009A68C59AE44BAD246273A1039A68C59ABA
:104BC000E44BAD186273A1049A68C59AE44BAD0C2E
:104BD0006273A1059A68C59AED4DBD04A101FA0260
:104BE000A100B2AF739A4F46AE07614BAFB3B57435
:104BF0009A524CD68741AD0987726473A1019A8B92
:104C0000C59A094ACA2000D68741AD0987726473E4
:104C1000A1029A8BC59A094ACA2100D68741AD09DB
:104C200087726473A1039A8BC59A594CD68741AD9C
:104C30000987726473A1049A8BC59A094ACA230032
:104C4000D68741AD0987726473A1059A8BC59B878E
:104C500048D69A094ACA1F00AF9A094ACA2200AF29
:104C6000B3B59A4F46AE2C51AD1E51AD7351BD0335
:104C70009BFD4C51AD6A51BD039B254D51AD61511A
:104C8000BD039B6B4D9BD84DA1049AC9499ADF4D3A
:104C90009A05A7A10DA3079AE15D9A22B951BD0417
:104CA000A401FA02A4009A094ACA0F00D664618CD2
:104CB00071B19A2946BE2E9AE64DD49A574B4D09AA
:104CC000BD0CAE074D209D0EA102959B9A4D4D0A3D
:104CD000BD0AA106FAF4A104959B9A4DA100FAEA37
:104CE000A400649A816B4D00AD039BD84D44644D84
:104CF000048DEF9AE64DD68741979B9A4DA4009A72
:104D0000DB4DD19AFF4DBD15649A816B4D00AD0D01
:104D10009AF64D9A8BC59ADB4DD19A0B4E44644D51
:104D2000049D77FADAA400FA196473A1019A68C5A0
:104D30009AED4DAD079ADB4DD19A0B4E44644D046C
:104D40009D589ADB4DD19AFF4DBDDE6473A1019A47
:104D500068C59AED4DBDD2649A816B4D00ADCA9A7B
:104D6000F64D9A8BC59ADB4DD1FACEA4006473A19F
:104D7000019A68C54D20649D139A816B4D00AD1456
:104D80009AF64D9A8BC59ADB4DD1FA057210010047
:104D9000D19A0B4E44644D048DD39ADF4D9A0BA7E4
:104DA0004D0B9D289A4F46AE2E4D0FAD1F8EEEFB3C
:104DB000CA0F00D631B6069A22B951AD0FA1019A99
:104DC000BC6351AD079A574B4D0BBD0CA10EA30709
:104DD0009AE15D9A2946BE2CB4B2AF649B32469AE2
:104DE000094ACA2D00AF9A094ACA2C00AF729A4FDD
:104DF00046AE07614AAF9A5F48726473A101AF9AE9
:104E0000074AD6AE2E7062306158AF9A074ACA2E52
:104E100000D6627087616897AFA101AFB3B5B7D60E
:104E200063A2004D00AD23C301876172A008625DDB
:104E3000804D0062AD05277DA5FA01277250BDEEB9
:104E400086891C80D4855195BDDF62B2B4B2AFA112
:104E500000B3B5B7C30112EFFB14F7FBC1019A47CA
:104E6000C11D02AD1F51AD4251AD2C51AD4F51ADE1
:104E70005FA151B3B6BE01A1FE97A152B5B6BE0166
:104E8000A13CFA5DA152B3B6BE01A17A97A152B579
:104E9000B6BE01A1E0FA4AA154B3B6BE01A13E9745
:104EA000A154B5B6BE01A161FA37A153B3B6BE0194
:104EB000A1A397A153B5B6BE01A1F5FA24A154B39D
:104EC000B6BE01A1F697A155B5B6BE01A127FA114C
:104ED000A154B3B6BE01A18097A154B5B6BE01A13D
:104EE000BB97891CD6AE0141BE01848482824D04E9
:104EF0009D039B5C4EB0B4B2AFB3B5D4B5B6AE06AD
:104F000070AE076168C4AD0FD2B5B6AE0670AE071D
:104F1000D6C29A0B05FA039A394FC4CA0800D48541
:104F20004D05AD0C4D06AD084D09AD044D07BD0452
:104F3000A101FA02A100B4B2AFB5D4B5B69A7751C7
:104F40008D3B859ACD9A4D00AD22859A50C54D0076
:104F5000BD09A155B5B69ACC50FA07A157B5B69A76
:104F6000F951BE06A104B5B6BE08FA09A155B5B6F9
:104F70009ACC50BE069AD8569A5DC8B4AFB5B69AC8
:104F8000DB528D2E859ACD9A4D00AD17859AE3C4DC
:104F900051BD10A104B5B6BE08A156B5B6BE07A155
:104FA000F1FAD085A00231889AD150B5B6BE07601B
:104FB000FAC1B5B69A41538DC2859ACD9A4D00ADCE
:104FC00007859AE3C451ADCB85A0023188CAF7FBAF
:104FD0009AD450B5B6BE0760FA99B5D4B5B69A77EB
:104FE000518D3A9A50AB4D00BD22859A50C54D0067
:104FF000BD09A155B5B69ACC50FA07A157B5B69AD6
:10500000F951BE06A104B5B6BE08FA09A155B5B658
:105010009ACC50BE069AD8569A5DC8FA33B5B69A5D
:10502000DB528D1285A00231889AD150B5B69AD341
:10503000569A5DC8FA1AB5B69A41538D1385A002E7
:105040003188CAF7FB9AD450B5B69AD3569A5DC840
:10505000B4AFB5D4B5B69A77518D279A50AB4D0001
:10506000BD0FA104B5B6BE08A157B5B69AF951FA5D
:1050700007A155B5B69ACC50BE069AD8569A5DC8C7
:10508000B4AFB5B69ADB528D1285A00231889AD1A1
:1050900050B5B69AD3569A5DC8FAE5B5B69A41535B
:1050A0008DDE859ACD9A4D02BD10A106B5B6BE081B
:1050B000A158B5B6BE07A161FABE85A0023188CA63
:1050C000F7FB9AD450B5B6BE0760FAACBE07A1E4B0
:1050D000AFCAEFFBD68770AE01AFB5D4B5B69A773D
:1050E000518D28859ACD9A4D00AD0FA104B5B6BE5D
:1050F00008A157B5B69AF951FA07A155B5B69ACC99
:1051000050BE069AD8569A5DC8B4AFB5B69ADB526F
:105110008D2E859ACD9A4D00AD17859AE3C451BD69
:1051200010A104B5B6BE08A156B5B6BE07A1F1FAE6
:10513000D085A00231889AD150B5B6BE0760FAC1B9
:10514000B5B69A41538DC2859ACD9A51BD07859ABD
:10515000E3C451ADCC859ACD9A4D02BD10A106B5E0
:10516000B6BE08A158B5B6BE07A161FA94A153B561
:10517000B6BE07A146FA8AAE034D03AFB5D6B7B4A3
:105180008484854D038D079A3354BE06FA04679ACA
:10519000DA50B4AFB5D4B5B69A77518D09A157B5E9
:1051A000B69AF951FA4FB5B69ADB528D20859ACD51
:1051B0009A4D00AD09A157B5B69AF053FA3785A0BC
:1051C0000231889AD150B5B6BE0760FA28B5B69AB2
:1051D00041538D23859ACD9A4D00AD09A157B5B69F
:1051E0009A3954FA1085A0023188CAF7FB9AD45034
:1051F000B5B6BE0760BE06B4AFBE07A166AFB5D4F4
:10520000B5B69ADB528D27B5B69ADF55BD20A105FC
:10521000B5B6BE08859AF29A51BD0AA157B5B6BE79
:1052200007A174FA13A157B5B69AF053FA0AB5B6A6
:105230009ACD56B5B6BE0760BE06B4AFB5D4B5B606
:105240009A41538D27B5B69A8955BD20A106B5B6AA
:10525000BE08859AE39A51BD0AA157B5B6BE07A10B
:10526000AFFA13A157B5B69A3954FA0AB5B69ACD22
:1052700056B5B6BE0760BE06B4AFB59A84559A70EF
:10528000C8EA5F018D27B5B69ADB528D20A105B51E
:10529000B6BE08859AF29A51BD0AA157B5B6BE07A7
:1052A000A174FA33A157B5B69AF053FA2AB5B69A53
:1052B0008955BD12A105B5B6BE08B5B69ACD56B58D
:1052C000B6BE0760FA11B5B69A41538D0CB5B69AC1
:1052D000CD56B5B6BE0760BE06B4AFAE014D03AF46
:1052E000B59A84559A70C8EA5F018D27B5B69A4180
:1052F000538D20A106B5B6BE08859AE39A51BD0A22
:10530000A157B5B6BE07A1AFFA33A157B5B69A39C2
:1053100054FA2AB5B69ADF55BD12A106B5B6BE0835
:10532000B5B69ACD56B5B6BE0760FA11B5B69ADBDA
:10533000528D0CB5B69ACD56B5B6BE0760BE06B452
:10534000AFAE024D03AFB59A84559A70C8EA5F01BB
:105350008D27B5B69A41538D20A109B5B6BE0885F3
:105360009AE39A51BD0AA157B5B6BE07A1AFFA2F6D
:10537000A157B5B69A3954FA26B5B69ADF55BD107D
:10538000A109B5B6BE08A151B5B6BE07A17CFA0FFA
:10539000B5B69ADB528D0AA151B5B6BE07A17CBE47
:1053A00006B4AFB3B5D4B5B69ADB528D34B5B69A60
:1053B000DF55BD2D859AF29A51BD1D859AADC172FA
:1053C000859A519B61429D10A105B5B6BE08A157B3
:1053D000B5B6BE07A1EAFA13A157B5B69AF053FACB
:1053E0000AB5B69ACD56B5B6BE0760BE06B4B2AF22
:1053F000BE07A149AFB5D4B5B69A41538D27B5B60E
:105400009A8955BD20859AE39A51BD10A106B5B67B
:10541000BE08A158B5B6BE07A12DFA13A157B5B65F
:105420009A3954FA0AB5B69ACD56B5B6BE0760BEDB
:1054300006B4AFA106BE08A157BE07A158AFB5D6A6
:10544000B7B484854D038D12B7B49A9258BD0BA1A1
:1054500005BE08A1579AF053FA039A1A55BE06B42E
:10546000AFB5D6B7B48484854D038D0DB7B48485AC
:105470004D00BD059A3354FA039A1E55BE06B4AFCB
:10548000B5D4B5B69ADB528D1EB5B69ADF55BD17A9
:10549000A105B5B6BE0865CA09009A5DC8A158B590
:1054A000B6BE07A198FA10A104B5B6BE08B5B69A63
:1054B000CD56B5B6BE0760BE06B4AFB5D4B5B69A84
:1054C00041538D1EB5B69A8955BD17A106B5B6BE16
:1054D0000865CA09009A5DC8A158B5B6BE07A1C142
:1054E000FA10A104B5B6BE08B5B69ACD56B5B6BE8B
:1054F0000760BE06B4AFB5D6B7B484854D038D132F
:10550000B7B49A9258BD0CA105BE08A158BE07A118
:1055100074FA039A1A55BE06B4AFA104BE08AE04CD
:1055200070AE05BE0760AFB5D6B7B48484854D03B1
:105530008D14B7B484854D00BD0CA106BE08A158DA
:10554000BE07A183FA039A1A55BE06B4AFB59A8472
:10555000559A70C8EAF5018D16B5B69ADB528D0FD3
:10556000A105B5B6BE08A157B5B69AF053FA11B564
:10557000B69A8955BD0CB5B69ACD56B5B6BE07607C
:10558000BE06B4AFD4CA0900AFAE014D00AFB59AA4
:1055900084559A70C8EAF5018D30B5B69A41538D9D
:1055A00029B5B69ACD56EADA50BD10A109B5B6BEF6
:1055B00008A158B5B6BE07A161FA20A106B5B6BECE
:1055C00008A157B5B69A3954FA11B5B69ADF55BD48
:1055D0000CB5B69ACD56B5B6BE0760BE06B4AFAE32
:1055E000024D00AFB5D4B5B6AE034D00BD1B859AD4
:1055F00050C551BD149AD8569A70C8EAD0079D0973
:10560000A107B5B6BE089BBF56B5B69A77518D3384
:105610009AD8569A70C8EAD1078D28859A50C551F4
:10562000BD21859A019B4D068D19859AA49B4D003D
:10563000BD11A111B5B6BE08A156B5B6BE07A1DD14
:105640009BC9569AEDC251BD149AD8569A70C8EAB1
:10565000A00F8D09A157B5B69AF951FA6CB5B69A53
:1056600077518D2A9AD8569A70C8EA71178D1F857E
:105670009A50C54D00AD07859AA79C51BD10A11445
:10568000B5B6BE08A158B5B6BE07A1EAFA3BB5B695
:105690009A77518D229AD8569A70C8EA71178D1749
:1056A000859AA49B51BD10A113B5B6BE08A156B5ED
:1056B000B6BE07A1DDFA12B5B6AE034D00BD0CB5FE
:1056C000B69ACD56B5B6BE0760BE06B4AFAE04708E
:1056D000AE05AFBE0760BE06C4CA0900AFB5D6CAE4
:1056E0000800D4854D00BD07A1579AF951BE06B4F4
:1056F000AFB59A84559A70C8EAE9038D16B5B6AE6F
:1057000002B5B6864FAD0CB5B69ACD56B5B6BE0746
:1057100060FA32B5B69A8955BD19B5B69ADF55BD4E
:1057200026A104B5B6BE08B5B69ACD56B5B6BE0725
:1057300060FA124D038D10B5B69A41538D09A157E9
:10574000B5B69AF951BE06B4AFB5D6B7B484854D97
:1057500000BD039AAD59B4AFB5D6B7B49A9258BD4F
:10576000039AAD59B4AFB5D6B7B49A9158BD039A60
:10577000AD59B4AFB5D4B5B69A8955BD12A104B52B
:10578000B6BE08B5B69ACD56B5B6BE0760FA1C854A
:105790009AF29A4D00BD16A104B5B6BE089AD85625
:1057A0009A5DC8A155B5B6BE07A14DBE06B4AFB54A
:1057B000D4B5B69ADF55BD12A104B5B6BE08B5B6CC
:1057C0009ACD56B5B6BE0760FA1C859AE39A4D008D
:1057D000BD16A104B5B6BE089AD8569A5DC8A155A3
:1057E000B5B6BE07A18EBE06B4AFB3B5D4B5B69AF2
:1057F0008955BD12A104B5B6BE08B5B69ACD56B549
:10580000B6BE0760FA22859AF29A4D00AD0D859AD0
:10581000ADC172859A519B61428D0FA104B5B6BE90
:1058200008A157B5B69AF053BE06B4B2AFB5D4B519
:10583000B69ADF55BD12A104B5B6BE08B5B69ACD6D
:1058400056B5B6BE0760FA15859AE39A4D00BD0FAE
:10585000A104B5B6BE08A157B5B69A3954BE06B470
:10586000AFB5D6B7B49A9258BD08A151BE07A17C76
:10587000BE06B4AFB5D6B7B484854D00BD039AA9B2
:1058800059B4AFB5D6B7B49A9258BD039AA959B4D2
:10589000AF848484854D00AFB5D4B5B69A8955BD23
:1058A0001E65CA09009A70C8EAD0079D06A104B512
:1058B000B6BE08B5B69ACD56B5B6BE0760BE06B43C
:1058C000AFB5D4B5B69ADF55BD1E65CA09009A704A
:1058D000C8EAD0079D06A104B5B6BE08B5B69ACDF4
:1058E00056B5B6BE0760BE06B4AFB5D6B7B49A918A
:1058F00058BD08A158BE07A1FDBE06B4AFB3B5D4CC
:10590000B5B69A41538D10B5B6AE084D06AD08A197
:1059100006B5B6BE08FA44B5B69A77518D27A115DB
:10592000B5B6BE08859A47C14D049D10A159B5B6BC
:10593000BE07A15E9AD6569A5DC8FA1FA157B5B6A2
:105940009AF951FA14A301859ABF9C4D00BD0CB57C
:10595000B69ACD56B5B6BE0760BE06B4B2AFB5D4E2
:10596000D6AE084D00BD1C65CA09009A70C8EAD1C0
:10597000078D10A116B5B6BE08A159B5B6BE07A1D0
:1059800099FA12B5B6AE034D00BD0CB5B69ACD5618
:10599000B5B6BE0760BE06B4AFB5D6B7B49A9158D7
:1059A000BD05A1179AAB59B4AFA104BE089A1E5504
:1059B000BE06AFB3B79AAA669A4F4E1633F47183F8
:1059C0001640F4A00CA100978650BDF972B010519A
:1059D000F4B1B0B1CAFCFFD66297A1009E3AF4B60A
:1059E000B7BE04629A58C351BD0AA150B6B7BE01F2
:1059F000A1DAFA1A629A47C14D03BD0AA151B6B79E
:105A0000BE01A194FA08A14FB6B7BE01A13997B65D
:105A1000B78770AE01BE0360BE0242B0B1CA0B00D0
:105A2000B6B1624D048DAB9ABDBF51BD0510325D5C
:105A3000FA0E8E93F4708E94F46168BD0A10565A73
:105A40009E94F4609E93F4B0B2AF8E93F4708E94F3
:105A5000F4D69A0B05AFB3B5B7F0019A3967683A37
:105A6000F49E3BF4A200629ACA5A629A3C5B42627C
:105A70004D0C8DF2A200B01040F4B1144EF4B0B150
:105A8000D68795AE04B5B6BE01B0B1D6AE08B5B6F0
:105A9000BE02629A16C14D45AD1C629A16C14D43B5
:105AA000AD14C4909AF94E51BD0C100100D18E393D
:105AB000F461689E39F4C442CA0B00D4B0B180B618
:105AC000B1624D048DB8B0B4B2AFB37216D1D69BEB
:105AD0005605629A325B9A3201605D0351BD14A192
