:020000040044B6
:10200000F87F0220554A45002D4A45002D4A4500DB
:102010002D4A45002D4A45002D4A4500000000008C
:102020000000000000000000000000002D4A4500F4
:102030002D4A4500000000002D4A45002D4A45006C
:102040000000000000000000000000000000000090
:102050000000000000000000000000000000000080
:102060000000000000000000000000000000000070
:102070000000000000000000000000000000000060
:102080000000000000000000000000000000000050
:102090000000000000000000000000000000000040
:1020A0000000000000000000000000000000000030
:1020B0000000000000000000000000000000000020
:0C20C00000000000000000000000000014
:1021000010B5054C237833B9044B13B10448AFF331
:1021100000800123237010BD7829002000000000FA
:10212000CC2044000C4B43B10C480D4910B5AFF323
:1021300000800C48036823B910BD0A48036833B90E
:102140007047094B002BF7D0BDE810401847064BED
:10215000002BF5D0184700BF00000000CC20440041
:102160007C2900209C1846000000000010B584B0B7
:102170001B4C4FF000624FF4C0612046194B98474A
:102180004FF480332361C4F8A03063634FF40043FD
:102190002361C4F8A0306363134B01934FF41653CB
:1021A0000293002303930820104B9847A4F5006482
:1021B00001A920460E4B9847012120460D4B984718
:1021C00020460D4B984720460C4B98470C4BA022BD
:1021D00083F808234FF480721A6004B010BD00BF6A
:1021E000000E0E40617E4500008097066582450026
:1021F00031914500D991450089914500A99145004B
:1022000000E100E010B50A4C00212046094B984738
:10221000102200212046084B98474FF08062074B60
:10222000C3F880211A20064B9847002010BD00BF3C
:1022300000400140C18C45002F8D450000E100E0C9
:10224000DD824500F0B585B005461A4C00212046D8
:10225000194B9847194EB6FBF5F61A20184B9847BC
:10226000184D009502AB03AA29463046164FB847D1
:10227000029A42F4804200212046144B9847039A68
:10228000B5FBF2F2B2FBF6F200212046104B984764
:102290004FF080620F4BC3F88021102200212046AE
:1022A0000D4B9847002120460C4B9847002005B065
:1022B000F0BD00BF00400140C18C450040420F000E
:1022C0006582450000809706678D4500798C450042
:1022D000F58C450000E100E0118D4500A98C45001A
:1022E000014B1878704700BF9429002008B5064BB1
:1022F000186838B10021054B9847012814BF002009
:10230000012008BD002008BDE8610120E35445001C
:1023100008B5064B186830B1054B9847012814BF23
:102320000020012008BD002008BD00BFE861012099
:102330009354450010B582B0002848D100222549A9
:102340001A20254B9847254B502283F81A234FF02B
:102350008062C3F880211A60214B009300231A4643
:102360000A212048204CA047204B1860204B0093A6
:1023700000231A460A211F48A0471F4B18601F4B15
:10238000009300231A460A211D48A0471D4B1860E0
:102390001D4B00930023012241F270711B48A0479E
:1023A00004461B4B18601B4B984764230093002383
:1023B000024601212046184CA047184B03F1190191
:1023C000002203F8012F8B42FBD102B010BD144B49
:1023D0009847B3E7F92B44009D4B450000E100E02E
:1023E000C5294400F0104600896A45006461012057
:1023F00091294400001146006061012065294400D4
:10240000101146005C610120D52B440020114600CC
:102410009061012019604500ED6A4500B36101201B
:102420006D2144000323034A9375034A9375034ABD
:10243000D3737047D061012094610120EC610120C9
:1024400006480023837506498B75064AD37301231A
:10245000037025230B70022313707047D061012095
:1024600094610120EC61012000EB4103B3F8A4303A
:1024700013F4807F12D150F82110642303FB01F381
:102480004FF6E8514FF64C60834288BF0B4608492F
:1024900001EB4202190A517093707047044B03EB31
:1024A0004202FF215170917003229A75704700BF5C
:1024B000D0610120054B1A88806800EB820080B251
:1024C000034AA2FB0020800818807047962900204C
:1024D000CDCCCCCC08B5B0F8A83013F4807F0BD0AD
:1024E0000D4B1B78782B12D90C4BFF225A7400220B
:1024F0009A7403229A7508BD094B9847074B094AFD
:10250000A2FB0020C008587400229A7408BD034B37
:1025100000225A749A7408BD99290020D0610120C4
:10252000B5244400CDCCCCCC70B1B0F8A42012F4CA
:10253000807F0DD00D4B1B78782B13D90C4BFF22CD
:10254000DA7403229A7570470022094BDA747047D7
:102550000368084A82FB0312DB17C3EB6203044AD9
:10256000D37470470022024BDA7470479929002017
:10257000D061012067666666B0F8DA3023F4007235
:10258000A0F8DA2013F4807F05D0084B7F221A755B
:1025900003229A757047C36E054A82FB0312DB174C
:1025A000C3EBA203014A1375704700BFD06101203D
:1025B00067666666B0F8D63013F4807F09D1436E43
:1025C0001BB10122064B5A7570470022044B5A7505
:1025D0007047034BFF225A7503229A75704700BF5C
:1025E000D061012000EB4103B3F8A43013F4807FE5
:1025F0000DD150F82110B1F5966F28BF4FF49661B8
:10260000074B03EB42020B0A537091707047044B67
:1026100003EB4202FF215170917003229A757047BB
:1026200094610120B0F8CE3013F4807F06D0064BC1
:10263000FF225A749A7403229A757047426D024BB6
:10264000111259749A74704794610120B0F8AC303B
:1026500013F4807F06D0074BFF221A755A750322A8
:102660009A757047034A03691B1213750369537502
:10267000704700BF94610120B0F8D03013F4807F20
:1026800005D0054BFF22DA7403229A757047826DDC
:10269000014BDA74704700BF9461012030B40468C4
:1026A000836840F26D1202FB04324568012D0AD0A6
:1026B0000F4B05F18040013803EB800053F8041BF9
:1026C0000A448342FAD1022D94BF04F1FF3323461A
:1026D0000849A1FB0301C80900EB93000244A2EBE7
:1026E0005110A0F53220A0F2755030BC704700BFE9
:1026F0002C1146001F85EB5108B5B0F8E03013F4FB
:10270000807F04D1B0F8E23013F4807F04D0204BF6
:1027100002229A73DA7308BD816FC06F1D4B984710
:102720001D4B98471A4B82695A7042699A70016929
:10273000D970C1EB011102EB810292B2110A9972B8
:10274000DA72C2681A7182685A7142689A710268B4
:10275000120ADA7102681A7200225A720368B3F51B
:10276000FA6F0BD383684BB143683BB10B4B98476F
:102770000130074B020A1A73587303E0044B00221E
:102780001A735A73024B00229A73DA7308BD00BFA2
:10279000EC61012081314400993144009D264400C0
:1027A00008B50220044B98470120044B9847044881
:1027B000044B9847FEE700BFD92C4400193544006C
:1027C00000140E40F18645002DE9F04105461F4BEF
:1027D0001B78782B02D801331C4A13701C4B984786
:1027E0001C4B98470024DFF8A0801B4FE6B232460E
:1027F00004F10D012846C0473246611D2846B847FE
:102800000134082CF2D12846144B98472846144B23
:1028100098472846134B98472846134B9847284615
:10282000124B98472846124B98472846114B984719
:102830002846114B9847114B9847114B1B78FF2B9B
:1028400001D0BDE8F0810F4B984700BF99290020C7
:10285000ED22440041244400E5254400D5244400F1
:1028600029254400B525440079254400F926440073
:1028700025264400792644004D26440011234400B7
:1028800098290020A12744006924440000295AD037
:102890002DE9F8430D468146821C2B4B1A702B4BB9
:1028A00098471FFA89F4002C3CD06B1E264A013C45
:1028B00015FA84F413F8011F02F8011FA342F9D19D
:1028C000234B9847204C21780139C9B22046214B2F
:1028D00098474C4460704FF480321F4B1A6309F1E3
:1028E00002090024A046184F1C4E1D4D395D30468C
:1028F000A8470028FAD108F101081FFA88F84446D1
:10290000C845F3DB154A536913F0020FFBD0134A95
:10291000536913F4007FFBD04FF480320E4B5A639F
:10292000BDE8F8830A4B9847074C21780139C9B2B2
:102930002046084B984760704FF48032064B1A636C
:102940004FF00209CDE77047B4610120ED22440049
:1029500011234400492C4400000E0E4000060E4096
:102960001992450008B5074908230B7001234B70E5
:102970000C238B700320044B98470420034B98478B
:1029800008BD00BF546101208D284400F13444008B
:1029900010B507491720074CA0470520064B98475C
:1029A00006491020A0470420054B984710BD00BFE2
:1029B000946101208D284400F55D4500EC61012003
:1029C000F134440010B507491720074CA0470520F3
:1029D000064B984706491020A0470420054B98470E
:1029E00010BD00BFD06101208D284400F55D450079
:1029F000EC610120F134440030B585B0002303932D
:102A0000584B19784B1C272B19DD0022564B1A7096
:102A1000544D00232B70554C21465548554B984733
:102A20002B78E35C544A1370272B94BF01220022B9
:102A30004D4B1A705148524B984705B030BD4A4B28
:102A40001B78012B1BD0002BE2D0022BF5D14D4B74
:102A50009847444C21780131C9B22170434D294433
:102A60004348444B984721782846474B984723785A
:102A7000EB5C834219D000223B4B1A70DDE7013139
:102A8000C9B2384C2170394B19443948394B9847F1
:102A90002278394B1B78023B9A4202DB0222324BEE
:102AA0001A703648364B9847C7E7384B1C68384B86
:102AB00098470023009303AB024607212046354C7C
:102AC000A0476B78232B0FD00F2B11D0242B1CD0B9
:102AD000072B27D01C2B32D0262B35D0272BCAD141
:102AE00001222D4B1A70C6E7FF222C4B1A70C2E749
:102AF0002B4B1C68264B98470023009303AB0246E0
:102B000006212046234CA047B5E7264B1C68204BE6
:102B100098470023009303AB0246062120461D4C34
:102B2000A047A8E7204B1C68194B98470023009347
:102B300003AB024606212046164CA0479BE71B49E3
:102B400010201B4B984796E71A4B98471A492623A3
:102B50000B70030C4B70030A8B70C8700420144B6D
:102B6000984788E758610120B06101206861012021
:102B700000060E40439245005761012020A1070046
:102B80004522440005224400492C44009061012064
:102B90002D604500ED6A4500942900209829002009
:102BA00064610120606101205C610120EC61012011
:102BB0008D284400997D4400AC61012008B5034B89
:102BC00098470022024B1A7008BD00BF6D214400D7
:102BD000B061012008B5054B9847012800D008BD19
:102BE000034B98470520034B9847F8E7A97D44001D
:102BF000BD2B4400F134440008B500210548064BC4
:102C0000984710F0100F00D108BD044B9847044BB3
:102C10009847F9E7004001404D8D4500BD2B440029
:102C20000522440008B50548054B984710F0010FF0
:102C300000D108BD034B9847FBE700BF00060E40DC
:102C40000B924500F9294400D1B110B4421E4B1E2D
:102C500050FA83F10020082401E08A4212D012F8D1
:102C6000013F5840234610F0800F4FEA4000C0B2A9
:102C700018BF80F0A500013B13F0FF03F3D1ECE790
:102C80000846704710BC70472DE9F04105460E46D6
:102C90001746984600234FF4FA7219460A4800680E
:102CA0000A4CA04708B9BDE8F08143463A46314690
:102CB0002846074CA04700231A46194602480068D8
:102CC000044CA047EFE700BFFC610120B557450069
:102CD000959745003D55450070B582B00446574B69
:102CE0001B68ADF804301B0C8DF806304FF4BA02A7
:102CF000534B07CA03C31A70012C03D0022C69D0AE
:102D000002B070BD9DF80430012B5DD001248DF818
:102D10000440FF238DF805308DF80630494B984765
:102D20000546C0F30746464BDB78B3425CD044F01F
:102D30000204434B9B791C2B62D044F00404002C0A
:102D4000DED000234FF4FA7219463F4800683F4C2A
:102D5000A04700285DD13A4C9DF8043023709DF8BF
:102D6000053063709DF80630A370E6702B0A23715E
:102D700065711C23A3716223E371D32323720023A3
:102D8000032201A92D48324DA847002309222146DC
:102D90004FF4BA00A84700234FF4FA7219462A48A4
:102DA00000682A4CA0470028AAD000231A462949C7
:102DB0004FF4BA00284CA04700231A46194622486F
:102DC0000068264CA0479BE79DF80530FF2B9DD15E
:102DD0000024A3E702238DF80430FF238DF805308B
:102DE0008DF80630012499E7154B1A79C0F30723B3
:102DF0009A429CD1124B5A79C3B29A4297D198E722
:102E00000F4BDB79622B98D10D4B1B7AD32B94D1CE
:102E100095E700231A460F494FF4BA00104CA0471B
:102E200002214FF4BA000F4B984700231A46194667
:102E300005480068094CA0478DE700BF00105D0001
:102E40009C290020997D4400FC610120B557450074
:102E5000892C4400FF1F5D00C99845003D55450081
:102E60005B9945003597450000B583B006210020E9
:102E7000074B98470190019B2BB10648064B98479A
:102E800003B05DF804FB0120044B9847F8E700BF4E
:102E90000597450000140E40F1864500D92C4400EA
:102EA000074B1B68B3F1FF3F00D0FEE74FF0500324
:102EB00083F31188BFF36F8FBFF34F8FFEE700BF1F
:102EC000B401002006480068006880F3088862B6F4
:102ED00061B6BFF34F8FBFF36F8F00DF00BF0000FD
:102EE00008ED00E04FF0807340F8043C40F8081C07
:102EF000034B40F80C3C40F8202C4038704700BF92
:102F0000A12E4400074B19680868B0E8F00F80F361
:102F10000988BFF36F8F4FF0000080F311884EF0E7
:102F20000D0E7047505D00204FF0500383F3118861
:102F3000BFF36F8FBFF34F8F084A136801331360DD
:102F4000BFF34F8FBFF36F8F012B05D1044B1B686D
:102F500013F0FF0F00D0FEE7704700BFB401002060
:102F600004ED00E0054B1B6803B9FEE7013B034A93
:102F700013600BB983F31188704700BFB4010020C0
:102F8000EFF30980BFF36F8F0D4B1A6820E9F00F44
:102F900010602DE908404FF0500080F3118813F0C5
:102FA00009F94FF0000080F31188BDE80840196866
:102FB0000868B0E8F00F80F30988BFF36F8F70479F
:102FC000505D002008B5EFF311834FF0500282F3FB
:102FD0001188BFF36F8FBFF34F8F054B984718B120
:102FE0004FF08052034B1A60002383F3118808BD11
:102FF0004D60450004ED00E0064B1B68064AA2FB4D
:1030000003235B09013B054A13600722044B1A6046
:10301000704700BFC41F00201F85EB5114E000E083
:1030200010E000E000B583B0224B1A78D2B20192D2
:10303000FF221A701B78DBB28DF803309DF8033045
:1030400003F050031C4A137007221C4B1A609DF8B2
:10305000033013F0800F10D0062200E00A469DF8DE
:1030600003305B00DBB28DF803309DF80330511E56
:1030700013F0800FF2D1114B1A60104A13681B0233
:1030800003F4E0631360019BDBB20A4A13700C4B3C
:103090001A6842F470021A601A6842F070421A60AC
:1030A000084B98470022084B1A60084B9847084B7A
:1030B000984700BF00E400E0A5290020A8290020CF
:1030C00020ED00E0F92F4400B4010020C52E44009B
:1030D000A12E4400EFF305830F2B07D9084A9B5C10
:1030E000DBB2084A12789A4200D9FEE7064B1B6809
:1030F00003F4E063054A1268934200D9FEE7704783
:10310000F0E300E0A52900200CED00E0A829002054
:103110000A4A82FB0032C317C3EB2233084A136109
:1031200042F2107101FB1300064BA3FB00135B0975
:103130005361642101FB130393617047AD8BDB681E
:10314000AC2900201F85EB510A4A82FB0032C317CD
:10315000C3EB2233084A136042F2107101FB1300E3
:10316000064BA3FB00135B095360642101FB1303AF
:1031700093607047AD8BDB68AC2900201F85EB5155
:1031800010B50C46024B98472046024B984710BD9D
:10319000113144004931440000487047AC290020F7
:1031A000FEE7000008B50248024B984708BD00BF83
:1031B00000140E40F186450010B52B4900202B4C21
:1031C000A0472B490120A0472A490220A0472A49AD
:1031D0000320A04729490420A04729490520A047EA
:1031E00028490620A04728490720A04727490B2047
:1031F000A04727490C20A04726490D20A047264973
:103200000E20A04725490F20A04725491220A0479E
:1032100024491320A04724491420A04723491520FE
:10322000A04723491620A04722491720A04722493A
:103230001820A04721491920A04721491C20A04758
:1032400020491D20A04720491E20A0471F491F20BC
:10325000A0471F492020A0471E492120A0471E4902
:103260002220A04710BD00BFA1314400794B45008A
:10327000A131440061EF4400A1314400A531440074
:10328000A1314400A1314400A1314400D176440071
:10329000A1314400A1314400A13144003D02450068
:1032A000A1314400A1314400A1314400A1314400C6
:1032B000A1314400A1314400A1314400A1314400B6
:1032C000A1314400D94D4400A1314400A131440052
:1032D000A1314400A1314400A131440008B50A4B9A
:1032E00098470A4B98470A4B98470A4B98470A4B0E
:1032F00098470A4B98470A4B98470120094B984733
:10330000094B9847FEE700BFB9314400ED33440054
:10331000758044003133440019344400F98144007D
:1033200049334400F1344400655E4500FEE7FEE7A2
:1033300008B5034A00210846024B984708BD00BF64
:10334000E59E45004134440008B5044B98470128E8
:1033500014BF00200120024B984708BDA97D4400FE
:103360003537440070B504460D4616460B4B98475A
:10337000012807D00A4B1B6873B132462946204604
:10338000984770BD074B1B6823B13246294620463B
:10339000984770BD002070BD002070BDA97D44001D
:1033A000D4290020C829002070B504460D461646D1
:1033B0000B4B9847012807D00A4B1B6873B1324664
:1033C00029462046984770BD074B1B6823B13246FB
:1033D00029462046984770BD002070BD002070BD72
:1033E000A97D4400DC290020D029002010B503224B
:1033F00000210120054B9847054B186020B10023A0
:103400001A461946034CA047002010BD0D54450034
:10341000FC6101203D55450008B5054B9847012842
:103420000CBF044904490820044B984708BD00BF5D
:10343000A97D4400252C440055FB4400794B4500F0
:10344000034B1860034B1960034B1A60704700BFB1
:10345000C8290020D0290020CC290020034B186067
:10346000034B1960034B1A60704700BFD42900203A
:10347000DC290020D829002010B582B00023124A90
:103480001370124A009201220A211148114CA047E0
:10349000114B1860114B984780B90F4B1C68104BAB
:1034A00098476423009300230246012120460D4CD7
:1034B000A04701220C4B1A7002B010BD4FF04051D2
:1034C0000D200A4B9847E8E70D620120493544007A
:1034D0005C114600896A450010620120A97D440004
:1034E00019604500ED6A45000C620120C97C450069
:1034F000014B1870704700BF0D62012008B5044BE6
:10350000984718B14FF40052024B5A6308BD00BFF0
:10351000A97D4400000E0E4008B5074B1B783BB157
:10352000064B984718B14FF40052054B1A6308BD7B
:10353000044B984708BD00BF0C620120A97D4400E0
:10354000000E0E40FD34440008B54F4A1378013395
:10355000DBB259B211704D4A1278052A00F28D8003
:10356000DFE802F003122642546F0020484B9847D0
:10357000FF22454B1A70474B1B78444A12789A42F7
:103580007AD0424A137008BD022B06D0092B08D00E
:103590001BB10020404B984762E000203C4B98470D
:1035A0005EE000203C4B9847FF22374B1A70E2E761
:1035B000092B15D8DFE803F00505050505090909FC
:1035C000090D0020324B98474AE00020324B9847C3
:1035D00046E00020304B9847FF222B4B1A70CAE779
:1035E00000202D4B98473BE02BB1012B07D0FF2249
:1035F000254B1A70BFE70020254B984730E000208C
:10360000254B9847FF22204B1A70B4E7092B14D89A
:10361000DFE803F00513051305050505050900207E
:103620001B4B98471CE000201B4B9847FF22164B72
:103630001A700122174B1A709DE70020164B98470D
:103640000EE0312909DD0020134B9847FF220E4B75
:103650001A7001220F4B1A708DE700200C4B98470F
:103660000C4B1B78094A12789A4205D0064A92F907
:103670000020B2F1FF3F84D008BD0022034B1A7036
:10368000FF22014B1A7076E714620120E029002026
:10369000193544000D620120FD34440008B50122B3
:1036A000064B1A700648074B984710B1064B9847CF
:1036B00008BD0348054B984708BD00BFE12900201D
:1036C000186201203587440025244400C92744009E
:1036D00008B50A4B984700B108BD094B9847002828
:1036E000FAD0084B1B78002BF6D00748074B9847B9
:1036F0000022044B1A70064B9847EDE7E122440084
:10370000357A4400E129002050140E405D954500B3
:10371000417A4400064B03F1A60103F1A400002204
:1037200043F8042F21F8022F8342F9D1704700BFDC
:1037300014620120F0B583B004461A4B98471A4B27
:1037400098472046194B9847194B98470120194B29
:103750009847194B00930023012264211748184D04
:10376000A8470446174B1860174FB8470A2600961B
:103770000023024601212046144CA047144B00931D
:103780000023012264211348A8470546124B186004
:10379000B84700960023024601212846A04703B0FF
:1037A000F0BD00BF15374400692E440035234400A6
:1037B00079344400F13444009D36440070114600D1
:1037C000896A45001063012019604500ED6A4500D3
:1037D000D13644007C11460014630120E8B1034651
:1037E000D9B1D2B170B44FF0FF3008601060D88A00
:1037F00042F210761D7D642404FB05F506FB0050A3
:10380000DD7C28440860997C587C04FB00F406FBAE
:1038100001411B7C0B44136070BC7047F0B50B2A50
:1038200023D8092B16D8304C54F823E0FF232E4D13
:1038300005EB8205002911DB9DF81440012C4BD0CB
:1038400000262C688C420DD9A5EB82070022DFF8F8
:1038500098C023E04FF0010E0023E8E749422D26EF
:10386000043DEEE7B4F1FF3FEED0551EEDB242B19C
:10387000431E4419212103F8011FA342FBD1013546
:103880002844002303701046F0BD3BB91DE03033DF
:1038900003700132D2B2013000231E46BD42F0D087
:1038A0002C68A64528BF00236545EAD055F8044D8D
:1038B000012C13D0B4F1FF3FE7D0A142E5D30023A0
:1038C0000133DBB2091B8C42FAD9002EDFD006701F
:1038D0000132D2B20130DAE72B26C1E7A14228BF7C
:1038E0000023EDD20023F0E79C184600F0B50A2A29
:1038F00035D8092B2CD8264C54F82370FF23244CA0
:1039000054F822408C4228D91646214D05EB8205F9
:10391000A5EB86060022DFF878E0B5422BD02C68B4
:10392000A74228BF0023754525D055F8044D012C2A
:1039300028D0A14223D300230133DBB2091B8C42E0
:10394000FAD9303303700132D2B201300023E4E7F8
:1039500001270023D3E71646D7E70A2AFBD0561ED5
:10396000F6B242B1431E8419212103F8011FA3427C
:10397000FBD101363044002303701046F0BD002B0C
:10398000CBD1DEE700230029DBD00023D4E700BF42
:103990009C184600F0B50A2A06D81D4B53F8223071
:1039A0008B4211D80A2A2ED0551EEDB242B1431EC9
:1039B0004419212103F8011F9C42FBD10135284401
:1039C000002303701046F0BD571EFFB2002AF7D047
:1039D0000F4E06EB8206451EBC4607444FF0000E14
:1039E00056F8044D8C4210D873460133DBB2091BE4
:1039F000A142FAD2303305F8013FAF42F0D10CF1C9
:103A000001031844DCE70927E2E77346F2E700BF49
:103A10009C184600002800F0A3802DE9F0470446DA
:103A200016464A1E4F4B9A422CD9212303704370ED
:103A30002E228270C370037142718371C37103724D
:103A400043720A25484B9E4253D9212363556A1C71
:103A5000D2B2A354AA1CD2B23A21A154EA1CD2B2C7
:103A6000A3542A1DD2B2A3546A1DD2B2A154AA1DD6
:103A7000D2B2A35405F10800C0B20735EDB26355C8
:103A8000BDE8F087394B83FB0123CF17C7EB233702
:103A9000BFB242F2107303FB1711354B83FB0123B6
:103AA0004FEAE17ACAEB631A5FFA8AFA642303FBEE
:103AB0001A110222C9B2DFF8BC80C047451CEDB222
:103AC0004FF02E0904F80090022251466019C047B9
:103AD0002844C0B2451CEDB204F8009004223946D7
:103AE0006019C0472844C0B2451CEDB220232354BE
:103AF000A8E71E4B83FB0623F117C1EB2331C9B2A4
:103B000042F2107808FB1166194B83FB06234FEA3B
:103B1000E67ACAEB631A5FFA8AFA4FF0640808FB88
:103B20001A6802226019134EB0472844C0B2471CDD
:103B3000FFB24FF03A0904F8009002225146E01912
:103B4000B0473844C0B2451CEDB204F800900222E0
:103B50005FFA88F16019B0472844C0B2BDE8F08729
:103B6000002070470D744001C7C00300AD8BDB68B7
:103B70001F85EB5195394400531E184492B110B47F
:103B8000441EDBB2C01A023801F00F03092B94BFA8
:103B90003033373363700909013C8442F4D1104655
:103BA00010BC704710467047002313600A2901D9E2
:103BB0000220704709B330B40378A3F13004E4B2B3
:103BC000092C1CD80446013950FA81F00025303BFD
:103BD0002B44A0420DD003EB83035B001D46136012
:103BE00014F8013FA3F13001C9B20929EFD901202E
:103BF00001E01360002030BC704708467047012088
:103C0000F9E78A4218D370B400EB02060ED9531EAE
:103C10000344741CC8431044C0B2C0431D1813F8B9
:103C2000011904F8011DAB42F9D106442E2333706B
:103C30000132D0B270BC70471046704771B1494232
:103C400061F0FF01014410F8013C00F8013988429D
:103C5000F9D12E2303700132D0B27047104670475D
:103C600000231360082901D902207047002900F0C1
:103C7000B4802DE9F04F441E013950FA81F0194605
:103C80004FF00F0A4FF00E094FF00D084FF00C0CDB
:103C90004FF00B0E0A274FF0080B22E001231CE027
:103CA00002231AE0032318E0042316E0052314E09E
:103CB000062312E0072310E05B460EE009230CE028
:103CC0003B460AE0734608E0634606E0434604E0EC
:103CD0004B4602E0534600E00B462B441360A042E3
:103CE00078D013681D01156014F8013F303B362B66
:103CF00075D801A656F823F0D93C44009D3C4400F9
:103D0000A13C4400A53C4400A93C4400AD3C440017
:103D1000B13C4400B53C4400B93C4400BD3C4400C7
:103D2000DF3D4400DF3D4400DF3D4400DF3D440013
:103D3000DF3D4400DF3D4400DF3D4400C13C440022
:103D4000C53C4400C93C4400CD3C4400D13C440047
:103D5000D53C4400DF3D4400DF3D4400DF3D4400EE
:103D6000DF3D4400DF3D4400DF3D4400DF3D4400D3
:103D7000DF3D4400DF3D4400DF3D4400DF3D4400C3
:103D8000DF3D4400DF3D4400DF3D4400DF3D4400B3
:103D9000DF3D4400DF3D4400DF3D4400DF3D4400A3
:103DA000DF3D4400DF3D4400DF3D4400DF3D440093
:103DB000DF3D4400DF3D4400DF3D4400C13C4400A2
:103DC000C53C4400C93C4400CD3C4400D13C4400C7
:103DD000D53C44000020BDE8F08F08467047012024
:103DE000BDE8F08F5A280ED9B42811D9B0F5877FD5
:103DF00013D9B0F5B47F17D80C4B181A90F83000CF
:103E0000404200B270470A4B184490F830007047A7
:103E1000084B181A90F830007047054B184410F8FA
:103E2000840C404200B2704700207047041A4600DC
:103E30009C184600501946005A280DD9B42810D9AC
:103E4000B0F5877F14D9B0F5B47F9DBF0C4BC01877
:103E500010F8DE0C002070470A4B181A90F830005A
:103E60007047074B184410F82A0C404200B27047C4
:103E7000054B181A90F83000404200B2704700BF5E
:103E80009C184600F6184600AA1946000246A8B13A
:103E9000B0F1804F0FD24FF400404FF080439B08A9
:103EA00040089A42FBD30423B2FBF0F108444008D7
:103EB000013BF9D170474FF40040F4E77047000030
:103EC0000028BABF40424FF0FF3301230E4A904210
:103ED00012DC0E4A82FB0012C017C0EB621041F2E6
:103EE000883290420ED80A4A02EB4000B0F88C00AB
:103EF00010FB03F000B27047C3EB0313C3EB0313D3
:103F0000980070470020704720A107001F85EB51E3
:103F10009C1846002DE9F04D80460C4632B142F225
:103F2000107202FB01F2D317C0E90023B8F8082091
:103F3000501EC717D8F80060D8F8043000FB03F310
:103F400006FB0733A6FB00671F44A2464FEAE47B4B
:103F50004FEA8B03A00043EA9471001941EB0B0177
:103F6000CB0043EA5073C400B4EB0A0063EB0B01CF
:103F70000B0143EA1073010111EB0A0043EB0B0143
:103F80000B0143EA1073040120461946064C92B215
:103F9000002380197941A047C8E9000142F210725C
:103FA0000023A047BDE8F08D55DE45002DE9F84F10
:103FB00080460C46994632B142F2107202FB01F281
:103FC000D317C0E90023B8F80820501E4FEAE07B61
:103FD000D8F80060D8F8043000FB03F306FB0B337D
:103FE000A6FB00671F44A2464FEAE47B4FEA8B031F
:103FF000A00043EA9471001941EB0B01CB0043EAA6
:104000005073C400B4EB0A0063EB0B010B0143EAED
:104010001073010111EB0A0043EB0B010B0143EAA2
:1040200010730401194692B20023A0197941074C7C
:10403000A047B9F1000F01D1C8E9000142F21072A6
:104040000023024CA047BDE8F88F00BF55DE4500B5
:1040500081B110B4541E4B1E12FA83F2064914F8B3
:10406000013F4340DBB231F8133083EA1020944221
:10407000F5D110BC704700BF3C40460000B583B08E
:104080008DF804100B0A8DF805300B0C8DF80630F6
:10409000090E8DF8071001AA0421024B984703B0BE
:1040A0005DF804FB51404400044B00F1080113F893
:1040B000012F00F8012B8842F9D1704717630120C6
:1040C00001B370B4441E4B1E50FA83F5002308263A
:1040D00001E0AC4210D014F8011F4B40314613F000
:1040E000800F4FEA430318BF83F03103DBB201397D
:1040F00011F0FF01F3D1ECE79A4214BF0420002035
:1041000070BC70478A4214BF042000207047000032
:104110000022014B1A707047E729002030B583B0A8
:104120002F4B1B78012B1FD004460D461BB1022BD1
:104130002DD000230DE078B1012811D000230122F9
:1041400028494020284CA047254A13780133137092
:104150000023184603B030BDF522224B1A70EDE75C
:10416000F322204B1A70E9E70DF107001F4B984727
:1041700003460028EDD0032300221A4940201A4CA0
:10418000A047174A1378013313700023E1E70DF1BC
:104190000700164B984703460028DAD00321114840
:1041A000134B984764B1012C11D00E48827802213C
:1041B000104B9847034688B14FF6FF722A80C8E734
:1041C000084A1178537803EB01232B80EDE7054A69
:1041D0001178537843EA01232B80E6E70123B8E7FF
:1041E000E7290020E4290020E1F9440041FA4400D5
:1041F0003DFA4400C140440010B44FF6FC73034044
:1042000040F2E24000FB03F0000C3C3800B20A88A8
:1042100022F001039BB20B80054C247824B122F0DC
:1042200003020A8010BC704743F002030B80F9E7D9
:104230002063012010B44FF6FC73034044F2A44005
:1042400000FB03F0000CA0F592500D3800B20A8874
:1042500022F001039BB20B80054C247824B122F09C
:1042600003020A8010BC704743F002030B80F9E799
:1042700020630120F0B585B00546FA238DF808309B
:104280000F238DF809300023022202A94020414C5F
:10429000A047414C0DF10700A0470028FAD00823A1
:1042A00000220DEB030140203A4CA0473A4C0DF19F
:1042B0000700A0470028FAD09DF808306B719DF8E0
:1042C0000920012102A8354EB04704469DF80A3066
:1042D0002B719DF80B2001210DF10A00B04704431A
:1042E000E4B29DF80C30EB709DF80D20012103A87D
:1042F000B0470443E4B29DF80E30AB709DF80F2038
:1043000001210DF10E00B0472043C6B2FC238DF809
:104310000830C9238DF809300023022202A9402069
:104320001C4CA0471C4C0DF10700A0470028FAD0F8
:104330000623002202A94020164CA047164C0DF17E
:104340000700A0470028FAD09DF808306B709DF850
:1043500009302B709DF80A20022102A80F4FB847A0
:104360003043C4B29DF80B30EB719DF80C30AB714B
:104370009DF80D2002210DF10B00B847204310F0ED
:10438000FF0F1CBF00238DF807309DF8070005B014
:10439000F0BD00BFE1F9440041FA4400C1404400CF
:1043A00008B50648064B984701280CBF0122002299
:1043B000044B1A700022044B1A7008BD18630120C8
:1043C0007542440020630120E7290020000000001E
:1043D0002DE9F04F87B00C4693460593022900F370
:1043E00082804F4D0138A8478046894604F10C0071
:1043F000A847CDE902014B4F00224B4B40464946AE
:10440000B8474A4EB047464DA847CDE90001484C51
:1044100039A3D3E9002340464946A047DFF828A145
:1044200037A3D3E90023D047B04780460022414B51
:10443000DDE90201A04734A3D3E90023D047B04708
:104440004044A847804689465846A84702460B463E
:1044500040464946A047CDE902010598A8470022F9
:10446000354BB847804689461098A8470022334B01
:10447000B84702460B4640464946A0478046894613
:104480001198A84722A3D3E90023B84702460B4658
:1044900040464946A04702460B46DDE90201A047D7
:1044A000804689460022264BDDE90001D047B0470F
:1044B000A84706460F46234DDDE9002300204FF0B4
:1044C0008041A84702460B4630463946A04702467F
:1044D0000B4640464946A0470FA3D3E90023A8470F
:1044E00007B0BDE8F08F0E4DA847804689462046AC
:1044F000A847CDE902017EE700000000006CB24051
:104500000000000000D4764061545227A0993E403C
:10451000000000000018F5400000000000D29740A5
:1045200005D1450025D445000000594031D745004C
:104530006DCE45000000F03F0000384000809640FE
:104540000000D03F69CE4500D1D1450000000000F9
:104550002DE9F04F85B00F9C01940E9C00945C4CAB
:10456000A0474BA3D3E900235A4CA0478046894675
:1045700049A3D3E90023584CA04749A3D3E900231A
:10458000564CA04706460F460022554B554CA047B7
:1045900088B1DFF840B10024514DDFF848A1224630
:1045A0002B4630463946D84706460F4622462B460C
:1045B000D0470028F3D13CA3D3E900234046494625
:1045C000454CA0473AA3D3E90023444CA0470446F6
:1045D0000D460022424BDFF80C81C04798B1DFF84E
:1045E000F4B04FF00008DFF8F890DFF8F8A042468A
:1045F0004B4620462946D84704460D4642464B4680
:10460000D0470028F3D1DFF8D0802BA3D3E90023D3
:1046100020462946C047DFF8D4900022324BC847D5
:10462000DFF8CCB0D847CDE90201DFF8B0A02246D0
:104630002B4620462946D0471FA3D3E90023C04775
:104640000022294BC847D84704460D461CA3D3E98E
:104650000023DDE90201C04732463B46D04706460B
:104660000F4619A3D3E9002320462946C047024636
:104670000B4630463946D0470FA3D3E90023C04745
:104680000022194BC84705B0BDE8F08FAFF300809A
:10469000000000802CB44241D4658C6A6C8AEF3FE4
:1046A0008FC2F5285C87714072B0EDA3098AEF3F95
:1046B0009CC420B072587640182D4454FB21094008
:1046C000A4703D0AD7A3FE3F7B14AE47E17A943F26
:1046D000D143440069CE4500D1D145006DCE45009F
:1046E00000807640DDD645000080664025D4450038
:1046F000591C45000000000030B583B0079C0194B0
:10470000069C0094164CA047164D0DA3D3E9002338
:10471000A847154C0CA3D3E90023A04702460B463B
:104720000BA1D1E90001A8470BA3D3E90023A047BF
:1047300000220E4B0E4CA04703B030BDAFF30080FB
:10474000000000802CB4424148AFBC9AF2D79A3E98
:10475000AAF1D24D62703740182D4454FB21094014
:10476000D143440069CE4500D1D145000080664068
:1047700025D445002DE9F04F83B080468946924606
:104780009B460C9C0D9D019500940F4EB04706462C
:104790000F46019500945B465246494640460B4CF5
:1047A000A0470B4CA0478046894630463946A04773
:1047B00002460B4640464946064CA047064B9847E2
:1047C00003B0BDE8F08F00BF51454400F9464400F6
:1047D000591C4500D1D145003D1D45000000000099
:1047E0002DE9F04F83B01C460023019300932E4D1A
:1047F000A84782468B462D4E0C98B0472C4D002280
:104800002C4BA847804689462046B0472A4C024692
:104810000B4640464946A047804689460D98B0471A
:1048200015A3D3E90023A84702460B464046494654
:10483000A047224E12A3D3E90023B0478046894601
:1048400011A3D3E90023504659461D4FB84710A382
:10485000D3E90023A84710A3D3E90023B04710A34E
:10486000D3E90023A04702460B4640464946A047ED
:1048700003B0BDE8F08F00BF000000000020AC4096
:104880009C4D4700370BF03F000000802CB44241A4
:1048900000000000A0D5E140F4893C491AC0A240C4
:1048A000AA0F24EF1CCA1A40D143440005D1450089
:1048B00025D4450000004E406DCE4500D1D14500C5
:1048C00069CE4500000000002DE9784D82468B46F8
:1048D00014461D460022002320462946264EB04796
:1048E000B0B10022002350465946244CA04780BB5B
:1048F0000022002350465946214CA04720B118A160
:10490000D1E90001BDE8788D00200021BDE8788D57
:104910000022002320462946DFF86080C04748B9BE
:1049200022462B4650465946164CA047164B9847F0
:10493000BDE8788D22462B4650465946114CA0477B
:10494000114B984708A3D3E90023104CA047BDE8BA
:10495000788D07A1D1E90001BDE8788DAFF3008023
:10496000182D4454FB21F93F182D4454FB210940D4
:10497000182D4454FB21F9BFA1D64500B5D64500FA
:10498000F1D6450025D44500791845006DCE450087
:104990002DE9F04F83B08046894692469B460C9E97
:1049A0000D9F01970096144CA04704460D460197B1
:1049B00000965B46524649464046104EB047104E60
:1049C000B04782468B46204629460E4B9847804684
:1049D000894620462946B04704460D4642464B4686
:1049E00050465946084EB04722462B46074CA04732
:1049F00003B0BDE8F08F00BF51454400F9464400C4
:104A0000BD1B4500591C4500D1D14500C948440093
:104A10002DE9F04F83B08046894692469B460C9E16
:104A20000D9F01970096224CA04704460D46019722
:104A300000965B465246494640461E4EB047804669
:104A4000894600221C4B204629461C4EB04788B19F
:104A5000DFF880B00026184FDFF860A032463B46F2
:104A600020462946D84704460D4632463B46D047A5
:104A70000028F3D1124E0022124B20462946B0479F
:104A8000DDE90E23104CA04707A3D3E90023B0476C
:104A900000220E4B0E4CA04742464B460D4CA04701
:104AA00003B0BDE8F08F00BF182D4454FB2109402E
:104AB000E14744009149440000003840DDD64500FC
:104AC000D1D1450000002E406DCE450000806640EB
:104AD00025D4450069CE45002DE9F04F8BB00490F8
:104AE000894606920893149FDDF85480169E179C01
:104AF000CDF8048000973A4DA84782468B46394B43
:104B0000C3E900AB384D85FB0613F017374EC0EBF9
:104B1000A340B047CDE90201CDF804800097089B7F
:104B2000069A49460498324FB847CDE9040185FBFF
:104B30000430E417C4EBA040B0472E4C26A3D3E9C1
:104B40000023A0472C4D00222C4BA84780468946C5
:104B5000504659462A4EB047CDE90601DDE9040129
:104B6000B047CDE9040140464946B047CDE90801C8
:104B700050465946234EB04782468B4640464946EA
:104B8000B04780468946DDE90423DDE90601A047F8
:104B9000DDE90823A04706460F4642464B465046ED
:104BA0005946A04702460B4630463946164EB04796
:104BB000164B98470022114BA04707A3D3E90023C7
:104BC000A8470022124BA047124B98470BB0BDE8F4
:104BD000F08F00BFAFF30080182D4454FB21094033
:104BE00075474400F829002083DE1B4305D14500AA
:104BF000114A4400D1D1450025D4450000806640CB
:104C0000BD1B4500591C45006DCE45003D1D4500AE
:104C10000000244031D745002DE9F04F8BB080468D
:104C2000894604920693149E159F01970096584C4E
:104C3000A04782468B46574BC3E900AB564D1698AA
:104C4000A847564C4CA3D3E90023A047CDE9020165
:104C500001970096069B049A49464046504EB0473D
:104C6000CDE904011798A84743A3D3E90023A0473F
:104C70004C4E43A3D3E90023B04700224A4BA04740
:104C800080468946DDE90401484DA847CDE9060183
:104C9000DDE90401464CA047CDE904014046494600
:104CA000A847CDE9080150465946424B98478246ED
:104CB0008B4640464946A04780468946DDE90823A1
:104CC000DDE90401B04704460D4642464B465046D6
:104CD0005946B04702460B4620462946364CA04767
:104CE00002460B46DDE90601344CA04724A3D3E974
:104CF0000023334CA04704460D4600220023314ECA
:104D0000B04700282BD1304BC3E900452E4BD3E9E7
:104D100000451DA3D3E90023204629462B4EB0476A
:104D200048B119A3D3E9002320462946224CA047C5
:104D3000254BC3E900011B4C00221B4B2249D1E942
:104D40000001A0470EA3D3E90023144DA847002279
:104D50001F4BA0471F4B98470BB0BDE8F08F0AA32D
:104D6000D3E9002320462946154CA047164BC3E93A
:104D70000001CBE7AFF300800000000080842E41EB
:104D8000182D4454FB210940182D4454FB2119408F
:104D900075474400F029002005D1450025D4450081
:104DA000114A4400D1D1450000806640591C45009D
:104DB000BD1B4500E11C450069CE4500C9484400C3
:104DC0006DCE4500B5D64500E8290020DDD645006A
:104DD0000000244031D74500F8B57748774B984715
:104DE00000F04070B0F1807F00D0F8BD7248744B85
:104DF0009847744B1F78744BDC5D002C62D0734A6B
:104E00000123DDB21E46D178A1420FD00133023218
:104E1000152BF6D10D2F05D900230021694A1170F9
:104E2000002B54D164486A4B9847F8BD674B13F880
:104E300016300B3B072B2ED8664B1B78072B28D838
:104E4000DFE803F0AB04AD1D1F2123250C25624ACA
:104E50001278042A40F0A88000215F4A11700133C3
:104E600003F0F7035B4A13705C4A4FF0E071516343
:104E70009B050B401363FF2D15D0012445E00E2543
:104E80008EE00F258CE010258AE0112588E01225A0
:104E900086E0FF25DBE7FF2D17D001244E4B1B7862
:104EA000002B32D0DCB1474C2378474AD15C4248D2
:104EB0004B4B984723780133DBB223700D2B06D977
:104EC0000123AAE701240025E8E70124EAE73D4B96
:104ED0001B783D4AD15C3848424B9847A2E7394B92
:104EE0001B780D2B9ED9002397E700213A4A1170B9
:104EF000013303F0F703374A1370384A4FF0E0717B
:104F000051639B050B401363012480B22F46364E3C
:104F10004FF4867303FB056393F80821862101FB98
:104F2000052106EB4106B6F804E0D3F80411A1EB25
:104F30000E01B0800144C3F8041193F80911013245
:104F400022EA010283F80821284B1B78002BA9D004
:104F50004FF4867303FB05F5234B5B5B834201D95A
:104F6000214A50534FF486731F4A03FB07235B8883
:104F7000834205D24FF486721B4B02FB07377880C1
:104F80001B4B98471B4B1D68451B1B4B9847854285
:104F900088D90022154B1A7084E70B2500E00D25F7
:104FA0000D4A1278042AA0D001320B4B1A70FF2D43
:104FB00095D0002472E700BF008003404779450088
:104FC00015794500012A0020B81146008C114600D1
:104FD000B5784500034000200240002000120E403A
:104FE000F5784500D5784500042A0020002A0020E5
:104FF00039F044000440002069A44400014B1880AB
:10500000704700BF00400020014B1888704700BF68
:1050100000400020002875D00346002972D0002AE5
:1050200070D0F0B538480688A6F6666080B2B0F554
:105030004D7F50D9D2F8980040F48050C2F89800C3
:105040004FF480569C1E8D1E03F1280040F2622E04
:105050002E4F34F8023F06FB03F31B0B0EFB03F34A
:10506000A7FB03C35B0925F8023F8442F1D14B8AB9
:105070005B002648A0FB03035B09C2F89030B2F83E
:10508000EC0020F0010080B2A2F8EC00B3F5A07FA4
:1050900028D240F02000A2F8EC00C98C41F69B1306
:1050A00003FB01F31A49A1FB03139B0CC2F89430D4
:1050B000B2F8EE1021F0010189B2A2F8EE106D2BCA
:1050C0001BD9822B87BF41F04001A2F8EE100023CC
:1050D000A2F8EE30F0BDD2F8980020F48050C2F86B
:1050E0009800AFE7B3F5AF7F87BF40F04000A2F86C
:1050F000EC000023A2F8EC30CFE741F02001A2F849
:10510000EE10F0BD704700BF004000201F85EB513E
:1051100083DE1B4348B370B5064649B35AB3144601
:105120000D464FF080711548154B9847154BB01E32
:10513000023DA11E03F5AF561C3693F80A41D3F881
:105140000421224120F8022F1A8825F8022F5A88BC
:1051500021F8022F03F58673B342EED14FF0807130
:105160000648094B9847002070BD6FF00200704759
:105170006FF0020070BD6FF0020070BD0080034050
:1051800035794500042A0020237945002DE9F041B6
:105190001D480024224608270326831E03F5AF5C22
:1051A0000CF1190C4FF0200803F5AF5E0EF11A0E4A
:1051B00010E080F80781052380F808311AE08CF8A8
:1051C000008005238EF8003014E0013400F586706D
:1051D000152C17D080F80621C0F80221E5B2A5F100
:1051E0000B03DBB2072BE4D9142DE8D080F807714C
:1051F00080F8086100F58071034623F8022F8B4286
:10520000FBD1E2E7BDE8F081062A0020014B1878C7
:10521000704700BF002A002008B50C4B1B789BB9D3
:105220000B4B03F5AF521C324FF6FF700021188074
:10523000598003F586739342F9D1064B9847064B84
:1052400018600122014B1A7008BD00BF002A00201F
:10525000042A002039F044000440002010B5494CD5
:105260004FF080712046484B98474FF00052474B13
:10527000C3F880202046464B984700222021204634
:10528000444B984704F5292404F500744FF000734B
:1052900063634FF0E07363631D203F4B98473F4BC0
:1052A0004FF4F0121A66C3F890205A655A62C3F898
:1052B0008020196F21F4F0111967596F21F4F01152
:1052C00059675A61C3F8A0201A66C3F894205A653A
:1052D0005A62C3F880201A6F22F4F0121A675A6FCC
:1052E00022F4F0125A6703F500730F221A66C3F80E
:1052F00090205A655A62C3F88020196F21F00F017F
:105300001967596F21F00F0159675A61C3F8A0203E
:105310001A66C3F894205A655A62C3F880201A6F3F
:1053200022F00F021A675A6F22F00F025A671C4BC5
:105330002366C4F8903063656362C4F88030226FDE
:1053400022F0C04222F430422267626F22F0C04253
:1053500022F4304262676361C4F8A0302366C4F867
:10536000943063656362C4F88030236F23F0C043D8
:1053700023F430432367636F23F0C04323F43043A7
:10538000636710BD008003403579450000E100E00F
:10539000C57845002B784500DD824500000E0E40A3
:1053A00000B000602DE9F0410026844B1E70844B54
:1053B00098470D20834CA047834B4FF480021A6618
:1053C000C3F890205A655A62C3F88020196F21F4FF
:1053D00080011967596F21F4800159671A61C3F878
:1053E000A0204FF400021A66C3F890205A655A6252
:1053F000C3F88020196F21F400011967596F21F457
:10540000000159671A61C3F8A0204FF080771F662A
:10541000C3F890705F655F62C3F880701A6F22F006
:1054200080721A675A6F22F080725A671F61C3F840
:10543000A0704FF000701866C3F89000586558626D
:10544000C3F880001A6F22F000721A675A6F22F0B8
:1054500000725A671861C3F8A0005C4A4FF4F0115B
:105460001166C2F8901051655162C2F88010156F34
:1054700025F4F0151567556F25F4F015556711667D
:10548000C2F8901011655162C2F88010116F21F4BA
:10549000F0111167516F21F4F011516702F500729C
:1054A0000F251566C2F8905055655562C2F88050B8
:1054B000116F21F00F011167516F21F00F0151673A
:1054C0001566C2F8905015655562C2F88050116F8C
:1054D00021F00F011167516F21F00F0151673C4A14
:1054E0001A66C3F890205A655A62C3F88020196F73
:1054F00021F0C04121F430411967596F21F0C041BA
:1055000021F4304159671A66C3F890201A655A622F
:10551000C3F880201A6F22F0C04222F430421A678A
:105520005A6F22F0C04222F430425A675863294A27
:1055300016704FF0E0725A631D20A047264C4FF4BE
:1055400070234FF47A7225492046DFF8C480C047A3
:105550002046234B9847402231462046214B98470E
:1055600001234FF44012294620461F4DA8473146DB
:1055700020461E4B9847394620461D4B98473246D9
:10558000314620461B4B9847314620461A4B9847D8
:105590001A4B1E7031462046194B98472046194B2E
:1055A00098472046184B9847184B4FF000521A6006
:1055B000102283F81D233046BDE8F081002A002028
:1055C0008D5144006582450000120E40000E0E40D1
:1055D00000B00060034000200080034000002F0D59
:1055E0009F7845002B78450061784500D3774500CA
:1055F00023794500FD77450055794500012A0020B3
:10560000D57845007D794500B578450000E100E09A
:1056100079774500014B1870704700BF08400020A3
:10562000014B1870704700BF364000200122034B29
:105630001A700022024B1A70704700BF36400020DB
:105640000840002030B40468002C24DB48F6B8057C
:10565000AC4223DD0560088840F002000880A2F516
:10566000617292B2B2F5167F0A888CBF42F00802CE
:1056700022F008020A8003F59C5308339BB242F2E1
:10568000107293420B888CBF43F0100323F0100379
:105690000B8030BC704700240460DCE7088820F0F1
:1056A00002000880DBE700002DE9F0410D2815D04D
:1056B0000E283CD00F283ED0102840D0112842D0D0
:1056C000122843D0132844D01428234C18BF002498
:1056D00040F2C32518BF4FF47A7502E000244FF45E
:1056E0007A75D1F88C60B1F8888040461B4FB84776
:1056F00000FB05F5B6B23046B84700FB05F540465D
:10570000174B984700FB04F43046B84700FB0450A1
:10571000144B83FB0023C017C0EBA340124B9847E8
:1057200040F252339842A8BF1846BDE8F08140F2DB
:10573000C3242546D5E74FF47A740025D1E740F21B
:10574000C324054DCDE70024084DCAE7024C254689
:10575000C7E7064C0025C4E73DFDFFFF99F944006B
:1057600021F9440083DE1B43ADF9440018FCFFFF20
:10577000002844D02DE9F041864600F1BE0400F136
:105780003402214E00270D20034604E00133DBB232
:105790000432152B0DD034F8025B15F4807FF5D15F
:1057A0001568BD42C4BF2F461846AE42A8BF2E465C
:1057B000ECE775460C4681F829007146134B984773
:1057C000804680B2124B9847C4F82C80D5F8E83058
:1057D000BBB9BE1B562707FB06F60E4B83FB062301
:1057E000F617C6EB63164FF47A7303FB06F393FBCD
:1057F000F0F07828D4BF00200120BDE8F08100201F
:1058000070470020BDE8F08100E1F505A95644008D
:1058100099F944001F85EB51002800F00E8170B407
:105820000446874B1B781BB94FF47A7070BC7047E5
:1058300012B94FF47A70F9E7D0F8E83013B14FF4A9
:105840007A70F3E7D0F888300D2913D00E2930D0C4
:105850000F2931D0102932D0112933D0122934D058
:10586000132935D0142902D04FF47A70DEE740F6C0
:105870004E4000E000201B1A48BF03F561637148E9
:1058800080FB0320DB17C3EBA0006F4B1B88984203
:1058900021DB6D4B03F58646503601221546198EE5
:1058A000884219DB013230339E42F7D14FF47A70CF
:1058B000BCE74FF4E170DEE74FF46170DBE740F2E4
:1058C0004650D8E74FF4E160D5E740F6CA00D2E78A
:1058D00040F68C20CFE70025D4F88C1011F1640F2E
:1058E00006DA05EB4505584B03EB051358689DE7B1
:1058F000002924DB63292DDC534B6800421903EB9C
:1059000002129468D568642300202C1B4FF47A722D
:1059100002FB04F2181A92FBF0F203FB02F34B4C69
:1059200084FB0306D817A0EBA610284402FB01F362
:1059300084FB0324DB17C3EBA413184476E7424B24
:105940006800421903EB02125468956800236FF057
:105950006300DAE7C72909DC3B4B6800421903EB17
:105960000212D4681569C8236420CEE7B1F5967F8A
:1059700009DA3023344A03FB05252C696D694FF49D
:105980009673C820C1E7B1F5C87F0ADA30232E4AE2
:1059900003FB05256C69AD694FF4C8734FF496702D
:1059A000B3E7B1F5FA7F0ADA3023274A03FB05256E
:1059B000AC69ED694FF4FA734FF4C870A5E7B1F51F
:1059C000167F0ADA3023204A03FB0525EC692D6A8D
:1059D0004FF416734FF4FA7097E7B1F52F7F0ADA98
:1059E0003023194A03FB05252C6A6D6A4FF42F7387
:1059F0004FF4167089E7B1F5487F0ADA3023124A6E
:105A000003FB05256C6AAD6A4FF448734FF42F70A1
:105A10007BE7B1F5617F0ADA30230B4A03FB0525EA
:105A2000AC6AED6A4FF461734FF448706DE7302251
:105A3000054B02FB0535E86AF8E64FF47A707047CB
:105A40000840002067666666B8474600D34D62107E
:105A50002DE9F04F85B0814688460C20DFF8ACB1C7
:105A6000D84706460C20DFF8A8A1D0470246B9F86F
:105A7000163000FB03F3624D85FB0301DB17C3EB1C
:105A8000A113334404AC44F8043D334608F1BE018D
:105A900020465C4FB8475C4E039BF3820D20D847ED
:105AA00001900D20D0470246B9F8183000FB03F3EF
:105AB00085FB03E1DB17C3EBA113019803440393B8
:105AC000034608F1C0012046B847039B33830E20EC
:105AD000D84701900E20D0470246B9F81A3000FB93
:105AE00003F385FB03E1DB17C3EBA1130198034428
:105AF0000393034608F1C2012046B847039B738312
:105B00000F20D84701900F20D0470246B9F81C302B
:105B100000FB03F385FB03E1DB17C3EBA113019843
:105B200003440393034608F1C4012046B847039B8E
:105B3000B3831020D84701901020D0470246B9F80F
:105B40001E3000FB03F385FB03E1DB17C3EBA1135E
:105B5000019803440393034608F1C6012046B84761
:105B6000039BF3831120D84701901120D0470246B0
:105B7000B9F8203000FB03F385FB03E1DB17C3EB2F
:105B8000A113019803440393034608F1C80120467A
:105B9000B847039B33841220D84701901220D04786
:105BA0000246B9F8223000FB03F385FB03E1DB1763
:105BB000C3EBA113019803440393034608F1CA0100
:105BC0002046B847039B73841320D847834613208D
:105BD000D0470246B9F8243000FB03F385FB0315D8
:105BE000DB17C3EBA5135B4403935B4608F1CC01C1
:105BF0002046B847039BB38405B0BDE8F08F00BFD3
:105C0000D34D6210455644000C400020F99E4400DC
:105C1000119F440000B52E4A11682E4BA3FB01E1F1
:105C200049094163B0F8BE1041F04001A0F8BE1030
:105C30001168A3FB01E14909C163B0F8C21041F04A
:105C40004001A0F8C2101168A3FB01E149094164B9
:105C5000B0F8C61041F04001A0F8C6101168A3FBCF
:105C600001E14909C164B0F8CA1041F04001A0F84F
:105C7000CA101168A3FB01E149098163B0F8C010A3
:105C800041F04001A0F8C0101168A3FB01E14909EF
:105C90000164B0F8C41041F04001A0F8C4101168CC
:105CA000A3FB01E149098164B0F8C81041F040014B
:105CB000A0F8C8101268A3FB02235B090365B0F8C3
:105CC000CC3043F04003A0F8CC305DF804FB00BFBB
:105CD000381C00201F85EB51002800F03482002979
:105CE00000F031822DE9F04F89B007920C468E4BBF
:105CF000984720468D4B98478D4BB3F816A01A8BCA
:105D000001925A8B02929A8B0392DA8B04921A8C2C
:105D100005925A8C0692B3F82490864B93F8008033
:105D200085490A1D01F5D45E0EF10C0E834D00204D
:105D3000034640F2E73C31E013F0800F17D18E8824
:105D40004E4514D352F8046C7D4FA7FB06767609B6
:105D50002665B4F8CCB02BF0410BA4F8CCB0B5421A
:105D6000A8BF354652F8046C304443F08003B8F1C4
:105D7000010F03BF734EA6FB0076B60806466645C4
:105D800028BF66466665B4F8CE6026F00106A4F822
:105D9000CE6008310832964500F0D68013F0010F2E
:105DA00017D18E88564514D352F8046C644FA7FB64
:105DB000067676096663B4F8BEB02BF0410BA4F802
:105DC000BEB0B542A8BF354652F8046C304443F02B
:105DD000010313F0020F18D18E88019FBE4214D325
:105DE00052F8046C564FA7FB06767609A663B4F802
:105DF000C0B02BF0410BA4F8C0B0B542A8BF3546E7
:105E000052F8046C304443F0020313F0040F18D12D
:105E10008E88029FBE4214D352F8046C484FA7FBF1
:105E200006767609E663B4F8C2B02BF0410BA4F80D
:105E3000C2B0B542A8BF354652F8046C304443F0B6
:105E4000040313F0080F18D18E88039FBE4214D3A9
:105E500052F8046C3A4FA7FB067676092664B4F82C
:105E6000C4B02BF0410BA4F8C4B0B542A8BF35466E
:105E700052F8046C304443F0080313F0100F18D1AB
:105E80008E88049FBE4214D352F8046C2C4FA7FB9B
:105E9000067676096664B4F8C6B02BF0410BA4F818
:105EA000C6B0B542A8BF354652F8046C304443F042
:105EB000100313F0200F18D18E88059FBE4214D313
:105EC00052F8046C1E4FA7FB06767609A664B4F858
:105ED000C8B02BF0410BA4F8C8B0B542A8BF3546F6
:105EE00052F8046C304443F0200313F0400F7FF469
:105EF00023AF8E88069FBE42FFF41EAF52F8046C9B
:105F00000F4FA7FB06767609E664B4F8CAB02BF00B
:105F1000410BA4F8CAB0B542A8BF354652F8046C8C
:105F2000304443F0400307E7515A4400155C4400F5
:105F30000C40002036400020B8010020FFC99A3BE9
:105F40001F85EB51ABAAAAAA079E314620467E4B7D
:105F500098470746334683F82800636B7365A36B45
:105F6000B365E36BF365236C3366636C7366A36C94
:105F7000B366E36CF366236D3367F36AB3F5AF6F13
:105F80001ADA724B9D4217D8636B5B1B6363E36B3A
:105F90005B1BE363636C5B1B6364E36C5B1BE3642D
:105FA000A36B5B1BA363236C5B1B2364A36C5B1B56
:105FB000A364236D5B1B23653A460D212046DFF861
:105FC0009881C047079B5863636B03FB00F3604EE7
:105FD00086FB0312DB17C3EBA21363633A460E2161
:105FE0002046C047079A9063A36B03FB00F386FB30
:105FF0000312DB17C3EBA213A3633A460F2120461B
:10600000C0470799C863E36B03FB00F386FB0302F9
:10601000DB17C3EBA213E3633A4610212046C047C7
:10602000079B1864236C03FB00F386FB0302DB175A
:10603000C3EBA21323643A4611212046C047079AB6
:106040005064636C03FB00F386FB0312DB17C3EBA6
:10605000A21363643A4612212046C0470799886418
:10606000A36C03FB00F386FB0302DB17C3EBA21355
:10607000A3643A4613212046C047079BD864E36CCB
:1060800003FB00F386FB0302DB17C3EBA213E364FD
:106090003A4614212046C04707990865236D03FB43
:1060A00000F386FB0326DB17C3EBA6162665CB6A37
:1060B000B3F5AF6F25DA254B9D4222D8D4F8E830EE
:1060C00013B3642303FB05F5224B83FB0523ED1774
:1060D000C5EB6313626B1A446263E26B1A44E263BA
:1060E000626C1A446264E26C1A44E264A26B1A4461
:1060F000A263226C1A442264A26C1A44A2641E4455
:10610000266509B0BDE8F08FD4F88C30B3F5967FE2
:1061100015DDC3EB03130F4A82FB0312DB17C3EB3E
:1061200062132D3B642BC8BF002309DD03FB05F57B
:10613000084B83FB0523ED17C5EB6313CAE7002368
:10614000C3F16403F2E7704771574400FEC99A3BFC
:10615000D34D62101F85EB5119584400002800F000
:1061600083802DE9F04F87B00446002979D0D0F81C
:1061700098B0B1F820A08B7F18464E7F0F7F91F822
:106180001B8091F81A90D4F884300393D4F88030AF
:106190000293CDF80490CDF800803B46324605903E
:1061A00001465046314DA847C4F88800D4F88430E1
:1061B0000393D4F880300293CDF80490CDF800809A
:1061C0003B46324605995046294DA847C4F88C00F5
:1061D000B4F8E83023F00103A4F8E830B4F8EA306A
:1061E00023F00103A4F8EA30224B984702280FD08D
:1061F0001BF00C0F29D1B4F8E83023F00203A4F807
:10620000E830B4F8EA3023F00203A4F8EA3028E0DA
:106210001BF0080F0CD1B4F8E83023F00203A4F807
:10622000E830B4F8EA3023F00203A4F8EA3018E0CA
:10623000B4F8E83043F00203A4F8E830B4F8EA30E8
:1062400043F00203A4F8EA300BE0B4F8E83043F07E
:106250000203A4F8E830B4F8EA3043F00203A4F8EB
:10626000EA3007B0BDE8F08F704700BF194C44001A
:10627000D94A4400A97D440070B400240C4B1C7022
:106280000D4681B10378934210D001460120084E9B
:106290003070854208D0431CDBB211F8014F9442A4
:1062A00002D01846F4E7084670BC70470020FBE7B0
:1062B0004540002030B4084B1B780344064C20783E
:1062C0000130C0B22070884203D213F8015F9542BA
:1062D000F5D130BC704700BF454000200B4B1B7808
:1062E00003440A4A10780138C0B2107060B110B48B
:1062F00013F8014D8C4205D010780138C0B21070EF
:106300000028F5D110BC7047704700BF4540002001
:1063100001380B2817D8DFE800F0180606080A0C29
:106320000E10121806140320704706207047012033
:1063300070470420704706207047022070470520F0
:10634000704705207047FF2070470020704700000D
:10635000F8B505460C462249A1FB0231531A01EB60
:1063600053018908C1EBC101511ACFB220461D4B20
:10637000984705F13006F6B206EB96061A4B83FBFA
:1063800006239A19F317C3EBA203C3EBC303F31A53
:1063900015F0030F03D1013CE4B2012C0FD90744DF
:1063A00057FA83F30633104880FB0320C218D8172E
:1063B000C0EBA200C0EBC0001B1AD8B2F8BD384435
:1063C00050FA83F30C33084880FB0320C218D81717
:1063D000C0EBA200C0EBC0001B1AD8B2F8BD00BFD2
:1063E00025499224116344009324499201380B28D3
:1063F00010D8DFE800F0110811061106111106117E
:1064000006111E20704701F0030100290CBF1D205A
:106410001C207047002070471F207047F8B50546C4
:106420000E46084B9847044648B1074F2246294676
:106430003046B84718B1013C14F0FF04F6D12046AD
:10644000F8BD00BFED634400516344002DE9F84FEF
:10645000CF1EFFB2072F2AD8994615460C4606468E
:1064600001460320DFF858B0D847144F07FB06F762
:106470004FF0640A07F5EA4808F131080AFB008882
:1064800031460A20D8470AFB05953D4442F2107177
:1064900001FB0455A8450DD807F5C337A1370AFB02
:1064A0000070A84294BF00200120BDE8F88F0020B2
:1064B000BDE8F88F0020BDE8F88F00BF40420F0014
:1064C0001D644400002952D0F8B50B468178194468
:1064D000C9B2C82927D91831C9B2264BA3FB012359
:1064E0001B0903EB4303A1EBC30181704FF0FF35A0
:1064F00004460679C788394630461F4B9847E378EB
:106500002B44DBB2E3700BBB013E16F0FF0618D044
:106510002671002539462079174B9847E070791984
:10652000E1800120F8BD134BA3FB01231B095DB2E1
:1065300003EB4303A1EBC3018170002DD8D10120EF
:10654000F8BD0C2323714FF0FF35E3E798420CD2DE
:106550000136F6B20C2E04D8267100250123E37013
:10656000DDE7012121710D46F8E70025D7E700207E
:10657000704700BFABAAAAAAED63440001290BD95A
:106580000346023989B201310144002013F8012F7A
:1065900050408B42FAD17047002070472DE9F04FF0
:1065A00083B00378242B04D00825284603B0BDE827
:1065B000F08F17460E4604464378472B03D0472BEF
:1065C0000DD00825F1E78378502B11D04E2B0FD03A
:1065D000A378502B00F02A824E2B00F02782A3785C
:1065E000502B00F01B834E2B00F018830825DCE7AE
:1065F000E378522BECD123794D2BE9D16379432BEE
:10660000E6D10422424B1A702A2231462046414BE1
:1066100098470546031D9E4240F0E08381B2204624
:106620003D4B984763195B7813F0C00F0EBF23F002
:10663000300303F00F030933384A13702544AB7855
:1066400013F0C00F0EBF23F0300303F00F03093324
:10665000334A1370314B1A78314B1B7843EA0213DB
:10666000DBB2984218BF02259FD12C22314620462A
:10667000284B984781462B4B18602C2231462046E8
:10668000294B98470546294B1860A0EB09030B2BB3
:1066900018BF032589D1264904EB09035A7822F053
:1066A000300202EB8202987820F0300000EB4202C8
:1066B0008A74DA7822F0300202EB8202187920F034
:1066C000300000EB42024A745A7922F0300202EBA9
:1066D00082029B7923F0300303EB42020A74114BD0
:1066E0001D602C22314620460F4B984781460F4BA8
:1066F000186025446B78562B40F07F832C2231465E
:106700002046094B9847019004254FF000094BE0C3
:10671000401C0020796244007D6544003740002021
:10672000384000203C400020B5624400404000203A
:106730002463012004EB090292F8019029F030094A
:1067400009EB8909937823F0300303EB4909D378E7
:1067500023F0300303EB830392F804A02AF0300AFD
:106760000AEB43035FFA83FA937923F03003C3EB18
:10677000431103EB8101D37923F0300303EB83034F
:1067800003EB83034FEA830808EBC108537A23F035
:1067900030039844137A23F0300303EB830308EBB0
:1067A00043081FFA88F80025964B019A1A602C229C
:1067B00031462046944B98478346944B1860019A83
:1067C000A3185B78532B04BFC9F100090FFA89F9AC
:1067D000002D40F0248348EA0A4343EA09638C4AC7
:1067E0005360884B18602C2231462046864B9847D0
:1067F0000190864B1860A0EB0B000B2840F0F18253
:10680000A3449BF8019029F0300909EB890909EBB1
:1068100089029BF8023023F0300303EB83034FEA35
:10682000430909EB82099BF8033023F030039944B4
:106830000FFA89F99BF8043023F0300303EB83034C
:106840009BF805A02AF0300A0AEB43035FFA83FAAB
:106850009BF8073023F03003C3EB431203EB8202B3
:106860009BF8083023F0300303EB830303EB83032F
:106870004FEA830808EBC2089BF80A3023F0300384
:1068800098449BF8093023F0300303EB830308EBB3
:1068900043081FFA88F85B4B019A1A602C22314694
:1068A0002046594B9847594B1860019AA3185B78BA
:1068B000572B04BFC9F100090FFA89F96DB94FEAE6
:1068C0008A3303F47C23C8F30D0843EA080309F272
:1068D000FF7943EA09534E4A93602C223146204601
:1068E000DFF82491C8472C2231462046C84780460D
:1068F000444B18602C2231462046C847434B186051
:10690000A0EB0800072840F06F824444637823F02E
:10691000300303EB8303A27822F0300202EB43033F
:10692000DAB23B4EF274E37823F0300303EB8303D7
:10693000217921F0300101EB4303D9B2317560793F
:1069400020F0300000EB8003A07920F0300000F54B
:10695000FA6000EB430080B2F082337EFF2B04D05C
:10696000B47C2C4B1B789C4204D0294CA37C2A4E2F
:10697000B0472076264A917C264B197002F11A0402
:1069800002F1100303CBC2F81A00C2F81E101B88D4
:1069900053843C20214B984730280AD1A4F11A0394
:1069A0001B7E002B14BF022101211D481D4B98475F
:1069B0000BE03C20194B984738B13C20174B9847C7
:1069C000A0F1180149B20029EFD1174B1D70104CEE
:1069D00007F1100304F1100207CA03C31A8023460B
:1069E00053F81A0F5968C7F81A00C7F81E101B8908
:1069F0007B8463687B60A368BB60002D3FF4D5ADEA
:106A00000425D2E53C400020B5624400404000200F
:106A100024630120444000204D6444003DD84400DC
:106A200034630120C5644400401C0020E378472BF8
:106A30007FF4D5AD2379472B7FF4D1AD6379412B1A
:106A40007FF4CDAD2A2231462046794B9847054642
:106A5000031D9E4240F0CB8181B22046754B984782
:106A600063195B7813F0C00F0EBF23F0300303F0FF
:106A70000F030933704A13702544AB7813F0C00F2D
:106A80000EBF23F0300303F00F0309336B4A13707A
:106A9000694B1A78694B1B7843EA0213DBB29842C0
:106AA00018BF02257FF481AD2C2231462046604B71
:106AB00098478046624B18602C2231462046614B35
:106AC00098470546604B1860A0EB0808B8F10B0F1B
:106AD00018BF03257FF469AD594B1D602C22314648
:106AE0002046584B9847584B1860401B0A2818BF3F
:106AF00005257FF45AAD2C2231462046DFF844812B
:106B0000C04705464E4B18602C2231462046C047F0
:106B10004D4B1860401B0B2818BF06257FF445AD70
:106B20002C2231462046C0472C2231462046C04701
:106B30000546434B18602C2231462046C047424B45
:106B40001860431B002B0FDD231813F801EC2EF007
:106B5000300E831E5B1BDBB25A19013222440A211C
:106B6000002B41D187F824E02C2231462046DFF863
:106B7000D480C0470546324B18602C22314620464F
:106B8000C047314B1860431B032B0EDD231813F84D
:106B900001EC2EF0300EC31E5B1BDBB25A19013222
:106BA00022440A216BBBC7F80CE02C223146204658
:106BB000244DA8472C2231462046A8472C22314696
:106BC0002046A8472C2231462046A8471C4B186077
:106BD0002C2231462046A8471B4B18601B4B1D78C2
:106BE000002D7FF40DAFE0E412F8010D20F030002D
:106BF00001FB00EE01EB8101490089B2013BDBB2F0
:106C0000AEE712F8010D20F0300001FB00EE01EBC1
:106C10008101490089B2013BDBB2C3E7E378472B2E
:106C200001D00825C1E42379532B11D00825BCE4F9
:106C3000796244007D6544003740002038400020E0
:106C40003C400020B562440040400020401C002031
:106C50006379412B18BF08257FF4A7AC2A2231465F
:106C60002046724B98470546031D9E4240F0C28065
:106C700081B220466E4B984763195B7823F0300150
:106C80006C4A117013F0C00F03D003F00F030933E7
:106C9000137063199B7823F03001674A117013F069
:106CA000C00F03D003F00F0309331370614B1A7840
:106CB000614B1B7843EA0213DBB2984218BF0225EE
:106CC0007FF473AC5D4B1D602C2120465C4B9847D4
:106CD00006465C4B18602B1A032B15DD621912F85F
:106CE000013C23F0300312F8021C21F030010A228B
:106CF00002FB01312B1F1B1ADBB218180130204494
:106D00006422002B43D179854C4B1E602C212046F8
:106D10004B4B984705464B4B1860331A032B14DD39
:106D2000A21912F8013C23F0300312F8021C21F0E2
:106D300030010A2202FB0131331F1B1ADBB2181883
:106D40000130204464227BBB39853C4B1D602C21E3
:106D500020463B4B98473B4B18602B1A032B7FF781
:106D60003DAF621912F8013C23F0300312F8021C07
:106D700021F030010A2202FB01312B1F1B1ADBB26A
:106D80001A18013214446422DBB9F98426E710F89A
:106D9000015D25F0300502FB051102EB8202520075
:106DA00092B2013BDBB2ACE710F8016D26F0300681
:106DB00002FB061102EB8202520092B2013BDBB2EF
:106DC000C1E714F8010D20F0300002FB001102EBC6
:106DD0008202520092B2013BDBB2D5E70125FFF7F8
:106DE000E4BB0625FFF7E1BB0725FFF7DEBB012566
:106DF000FFF7DBBB0125FFF7D8BB124B18602C2235
:106E000031462046104B984701900C4B1860A0EB80
:106E100009000A283FF48EAC0525FFF7C6BB2C22DB
:106E200031462046084B9847019034E5796244008A
:106E30007D6544003740002038400020404000205D
:106E4000DD6244003C400020B56244002DE9F04181
:106E50000E4651B307469046451C03780A2B27D0AF
:106E600000240134E4B2A6421FD015F8013B0A2BDE
:106E7000F7D14246214638460F4B9847082818BF9D
:106E800088F80000631CDBB29E4213D96B1E781E8B
:106E9000B21E121B55FA82F513F8012F00F8012FCC
:106EA000AB42F9D1013E341BE6B23046BDE8F08179
:106EB0000024DEE70026F8E79D65440010F5967F84
:106EC00033DB00F59672C2F34E0205321A4981FB9C
:106ED0000231D317C3EBA103DAB2322A28D830B576
:106EE000DBB2164A32F813105C1E32F814208A1AEC
:106EF00002EB82025200104C84FB02E5D217C2EB77
:106F0000E50201EB810103EB83039B00A3F596737C
:106F100002FB03F3C3EB410302FB003384FB0324B6
:106F2000D817C0EBA40080B230BD044B188870475E
:106F3000024BB3F86400704767666666388B46009C
:106F400038B504460D4608460A4B984704FB00F046
:106F5000094CA4FB0030400940F6770404FB00F024
:106F600005EB850546F6B32303EB4505B0FBF5F0CD
:106F700080B238BDBD6E44001F85EB5110B504468C
:106F8000074B984745F2A64303FB00F004EB84044B
:106F900046F6B32303EB4404B0FBF4F080B210BD1B
:106FA000BD6E4400F8B50D46B0F57A7F35D8411D69
:106FB000244C84FB0134CA17C2EBA40212F0FF0276
:106FC00025D1214BB3F9684005F66C162AB2D317C8
:106FD0001E4FA2FB070107FB03113246F3171C4F9C
:106FE000B84745F6386303FB04001A4B03FB05F56D
:106FF00095FBF6F56FF0090202FB04F202F52A3365
:1070000003F2C3335B1B90FBF3F000B2F8BD642ABC
:1070100004D90D4BB3F93041D6E764220A4B03EB98
:107020004201B1F96840B1F96630E31A03FB12423C
:1070300003FB00F0034B83FB0013C417C4EBA30452
:107040001444C1E767666666388B460044512A19C6
:1070500055DE4500C3AB02002DE9F04106469046DF
:107060001D46069C0846224FB84700EB80004000B2
:1070700006FB00F64046B8471E4B83FB0623F61777
:10708000C6EBA3164FF47A7303FB06F300EB800004
:10709000400093FBF0F3C3EBC3031B01164A82FBD2
:1070A0000312D917C1EB621121EAE171B1F57A7FC0
:1070B000A8BF4FF47A71C4F88010EB68132B07DC7B
:1070C000B5F8AA3023B90D4B1A880D4B1A8103E08D
:1070D0004FF416720A4B1A81D4F84C31132B94BF1B
:1070E000012200220648074B984780B2BDE8F08194
:1070F0007D6F4400D34D62101F85EB515840002036
:1071000048400020153F4400C0EB00108000014BB8
:1071100018807047584000204FF46162014B1A807C
:10712000704700BF58400020002840F0AD80AD4BB4
:1071300040225A61C3F8A0201A66C3F890205A650D
:107140005A62C3F88020196F21F040011967596F06
:1071500021F0400159671A66C3F894205A655A62B3
:10716000C3F880201A6F22F040021A675A6F22F08B
:1071700040025A6780225A61C3F8A0201A66C3F8F9
:1071800090205A655A62C3F88020196F21F080015F
:107190001967596F21F0800159671A66C3F8942066
:1071A0005A655A62C3F880201A6F22F080021A676B
:1071B0005A6F22F080025A6710225A61C3F8A02049
:1071C0001A66C3F890205A655A62C3F88020196F76
:1071D00021F010011967596F21F0100159671A66E3
:1071E000C3F894205A655A62C3F880201A6F22F0BF
:1071F00010021A675A6F22F010025A6720225A6151
:10720000C3F8A0201A66C3F890205A655A62C3F8E2
:107210008020196F21F020011967596F21F020019A
:1072200059671A66C3F894205A655A62C3F88020D9
:107230001A6F22F020021A675A6F22F020025A6752
:107240004FF480525A61C3F8A0201A66C3F8902008
:107250005A655A62C3F88020196F21F4805119676A
:10726000596F21F4805159671A66C3F894205A6502
:107270005A62C3F880201A6F22F480521A675A6F3C
:1072800022F480525A677047564B40225A61C3F825
:10729000A0201A66C3F890205A655A62C3F880206D
:1072A000196F21F040011967596F21F040015967AA
:1072B0005A66C3F890205A655A62C3F880201A6F44
:1072C00022F040021A675A6F22F040025A67802269
:1072D0005A61C3F8A0201A66C3F890205A655A6212
:1072E000C3F88020196F21F080011967596F21F0D0
:1072F000800159675A66C3F890205A655A62C3F8EC
:1073000080201A6F22F080021A675A6F22F08002E2
:107310005A6710225A61C3F8A0201A66C3F8902059
:107320005A655A62C3F88020196F21F0100119675D
:10733000596F21F0100159671A66C3F894205A65F5
:107340005A62C3F880201A6F22F010021A675A6F2F
:1073500022F010025A6720225A61C3F8A0201A6650
:10736000C3F890205A655A62C3F88020196F21F043
:1073700020011967596F21F0200159671A66C3F877
:1073800094205A655A62C3F880201A6F22F02002B6
:107390001A675A6F22F020025A674FF480525A61DE
:1073A000C3F8A0201A66C3F890205A655A62C3F841
:1073B0008020196F21F480511967596F21F4805191
:1073C00059671A66C3F894205A655A62C3F8802038
:1073D0001A6F22F480521A675A6F22F480525A6749
:1073E000704700BF00100E4010B4714B08221A669F
:1073F000C3F890205A655A62C3F88020196F21F0B3
:1074000008011967596F21F0080159671A601022A5
:107410001A66C3F890205A655A62C3F88020196F23
:1074200021F010011967596F21F0100159671A6096
:107430004FF400721A66C3F890205A655A62C3F876
:107440008020196F21F400711967596F21F40071C0
:1074500059671A604FF480611966C3F89010596536
:107460005962C3F880101A6F22F480621A675A6F4B
:1074700022F480625A6719604FF400521A66C3F80A
:1074800090205A655A62C3F88020186F20F400508B
:107490001867586F20F4005058671A604FF40012B4
:1074A0001A66C3F890205A655A62C3F88020186F94
:1074B00020F400101867586F20F4001058671A6005
:1074C0004FF480021A66C3F890205A655A62C3F8D6
:1074D0008020186F20F480001867586F20F4800017
:1074E00058671A60334A1166C2F8901051655162AC
:1074F000C2F88010106F20F480601067506F20F485
:107500008060506711604FF400611166C2F89010FE
:1075100051655162C2F88010106F20F4006010674E
:10752000506F20F400605067116023491966C3F85A
:10753000901059655962C3F88010186F20F0FC4014
:1075400020F040001867586F20F0FC4020F0400009
:1075500058671961C3F8A01059634FF4305313668C
:10756000C2F8903053655362C2F88030116F21F435
:1075700030511167516F21F4305151671361C2F8D6
:10758000A03053630D4B0E4A1A66C3F890205A651B
:107590005A62C3F88020186F0A4C20401867596F50
:1075A000214059671A61C3F8A0205A6310BC704784
:1075B000000E0E4000100E404000007E00120E40F3
:1075C000FF473F9C00B8C0632DE9F041054688465F
:1075D000204B9847022802D00020BDE8F081632D9F
:1075E0002FD8B8F1630F30D81B4E022130461B4B09
:1075F00098471B494FF47A7404FB05F50D60194B4D
:107600004B60194B8B603046184B9847184902273E
:107610000F6000250D8101238B720B234B600C61E1
:1076200004FB08F4134BA3FB04346409CC6030461C
:10763000114B984739463046104B98472846BDE8CD
:10764000F0814FF0FF30BDE8F0816FF00100BDE840
:10765000F08100BFA97D440000000240D7864500AC
:107660005C400020A0860100008097064D84450004
:10767000684000201F85EB51C7844500BD8645004A
:1076800008B502210E480F4B98471F200E4B984714
:107690000E4B4FF400521A66C3F890205A655A6296
:1076A000C3F88020196F21F400511967596F21F434
:1076B000005159671A61C3F8A0205A6308BD00BF82
:1076C00000000240D786450089834500000E0E4029
:1076D000434BDB6C13F4804F00D1704770B5414CC5
:1076E0004FF4804525634FF400623F4BC3F8802080
:1076F00072B6BFF35F8F00263C4B1E703C4B984721
:107700003C4B98473C4B98473C4B98473C4B9847E1
:107710003C4B98473C4B98473C4B984730463C4B3A
:1077200098473C483C4B98472566C4F8905065659F
:107730006562C4F88050236F23F480432367636F2E
:1077400023F4804363672566C4F89050256565621D
:10775000C4F88050236F23F480432367636F23F4BE
:10776000804363672D4B984704F5826420462C4B79
:10777000984720462B4B984720462B4B984720464E
:107780002A4B984731462046294B98474FF0807145
:107790002848294CA0474FF080712848A047304620
:1077A000274B98473046274CA0470120A04702208E
:1077B000A047254B98473046244B9847244B984781
:1077C000074BDB6B13F4804F05D1224B98472248BF
:1077D000224B984770BD2248224B9847F5E700BFDF
:1077E000000E0E4000100E4000E100E0C81F002017
:1077F000E9734400A5FD44007DFF440089F6440080
:1078000049FA4400817644005D5244002D894400C9
:107810002971440050140E40499545005583450098
:10782000078C4500E18B45004D8C4500638C45007D
:10783000298C4500000A0E40397A4500000C0E40A4
:10784000997F45008983450049814500D5814500E0
:1078500025824500A583450010140E40BD8B4500D0
:1078600000140E40F1864500014B1868704700BFB8
:10787000904000202DE9F041204B9847022801D08C
:10788000BDE8F0811E4C642120461E4DA8471E4FC6
:107890003B689B680122014620461C4EB0471C4CA9
:1078A00064212046A8473B689B6801220146204688
:1078B000B047184D2846762300F8013B02220621E6
:1078C000DFF85480C04780B2841CA4B2013080B27B
:1078D0002E232B54022200212819C047211889B2D7
:1078E0000D236B544B1C9BB20A22EA543B680231B5
:1078F0009B68012289B22846B047C1E7A97D4400B0
:107900009C9646008D8D4400CC1F0020658244006B
:10791000908C4600BC640120953944002DE9F0416B
:1079200084B005460E46174698461E481E4B98479B
:10793000000A1E4B18601E4B98471E4B98471E4B63
:1079400098471E4B98471E4B98471E4B98471E4B17
:1079500098471E4B98471E4B9847022814D01D4B42
:10796000984704461C4B98470C9B02930B9B019332
:107970000A9B009343463A4631462846174DA8478E
:10798000204604B0BDE8F0811F20154B98474FF00A
:1079900080510D20134B984732210A20124B9847F3
:1079A000DDE700BF00140E40058745009040002031
:1079B00005E344002D5644009505450085F7440035
:1079C000A5534400B1FA4400A14344009DFE440085
:1079D000A97D4400D588440019714400FDE14400AC
:1079E00065824500C97C4500C975440058B910B589
:1079F00082B014460846002200921346A1B2034CFE
:107A0000A04702B010BD4FF0FF3070478104450021
:107A10000138022808D810B5144608460022A1B241
:107A2000034B9847204610BD4FF0FF30704700BF12
:107A3000B5014500014B1878704700BFC8480020C9
:107A40000022014B1A707047C8480020014B18688B
:107A5000704700BF0C56002008B51523013B13F0FA
:107A6000FF03FBD1F82202490248034B984708BDA7
:107A70001C4A00205C4C002051E44500F0B503692D
:107A8000B3F5967F1CDB426BB2F5C87F20DB826BBF
:107A9000C72A11DCC26B632A0EDC026C632A0BDC82
:107AA000426C632A08DC826C632A05DCC26C632AA0
:107AB00002DC026DC72A30DD092B07DD002208E059
:107AC000092B2CDC436BB3F5C87F2ADB002200E0D6
:107AD00000222F4B1B78934225D000212D4B19708B
:107AE0002B4B1A702B4B1B78063BDBB2032B0AD8AF
:107AF00029490B6813435B000B600022254B1A7069
:107B0000FF22234B1A70244B1E68244B93F800C0AD
