:020000020000FC
:10000000A8021F711D71FF700171037105710771E5
:100010000971E0CDD6CDCCCDB8CD11711371C39B94
:100020000D710F711571C2CD0B7135CA177120A8F2
:100030001971FFFF6E3BFFFFFFFFFFFFFFFF1B710B
:1000400058058105A505B703CA03B406FA02920351
:100050003A03CC055006810673032106F105BD0461
:10006000890430047C04FFFFFFFFFFFFFFFFFFFF59
:0E007000FFFFFFFFFFFFFFFFFFFFFFFFFFFF90
:050080007F01FFFFFFFE
:1002A8007B1E1000006168AD06160000617197EEB4
:1002B8001CFEFD9AF3026168AD2B1602FB122702A1
:1002C800626161AD0343617197868AFC8BFA16C03F
:1002D800D3120200626161AD01431400FB87958669
:1002E800848AFA8BF89ABA6A9AF702100100AF006A
:1002F800FAFDB330417251308A044D00B2AF61014A
:10030800FAF6B330417251308A044D00B2AF21255C
:10031800FAF6B39A3203604D00333033B2AFB39A72
:100328003203624D00333033B2AF307332A1003143
:1003380082AFB3428A05EA0000B2AF2130273027E6
:10034800FAF2B3428A05EA0000B2AF21253025301F
:10035800FAF2B3A300317F02A380428A05EA0000C3
:10036800B2AF2125302530616BFAF0B7B3B6D27041
:100378006631886073C267318863610873C2663109
:1003880088610BEA0000B7B2B6AFB39AF803EA0087
:1003980000B2AFB3B59AD5039AF803C23427349D97
:1003A80008A10070611A30613BB4EA0000B2AFB135
:1003B800B3E27D80E27D8030611A30613B6168B2D2
:1003C800B0AFB130611A30613B6168B0AF75617B25
:1003D8003574317F0BB3D2A10070611A30613BB222
:1003E800B163317F09A10070611A30613BD2B0AFAF
:1003F800B1636163B0BD053182A300AFB5B3B4305A
:1004080073A100A2083327333027302730611C300E
:10041800613D9D0630610C30612D8AE93327333206
:100428003032337DFF30B4AFB5B7D4100000B1B16E
:10043800891CD6C2A220DE0D25DE0DDE0C25DE0CC1
:10044800DE0B25DE0BDE0A25DE0A9D1707610C0789
:10045800DE01612DDE01DE026128DE02DE032903F2
:10046800DE0321342734352735302730278AC7B2B1
:10047800B49B3507B5E2E4B79ADA049AEA049B35E7
:1004880007B5E2E4B7891CD63209063233290733A7
:1004980034290834352909759B3507B5E2E4B7894D
:1004A8001CD6326906323369073334690834356932
:1004B80009759B3507B5E2E4B7891CD66219067041
:1004C8006339076160643908616065390961609B57
:1004D8005D07891CD6AE0830AE09B1AE0A70AE0B06
:1004E800B6AFB1B7B5B3891CD6AE0469056906695C
:1004F80007BD0A120000140000B6B6FA50A2201078
:100508000000D407610107DE0127DE01DE0227DED5
:1005180002DE0327DE03342734352735302730271A
:100528004907BD04304906308D1FBD0C35490535D6
:10053800BD04344904348D11341904343539053572
:100548003039063039070741078AB8B2B4B6B6AFB2
:10055800B7B5B36072891CD6AE0670AE07D480BE3C
:100568000760BE068522E6CA080023E673AB706101
:100578006160323032B2B4B6AFB7B5B3D2891CD6E7
:10058800AE0670AE07D480BE0760BE068522E6CAF6
:10059800080023E633BB323032B2B4B6AFB7B5B3D6
:1005A800891CD6AE0670AE07D480BE0760BE06852D
:1005B80022E6CA0800E673AB704323ABB16168B0AA
:1005C800B2B4B6AFB7B5B3D2891CD6AE0670AE0713
:1005D800D480BE0760BE068522E6CA0800E6E2307F
:1005E800BB432330BBB2B4B6AFB7B5891CD6AE0493
:1005F80070AE05D480BE0560BE048522E6CA06003A
:10060800E673AB7043ABD443AB704323ABD2C46146
:1006180068616B616AC4B4B6AFB7B522B3B1891C5F
:10062800D6AE0970AE0AD480BE0A60BE0985E6CA95
:100638000B00E673B030BB4330BB43D4B030BB4390
:1006480030BBD2C423B4B6AFB1B3B5B7891CD6B7E3
:10065800AE0870AE09D68774AE01758686C6B6BE7A
:100668000960BE08C630611C30613D991CD4120A6D
:10067800009AF206B6B4B2B0AFB1B3B5B7891CD61A
:10068800B7AE0870AE09D68774AE01758686C6B651
:10069800BE0960BE0822C630610C30612DD4231219
:1006A8000A009AF206991CB6B4B2B0AFB1B3B5B7A6
:1006B800891CD6AE0870AE09D68770AE01D4B0E6F4
:1006C800891CE6BE0760BE0665A00A317F05A00E3C
:1006D80061FB75A100D222C430610E30612FD42392
:1006E8009AF206991CB4B2B0B6AFB1B322C6306163
:1006F8001C30613D9D2036610A3637612B373461E5
:100708000A3435612B352396948795926171616A15
:10071800616BBDF3FA1223B5B78795868492617130
:10072800616A616BBDF3B6B4B2B0AFB7AF891CD61E
:10073800AE04BE08AE05BE09AE02BE06AE03BE07D5
:1007480087BE04AE01BE0565616C616A616BE4E257
:10075800B6B6B6B4AF891CD6AE04BE08AE05BE099F
:10076800AE02BE06AE03BE0787BE04AE01BE05E4F8
:10077800E2B6B6B6B4AF1F49029D0F30A100802182
:1007880030273027306106306127AE0470AE05315E
:10079800981600F0A1009786C6EAF0F78DF6AFB577
:1007A800D49AC408AD078E0DFBD69A3307C49E09A8
:1007B800FB609E08FBA1039E06FB8E02FB708E0366
:1007C800FB305DFD6D01309E03FB609E02FBB4AF04
:1007D800B5B1B3B7C1030D049E05FB1602FB318703
:1007E800078E07FB4D00AD08A40064B2B2B2B4AFE7
:1007F8008E05FB4D209DF1655D0F72C1025D106194
:100808006A6DA09E37FB8E05FB9E38FBC1025D0119
:100818000806FB5D0F6D809E39FBA100C301C10373
:10082800AD1E163AFBC504D2B3B48597891C80D493
:100838008541958286C10374C101706461408DE869
:10084800C1010D03731037FB9A3D5072C10170A1AD
:1008580000CA3AFBD662979A950AAD409ACE089A92
:10086800330751BD371012FB9AB9CAC1025D01089E
:1008780006FB5D0F9E06FBA401C102314E039BF2ED
:10088800071046001602FB71839E11FB609E10FB49
:10089800108A0A1210FB9AE6CA9BF2071012FB9AFA
:1008A800CCCAEA33009D039BF0079AC408BD039B9A
:1008B800F0078E0DFBD69A33079BF0078E0CFB7062
:1008C8008E0DFB6168AF8E05FB731037FBD48E0A63
:1008D800FB708E0BFBD6C4AFB3B5748E07FB4D000F
:1008E800BD2F645DE04DA0AD039BFA091602FB31F4
:1008F80097039BFA09649E18FBA1019E07FB100A47
:10090800009E0FFB609E0EFB9A1A0A9AE6CA9BFA93
:100918000951BD13645D1F9E04FB4D209D67649EB5
:1009280019FBA1029BF7098E07FB4D02BD0E645D02
:1009380030BD52649E1AFBA1039BF70976A7009A63
:10094800100AC79D079A060A419BF7099A100AC917
:10095800AD039BF7099A060A731018FB9A3D50617C
:100968004CBD721618FB31C7269AFD09AD599E0673
:10097800FB1602FB71929A210A8D0A9A390A879509
:10098800868450BDF99A1A0A9A4BCBA100FA609A4C
:10099800FD09AD078E1CFB4D72BDEA1003003068DF
:1009A80002FB306803FB9E03FB609E02FB108A0A71
:1009B8001210FB9A4BCB9A210A8DCA9A390A87954D
:1009C800868450ADC0FAF71602FB71929A300AA1DC
:1009D80071BE01FAB08E14FB708E15FB6168ADA56F
:1009E8008E15FBD69A33079A1A0A9A4BCBFA969E1B
:1009F80007FBB4B2AF8E1AFB5D0F4806FBAFCA18EF
:100A0800FBD664978E07FBAF8E04FB70A10090D2D3
:100A1800C6AF10620A120EFBAF8E1BFB729A300A29
:100A280062978E07FB4D05AF8E08FB708E09FBD6CB
:100A3800AF8E08FB708E09FB80D4A1FC161CFB0846
:100A480007FB70AF511602FBBD037192AF7193AFF4
:100A5800A1001602FB71942D00AFA1009E07FB8E2A
:100A680016FB708E17FB6168AD078E17FBD69A339D
:100A780007AF9E15FB609E14FBAF9E17FB609E168A
:100A8800FBAFA1001602FB71829E07FBAF8E0AFB2B
:100A9800708E0BFB6168AFB3B59A950AAD069ACE16
:100AA800089A3307B4B2AF9E0BFB609E0AFBAF9E59
:100AB8000DFB609E0CFBAFB3B59AA3194D05AD0EA7
:100AC8009A8EC64D0F9D149A8EC64D00AD0D1056C8
:100AD800FB9A0566A1029ABDC6FA389AA3194D0673
:100AE800AD079AA3194D02BD161056FB9AB11FA166
:100AF800019ABDC6101B209A5C0B9A7D5EFA1410F1
:100B080056FB9A2341A1009ABDC610740B9A5C0B40
:100B18009A7D5E9ABD3DA1019A5840A2001456FBE9
:100B2800A100B5B6BE19629A2C46629AF70F629A6E
:100B3800FE3F629A403F4262844D048DE38E65FB1E
:100B4800708E66FB305DFC6D04309E66FB609E65B2
:100B5800FBB4B2AF9E6AFB609E69FBA101AF8E69D0
:100B6800FB708E6AFBD69A33079BEC3D9A4D41A1E8
:100B7800019AB3D051BD05A1039A2D27AFB3734D88
:100B8800049D06166FFBABFA02A100B2AF4D049D9F
:100B98000B166FFB610E9A1D10A10097AFB3B5C17C
:100BA800061D09AD4151AD5251AD7D51BD039B6D3F
:100BB8000C51BD039B8F0C51BD039B510D51BD03BF
:100BC8009BC10D51BD039BA00C51BD039B250E512C
:100BD800BD039B3D0E1D40BD039B550E1D06BD0369
:100BE8009B7D0C9B5E0EC1099A4D9D73C1099AE1CC
:100BF800C0C1099A980E979B7B0EC1099A199D4D01
:100C080000BD11C1099A2F9D51BD09C1099A8A0ECB
:100C1800A11BFA05C1099A980E97C1099A4D9D73AF
:100C2800C1099AE1C09B7B0EC1099A199D4D00BD6F
:100C380020C1099AF6C372C1099A9D9D61429D110E
:100C4800C1099A3E9D51BD09C1099A8A0EA11AFA95
:100C580005C1099A980E97C1099A4D9D73C1099AC1
:100C6800E1C09B7B0EA364C1099AE1C0C1099A8ABD
:100C78000EA106FA81A364C1099AE1C0C1099A8A42
:100C88000EA109979B7B0EA300C1099AE1C0C10977
:100C98009A8A0EA1059BFE0BC10B4DFEBD3FC109F3
:100CA8009A4D9D74C1099AD0C07264A30070A100C6
:100CB80080C78D14C1099AD0C074C1099A4D9D721C
:100CC8006470A10080C79D079AA3194D06AD07C19E
:100CD800099A920EFA2FC1099A9E0EFA28C1099A0A
:100CE8004D9D72C10B614ABD0FC1099A9D9D72C18C
:100CF8000C614ABD039B7B0EC10B73C1099AE1C00D
:100D0800C1099A9E0E97C10C4DFEBD16C1099AA144
:100D1800C551AD0EC1099A9D9D73C1099A0DC19B1C
:100D28007B0EC10C4DFEBD16C1099AA1C551BD0E61
:100D3800C1099AFCC073C1099A0DC19B7B0EC10CF5
:100D480073C1099A0DC19B7B0EC10BBD07C1099ADE
:100D5800920EFA35C1099A4D9D72C10B9A800E12F6
:100D68006500C78D0EA364C1099AE1C0C1099A9EA6
:100D78000EFA16C1099A4D9D72C10B61026273C1C8
:100D8800099AE1C0C1099A9E0E97C1099A9D9D7260
:100D9800C10C9A800E12C900C78D0AA3C8C1099A4E
:100DA8000DC19B7B0EC1099A9D9D72C10C610262A7
:100DB80073C1099A0DC19B7B0EC10BBD07C1099A6E
:100DC800920EFA30C1099A4D9D72C10B61429D0E77
:100DD800A300C1099AE1C0C1099A9E0EFA16C10979
:100DE8009A4D9D72C10B61126273C1099AE1C0C12B
:100DF800099A9E0E97C1099A9D9D72C10C61429DE8
:100E080009A300C1099A0DC1FA69C1099A9D9D7289
:100E1800C10C61126273C1099A0DC1FA56C10973F6
:100E2800A1019AA6BE73C1099AE1C0C1099A8A0EA6
:100E3800A1079BFE0BC10973A1029AA6BE73C10943
:100E48009AE1C0C1099A8A0EA1089B8B0CA303C51D
:100E58000B9AA5BBFA1D8E89FB708E8AFB6168AD63
:100E680012891CCA0600D48E89FB708E8AFBD6C4F0
:100E78009A3307B4B2CB0A007662A000610E302D17
:100E880000AF70A100CA6FFBD6AF9A8A0EA11DAF42
:100E98009A8A0EA104AF9A8A0EA10BAFB5D68E8B93
:100EA800FB708E8CFB6168AD0EC6D48E8BFB708E8A
:100EB8008CFBD6C49A3307B4AFB38E91FB708E9275
:100EC800FB6168BD091034301291FB9AD1CC8E6752
:100ED800FB708E68FB9E92FB609E91FBB2AF103454
:100EE80030B31291FB9A33CDA1009E92FB9BE10E89
:100EF800A1039B1827A1049B1827A1089B1827B3B7
:100F08009AE1C4721064FB9A45A961429D3A16653C
:100F1800FB3186348E88FB4D00BD13A200629A6BAC
:100F28000F42624D048DF61665FB7182FA15106446
:100F3800FB9A45A9729AE1C4611252624D049DE779
:100F48009A6B0FA1019A5840B2AF1064FB9A3FA95F
:100F580010FCFF305865FB305866FB9E66FB609EB0
:100F680065FBAFB3B5729A0AC54D00AD09629AFD2B
:100F7800BCEADCFEBD079A1710A105FA59629A0A65
:100F8800C54D64BD079A1710A106FA4A629A0AC5A8
:100F9800746273A1019AA6BE614CBD079A1710A18D
:100FA80007FA33629A0AC5746273A1029AA6BE61EF
:100FB8004CBD079A1710A108FA1C629A0AC54D641D
:100FC8009D15629A0AC573629AE1C062A3009A0DE0
:100FD800C19A1710A10B971665FB7192B4B2AFB303
:100FE800734D049D06166BFBABFA02A100B2AFB3BA
:100FF8004D049D191665FB319704A001FA02A00063
:10100800726032166BFB610E9A1D106297B2AF16B2
:101018006BFB66610A76672D0077AF1056FBAFB39E
:10102800728E8DFB708E8EFB6168AD088E8EFBD63E
:10103800629A3307B2AFB3B5D6637467D26470A14E
:10104800019A6ACEB4B2AFB5D68E8FFB708E90FB84
:101058006168AD0EC6D48E8FFB708E90FBD6C49A95
:101068003307B4AF7063304D12309D0E4D089D0AA2
:101078001665FB31A704609A1460AF51BD04A00146
:10108800FA02A000601665FB618C71A1AFA100B3E4
:101098009AE510710B20711B20712B20713B207178
:1010A8000B30711B30712B30713B300A001A002A4B
:1010B800003A009E02F010F4FF305800F03058015A
:1010C800F09E01F0609E00F09A94199A0A039A8D96
:1010D800194D07BD045A01FA025B01B2AF713A2CEF
:1010E800714A2C710A2E715B21AFB3B58E02F016CE
:1010F800CED79B7E071600F031B70AA1069A6FC8B3
:1011080051BD02FAFEA1069A6FC851BD1D1021F00B
:101118009AB9CAA10D9A2D27A1009A8D40A101164E
:1011280000F071C39E02F0B4B2AF1600F031C6F7FA
:10113800A1019A8D401600F071C2FAEBA1069A6FD0
:10114800C84D00BD04A102FADB1021F09ACCCAEA0E
:10115800D0078DD39A91169A0B9F51ADCAA1019AC7
:1011680065BAA101A3039A14601021F09AB9CAA123
:10117800031600F07182FAAC9A6BBB51BD09A10449
:10118800A3039A1460FA07A108A3039A1460A400A1
:10119800649AFDBCEADCFEBD1A649A13BEEA2D010E
:1011A800AD15649A13BEEAF501AD0C649A90C34D6F
:1011B80004AD04A204FA08A20844644D048DD19A2F
:1011C80096164D00BD05A1009B2C11A400FA17A38B
:1011D800029A146062A3009A146062A3019A1460D0
:1011E80044644D049DE0649A90C34D048D0862A345
:1011F800029A1460FAEA649A90C34D02BD0862A389
:10120800009A1460FADA649A90C35162BDC1A301CE
:101218009A1460FACBA1069A6FC84D00BD109A7552
:10122800BB51BD05A1009A8310A1049B2C1110216C
:10123800F09ACCCAEA88138D159A6BBB51BD0F9AE8
:10124800A7BAA106A3039A1460A10B9B2C11102125
:10125800F09ACCCAEA10279D039B2F11A10C9B2C56
:1012680011A1069A6FC851BD1B9A75BB51BD0AA141
:10127800019A7FBBA1059B2C111021F09AB9CAA134
:10128800069B2C111021F09ACCCAEA60EA9D06163A
:1012980000F03186179A75BB51BD05A1019A8310DC
:1012A800A100A3039A1460A1009B2C119A75BB514D
:1012B800BD039B2F11A101A3039A14609B2F11A1B9
:1012C800069A6FC84D00AD039B2F11A1009A7FBBF2
:1012D8001021F09AB9CAA1049B2C11A1069A6FC8D3
:1012E80051BD6B1021F09ACCCAEAD0079D039B2F01
:1012F80011A1009A65BA51AD039B2F119A96165108
:10130800AD039B2F11A100A3039A1460A1009A902A
:10131800C34D048D11A101A3029A1460A1049E205B
:10132800F0A1079B2C11A1009A90C34D02A101BD09
:101338000FA3009A1460A1029E20F0A1079B2C1114
:10134800739A1460A1019E20F0A1079B2C11A100A3
:101358009A65BA51AD039B2F119BA812A1069A6FEB
:10136800C84D00BD05A1089B2C111021F09ACCCACC
:10137800EA88138D099A6BBB51BD039B4712102154
:10138800F09ACCCAEA10279D039B2F119B6412A1E7
:10139800069A6FC8511021F0BD089AB9CAA1099BD5
:1013A8002C119ACCCAEA60EA9D039B2F119A9116D8
:1013B8009A1460A100739A1460A100A3019A1460A2
:1013C800A1009B2C11A1069A6FC84D00BD428E202A
:1013D800F04D048D119A91169A1460A101A3009AF8
:1013E8001460A102FA224D02A100BD0E739A146086
:1013F800A101739A1460A101FA0EA3019A1460A1C5
:1014080001A3029A1460A1049E20F0A1079B2C114D
:101418001021F09ACCCAEAD0079D039B2F119A910C
:10142800169A1460A100739A1460A100A3019A147B
:1014380060A10A9B2C11A1069A6FC84D00AD039BB1
:101448002F119A36C54D00AD039BCE11A1009A907D
:10145800C34820F0BD039BCE118E20F04D04BD2063
:101468009A91169A1460A40064A0011200009A25AB
:10147800BE641200009A7ABE44644D049D13FAE8D3
:101488004D02A100BD06739A1460FA05A3019A14CF
:1014980060A4008E20F073649AC3C344644D048D25
:1014A800F29AD45B9AEBAD9AD0BA9BCE11A1069A68
:1014B8006FC851AD039BCE111021F09ACCCA9B8CFA
:1014C800139A5DC54D00BD13A108A3019A1460A12C
:1014D80008A3039A1460A10D9B2C11A100A3039AE1
:1014E80014609A91169A1460A100739A1460A1006E
:1014F800A3019A1460A1009B2C11A1069A6FC84DF4
:1015080000AD039B2F118E25F0708E26F06168AD1B
:10151800078E26F0D69A33079AA7BA9AB81D1021D3
:10152800F09AB9CAA10E9B2C11A1019AF5654D003C
:10153800AD039B2F11A1039AF5654D00AD039B2FB9
:1015480011A1069A6FC84D00AD039B2F111021F011
:101558009ACCCAEAE9039D039B2F11FAFE1021F0E9
:101568009ACCCAEAC9009D039B2F119AAB18A10017
:101578009B2C111021F09ACCCAEAC9009D039B2F1D
:10158800119A701AA1009B2C111021F09ACCCAEA6A
:10159800C9009D039B2F119A7D1BA1009B2C111044
:1015A80021F09ACCCAEAC9009D039B2F119A2E1AE2
:1015B800A1D09E07F01008F0A200A3089A6C1D1095
:1015C80010F0A2F0A3089A6C1D1018F0A2F8A30856
:1015D8009A6C1D9A241A9AD8071021F09AB9CAA1B0
:1015E800139B2C111021F09ACCCAEAC9009D039BC9
:1015F8002F11A1019ADC191021F09AB9CAA1149BE4
:101608002C111021F09ACCCAEAC9009D039B2F1116
:10161800A1029ADC191021F09AB9CAA1159B2C11C4
:101628001021F09ACCCAEAC9009D039B2F11A1038F
:101638009ADC191021F09AB9CAA1169B2C11102115
:10164800F09ACCCAEAC9009D039B2F11A1049ADC29
:1016580019A1179B2C111021F09ACCCAEAC9009D38
:10166800039B2F11A1059ADC19A1009B2C111021B5
:10167800F09ACCCAEAC9009D039B2F119A751BA347
:10168800049AD807A1009B2C11A100A302AFB3B5FF
:10169800B7A400649A90C3C3016412040070A10047
:1016A800809A9B03609A90C372C101614ABD166417
:1016B8009A9DC34D00AD0E649A9DC34D059D069A33
:1016C8005DC551BD04A100FA0844644D048DC4A150
:1016D80001B2B4B2AF9E26F0609E25F0AFB3B5D488
:1016E800B5B6AE014D51BD178E02F04D00BD0B10C1
:1016F80021F09AB9CAA10F9E02F0A1019BA8184D2A
:1017080053BD4DB5B6AE0273A1009A7CC4B5B6AE52
:101718000373A1019A7CC4B5B6AE0473A1029A7C86
:10172800C4A100B5B6BE05C4A2F5A301CA030080D2
:10173800809AEB1CC4A2F6A301CA030080809AEB2E
:101748001CA2F7A3018484848484C49AEB1CFAAA9B
:101758004D54BD059AB81DFAFE4D55BD101021F027
:101768009AB9CAA1129E02F0A1019BA8184D57BDB3
:1017780038A1009A6CC470B5B6AE026148BD2AA102
:10178800019A6CC470B5B6AE036148BD1CA1029A3B
:101798006CC470B5B6AE046148BD0E1021F09AB99C
:1017A800CAA1109E02F09B0217B5B6AE014D5CBDF2
:1017B80035A1009A6CC470B5B6AE026148BD27A1C8
:1017C800019A6CC470B5B6AE036148BD19A1029AFE
:1017D8006CC470B5B6AE046148BD0B1021F09AB95F
:1017E800CAA1119B6D17B5B6AE014D91BD14A10BE1
:1017F800A3079A14609A506DA1011600F071B29B6C
:10180800A8184D92BD241600F031B6039BA1188488
:1018180084854D00BD0AA10BA3079A14609B02178B
:10182800A10CA3079A14609B02174D93BD28A10031
:101838009E05F0A1939E06F09AF95E9E07F0F001CE
:10184800A0069A0A039E08F01021F09AB9CAA118B6
:101858009E02F09B02174D94BD22A1009E05F0A1A7
:10186800949E06F09A6C1BAE079E07F0AE089E0881
:10187800F01021F09AB9CAA1189B6D174D95BD19A2
:101888001600F031B7138484854D00BD061107009A
:101898009B02171107FF9B0217A1059A1827A100A1
:1018A800B4B2AFA100B3B59E05F0A1529E06F09A5E
:1018B80029279E0AF0A1009A6CC49E07F0A1019AFC
:1018C8006CC49E08F0A1029A6CC49E09F0A1009E07
:1018D8000BF09A94199A0A039A8D199E0CF0A10498
:1018E8009E0DF0A1119E0EF0A200629AFDBCEADCEA
:1018F800FEBD12629A13BEEA2D01AD10629A13BEA4
:10190800EAF501AD07160BF071C2FA0642624D0402
:101918008DD89A6BBB51BD05160BF07182A1009A48
:1019280090C34D04BD07160BF07192FA4DA1009AB1
:1019380090C351BD07160BF071A2FA3EA1009A9010
:10194800C34D02BD07160BF071B2FA2EA1009A9092
:10195800C34D03BD07160BF071D2FA1EA1009A9071
:10196800C34D05BD07160BF071E2FA0EA1009A905F
:10197800C34D06BD05160BF071F29A751BA30A9AA2
:10198800D807B4B2AF5D03616A5D07AFF00E2627D2
:101998005DFC72F00CA003AFA107AFB39A94199A3B
:1019A8000A039A8D19B2AFB372511600F0BD0471D3
:1019B80082FA0271839A75BB51BD176251BD09A1A4
:1019C800009A8310A104FA07A1019A8310A1009E2E
:1019D80002F0B2AFB3B5B7709A2E1A606DD09E07F9
:1019E800F060A400A003318860A003CD0DF0C3010E
:1019F800C1017264A308A003CD4170A100CA07F019
:101A08009A6C1D44891CD6AE010D08BE01644D03B5
:101A18008DDE9A241A9AD807B0B4B2AF1005F0A593
:101A280000A200A31BAFA1009E05F0A1569E06F0E0
:101A3800AF8E02F04D00BD03A100AFA101AF9E041F
:101A4800F0609E03F0AF1023F09AB9CA1600F07147
:101A580092AF1023F09AB9CA1600F071A2F001A053
:101A6800069A0A039E1FF0AFA100B3B5B79E05F012
:101A78009A6CC49E07F0A1019A6CC49E08F0A1025A
:101A88009A6CC49E09F01600F03197621023F09A00
:101A9800CCCAEAD1078D571023F09ACCCA12E803B2
:101AA800CF60160AF097A1589E06F0F001A0069A9A
:101AB8000A039E0BF01600F07193A300B0100CF00F
:101AC800B18E03F0708E04F0D43197039B5F1B9A9C
:101AD8006C1BAE0461439D10B6B785974384B0B1C3
:101AE80080B6B1634D0D8DE7630D0773FA63160079
:101AF800F031A74C1023F09ACCCAEAD1078D2FF009
:101B080001A0069A0A03481FF08E1FF0BD026D80DF
:101B18009E0BF01023F09ACCCA12E803CF60160A85
:101B2800F097A15A9E06F01600F071A3FA2116004C
:101B3800F031A70CA1FF9E0AF0A1009A631BFA0FCF
:101B4800A1FF9E0AF0F001A0069A0A039A631BA35C
:101B5800079A751B9AD807B0B4B2AF9E0BF0A1597B
:101B68009E06F0AF8E03F0708E04F0D6AF1005F02D
:101B7800A500A200AFA100B3B59E05F0A15C9E062A
:101B8800F0A1009A6CC49E07F0A1019A6CC49E084B
:101B9800F0A1029A6CC49E09F0A1009A4D9D9E0A7C
:101BA800F0A1009A9D9D9E0BF0A1019A4D9D9E0C5F
:101BB800F0A1019A9D9D9E0DF0A1029A4D9D9E0E49
:101BC800F0A1029A9D9D9E0FF0A1039A4D9D9E1033
:101BD800F0A1039A9D9D9E11F09A751BA30D9AD8AA
:101BE80007B4B2AFF01FAFB3B7712B262A069A8499
:101BF8003BA1009E30F09E2FF09ADF1C9A6C1DA12D
:101C08000AC3019A8F1FBD0E8E28F04D03BD078EA3
:101C180029F04D0DAD469ADF1C9A6C1D891CD6AE75
:101C28000151BE01BDDD9A8F1FBD0E8E28F04D03F8
:101C3800BD078E29F04D0DAD239AB81DA1089E272A
:101C4800F0A1039E28F0A10D9E29F0102AF09A0118
:101C5800D29AD41C9ADF1C9AEB1CFA4B8E2DF04DAD
:101C680004BD078E2EF04D11AD15102AF09A01D241
:101C78009AD41C102AF0A203A3059AEB1CFA281088
:101C880027F09A01D28E2AF04827F0BD108E2BF04B
:101C98004828F0BD088E2CF04829F0AD2C1027F00C
:101CA800A203A3039AEB1C1027F0A200A3039A6CCB
:101CB8001D9A8F1FBD0E8E28F04D03BD078E29F08B
:101CC8004D0DAD05A1019A1827B0B2AFA1049E2D04
:101CD800F0A1119E2EF0AF1027F0A200A308AF715B
:101CE8002B26AFB5B1A100B3B7C301C10376C102BA
:101CF800A000610E302D00D2C102A0005DF830CAEC
:101D08000800C78D552B069A87D2FA08891CD6AECB
:101D18000141BE01A0006073C10372706330D4C575
:101D280004E4C10273A1A09AD43B4D00BD0C9A876C
:101D3800D29A843BC1014D158DD28E2FF0708E3012
:101D4800F0616810F4019E30F0609E2FF0BD101015
:101D5800B51D122FF09AD1CCFA05A1019A1827B017
:101D6800B0B0B4AFB5B1A100B3B7C301C1034D0959
:101D78009D339A87D2A0016073C10372706330D417
:101D8800C504E4C10273A1A09AD43B4D00BD1B9ABF
:101D980087D29A843BC1014D159D0F891CD6AE018F
:101DA80041BE01FAD0A1019A18279B671D2A06AFE8
:101DB800B3B71627F0A008A100978650BDF9B01058
:101DC8000800B1FA05EAF000AD11B0B16072102751
:101DD800F0A3089AEB1C9A87D2FA5B1027F0A202AC
:101DE800A3019A6C1D1028F0A2F3A3029A6C1D9A05
:101DF8008F1F9D1C1027F0A2F4A3039A6C1D1027B7
:101E0800F0A2F5A3039AEB1C9AA11F9AEB1CFA23E4
:101E18004D0E9D0C8E28F041AD068E29F041BD1364
:101E28009A951F1027F0A2F5A3039AEB1C9AA11FFD
:101E38009AEB1C9A951FB0CA0800B1EAFF008D857D
:101E48009A861FA272A3019AEB1C9A861FA270A3FE
:101E5800019AEB1CA1009A881FA271A3019AEB1C9E
:101E68009A6C1FA140978650BDF91027F0A258A37D
:101E7800049AEB1CA10F9A881FA273A3019AEB1C6A
:101E88009A6C1F9A721FBDFB1027F0A208A3089A2C
:101E9800EB1C9A6C1F9A721FBDFB1027F0A278A347
:101EA800089AEB1C9A6C1FA10A978650BDF9102757
:101EB800F0A240A3049AEB1C9A6C1FA103978650CA
:101EC800BDF91027F0A264A3049AEB1C1088139E96
:101ED80028F0609A881FA26CA3029AEB1C9AA0199A
:101EE8004D039A6C1FBD62A102978650BDF9102759
:101EF800F0A25CA3049AEB1C9A6C1FA10097865071
:101F0800BDF91027F0A244A3049AEB1C9A6C1FA1F8
:101F180050978650BDF91027F0A250A3049AEB1CE5
:101F28009A6C1FA150978650BDF91027F0A254A3B0
:101F3800049AEB1C9A6C1F9A7D1FBDFB1027F0A218
:101F480010A3089AEB1CB0B2AFA102978650BDF956
:101F58001027F0A25CA3049AEB1C9A6C1F9A7D1FB1
:101F6800ADDAFAF91627F0A004AFA1FEBE01A1DC94
:101F780097868650AFA101BE01A1F59B781FA1FFEE
:101F88009E27F01027F0AF8E27F04D08AFA1009ED6
:101F980027F09E28F09E29F0AFA1009E28F09E27EA
:101FA800F01027F0A2F3A302AFB39E94FB609E93B8
:101FB800FBA1019AEACDA1019AAFD19A2623BE12BC
:101FC800A132BE11A10112522F9A3CD0A10112F8E0
:101FD8000E9A50D0123E109A5D259AEA2E10FD0EE8
:101FE8009A533010020F9A5B3010C10E9A6330106A
:101FF800E60E9A2C309A2623BE2B9ACB259AB9CA7C
:102008009A520FA20062A3019AB2C442624D048D93
:10201800F4B2AFB3B5D50900891C9A2C239A070FDF
:102028009ABE251D00AD2751BD039B302151BD032C
:102038009B402251BD039B562251BD039B8F2251C9
:10204800BD039BC52251BD039BFB229B09239A1903
:10205800239ACCCAEAD0079D039B09239A6225A13B
:10206800FFBE1D9A7425BE1E9A6225A180BE1F9AC6
:10207800F95E9A80259A2623BE219A4D9D9AB62507
:102088009A9D9D9AAE259A4D9D9AA6259A9D9D9AB0
:102098009E259A4D9D9A96259A9D9D9A8E259A4D94
:1020A8009D9A86259A9D9D9A7A259A6225A10D97D3
:1020B800A100C303C1039A4D9D4D00BD0BC103216F
:1020C8002772100200D1FA26C1039A4D9D4D64BDB6
:1020D8000BC103212772100300D1FA12C1039A1908
:1020E8009D4D00AD0CC103212772100100D19AE16A
:1020F80025891C9A0F238DBC9AD5259AFA2E51ADA5
:10210800039B09239ACB259AB9CA9A6225A125BEB1
:1021180038A1F3BE379A6225A126BE3AA144BE393A
:102128009A7F26BE2B9B09239AFC5E51BD2DA101E7
:10213800C3009A4E5FC305891C9A5825B7B7B7B72D
:10214800B7891CD49AF2069AC4259A6C3A9AD22571
:102158009AFA2E9ACB259AB9CAFAC59A6225AE2C54
:102168004D00AD60A100BE1DC303C1037210010084
:10217800D19A3A26D6AE2C7062306158AD1DA104B2
:10218800C300891C9A5825B7B7B7B7B7891CD49A22
:10219800F2069AC4259A6C3A9A6F25891C9A0F23DD
:1021A8008DC89AD5259AFA2E51AD039B09239A62B8
:1021B80025AE1D7DFF728E94FBCA2C00D687615A0E
:1021C800979B0923A1019AB3D04D00BD089A6225B7
:1021D800A1029B2B21A100C305C303C1039A0EBB17
:1021E80051BD1BC103212772100100D16072891CE7
:1021F800CA030080809AEC2597C1039A38BB891CD2
:102208009A0F238DD6C105BD039B0923A140C300A6
:10221800891C9A5825B7B7B7B7B7891CD49AF2065C
:102228009AC4259A6C3A9AD2259AFA2E9ACB259A6C
:10223800B9CA9A7F269B2B21A1019AB3D051AD032D
:102248009B0923A1019AAFD19A20239B2B21A10797
:10225800C300891C9A5825B7B7B7B7B7891CD49A51
:10226800F2069AC4259A6C3A9AD2259AFA2E51BD4A
:10227800089A2023BE2B9B09239ACB259AB9CA9A80
:102288006225A1049B2B219A19239ACCCAEA0F0034
:102298008D6FA107C300891C9A5825B7B7B7B7B780
:1022A800891CD49AF2069AC4259A6C3A9AD2259A2D
:1022B800FA2E51ADBC9ACB259AB9CAFA449A192379
:1022C8009ACCCAEA65008D399A3C26CA2E00D68770
:1022D80041979A6225AE2E4D039D0E9AD8259AFAFB
:1022E8002E9ACB259AB9CAFA18A100BE2E9A202395
:1022F8009B2B219A19239ACCCAEA65008D039B79F6
:1023080022D70900B4B2AFCA0300D68741974D045B
:10231800AF8E94FBCA2F00AF9A6225A101AF9A62D3
:1023280025A100AFB3B5B1D50A009A223051AD034B
:102338009B4B25A100C3009A5D25D4C10073891C5D
:10234800809AD538891C80D4C50AD6858497858417
:10235800BE018584BE028584BE038584BE0485844F
:10236800BE058584BE068584BE0785BE08C50AAE3F
:10237800044D00BD039B3B25C50A87724D07BD0E62
:102388009ABE254D05BD07A101BE2B9B2E25C50A6A
:10239800D6AE015D0751AD0AC50AAE015D074D0312
:1023A800BD1FC50A120A00B7B7B7B7B7891CD49AB8
:1023B800F2069AA50BA1059A6C10A1039A6925FA51
:1023C800C89ABE2551AD039B4525624D02BD46C541
:1023D8000AD6A10397C1009A4D9DD6C50AE6BE0547
:1023E800C1009A9D9DD6C50AE6BE06C50A120A0016
:1023F800B7B7B7B7B7891CD49AF2069AC4259A6CAE
:102408003A9AD2259AFA2E9ACB259AB9CA9A74255D
:10241800BE2B9B45254D15BD2FC50AD6AE0597C5C4
:102428000A9AA40EC50A9A5825B7B7B7B7B7891C30
:10243800D49AF2069AC4259A6C3A9AD2259AFA2E18
:102448009ACB259AB9CAFAC54D05AD039B2E25A18D
:10245800FFBE1DA1069A6925BE1E9A6725BE1F9A52
:102468006225AE2DBE1F9AF95E9A80259A6725BE11
:10247800219A4D9D9AB6259A9D9D9AAE259A4D9D75
:102488009AA6259A9D9D9A9E259A4D9D9A96259A3B
:102498009D9D9A8E259A4D9D9A86259A9D9D9A7AFC
:1024A80025A10D9A6F25A10077C50AE6BE03C50AC6
:1024B800D6AE039A4D9D4D00BD0BC50A9A51251005
:1024C8000200D1FA2CC50AD6AE039A4D9D4D64BDC3
:1024D8000BC50A9A5125100300D1FA15C50AD6AEC4
:1024E800039A199D4D00AD0CC50A9A51251001009B
:1024F800D19AE125C50ACA0300D6874197C50A873C
:102508004D048DAA9AD5259AFA2E51BD059A6725AC
:10251800BE2D9ACB259AB9CAA1069A6925BE2BA1C8
:1025280007A3009A6C10C50AD6AE015DC0AD04A120
:1025380004C300891C9A12239D039B3F239A520FC0
:102548009A1C30D70C00B4B2AFD6AE03212772AFB5
:10255800D6120A00AF9A3C2680AF9A3C26D6AFA185
:10256800009A3B26D662AF9A692597AF9A6225A151
:1025780006AF9A6925BE29AF9A6925BE20AF9A6928
:1025880025BE28A103AF9A6925BE27A103AF9A6982
:1025980025BE26A102AF9A6925BE25A102AF9A6978
:1025A80025BE24A101AF9A6925BE23A101AF9A696E
:1025B80025BE22A100AF9A6225AE2BAF9A3C26CA4F
:1025C8001D00AF9A3C26CA2F00AF9A6F259A622544
:1025D80087738E94FBCA1D00AF9A3A26CA21009AC7
:1025E800EC2597AFD66270876168AFB3B572637434
:1025F800629A4D9D73629AE1C0100100D160739A8E
:102608003C26CA2C00D66370876168976451100114
:1026180000BD0CD19A3A26CA2D009AEC25FA0FD1A2
:10262800607DFF729A3C26CA2D00D687615A97B4FE
:10263800B2AF60728E93FB708E94FBAFB3B5D509C1
:1026480000D6A152C300A103C30467D305891C9A0D
:102658005825B7B7B7B7B7891CD49AF2069AC425D4
:102668009A6C3A9AD2259AFA2E9ACB259AB9CA9A8E
:102678007F26BE2B9B09239A6225A105AFA100B333
:102688001241279A50D0A1011246279A50D0B2AFD2
:10269800B38E32F04831F0AD75A200629AF5654DFF
:1026A80009BD076273A1009A146042624D048DEB64
:1026B8008E31F01606D89B7E07A1019AF5654D006C
:1026C800BD46A109A3019A1460FA3DA1009AF565D7
:1026D8004D00BD34A109A3009A1460FA2BA1029AF7
:1026E800F5654D00BD22A109A3029A1460FA19A14B
:1026F800039AF5654D00BD10A109A3039A1460FA69
:1027080007A10FA3079A14608E31F09E32F0B2AF82
:10271800708E31F051AD09609E31F0A1009E32F00B
:10272800AF8E31F0AF4831F0AD044D0DBD0AA100B8
:102738009E31F0A10D9E32F0AFA1069B1827A10390
:102748009B18278E31F04D06AD084D07AD044D0995
:10275800BD03A101AFA100AFA101B39E97FB9AA849
:102768002A10FCFF305895FB305896FB9ABC2AA1DA
:10277800009EA1FB9EA0FB9A6CC49E9AFBA1019AA5
:102788006CC49ADF2CA1029A6CC49ADF2CA1FFA317
:10279800009AE5C4B2AFB3B59AD1279A070F9AFC4D
:1027A8005E51BD229A4E5F9E9FFB8E95FB708E9662
:1027B800FB305DFC6D0230D66621252570A10080B6
:1027C800A202D19AAE2AB4B2AFB3B5D50A008E9799
:1027D800FB1626D89B7E07D70A00B4B2AF8E95FBAE
:1027E8005D03AD389A9F2A90605D0370A100D4C63E
:1027F800305DFC9AB92AA101C3018E9FFBC30689EB
:102808001C9AE42EB7B7B7B7B7891C9A3D2B9AF232
:10281800069A6C3A9A422B9E97FBFABB8EA1FB4D07
:1028280000AD279A8EC674109DFB9ACCCAD264B3A9
:10283800B670A10012F401D9CAD007B7B2C99D0A6F
:10284800109BFB9AB9CAA102FACD8EA0FB4D00AD30
:10285800869A8EC674109DFB9ACCCAD264B3B670A1
:10286800A10012F401D9CAD007B7B2C98D039BDF02
:1028780027A103FAA2109BFB9ACCCAEA1F009D036A
:102888009BDF27A100C304A304FA61A103C301C10C
:10289800009A4D9DC306C1009A9D9DC307A1009E45
:1028A800A6FB891C9AE42EB7B7B7B7B7891C9A3D1F
:1028B8002B9AF2069A6C3A9AE92C9A9F2A66212555
:1028C800212570A10080A202D19AAE2AA106FA356C
:1028D800639A052BD16058A1FBBD3F891CCA04002F
:1028E800D6874197434D088D039BDF27C104C3005A
:1028F8009A052BD16058A1FBADD6C1009AC96D4D80
:1029080000AD88A1019E97FBC1009A052BD1607D7F
:10291800FF58A1FB9EA1FB9BDF27C1009AC96D4D03
:1029280000BD31A103C301C1009A4D9DC306C1007A
:102938009A9D9DC307A1009EA6FB891C9AE42EB709
:10294800B7B7B7B7891C9A3D2B9AF2069A6C3A9A90
:10295800422BFA02A1019E97FBC1009A032BD1FAE0
:10296800ADA1FF9EA6FBA1069EA7FB8EA0FB9EA87D
:10297800FBA1009EA0FB9E98FBA1069B1F28A10718
:102988009EA7FBA10F9EA6FB9A422B9E97FB9BDF5F
:1029980027109BFB9ACCCAD68E9AFB7267A300C9F4
:1029A8009D039BDF2710A4FB9AEF2C9A8EC64D003F
:1029B800BD05A10A9B1F289AA82AA1079E97FB9AE2
:1029C8004B274D00AD039B6E2AA1109EA2FBA1725E
:1029D8009EA3FBA5008E98FB7210A2FBA3099AD8B0
:1029E8000751AD039BDF27109BFB9AB9CA9AEC1BD2
:1029F800708E9AFB61786D149E9AFB1698FB31C70E
:102A080005A1089B1F28A109FA81109BFB9ACCCA33
:102A1800D28E9AFB70A100C98D039BDF279A4B27A2
:102A280051BD05A1079B1F288E99FB4D0A9D0941A1
:102A38009E99FBA1079B93299AA82AA1019B1F286D
:102A4800109BFB9ACCCAD28E9AFB70A100C99D2814
:102A58009A4B2751BD188E99FB4D0A9D11419E999D
:102A6800FBA1079E97FBA10D9A2D279BDF279AA80C
:102A78002A9EA6FBA101FAEB8EA1FB4D00BD039B8C
:102A8800DF27A1019B1F2810A4FBA3079AFA2E5148
:102A9800AD039BDF27FAEB8E95FB708E96FBD6AFC6
:102AA800A1009E99FBAF605D1C70A100D4C6305D8B
:102AB800E3616C309E96FB609E95FBAFB3B5744D99
:102AC800049D359A032BD16075649A052BD1653026
:102AD800616868A1FB9EA1FB109DFB9AB9CA63516E
:102AE800649A052BBD08D18EA0FB6168FA07D160F6
:102AF8007DFF58A0FB9EA0FBB4B2AF0D047210017D
:102B080000AFB3B5D50900D6A152C300A103C304D1
:102B180067D305891CD6120A00B7B7B7B7B7891C9F
:102B28009A3D2B9AF2069A6C3A9A422B9E97FBD7BB
:102B38000900B4B2AFD410A6FBAFA1009E98FBA1C8
:102B480006AFB5D4B5B6AE03A0053188CAC3D3D68F
:102B580087A0039A0A035D074D06C4BD059A7E2B1C
:102B6800FA039A4B2D8E97FB4D08BD05A1079E973A
:102B7800FB9A520FB4AFB3B5D4B5B6AE031D38AD9A
:102B88001551BD039B3C2C51BD039B762C51BD03B5
:102B98009BB52C9BD72CA1009A6CC470B5B68561E7
:102BA800584FBD71A1019A6CC470B5B686B7B2B55D
:102BB800B6AE016158B3B64FBD5BA1029A6CC47042
:102BC800B5B6868684848561584FBD499A8EC64DB0
:102BD800058D42A1059A94C69ABF0A9ADA2C9A6C76
:102BE80010A13C9EA7FBA1009A6CC49EA8FBA10162
:102BF8009A6CC49EA9FBA1029A6CC49EAAFB9AE98E
:102C08002C109BFB9AB9CA9AEC1B9ADF2CA1049E44
:102C180097FB9BD72C8E97FB4D04AD0E8E97FB4DE3
:102C280007AD074D08AD039BD72C9ADA2C9A6C1088
:102C3800A101FADB9A8EC64D059D039BD72CA105F1
:102C48009A94C69ABF0A9ADA2C9A6C10A13C9EA74D
:102C5800FBA1009A6CC49EA8FBA1019A6CC49EA912
:102C6800FBA1029A6CC49EAAFB9A422BFAA1A1006E
:102C78009A6CC470856148BDA3A1019A6CC470B5F3
:102C8800B6AE016148BD95A1029A6CC470B5B6AEE6
:102C9800026148BD8784848484859A94C69ABF0A51
:102CA8009ADA2C9A6C10A1059E97FBFA229AA01921
:102CB8007084848484856148BD10A10F9A94C69A53
:102CC800BF0A9ADA2C9A6C10FA05A1009A94C6B435
:102CD800B2AFA105A302AF708E9AFB61789E9AFBF2
:102CE800AFA1009E98FBAFB3B5D4A10095B5B6BE11
:102CF80001B5B6AE024D00BD04A20FFA0772A100DD
:102D0800B5B6BE029A8EC64D059D239A8EC6310E63
:102D18000A62A004CD729A8EC6FA07625D0F729A93
:102D28008EC62125A000610C30612DD662978E9544
:102D3800FB212521255D076D0870848485616895D0
:102D4800B4B2AFB3B5B1D50A009A8EC6212573D6F1
:102D5800C50AE6ABD6C50AE6BE029A8EC64D058DF3
:102D6800039BDE2EC50AD6AE034D14BD1A9AE1C4E4
:102D780041AD0AA107A3029A6C109BDE2EA1FFA306
:102D8800029AE5C49BDE2E9A8EC6310E12C50AD66B
:102D9800AE02A0049A0A03D6C50AE6BE02FA09C51D
:102DA8000A8080D6875D0F97C50ACA0300D6874D6B
:102DB80002AD0EC50A874D15AD07C50A874D54BD2E
:102DC80005A1009EA6FBA100C300C50A8080D4C14E
:102DD8000073891C809AD538C105BD039BD12EC1CB
:102DE800014D07BD0F8E97FB4D08BD08A1019E97A9
:102DF800FB9BC02EC502605D0751AD09C502605D31
:102E0800074D03BD16891C9AE42EB7B7B7B7B78923
:102E18001CD49AF2069AA50B9BC02EC1014D02BD87
:102E280030A103C301C1009A4D9DC306C1009A9DFC
:102E38009DC307891C9AE42EB7B7B7B7B7891C9A00
:102E48003D2B9AF2069A6C3AA104C3009AE92CFA2F
:102E5800524D54BD27A101C3019AF95EC306891CCE
:102E68009AE42EB7B7B7B7B7891C9A3D2B9AF206E2
:102E78009A6C3AA104C3009AE92CFA274D15BD387B
:102E8800C106C301891C809AA40E891C9AE42EB736
:102E9800B7B7B7B7891C9A3D2B9AF2069A6C3AA134
:102EA80004C300A1069E97FB891C8080D68770AE5C
:102EB80001305D3F9760BE01C502605DC0AD04A1F1
:102EC80004C3009ADA2C9A6C10891CD68741974D56
:102ED800049D039BD22DD70C00B4B2AF80D6120A42
:102EE80000AF9ECCFB609ECBFBC29ECFFB609ECE0C
:102EF800FBAFB3B5D663720D029EBCFB4D108D04BB
:102F0800A100FA43624D00AD0B14BDFB7087958696
:102F18008450BDF9A1FF08BCFB7310BCFB9A3D505F
:102F2800736216BDFB610E76672D007763978EBCC2
:102F3800FB7310BCFBD48ECEFB708ECFFBD6C49A2D
:102F4800330751BDBBA101B4B2AFB3B5748ED4FB86
:102F5800708ED5FB6168AD078ED5FBD69A33078E88
:102F6800CDFB4D00BD10644D108D039B01309EAD0F
:102F7800FBA1019BFE2F76A7009A0E30C79D069AEB
:102F8800043041FA719A0E30C9BD6E9A043073103C
:102F9800ADFB9A3D50614CBD49A1009ECDFB8ECB47
:102FA800FB708ECCFBD416AEFB8EADFB70A10090EF
:102FB800120100C78D1787958ECDFB419ECDFB86EC
:102FC800849A13308ECDFB70A100C78DE916ABFB38
:102FD80071828ED6FB708ED7FB6168AD178ED7FBDA
:102FE800FA0E8ED0FB708ED1FB6168AD078ED1FBD7
:102FF800D69A3307A1009ECDFBB4B2AFCAADFBD6BB
:1030080064978ECDFBAF9A1330C6AF8EADFB70A11F
:103018000090D2AF16ABFB7183AFA10016ABFB716A
:10302800842D00AF9ED7FB609ED6FBAF8ECDFB4DA7
:1030380000AD17A1009ECDFB8ED2FB708ED3FB6135
:1030480068AD078ED3FBD69A3307AF9ED1FB609E3F
:10305800D0FBAF9ED3FB609ED2FBAF9ED5FB609E9C
:10306800D4FBAF9A23109ED9FB609ED8FB8ED9FB68
:10307800D6A130BE34A18DBE339A4335A135BE36B4
:10308800A178BE35AFB3B5B1D6871D16BD039B6D0C
:103098003151BD039B9A3151BD039BCB3151BD03C7
:1030A8009B463251BD039B533251BD039B6932513C
:1030B800BD039B7F3251BD039B893251BD039B9653
:1030C8003251BD039BAA3251BD039BBE3251BD0391
:1030D8009BD23251BD039BDB3251BD039B1133514F
:1030E800BD039B8D3351BD039BF03351BD039BF949
:1030F8003351BD039B213451BD039B2A3451BD0379
:103108009B3A3451BD039B49341D02BD039B523485
:103118001D02BD039B5B3451BD039B643451BD0349
:103128009B753451BD039B893451BD039B9A341D53
:103138000CBD039BA43451BD039BAC341D0DBD03D2
:103148009BB73451BD039BE23451BD039B00351D31
:1031580007BD039B073551BD039BE23251BD039B5D
:103168000F359B1535AE039AFDBCD4B6B79A3A35E0
:10317800D9D2C4C9AD039A7035A0016074B6B79AA4
:103188003A35D99A19359A0FBD1088139A4BC39BB3
:103198001535AE039A28C1B6B7BE049A3A35D9D2C6
:1031A800AE039A8EBDB0B1D6AE039A28C172B0B143
:1031B800D6AE04614AAD039A70351088139A4BC392
:1031C8009B1535AE039A90C34D049D5F9AA0194D87
:1031D80007AD58B0B1D6AE039A7FC272A300B3B49C
:1031E800B6B79AC438A214D9B5B2C9AE038D299A14
:1031F8007FC272A00160746270A100B1C502D69A44
:10320800C438A214D9B630611E303D00D2B0B19A8C
:103218004C359A25BE9B15359A7FC2A00172607401
:10322800B0B19A4C359A25BE9B1535A0016074B68D
:10323800B79A3A35D99A19359A25BE9B15359A3ACF
:1032480035D9D2AE039A7ABE9B1535AE059A333579
:103258009ACDBEB0B1D6AE069A33359A42BF9B1509
:1032680035AE059A2C359ACDBEB0B1D6AE069A2C9D
:10327800359A42BF9B15359A6135A111BE199B1528
:10328800359A3A35D9D2AE039AE9C29B15359A20B8
:1032980035AD04A101FA02A10073AE039A64C19B83
:1032A80015359A2035AD04A101FA02A10073AE03C9
:1032B8009AE3C19B15359A2035AD04A101FA02A104
:1032C8000073AE039A9FC19B15359A26359A37C26B
:1032D8009B15359AA3194D06BD24B0B19A25359A88
:1032E8001BC3B0B1D69A2035AD0AA302AE039AB675
:1032F800C59B1535A300AE039AB6C59B1535B0B16D
:103308009A25359A63C29B1535AE05A0143188BE3F
:103318000660BE059AA0194D07BD0BB6B79A2635AB
:103328009A9FC29B1535B0B1D6AE039A13BED4B0DE
:10333800B1D6AE039A7FC2A000610C30612DB6B73A
:103348009A5035C98D7CB6B79AC438D4B0B1CA077B
:1033580000D68770AE0130611C30613D309760BE89
:1033680001A0016074B6B7AE0770AE089A19359A15
:1033780025BEB6B79A26359A9FC2B6B79A26359A09
:10338800BBC29B1535AE05A0143188BE0660BE05CC
:103398009AA0194D07BD0BB6B79A26359ABBC29BA2
:1033A8001535B0B1D6AE039A13BED4B0B1D6AE03BC
:1033B8009A8FC2A000610C30612DB6B79A5035C9FA
:1033C8009D84A0016012000074B0B19A4C359A2512
:1033D800BEB6B7AE0773AE039A9FC2B6B7AE077351
:1033E800AE039ABBC29B15359AC4389A4BC39B153A
:1033F800359A26359A6FC39AD45B9AEBADB0B1D69D
:10340800AE054D43BD09A101739A14609B1535A102
:1034180000A3019A14609B15359A26359AB2C49B6D
:103428001535AE059A42C5B0B1D6AE059A8DBA9B90
:1034380015359A2035BD02A1FFA3019AE5C49B1555
:10344800359A26359A1AC59B15359A26359AB6C5E2
:103458009B15359A26359A7DC79B15359A2035AD2B
:1034680004A101FA02A1009A58409B15359A20350B
:10347800AD04A101FA02A1009A7D5E9AD45B9B1566
:10348800359A26359AC3C39AD45B9AEBAD9AD0BACB
:10349800FA7BAE059A26C49AE368FA719A6135A157
:1034A8000F9B8432AE05729A433562BE32FA5EAE25
:1034B8000551BD18A10DA3079A1460A1029A2D27E2
:1034C800A1049A2D27A1089A2D27FA41A1019A5BF8
:1034D800BBA10EA3079A1460FA339AA3194D05AD40
:1034E8002CB0B1D6AE0551BD089AA7BA9AB81DFA44
:1034F800FEA1019A70C5FA15AE059A65BAFA0E9A38
:1035080026359A06C4FA069A26359A8EC5B0B4B2FC
:10351800AFD2AE03706430AFAE054D00AFD6AE0586
:1035280073AE03AF72AE0373A102AF72AE0373A1A1
:1035380001AFAE0570AE06121400AF8ED8FB708EC8
:10354800D9FBD6AFD69B1A35BE0860BE07AE05704C
:10355800AE06D2AE0770AE08AFAE03729A433562BC
:10356800610E76672D0077AF9A6135A119BE19AF44
:10357800B3B5D4851D16BD039B533651BD039B724D
:103588003651BD039B883651BD039B9F3651BD0301
:103598009BAD3651BD039BC8361D02BD039BDE366D
:1035A80051BD039BED3651BD039B013751BD039BB4
:1035B800163751BD039B2D3751BD039B393751BD7C
:1035C800039B453751BD039B593751BD039B733747
:1035D80051BD039B7E3751BD039B8A3751BD039B69
:1035E800983751BD039BA03751BD039BA83751BDE8
:1035F800039BB43751BD039BBA3751BD039BD737E3
:1036080051BD039BE8371D03BD039BF43751BD0330
:103618009B00381D0FAD4A51AD7451BD039B6A37ED
:103628001D0ABD039B08381D02BD039B0E381D04EF
:10363800BD039B1B381D02BD039B973851BD039BDF
:10364800C63751BD039BA3389BAF38B5B6AE039AB6
:10365800FDBC9ABC383182B5B6BE0660BE059BB2C9
:1036680038B5B6AE039AFDBCFAEDB5B6AE039A729C
:10367800BD9ABC383182B5B6BE0660BE059BB2386D
:10368800B5B6AE039A13BE9ABC383182FAC9B5B63C
:10369800AE039A13BEFADFB5B6AE039A62BE9ABC01
:1036A800383182FAB2B5B69A34359AA6BEB5B6BEE6
:1036B80005B5B69A34359A1BBFB5B6BE069BB23867
:1036C800B5B69A2D359AA6BEB5B6BE05B5B69A2D2D
:1036D800359A1BBFFAE3B5B6AE039AD7C29ABC387F
:1036E80031829B5F36B5B6AE039A54C151BD04A171
:1036F80001FA02A100B5B6FA82B5B6AE039AD3C1F3
:1037080051BD04A101FA02A100B5B69B6436B5B655
:10371800AE039A87C151BD04A101FA02A100B5B652
:10372800BE059BB238B5B6AE039A27C2B5B69B6440
:1037380036B5B6AE039A53C2B5B69B8336B5B6AEA8
:10374800039A7FC2A21470A100318260B5B69B644F
:1037580036B5B6AE039A8FC2A21470A1003182604A
:10376800FABCA100B5B6BE069B64369A43C3B5B68B
:10377800BE06609B8336B5B6AE039A5FC3B5B69BEB
:103788006436B5B6AE039A9BC4B5B6BE059BB238CF
:103798009A36C5B5B69B64369AE1C4B5B69B8336EE
:1037A800B5B6AE039A0AC5B5B69B64369AA0199BFE
:1037B8002637B5B6AE039AA1C5B5B69B6436B5B67D
:1037C800AE039A0BC3A20A318260B5B69B83369AC0
:1037D800D3C6B3B19AB538D6B0B29ACA389BB23804
:1037E800B5B6AE039A6DC7B5B69B6436B5B6AE032B
:1037F8009A9DC3B5B69B83369A22C4B5B69B6436E8
:103808009A5DC59B2637A206A3029AB5389A6C1D05
:103818009BB238A1029A6CC41200007063E2E260A5
:10382800A000B3B1C4CA03008080D6B0B2BE0160A4
:1038380097BE03BE02A1019A6CC470A100B3B1B5D2
:10384800B6AE0772AE08739AC4389AA304E260E26F
:103858007260A000B3B1C4CA03008080D6B0B29A27
:10386800CA38A1009A6CC470A100120000B3B19AC2
:10387800B538D68770AE01D2AE0270AE03E29AA315
:1038880004309760BE01C230BE0260BE03FA1BB5A9
:10389800B6AE039AF6C3B5B69B6436B5B6AE039A10
:1038A80085C5B5B69B8336A10895B4B2AF84848428
:1038B8008484C4AF2125302530A20AAFAE0570AE8E
:1038C80006AFBE016097C2BE0360BE02AFB3B1B31C
:1038D800D50B00B5B6AE01C302A0053188CAC2D364
:1038E800D6AE0170AE02D666A0039A0A03A00831CC
:1038F80088605D3870A100B1C6605D0770A100B135
:1039080066A0069A0A03A0403188D2C507305D3FF9
:10391800616A30616B305DC030B230616A30B2309C
:10392800616A30B2B1D303100000D2DB07854D00C5
:10393800AD52B0B1605DC04D40BD0AA101C306A142
:10394800FFC305FA51C10C72100100D1856158AD51
:1039580022A101C306C10CC30566A0039A0A03A0ED
:10396800083188605D3870A100D6B0B1305DC7619C
:103978006EFA20A100C306C10CC305B0B1305DC703
:103988006D08FA0FA100C306A1FFC305B0B1305DF1
:10399800C76D0830D303C50360A0039A0A035D0707
:1039A800AD1551AD1451AD2251AD2651AD3151ADCA
:1039B8003E1D02AD7AFA7DFA7B8484854D00AD0602
:1039C800A101C307FA6EA100FAF8848485C307FA37
:1039D80063B5B6AE02C30784848485C308FA55B5B7
:1039E800B6AE0376848485A00030610E30FA43B504
:1039F800B6AE0570A10072B3B1B5B6AE0470A10041
:103A0800B3B1B5B6AE0370A100B3B1848485706359
:103A1800E2E260A0009AA304E2E27260A0009AA326
:103A280004E260E27260A0009AA304DB07FA05844E
:103A380084C4D307891C8080D4C50DD68584978516
:103A480084BE018584BE028584BE038584BE048548
:103A580084BE058584BE068584BE0785BE0867D7F3
:103A68000F00B2AFB3B5B1B7C10AA0053188CAC358
:103A7800D3D687705DC04D40BD0AA1FFC30DD6C522
:103A880002E6FA0DC10D72100100D1D6C502E6603A
:103A98006F97C10AD6C502E6BE01A0053188CAC320
:103AA800D3D687A0039A0A035D07AD1651AD185106
:103AB800AD1551AD1F51AD3051AD3B1D02AD619BF0
:103AC800643BA4029B663BC10FD6C502E6BE02A4B6
:103AD800039B663BC10FD6C502E6BE02C110D6C520
:103AE80002E6BE03A404FA76C50F70D6C502E6BE88
:103AF80002C50F60FAE8DD0F6370D6C502E6BE02A4
:103B0800DD0FC260D6C502E6BE03DD0F70D6C50262
:103B1800E6BE04DD0F60D6C502E6BE05A406FA3E81
:103B2800A402C10E70A1008080120300C78D2FC5AA
:103B3800028080B6B1B6B7B7B2C50FD687B3B6970D
:103B4800C50F80D30F44B0B180B6B1C10E70A100CB
:103B58008080D26470A100C79D04FAD9A40064B221
:103B6800B2B4B2CB0A00B1B7F4AA5D12AD0B8EDBCA
:103B7800FB708EDCFBD69A3307B6B08FA00013A675
:103B880000710B260B06711B261B06FA077104062B
:103B9800017101069C06094060310EF14D418DF41A
:103BA800710B260B06711B261B0613A802710BA9A5
:103BB80013AB0313A6F8710AE7710BE3AF310626BE
:103BC8000431172606710B26711B26AFB1B3B771E6
:103BD8000AE7710BE3717AA6714AA6713AA63167B2
:103BE800AB08A100717BA69BB93D711AA63116AA34
:103BF800043176A6F8891CD6AE055DFEF6A5B01090
:103C08000000B13106E3169A87D2891CD68770AEB8
:103C18000180309760BE01B0B16168BDE6710BE309
:103C28003126AA1B710AA61400003106E3099A87F7
:103C3800D284C46168BDF3710BE3A1009BB93DAEAA
:103C480003F6A5B0100000B13106E3169A87D289B1
:103C58001CD68770AE0180309760BE01B0B1616834
:103C6800BDE6710BE33127AA65A1009EDAFB891C2A
:103C7800CA0400D6874D00BD6B6248DAFB9D039BE2
:103C88009B3DBD039B9B3D85F6A5848EDAFB419E3B
:103C9800DAFBB0100000B13106E3169A87D2891C0E
:103CA800D68770AE0180309760BE01B0B16168BD43
:103CB800E6710BE33126AAC1710AA6140000310689
:103CC800E3099A87D284C46168BDF39B3F3C710ABB
:103CD800A61400003106E3099A87D284C46168BD3E
:103CE800F39B3F3C711AA63116AA043176A6F8AEAA
:103CF800016D01F6A5B0100000B13106E3169A87F0
:103D0800D2891CD68770AE0180309760BE01B0B1F1
:103D18006168BDE6710BE33126AA16710AA6140084
:103D2800003106E3099A87D284C46168BDF39B3FDA
:103D38003C62712AA6713BA648DAFB8D3AAD387110
:103D48005AA6B0100000B13106E3169A87D2891C32
:103D5800D68770AE0180309760BE01B0B16168BD92
:103D6800E6710BE3F4A595848EDAFB419EDAFB62DB
:103D780048DAFBAD029DC8712BA6715AA6713AA606
:103D88001400003106E3099A87D284C46168BDF340
:103D9800710BE3710AA61400003106E3099A87D271
:103DA80084C46168BDF3A101710BE3710BE7710B6A
:103DB800E3B2B2B2AFA100B59EE6FB9EE5FB16DD0D
:103DC800FB14E1FBA0049795848650BDF98EE7FBB0
:103DD800708EE8FB6168BD0A9A79409EECFB609E94
:103DE800EBFBB4AF8EE7FB708EE8FBD69A3307AFD8
:103DF800A101B39AF56551AD5CA1059A6FC851ADA3
:103E080049A1039A6FC851AD41A1049A6FC851AD39
:103E180039A1029A6FC851AD31A1009A6FC851AD4E
:103E280029A1019A6FC851AD219AF63F6168BD1A60
:103E3800A200FA0642624D049D1B629A5FC34D437D
:103E4800AD08629A5FC34D45BDEAA101739A14603B
:103E58009A5A1AFA64A1019AF56551BD5CA1059AAE
:103E68006FC84D00BD53A1039A6FC84D00BD4AA14C
:103E7800049A6FC84D00BD41A1029A6FC84D00BD9C
:103E880038A1009A6FC84D00BD2FA1019A6FC84D87
:103E980000BD269AF63F6168BD1FA200629A5FC303
:103EA8004D43AD15629A5FC34D45AD0D42624D0459
:103EB8008DEAA100A3019A1460B2AFB3728EE9FB38
:103EC800708EEAFBD6629A3307B2AFB3724D049D87
:103ED80063A1029A6FC851BD19A1059A6FC84D0018
:103EE800BD1016DDFBAA4D04AD04A104FA48A101DA
:103EF800FA44A1009A6FC851BD15A1039A6FC84D25
:103F080000BD0C16DDFBAA4D06ADE3A106FA27A1FC
:103F1800019A6FC851BD15A1049A6FC84D00BD0C18
:103F280016DDFBAA4D05ADC6A105FA0AA10016DDEE
:103F3800FBBAFA02A100B2AFB3724D049D26A102EA
:103F48009A6FC851BD04A104FA16A1009A6FC8510E
:103F5800BD04A106FA0AA1019A6FC851BD06A105C0
:103F680016DDFBBAB2AFB3728EEBFB708EECFB9B27
:103F7800CC3EB3734D049D6E9AF33F9A4A03605D3D
:103F8800034D03BD1016E1FBAB4D04AD04A104FACB
:103F980057A101FA539AF23F9A4A03605D034D0212
:103FA800BD0C16E1FBAB4D06ADE7A106FA3A9AF255
:103FB8003F9A4A03605D0351BD0C16E1FBAB4D050A
:103FC800ADCFA105FA22A1059A6FC851ADB7A103DB
:103FD8009A6FC851ADCCA1049A6FC851ADDCA1004D
:103FE80016E1FBBBFA02A100B2AF632127728EE58E
:103FF800FB708EE6FBAFB3734D049D529AF33F9A64
:104008004A03605D034D03BD08A10416E1FBBBFA3A
:104018003D9AF23F9A4A03605D034D02BD04A10632
:10402800FAE99AF23F9A4A03605D0351BD08A10577
:1040380016E1FBBBFA18A1059A6FC851ADCBA103D5
:104048009A6FC851ADD8A1049A6FC851ADE0B2AF0C
:1040580051BD059A7940FA1110A0409A9840A140A4
:104068009EEAFB609EE9FBA1409EECFB609EEBFB99
:10407800AF10F83D9A984010D33E9EEAFB609EE947
:10408800FB107A3FAF51BD0510F83DFA0310A04070
:104098009EE8FB609EE7FBAFA100AFB3B574633445
:1040A8004D04349D541D04AD2E51AD0551AD15FA86
:1040B800379A0541100100D19A0441100200D19AA3
:1040C8000A41FA2E9A0541100200D19A04411001C2
:1040D80000D19A0A41FA1B9A0541100300D13068B1
:1040E800E5FB3068E6FBFA0A9A0541100300D19A0D
:1040F80014419EE6FB609EE5FBB4B2AFD66421276F
:1041080072AF9A144130616E30616FAF307DFF300D
:104118007DFF3058E5FB3058E6FBAFB39EEEFB6001
:104128009EEDFBA1019AEACDA1029AAFD1A101129D
:1041380049469A3CD09A2A4C809A461A9A7048A1C5
:1041480080BE24B2AFB3B59A4448AD1A8EEEFBCA0E
:1041580011009ACCCAEA59028D0C9A6348A148BE4C
:104168001EA1089A18279AF1453188CA8FD5D68793
:104178005D0F4D02BD0F9A36C551BD099A7048A111
:1041880000BE1EFA559AF1453188CA8FD5D6875D8B
:104198000F4D03BD10A100A3029A0B9F51ADDD9AEC
:1041A80036C551ADD79A784D1642D89B7E079A07E7
:1041B8000F9A814EFA24A105A3009A14609A520F0F
:1041C800A1029A2D27A1049A2D27A1089A2D279A92
:1041D8008545A100BE1F8650BDF8B4B2AFA1059AAF
:1041E800324CFAD2A1069A324CFACBA1049A324C3C
:1041F800FAC4A1009A324CFABD100E4E9AAD45FA97
:10420800B59A6B45BE2C9A814E9B84419A7048A101
:10421800419A79459A24A5FA9D9A7048A1619A799C
:10422800459AD9D2FA909A804A4D0C8D06AE204D07
:10423800819D0CAE224D0C8D10AE234D818D0AA1AF
:10424800029A18279A7145FA919A194D9ACF4912EC
:104258001400D9BE2D60BE2C9A7048AE21A014312E
:1042680088BE3160BE309A2A4CCA2E00D69A7A4E41
:104278009A224DAE2E70AE2FA214D9BE2F60BE2E3C
:10428800102D499AAD451088139A4BC39AD0BA9A03
:10429800F9459BBE4110DF499AAD459BBE419A6BDB
:1042A80045BE1FFA0B9A874BBD039B874151BD0A38
:1042B8009A4A48BE1F9A4A48BE20108D4A9AAD4570
:1042C8009BBE41A1119AEA4B9BBE419A874BADDA3E
:1042D80010AD4A9AAD459BBE41A1129AEA4B9BBECE
:1042E800419A804A9A26C49AE3689AD0BA9BBE41FA
:1042F800A1109AEA4B9BBE41105C4C9AAD454D000B
:10430800AD039BBE419B844110CF4A9AAD459BBEED
:104318004110DA4A9AAD459BBE419A07509A8E459C
:104328009AAD459AD0BA9B97429A64459A8E459A17
:10433800AD459AD0BA9B9742A1019A65BA9BBE41F6
:10434800A1009A65BA9BBE419A804A4D0D8D039B88
:104358004742A0143188BE3160BE3010A94C9AADD6
:10436800459B974210094D9AAD459BBE41100F4B96
:104378009AAD459BBE419AE3689AD0BA9BBE41105C
:104388008D4B9AAD459BBE4110284D9AAD459BBEBD
:1043980041A1079AEA4B9BBE41A1089AEA4B9BBEF2
:1043A8004110524D9AAD459BBE4110864D9AAD4580
:1043B8009BBE4110A84D9AAD459BBE419A804A517B
:1043C800A200BD1C100100D19A4F4CAD089A594566
:1043D800A3019A8EC542624D048D039BBE41FAE447
:1043E800100100D19A4F4CAD089A5945A3009A8EF6
:1043F800C542624D048D039BBE41FAE4103A509ABF
:10440800AD459BBE4110A24B9AAD459AD45B9AEB41
:10441800AD9AFA9F9BBE419A804A9A3AC49A7048CC
:10442800AE209A56C49BBE41A3019A804A9AE5C41D
:10443800A20062A3009A1AC542624D048D039BBE76
:1044480041FAEF9A520F9A71459AE1C441BD039B14
:10445800E241A107A3009A14609BE2419A874BAD01
:1044680004A101FA02A1009A42C59A804A9A8DBA1B
:104478009BBE419A804A4D658D039B47429A804A6C
:10448800A0143188BE3160BE30103C4B9AAD459ABD
:10449800F9459BBE4110AF4B9AAD459BBE41A10566
:1044A8009AEA4B9BBE41A1069AEA4B9BBE419AA051
:1044B800194D03BD039BF842A1049AEA4B9BBE41E8
:1044C800A1199AEA4B9BBE41A10DA3079A1460A1BA
:1044D800029A2D27A1049A2D27A1089A2D279A70B0
:1044E800489B8741A10EA3079A14609BBE411024E4
:1044F8004B9AAD459BBE4110A54D9AAD459BBE411B
:104508009A6445D69A734E9A984510A94C9AAD4527
:104518009B9742103C4B9AAD459BBE419A874BAD49
:1045280004A101FA02A1009A12C29AFA9F9AD45BD6
:104538009BBE419AB81D9A93D29BBE41A1029A187C
:10454800279A8545A100BE1F8650BD039BE241FA0C
:10455800F3A104739A714D63BE2862AF9A2A4CCABC
:104568003000AF9A7048A101AF9A864AA100BE1EDA
:10457800AFBE1F9A7048AE1DBE209B734E9A714500
:104588009A7048A005AF9A724E9A984510EC4AAFB7
:10459800D485A000BE016097848574AE0130616C3B
:1045A8009760BE01AFB3B5B1A3019AF1453188CA8E
:1045B8008FD5D6875DF04D10BD04A300FA26A20062
:1045C800100100D160749A7048AE1D706430615853
:1045D800AD0A62B6B79A33074D00BD02A300426226
:1045E8004D048DDC63B2B4B2AF9A7048AE1EA0031E
:1045F800AF9A4A48BE2DBE2C9A4A48BE2FBE2E9A64
:104608004A48BE31BE30AFB3724D049D139A43463B
:10461800AD0E9A744836610A362D0077AE28FA0234
:10462800A100B2AFB3724D049D0F9A4346AD0A9AEA
:1046380074489A714DA100BE28B2AF9A2A4C61689D
:10464800AFB3B5749A4448BD356441AD14A1009A1E
:104658006CC4614CAD0BA1009A6CC49A2A48C9BDC0
:10466800179A2A4CCA11009AB9CA9A5848BE259A6C
:1046780070488741979BFE479A63489BFA4751BD0C
:10468800246441BD05AE2541AD14A1019A6CC461F5
:104698004CAD0BA1019A6CC49A2A48C9BDDA9A5844
:1046A80048BE26FACA874D02BD5EA100BE1D9A58B3
:1046B80048BE279A5D4841BD0AAE2641BD05AE27D2
:1046C80041AD27A1009A6CC4729A5D48614ABD2425
:1046D800A1019A6CC4729A3448614ABD17A1029A22
:1046E8006CC4729A2749614ABD0A9A6B48A10FBEE9
:1046F8001D9BFE479A7948519A7048BD039B7A469C
:10470800A1009AD5499BFA474D03BD24AE24614CBC
:10471800BD039B804664BE049A5D48BE019A344836
:10472800BE029A2749BE039A4E1A9A70489B7A4647
:104738004D04BD12644D0E8D039B8046BE059A3A0A
:104748004841979BFE479A1E48C79D099A12489A66
:1047580070489B7A469A1E48C9AD039BFA479A123D
:10476800489A3A48738EEEFB809A3D50614CBD7072
:104778009A4A48979A5048D16072AE1D706230616B
:1047880058AD1B879AB64D4D00BD139A5048D1605D
:104798007DFF729A2A4CCA1D00D687615A979A6B78
:1047A80048874D048DCEAE1D4D00AD3CAE06BE1EF5
:1047B8009A7048AE04BE249A7048A1079AD5499ABF
:1047C80001489D289A3A489A0A48AE01729A3E488A
:1047D8009A0A4862BE189A6B489A01489D0EFAE4F4
:1047E800A1049A18279A7048A148BE1E9A4A489B65
:1047F8004A47A148BE1EB4B2AFAE05728770626167
:1048080040AF610E76672D0077AF87610E76672D12
:10481800007764BE01AFAE0570A10090D28770A189
:1048280000AF70A10080D26470A100AF9A7048AE4A
:1048380026AF8EEDFB708EEEFBD687AF9A3A484DC9
:1048480000AF9A7048A100AF9A3A4872100100AFC1
:104858009A704864AF9A7048AE25AF9A7048A10024
:104868009B6F489A3A4841978EEDFB708EEEFBD6C7
:10487800AFB3B5D508009A274974A500160000B74C
:10488800B59A7448AE2674160000B7B59A7448AE47
:10489800259A1C499AA304E2E27260A0009AA30434
:1048A800DB04A1009A6CC472A1019A6CC473A102C2
:1048B8009A6CC47463160000B7B57462B7B59A1CD5
:1048C800499AA304E2E27260A0009AA304B6B6B3C0
:1048D800B1DD04B3B1DD04DF9D32DD04B3B11000F6
:1048E80000B1A004B1DD08E1DF8D21DD006074DDD9
:1048F80004643061185172100100D19A284CCA1D05
:1049080000D6627087616897A101FA02A100D708F2
:1049180000B4B2AF1200007063E2E260A000AF9A88
:104928007048AE27AFB3B574A00160759AD949D263
:104938006570649A0FBD9AA0194D06AD0F9AA0191B
:104948004D05AD08649A90C34D049D30649A7FC2AA
:1049580072A3009A004DC9648D169A7FC2729A009C
:104968004D30611A303D00D26570649A25BEFA1246
:104978009A7FC2A00172649A25BEFA069A794A9A69
:1049880025BE9AD9496168AD2EAE2E70AE2F6168EA
:10499800AD12AE2FA20A31829ACE49CF6073649AC3
:1049A80038C1FA199ACF49A20A31829ACE49CF6002
:1049B80073649A38C1FA0664A30A9A38C19A70488F
:1049C80066610C9BA14AD2AE2C70AE2DAF979B703E
:1049D800489A70489BCF49B3B574A3009AB6C59A54
:1049E800784D1D11AD1651AD2D51AD381D0FAD4986
:1049F8001D2AAD6951AD6E51AD53FA7164A3019A88
:104A0800C3C364A3009A06C49AD45B9AEBAD9AD048
:104A1800BAA101B4B2AF64A3029AC3C364A3009A53
:104A280006C4FAE464A3049AC3C39A794A9A25BED1
:104A3800641200009A7ABEFACF64A3019AB6C564DC
:104A4800A3079AC3C364A3009A06C4FABB64A3036A
:104A58009AC3C39A804A73649A06C4FAAB64A305DE
:104A68009AC3C3FAA364A3069AC3C3FA9BA100FA24
:104A7800A264A001120000AF9A864AAE1FAF8EED65
:104A8800FB709B7448B3B5749A17509ACDBE9AC6FA
:104A98004AA1019A42BF9BA84A9A0C48A119BE286C
:104AA800A101B4B2AFB3B5749A804A726473A1021B
:104AB8009ACDBE9AC64AA1029A42BF9BA84A9A704A
:104AC80048AE20726473AFB39AE54A9A37C2A1011F
:104AD800B2AFB39AE54A9A63C2A101B2AF729A80A3
:104AE8004A7362AFB39A774D4D1DAD084D1EAD04A4
:104AF800A100FA11629AC96D4D00BD079A4C4DA1EB
:104B080019BE28A101B2AF9A784D4D26AD0B4D279D
:104B1800AD074D28AD03A100AFA101AFB39A774D02
:104B28004D29AD084D56BD08629A999FA101B2AFB3
:104B3800A100FAFAB3B5749A784D4D24BD0D9A03C5
:104B48004DD2649AE9C2A101B4B2AF9A784D4D4AE8
:104B5800BD0A9A034DD2649A7ABEFAEA4D5CBD1B2F
:104B6800AE1F73649A1BC39A874B64AD07A3029A5E
:104B7800B6C5FAD2A3009AB6C5FACBA100FAC99A6B
:104B8800804A4D00AF9A784D4D2DAD0B4D2EAD0797
:104B98004D2FAD03A100AFA101AFB39A774D73625A
:104BA8009A6FC3A101B2AFB39A774D4D44BD086265
:104BB8009A75A5A101B2AF9A784D4D4BBD13AE1FA2
:104BC8004D00AD04A101FA02A10073629AB2C4FAC1
:104BD800E24D4FBD09AE1F73629A43C7FAD5A100D3
:104BE800FAD3B3B7B773A100C3019A2A4CD302C151
:104BF8000172100100D19A284CD6AE1D7062306146
:104C080058AD06C502D663BE28891CD6AE0141BE82
:104C180001C50280D302C1014D048DD3B0B0B2AF3B
:104C280060728EEDFB708EEEFBAFB3B574A2001010
:104C38000100D19A4F4CAD066473629AA340426258
:104C48004D048DEBB4B2AF60739A7048AE1D7063BB
:104C5800306158AFB3729AC96D4D00AD04A100FA26
:104C6800389AA34C318707A3019A64C1FA05A300B7
:104C78009A64C19AA34C319707A3019AE3C1FA0534
:104C8800A3009AE3C19AA34C31A707A3019A9FC135
:104C9800FA05A3009A9FC1A101B2AF9A734ED662DA
:104CA800AFB3B5B7749A13BED2649A7FC2A000613D
:104CB8000A30612BB6B19A004DD2B0B1C98D19A096
:104CC8000160759A034DD6B0B130611E30613FD294
:104CD8006570649A25BEFA069A794A9A25BE9AF8AA
:104CE8004C9A9FC29AF84C9ABBC2A101B2B4B2AF17
:104CF8009A7048AE307364AF9A7048AE3070AE3177
:104D0800AFB3B5728EEDFB709A194D66610A9BA11F
:104D18004A8EEEFBCA2C009A724E9A98459B7048B0
:104D2800B39AE54A9A27C09AE64A9A7FC09A7E4D76
:104D38009A53C09A7E4D9AABC09A4C4DA10CBE288E
:104D4800A101B2AF9A70489B714DB39AE54A9A2770
:104D5800C09A7E4D9A53C09A784D4D33BD079A71CB
:104D68004DA10CBE28A101B2AF66610A9B0C487226
:104D78009A7048AE1EAF9A7048AE207362AFB39A6D
:104D8800E54A9A7FC09A7E4D9AABC09A784D4D34C9
:104D9800BD079A714DA10DBE28A101B2AFA101AF07
:104DA800B3729A7048629A0A48A1099B464DB37239
:104DB8009A7048AE074D208D3C6273A1019AB1C725
:104DC8009A054EAD306273A1029AB1C79A054EADED
:104DD800246273A1039AB1C79A054EAD186273A1F4
:104DE800049AB1C79A054EAD0C6273A1059AB1C772
:104DF8009A0E50BD04A101FA02A100B2AF739A70D5
:104E080048AE07614BAFB3B5749A734ED68741ADC0
:104E18000987726473A1019AD4C79A2A4CCA2000E0
:104E2800D68741AD0987726473A1029AD4C79A2ABA
:104E38004CCA2100D68741AD0987726473A1039AD1
:104E4800D4C79A7A4ED68741AD0987726473A10494
:104E58009AD4C79A2A4CCA2300D68741AD098772CB
:104E68006473A1059AD4C79BA84AD69A2A4CCA1F2C
:104E780000AF9A2A4CCA2200AFB3B59A7048AE2C3C
:104E880051AD1E51AD7351BD039B1E4F51AD6A51BB
:104E9800BD039B464F51AD6151BD039B8C4F9BF9A0
:104EA8004FA1049AEA4B9A00509A4EA9A10DA30764
:104EB8009A14609A6BBB51BD04A401FA02A4009A2B
:104EC8002A4CCA0F00D664618C71B19A4A48BE2E2A
:104ED8009A0750D49A784D4D09BD0CAE074D209DC8
:104EE8000EA102959BBB4F4D0ABD0AA106FAF4A17B
:104EF80004959BBB4FA100FAEAA400649AC96D4DC2
:104F080000AD039BF94F44644D048DEF9A0750D6CA
:104F18008741979BBB4FA4009AFC4FD19A2050BD64
:104F280015649AC96D4D00AD0D9A17509AD4C79A59
:104F3800FC4FD19A2C5044644D049D77FADAA400B2
:104F4800FA196473A1019AB1C79A0E50AD079AFC79
:104F58004FD19A2C5044644D049D589AFC4FD19AD5
:104F68002050BDDE6473A1019AB1C79A0E50BDD21C
:104F7800649AC96D4D00ADCA9A17509AD4C79AFC65
:104F88004FD1FACEA4006473A1019AB1C74D206431
:104F98009D139AC96D4D00AD149A17509AD4C79AAB
:104FA800FC4FD1FA0572100100D19A2C5044644D7F
:104FB800048DD39A00509A54A94D0B9D289A704895
:104FC800AE2E4D0FAD1F8EEEFBCA0F00D631B606C2
:104FD8009A6BBB51AD0FA1019AF56551AD079A784F
:104FE8004D4D0BBD0CA10EA3079A14609A4A48BEFA
:104FF8002CB4B2AF649B53489A2A4CCA2D00AF9A7E
:105008002A4CCA2C00AF729A7048AE07614AAF9A10
:10501800804A726473A101AF9A284CD6AE2E706292
:10502800306158AF9A284CCA2E00D66270876168E2
:1050380097AFA101AFB3B5B7D663A2004D00AD23BA
:10504800C301876172A008625D804D0062AD0527CB
:105058007DA5FA01277250BDEE86891C80D4855142
:1050680095BDDF62B2B4B2AFA100B3B5B7C3011248
:10507800EFFB14F7FBC1019A90C31D02AD1F51ADA0
:105088004251AD2C51AD4F51AD5FA154B3B6BE01E5
:10509800A11F97A154B5B6BE01A15DFA5DA154B395
:1050A800B6BE01A19B97A155B5B6BE01A101FA4AAA
:1050B800A156B3B6BE01A15F97A156B5B6BE01A170
:1050C80082FA37A155B3B6BE01A1C497A156B5B6A9
:1050D800BE01A116FA24A157B3B6BE01A11797A124
:1050E80057B5B6BE01A148FA11A156B3B6BE01A183
:1050F800A197A156B5B6BE01A1DC97891CD6AE0111
:1051080041BE01848482824D049D039B7D50B0B4CE
:10511800B2AFB3B5D4B5B6AE0670AE076168C4AD6C
:105128000FD2B5B6AE0670AE07D6C29A3307FA03E9
:105138009A5A51C4CA0800D4854D05AD0C4D06AD28
:10514800084D09AD044D07BD04A101FA02A100B440
:10515800B2AFB5D4B5B69A98538D3B859A199D4D83
:1051680000AD22859A99C74D00BD09A158B5B69AD8
:10517800ED52FA07A159B5B69A1A54BE06A104B55C
:10518800B6BE08FA09A158B5B69AED52BE069AF904
:10519800589AB9CAB4AFB5B69AFC548D2E859A19E7
:1051A8009D4D00AD17859A2CC751BD10A104B5B609
:1051B800BE08A159B5B6BE07A112FAD085A0023122
:1051C800889AF252B5B6BE0760FAC1B5B69A62556A
:1051D8008DC2859A199D4D00AD07859A2CC751AD92
:1051E800CB85A0023188CAF7FB9AF552B5B6BE073F
:1051F80060FA99B5D4B5B69A98538D3A9A99AD4D47
:1052080000BD22859A99C74D00BD09A158B5B69A27
:10521800ED52FA07A159B5B69A1A54BE06A104B5BB
:10522800B6BE08FA09A158B5B69AED52BE069AF963
:10523800589AB9CAFA33B5B69AFC548D1285A002A9
:1052480031889AF252B5B69AF4589AB9CAFA1AB588
:10525800B69A62558D1385A0023188CAF7FB9AF574
:1052680052B5B69AF4589AB9CAB4AFB5D4B5B69A85
:1052780098538D279A99AD4D00BD0FA104B5B6BEC0
:1052880008A159B5B69A1A54FA07A158B5B69AEDB5
:1052980052BE069AF9589AB9CAB4AFB5B69AFC5430
:1052A8008D1285A00231889AF252B5B69AF4589AAE
:1052B800B9CAFAE5B5B69A62558DDE859A199D4D3B
:1052C80002BD10A106B5B6BE08A15AB5B6BE07A163
:1052D80082FABE85A0023188CAF7FB9AF552B5B6A4
:1052E800BE0760FAACBE07A105AFCAEFFBD6877050
:1052F800AE01AFB5D4B5B69A98538D28859A199D45
:105308004D00AD0FA104B5B6BE08A159B5B69A1A9D
:1053180054FA07A158B5B69AED52BE069AF9589AAA
:10532800B9CAB4AFB5B69AFC548D2E859A199D4D5D
:1053380000AD17859A2CC751BD10A104B5B6BE089B
:10534800A159B5B6BE07A112FAD085A00231889A34
:10535800F252B5B6BE0760FAC1B5B69A62558DC2AB
:10536800859A199D51BD07859A2CC751ADCC859A50
:10537800199D4D02BD10A106B5B6BE08A15AB5B615
:10538800BE07A182FA94A155B5B6BE07A167FA8AED
:10539800AE034D03AFB5D6B7B48484854D038D07EE
:1053A8009A5456BE06FA04679AFB52B4AFB5D4B500
:1053B800B69A98538D09A159B5B69A1A54FA4FB5A9
:1053C800B69AFC548D20859A199D4D00AD09A159B6
:1053D800B5B69A1156FA3785A00231889AF252B5B5
:1053E800B6BE0760FA28B5B69A62558D23859A1914
:1053F8009D4D00AD09A159B5B69A5A56FA1085A027
:10540800023188CAF7FB9AF552B5B6BE0760BE06E8
:10541800B4AFBE07A187AFB5D4B5B69AFC548D27F3
:10542800B5B69A0058BD20A105B5B6BE08859A3E06
:105438009D51BD0AA159B5B6BE07A195FA13A15948
:10544800B5B69A1156FA0AB5B69AEE58B5B6BE0769
:1054580060BE06B4AFB5D4B5B69A62558D27B5B659
:105468009AAA57BD20A106B5B6BE08859A2F9D51A8
:10547800BD0AA159B5B6BE07A1D0FA13A159B5B650
:105488009A5A56FA0AB5B69AEE58B5B6BE0760BE2D
:1054980006B4AFB59AA5579ACCCAEA5F018D27B56D
:1054A800B69AFC548D20A105B5B6BE08859A3E9DD6
:1054B80051BD0AA159B5B6BE07A195FA33A159B590
:1054C800B69A1156FA2AB5B69AAA57BD12A105B5C9
:1054D800B6BE08B5B69AEE58B5B6BE0760FA11B5AD
:1054E800B69A62558D0CB5B69AEE58B5B6BE076039
:1054F800BE06B4AFAE014D03AFB59AA5579ACCCA54
:10550800EA5F018D27B5B69A62558D20A106B5B61A
:10551800BE08859A2F9D51BD0AA159B5B6BE07A1EF
:10552800D0FA33A159B5B69A5A56FA2AB5B69A009E
:1055380058BD12A106B5B6BE08B5B69AEE58B5B6AE
:10554800BE0760FA11B5B69AFC548D0CB5B69AEE42
:1055580058B5B6BE0760BE06B4AFAE024D03AFB5D0
:105568009AA5579ACCCAEA5F018D27B5B69A6255B3
:105578008D20A109B5B6BE08859A2F9D51BD0AA1F7
:1055880059B5B6BE07A1D0FA2FA159B5B69A5A5641
:10559800FA26B5B69A0058BD10A109B5B6BE08A13D
:1055A80053B5B6BE07A19DFA0FB5B69AFC548D0A3D
:1055B800A153B5B6BE07A19DBE06B4AFB3B5D4B569
:1055C800B69AFC548D34B5B69A0058BD2D859A3ECE
:1055D8009D51BD1D859AF6C372859A9D9D61429D18
:1055E80010A105B5B6BE08A15AB5B6BE07A10BFAFB
:1055F80013A159B5B69A1156FA0AB5B69AEE58B526
:10560800B6BE0760BE06B4B2AFBE07A16AAFB5D4D6
:10561800B5B69A62558D27B5B69AAA57BD20859A10
:105628002F9D51BD10A106B5B6BE08A15AB5B6BE8C
:1056380007A14EFA13A159B5B69A5A56FA0AB5B641
:105648009AEE58B5B6BE0760BE06B4AFA106BE084E
:10565800A159BE07A179AFB5D6B7B484854D038DDE
:1056680012B7B49AB35ABD0BA105BE08A1599A1135
:1056780056FA039A3B57BE06B4AFB5D6B7B484847E
:10568800854D038D0DB7B484854D00BD059A5456DC
:10569800FA039A3F57BE06B4AFB5D4B5B69AFC54D0
:1056A8008D1EB5B69A0058BD17A105B5B6BE0865DA
:1056B800CA09009AB9CAA15AB5B6BE07A1B9FA1063
:1056C800A104B5B6BE08B5B69AEE58B5B6BE076021
:1056D800BE06B4AFB5D4B5B69A62558D1EB5B69AA6
:1056E800AA57BD17A106B5B6BE0865CA09009AB97A
:1056F800CAA15AB5B6BE07A1E2FA10A104B5B6BE52
:1057080008B5B69AEE58B5B6BE0760BE06B4AFB5D2
:10571800D6B7B484854D038D13B7B49AB35ABD0C6C
:10572800A105BE08A15ABE07A195FA039A3B57BE28
:1057380006B4AFA104BE08AE0470AE05BE0760AFE4
:10574800B5D6B7B48484854D038D14B7B484854D1C
:1057580000BD0CA106BE08A15ABE07A1A4FA039A6F
:105768003B57BE06B4AFB59AA5579ACCCAEAF5011D
:105778008D16B5B69AFC548D0FA105B5B6BE08A115
:1057880059B5B69A1156FA11B5B69AAA57BD0CB5BD
:10579800B69AEE58B5B6BE0760BE06B4AFD4CA090D
:1057A80000AFAE014D00AFB59AA5579ACCCAEAF53D
:1057B800018D30B5B69A62558D29B5B69AEE58EA7C
:1057C800FB52BD10A109B5B6BE08A15AB5B6BE07B1
:1057D800A182FA20A106B5B6BE08A159B5B69A5A53
:1057E80056FA11B5B69A0058BD0CB5B69AEE58B52A
:1057F800B6BE0760BE06B4AFAE024D00AFB5D4B5B5
:10580800B6AE034D00BD1B859A99C751BD149AF9D0
:10581800589ACCCAEAD0079D09A107B5B6BE089B1D
:10582800E058B5B69A98538D339AF9589ACCCAEA83
:10583800D1078D28859A99C751BD21859A4D9D4DCF
:10584800068D19859AF09D4D00BD11A111B5B6BE02
:1058580008A158B5B6BE07A1FE9BEA589A36C551AD
:10586800BD149AF9589ACCCAEAA00F8D09A159B566
:10587800B69A1A54FA6CB5B69A98538D2A9AF9586A
:105888009ACCCAEA71178D1F859A99C74D00AD0742
:10589800859AF39E51BD10A114B5B6BE08A15BB59B
:1058A800B6BE07A10BFA3BB5B69A98538D229AF962
:1058B800589ACCCAEA71178D17859AF09D51BD1078
:1058C800A113B5B6BE08A158B5B6BE07A1FEFA1217
:1058D800B5B6AE034D00BD0CB5B69AEE58B5B6BE1A
:1058E8000760BE06B4AFAE0470AE05AFBE0760BEBB
:1058F80006C4CA0900AFB5D6CA0800D4854D00BD94
:1059080007A1599A1A54BE06B4AFB59AA5579ACCAE
:10591800CAEAE9038D16B5B6AE02B5B6864FAD0C28
:10592800B5B69AEE58B5B6BE0760FA32B5B69AAAB9
:1059380057BD19B5B69A0058BD26A104B5B6BE081C
:10594800B5B69AEE58B5B6BE0760FA124D038D107B
:10595800B5B69A62558D09A159B5B69A1A54BE06BC
:10596800B4AFB5D6B7B484854D00BD039ACE5BB449
:10597800AFB5D6B7B49AB35ABD039ACE5BB4AFB538
:10598800D6B7B49AB25ABD039ACE5BB4AFB5D4B504
:10599800B69AAA57BD12A104B5B6BE08B5B69AEE16
:1059A80058B5B6BE0760FA1C859A3E9D4D00BD16D7
:1059B800A104B5B6BE089AF9589AB9CAA157B5B69E
:1059C800BE07A16EBE06B4AFB5D4B5B69A0058BD31
:1059D80012A104B5B6BE08B5B69AEE58B5B6BE075C
:1059E80060FA1C859A2F9D4D00BD16A104B5B6BE60
:1059F800089AF9589AB9CAA157B5B6BE07A1AFBE59
:105A080006B4AFB3B5D4B5B69AAA57BD12A104B5BA
:105A1800B6BE08B5B69AEE58B5B6BE0760FA228586
:105A28009A3E9D4D00AD0D859AF6C372859A9D9D4F
:105A380061428D0FA104B5B6BE08A159B5B69A1139
:105A480056BE06B4B2AFB5D4B5B69A0058BD12A1C9
:105A580004B5B6BE08B5B69AEE58B5B6BE0760FA34
:105A680015859A2F9D4D00BD0FA104B5B6BE08A19E
:105A780059B5B69A5A56BE06B4AFB5D6B7B49AB3A6
:105A88005ABD08A153BE07A19DBE06B4AFB5D6B78F
:105A9800B484854D00BD039ACA5BB4AFB5D6B7B41C
:105AA8009AB35ABD039ACA5BB4AF848484854D0007
:105AB800AFB5D4B5B69AAA57BD1E65CA09009ACC27
:105AC800CAEAD0079D06A104B5B6BE08B5B69AEED7
:105AD80058B5B6BE0760BE06B4AFB5D4B5B69A0021
:105AE80058BD1E65CA09009ACCCAEAD0079D06A10E
:105AF80004B5B6BE08B5B69AEE58B5B6BE0760BED0
:105B080006B4AFB5D6B7B49AB25ABD08A15BBE0702
:105B1800A11EBE06B4AFB3B5D4B5B69A62558D1002
:105B2800B5B6AE084D06AD08A106B5B6BE08FA442E
:105B3800B5B69A98538D27A115B5B6BE08859A9023
:105B4800C34D049D10A15BB5B6BE07A17F9AF75857
:105B58009AB9CAFA1FA159B5B69A1A54FA14A301E8
:105B6800859A0B9F4D00BD0CB5B69AEE58B5B6BEDA
:105B78000760BE06B4B2AFB5D4D6AE084D00BD1CA2
:105B880065CA09009ACCCAEAD1078D10A116B5B624
:105B9800BE08A15BB5B6BE07A1BAFA12B5B6AE0388
:105BA8004D00BD0CB5B69AEE58B5B6BE0760BE0638
:105BB800B4AFB5D6B7B49AB25ABD05A1179ACC5BA3
:105BC800B4AFA104BE089A3F57BE06AFB3B7132FB0
:105BD800081322FF9AE3689A70501633F0718316FF
:105BE80040F0A00CA100978650BDF972B01051F09A
:105BF800B1B0B1CAFCFFD66297A1009E3AF0B6B721
:105C0800BE04629AA1C551BD0AA152B6B7BE01A190
:105C1800FBFA1A629A90C34D03BD0AA153B6B7BEE8
:105C280001A1B5FA08A151B6B7BE01A15A97B6B7F6
:105C38008770AE01BE0360BE0242B0B1CA0B00B6A7
:105C4800B1624D048DAB9A06C251BD0510595FFA79
:105C58000E8E93F0708E94F06168BD0A107D5C9E84
:105C680094F0609E93F0B0B2AF8E93F0708E94F083
:105C7800D69A3307AFB3B5B7F0029A7269683AF0AB
:105C88009E3BF0A200629AF15C629A635D42624DAB
:105C98000C8DF2A200B01040F0B1144EF0B0B1D6A5
:105CA8008795AE04B5B6BE01B0B1D6AE08B5B6BEDE
:105CB80002629A5FC34D45AD1C629A5FC34D43AD06
:105CC80014C4909A1A5151BD0C100100D18E39F0AC
:105CD80061689E39F0C442CA0B00D4B0B180B6B135
:105CE800624D048DB8B0B4B2AFB3721604D99B7EBE
